{
  "contractName": "Achievements",
  "abi": [
    {
      "inputs": [
        {
          "internalType": "string",
          "name": "token",
          "type": "string"
        },
        {
          "internalType": "string",
          "name": "ticker",
          "type": "string"
        }
      ],
      "stateMutability": "nonpayable",
      "type": "constructor"
    },
    {
      "anonymous": false,
      "inputs": [
        {
          "indexed": true,
          "internalType": "address",
          "name": "owner",
          "type": "address"
        },
        {
          "indexed": true,
          "internalType": "address",
          "name": "approved",
          "type": "address"
        },
        {
          "indexed": true,
          "internalType": "uint256",
          "name": "tokenId",
          "type": "uint256"
        }
      ],
      "name": "Approval",
      "type": "event"
    },
    {
      "anonymous": false,
      "inputs": [
        {
          "indexed": true,
          "internalType": "address",
          "name": "owner",
          "type": "address"
        },
        {
          "indexed": true,
          "internalType": "address",
          "name": "operator",
          "type": "address"
        },
        {
          "indexed": false,
          "internalType": "bool",
          "name": "approved",
          "type": "bool"
        }
      ],
      "name": "ApprovalForAll",
      "type": "event"
    },
    {
      "anonymous": false,
      "inputs": [
        {
          "indexed": true,
          "internalType": "uint256",
          "name": "achievementId",
          "type": "uint256"
        },
        {
          "indexed": true,
          "internalType": "address",
          "name": "user",
          "type": "address"
        },
        {
          "indexed": false,
          "internalType": "string",
          "name": "content",
          "type": "string"
        }
      ],
      "name": "LogNewAchievement",
      "type": "event"
    },
    {
      "anonymous": false,
      "inputs": [
        {
          "indexed": true,
          "internalType": "address",
          "name": "from",
          "type": "address"
        },
        {
          "indexed": true,
          "internalType": "address",
          "name": "to",
          "type": "address"
        },
        {
          "indexed": true,
          "internalType": "uint256",
          "name": "tokenId",
          "type": "uint256"
        }
      ],
      "name": "Transfer",
      "type": "event"
    },
    {
      "inputs": [],
      "name": "achievementIndex",
      "outputs": [
        {
          "internalType": "uint256",
          "name": "",
          "type": "uint256"
        }
      ],
      "stateMutability": "view",
      "type": "function"
    },
    {
      "inputs": [
        {
          "internalType": "uint256",
          "name": "",
          "type": "uint256"
        }
      ],
      "name": "achievements",
      "outputs": [
        {
          "internalType": "enum Achievements.Action",
          "name": "action",
          "type": "uint8"
        },
        {
          "internalType": "uint256",
          "name": "occurrences",
          "type": "uint256"
        }
      ],
      "stateMutability": "view",
      "type": "function"
    },
    {
      "inputs": [
        {
          "internalType": "address",
          "name": "to",
          "type": "address"
        },
        {
          "internalType": "uint256",
          "name": "tokenId",
          "type": "uint256"
        }
      ],
      "name": "approve",
      "outputs": [],
      "stateMutability": "nonpayable",
      "type": "function"
    },
    {
      "inputs": [
        {
          "internalType": "address",
          "name": "owner",
          "type": "address"
        }
      ],
      "name": "balanceOf",
      "outputs": [
        {
          "internalType": "uint256",
          "name": "",
          "type": "uint256"
        }
      ],
      "stateMutability": "view",
      "type": "function"
    },
    {
      "inputs": [],
      "name": "baseURI",
      "outputs": [
        {
          "internalType": "string",
          "name": "",
          "type": "string"
        }
      ],
      "stateMutability": "view",
      "type": "function"
    },
    {
      "inputs": [
        {
          "internalType": "uint256",
          "name": "tokenId",
          "type": "uint256"
        }
      ],
      "name": "getApproved",
      "outputs": [
        {
          "internalType": "address",
          "name": "",
          "type": "address"
        }
      ],
      "stateMutability": "view",
      "type": "function"
    },
    {
      "inputs": [
        {
          "internalType": "address",
          "name": "owner",
          "type": "address"
        },
        {
          "internalType": "address",
          "name": "operator",
          "type": "address"
        }
      ],
      "name": "isApprovedForAll",
      "outputs": [
        {
          "internalType": "bool",
          "name": "",
          "type": "bool"
        }
      ],
      "stateMutability": "view",
      "type": "function"
    },
    {
      "inputs": [],
      "name": "name",
      "outputs": [
        {
          "internalType": "string",
          "name": "",
          "type": "string"
        }
      ],
      "stateMutability": "view",
      "type": "function"
    },
    {
      "inputs": [
        {
          "internalType": "uint256",
          "name": "tokenId",
          "type": "uint256"
        }
      ],
      "name": "ownerOf",
      "outputs": [
        {
          "internalType": "address",
          "name": "",
          "type": "address"
        }
      ],
      "stateMutability": "view",
      "type": "function"
    },
    {
      "inputs": [],
      "name": "predictionMarket",
      "outputs": [
        {
          "internalType": "contract PredictionMarketV2",
          "name": "",
          "type": "address"
        }
      ],
      "stateMutability": "view",
      "type": "function"
    },
    {
      "inputs": [],
      "name": "realitioERC20",
      "outputs": [
        {
          "internalType": "contract RealitioERC20",
          "name": "",
          "type": "address"
        }
      ],
      "stateMutability": "view",
      "type": "function"
    },
    {
      "inputs": [
        {
          "internalType": "address",
          "name": "from",
          "type": "address"
        },
        {
          "internalType": "address",
          "name": "to",
          "type": "address"
        },
        {
          "internalType": "uint256",
          "name": "tokenId",
          "type": "uint256"
        }
      ],
      "name": "safeTransferFrom",
      "outputs": [],
      "stateMutability": "nonpayable",
      "type": "function"
    },
    {
      "inputs": [
        {
          "internalType": "address",
          "name": "from",
          "type": "address"
        },
        {
          "internalType": "address",
          "name": "to",
          "type": "address"
        },
        {
          "internalType": "uint256",
          "name": "tokenId",
          "type": "uint256"
        },
        {
          "internalType": "bytes",
          "name": "_data",
          "type": "bytes"
        }
      ],
      "name": "safeTransferFrom",
      "outputs": [],
      "stateMutability": "nonpayable",
      "type": "function"
    },
    {
      "inputs": [
        {
          "internalType": "address",
          "name": "operator",
          "type": "address"
        },
        {
          "internalType": "bool",
          "name": "approved",
          "type": "bool"
        }
      ],
      "name": "setApprovalForAll",
      "outputs": [],
      "stateMutability": "nonpayable",
      "type": "function"
    },
    {
      "inputs": [
        {
          "internalType": "bytes4",
          "name": "interfaceId",
          "type": "bytes4"
        }
      ],
      "name": "supportsInterface",
      "outputs": [
        {
          "internalType": "bool",
          "name": "",
          "type": "bool"
        }
      ],
      "stateMutability": "view",
      "type": "function"
    },
    {
      "inputs": [],
      "name": "symbol",
      "outputs": [
        {
          "internalType": "string",
          "name": "",
          "type": "string"
        }
      ],
      "stateMutability": "view",
      "type": "function"
    },
    {
      "inputs": [
        {
          "internalType": "uint256",
          "name": "index",
          "type": "uint256"
        }
      ],
      "name": "tokenByIndex",
      "outputs": [
        {
          "internalType": "uint256",
          "name": "",
          "type": "uint256"
        }
      ],
      "stateMutability": "view",
      "type": "function"
    },
    {
      "inputs": [
        {
          "internalType": "address",
          "name": "owner",
          "type": "address"
        },
        {
          "internalType": "uint256",
          "name": "index",
          "type": "uint256"
        }
      ],
      "name": "tokenOfOwnerByIndex",
      "outputs": [
        {
          "internalType": "uint256",
          "name": "",
          "type": "uint256"
        }
      ],
      "stateMutability": "view",
      "type": "function"
    },
    {
      "inputs": [
        {
          "internalType": "uint256",
          "name": "tokenId",
          "type": "uint256"
        }
      ],
      "name": "tokenURI",
      "outputs": [
        {
          "internalType": "string",
          "name": "",
          "type": "string"
        }
      ],
      "stateMutability": "view",
      "type": "function"
    },
    {
      "inputs": [
        {
          "internalType": "uint256",
          "name": "",
          "type": "uint256"
        }
      ],
      "name": "tokens",
      "outputs": [
        {
          "internalType": "uint256",
          "name": "",
          "type": "uint256"
        }
      ],
      "stateMutability": "view",
      "type": "function"
    },
    {
      "inputs": [],
      "name": "totalSupply",
      "outputs": [
        {
          "internalType": "uint256",
          "name": "",
          "type": "uint256"
        }
      ],
      "stateMutability": "view",
      "type": "function"
    },
    {
      "inputs": [
        {
          "internalType": "address",
          "name": "from",
          "type": "address"
        },
        {
          "internalType": "address",
          "name": "to",
          "type": "address"
        },
        {
          "internalType": "uint256",
          "name": "tokenId",
          "type": "uint256"
        }
      ],
      "name": "transferFrom",
      "outputs": [],
      "stateMutability": "nonpayable",
      "type": "function"
    },
    {
      "inputs": [
        {
          "internalType": "contract PredictionMarketV2",
          "name": "_predictionMarket",
          "type": "address"
        },
        {
          "internalType": "contract RealitioERC20",
          "name": "_realitioERC20",
          "type": "address"
        }
      ],
      "name": "setContracts",
      "outputs": [],
      "stateMutability": "nonpayable",
      "type": "function"
    },
    {
      "inputs": [
        {
          "internalType": "string",
          "name": "_baseURI",
          "type": "string"
        }
      ],
      "name": "setBaseURI",
      "outputs": [],
      "stateMutability": "nonpayable",
      "type": "function"
    },
    {
      "inputs": [
        {
          "internalType": "enum Achievements.Action",
          "name": "action",
          "type": "uint8"
        },
        {
          "internalType": "uint256",
          "name": "occurrences",
          "type": "uint256"
        },
        {
          "internalType": "string",
          "name": "content",
          "type": "string"
        }
      ],
      "name": "createAchievement",
      "outputs": [
        {
          "internalType": "uint256",
          "name": "",
          "type": "uint256"
        }
      ],
      "stateMutability": "nonpayable",
      "type": "function"
    },
    {
      "inputs": [
        {
          "internalType": "address",
          "name": "user",
          "type": "address"
        },
        {
          "internalType": "uint256",
          "name": "achievementId",
          "type": "uint256"
        }
      ],
      "name": "hasUserClaimedAchievement",
      "outputs": [
        {
          "internalType": "bool",
          "name": "",
          "type": "bool"
        }
      ],
      "stateMutability": "view",
      "type": "function"
    },
    {
      "inputs": [
        {
          "internalType": "address",
          "name": "user",
          "type": "address"
        },
        {
          "internalType": "uint256",
          "name": "marketId",
          "type": "uint256"
        }
      ],
      "name": "hasUserPlacedPrediction",
      "outputs": [
        {
          "internalType": "bool",
          "name": "",
          "type": "bool"
        }
      ],
      "stateMutability": "view",
      "type": "function"
    },
    {
      "inputs": [
        {
          "internalType": "address",
          "name": "user",
          "type": "address"
        },
        {
          "internalType": "uint256",
          "name": "marketId",
          "type": "uint256"
        }
      ],
      "name": "hasUserAddedLiquidity",
      "outputs": [
        {
          "internalType": "bool",
          "name": "",
          "type": "bool"
        }
      ],
      "stateMutability": "view",
      "type": "function"
    },
    {
      "inputs": [
        {
          "internalType": "address",
          "name": "user",
          "type": "address"
        },
        {
          "internalType": "uint256",
          "name": "marketId",
          "type": "uint256"
        },
        {
          "internalType": "bytes32[]",
          "name": "history_hashes",
          "type": "bytes32[]"
        },
        {
          "internalType": "address[]",
          "name": "addrs",
          "type": "address[]"
        },
        {
          "internalType": "uint256[]",
          "name": "bonds",
          "type": "uint256[]"
        },
        {
          "internalType": "bytes32[]",
          "name": "answers",
          "type": "bytes32[]"
        }
      ],
      "name": "hasUserPlacedBond",
      "outputs": [
        {
          "internalType": "bool",
          "name": "",
          "type": "bool"
        }
      ],
      "stateMutability": "view",
      "type": "function"
    },
    {
      "inputs": [
        {
          "internalType": "address",
          "name": "user",
          "type": "address"
        },
        {
          "internalType": "uint256",
          "name": "marketId",
          "type": "uint256"
        }
      ],
      "name": "hasUserClaimedWinnings",
      "outputs": [
        {
          "internalType": "bool",
          "name": "",
          "type": "bool"
        }
      ],
      "stateMutability": "view",
      "type": "function"
    },
    {
      "inputs": [
        {
          "internalType": "address",
          "name": "user",
          "type": "address"
        },
        {
          "internalType": "uint256",
          "name": "marketId",
          "type": "uint256"
        }
      ],
      "name": "hasUserCreatedMarket",
      "outputs": [
        {
          "internalType": "bool",
          "name": "",
          "type": "bool"
        }
      ],
      "stateMutability": "view",
      "type": "function"
    },
    {
      "inputs": [
        {
          "internalType": "uint256",
          "name": "achievementId",
          "type": "uint256"
        },
        {
          "internalType": "uint256[]",
          "name": "marketIds",
          "type": "uint256[]"
        }
      ],
      "name": "claimAchievement",
      "outputs": [
        {
          "internalType": "uint256",
          "name": "",
          "type": "uint256"
        }
      ],
      "stateMutability": "nonpayable",
      "type": "function"
    },
    {
      "inputs": [
        {
          "internalType": "uint256",
          "name": "achievementId",
          "type": "uint256"
        },
        {
          "internalType": "uint256[]",
          "name": "marketIds",
          "type": "uint256[]"
        },
        {
          "internalType": "uint256[]",
          "name": "lengths",
          "type": "uint256[]"
        },
        {
          "internalType": "bytes32[]",
          "name": "history_hashes",
          "type": "bytes32[]"
        },
        {
          "internalType": "address[]",
          "name": "addrs",
          "type": "address[]"
        },
        {
          "internalType": "uint256[]",
          "name": "bonds",
          "type": "uint256[]"
        },
        {
          "internalType": "bytes32[]",
          "name": "answers",
          "type": "bytes32[]"
        }
      ],
      "name": "claimAchievement",
      "outputs": [],
      "stateMutability": "nonpayable",
      "type": "function"
    },
    {
      "inputs": [],
      "name": "tokenIndex",
      "outputs": [
        {
          "internalType": "uint256",
          "name": "",
          "type": "uint256"
        }
      ],
      "stateMutability": "view",
      "type": "function"
    }
  ],
  "bytecode": "0x60806040526000600d553480156200001657600080fd5b506040516200380c3803806200380c833981016040819052620000399162000284565b8181620000566301ffc9a760e01b6001600160e01b03620000dd16565b81516200006b90600690602085019062000138565b5080516200008190600790602084019062000138565b506200009d6380ac58cd60e01b6001600160e01b03620000dd16565b620000b8635b5e139f60e01b6001600160e01b03620000dd16565b620000d363780e9d6360e01b6001600160e01b03620000dd16565b5050505062000322565b6001600160e01b03198082161415620001135760405162461bcd60e51b81526004016200010a90620002eb565b60405180910390fd5b6001600160e01b0319166000908152602081905260409020805460ff19166001179055565b828054600181600116156101000203166002900490600052602060002090601f016020900481019282601f106200017b57805160ff1916838001178555620001ab565b82800160010185558215620001ab579182015b82811115620001ab5782518255916020019190600101906200018e565b50620001b9929150620001bd565b5090565b620001da91905b80821115620001b95760008155600101620001c4565b90565b600082601f830112620001ee578081fd5b81516001600160401b038082111562000205578283fd5b6040516020601f8401601f191682018101838111838210171562000227578586fd5b806040525081945083825286818588010111156200024457600080fd5b600092505b8383101562000268578583018101518284018201529182019162000249565b838311156200027a5760008185840101525b5050505092915050565b6000806040838503121562000297578182fd5b82516001600160401b0380821115620002ae578384fd5b620002bc86838701620001dd565b93506020850151915080821115620002d2578283fd5b50620002e185828601620001dd565b9150509250929050565b6020808252601c908201527f4552433136353a20696e76616c696420696e7465726661636520696400000000604082015260600190565b6134da80620003326000396000f3fe608060405234801561001057600080fd5b50600436106102065760003560e01c80636c0360eb1161011a578063c8c787ae116100ad578063d8952a491161007c578063d8952a4914610432578063def114b614610445578063e7c387301461044d578063e985e9c514610460578063ecf5f69b1461047357610206565b8063c8c787ae14610407578063c97c89761461041a578063c99aea3314610422578063d55f92731461042a57610206565b806395d89b41116100e957806395d89b41146103c6578063a22cb465146103ce578063b88d4fde146103e1578063c87b56dd146103f457610206565b80636c0360eb1461038557806370a082311461038d5780638c8b8f4e146103a0578063947f53a2146103b357610206565b80632f745c591161019d5780634f64b2be1161016c5780634f64b2be146103265780634f6ccce71461033957806355f804b31461034c5780636352211e1461035f5780636be5179f1461037257610206565b80632f745c59146102da57806342842e0e146102ed57806342da0beb14610300578063497e40961461031357610206565b80630c04f83b116101d95780630c04f83b1461027e57806318160ddd1461029157806323b872dd146102a657806327aed72e146102b957610206565b806301ffc9a71461020b57806306fdde0314610234578063081812fc14610249578063095ea7b314610269575b600080fd5b61021e6102193660046125d8565b610486565b60405161022b9190612a1c565b60405180910390f35b61023c6104a9565b60405161022b9190612a48565b61025c6102573660046126c7565b610540565b60405161022b91906129cb565b61027c610277366004612445565b61058c565b005b61021e61028c366004612445565b610624565b61029961071e565b60405161022b9190612a27565b61027c6102b436600461236e565b61072f565b6102cc6102c73660046126c7565b610767565b60405161022b929190612a30565b6102996102e8366004612445565b610786565b61027c6102fb36600461236e565b6107b5565b61021e61030e366004612445565b6107d0565b6102996103213660046126df565b6107fe565b6102996103343660046126c7565b610981565b6102996103473660046126c7565b610993565b61027c61035a366004612694565b6109af565b61025c61036d3660046126c7565b6109e1565b61027c6103803660046127c3565b610a0f565b61023c610cce565b61029961039b36600461231a565b610d2f565b61021e6103ae366004612470565b610d78565b61021e6103c1366004612445565b610fab565b61023c611112565b61027c6103dc366004612418565b611173565b61027c6103ef3660046123ae565b611241565b61023c6104023660046126c7565b611280565b610299610415366004612622565b6113c6565b61025c611468565b610299611477565b61029961147d565b61027c610440366004612610565b611489565b61025c611555565b61021e61045b366004612445565b611564565b61021e61046e366004612336565b611619565b61021e610481366004612445565b611647565b6001600160e01b0319811660009081526020819052604090205460ff165b919050565b60068054604080516020601f60026000196101006001881615020190951694909404938401819004810282018101909252828152606093909290918301828280156105355780601f1061050a57610100808354040283529160200191610535565b820191906000526020600020905b81548152906001019060200180831161051857829003601f168201915b505050505090505b90565b600061054b826117b4565b6105705760405162461bcd60e51b815260040161056790612f24565b60405180910390fd5b506000908152600460205260409020546001600160a01b031690565b6000610597826109e1565b9050806001600160a01b0316836001600160a01b031614156105cb5760405162461bcd60e51b8152600401610567906130f0565b806001600160a01b03166105dd6117c7565b6001600160a01b031614806105f957506105f98161046e6117c7565b6106155760405162461bcd60e51b815260040161056790612d3c565b61061f83836117cb565b505050565b600c5460405163b31eb89560e01b81526000916060916001600160a01b039091169063b31eb8959061065c9086908890600401613374565b60006040518083038186803b15801561067457600080fd5b505afa158015610688573d6000803e3d6000fd5b505050506040513d6000823e601f3d908101601f191682016040526106b09190810190612724565b915060009050805b82518110156106ee5760008382815181106106cf57fe5b602002602001015111156106e657600191506106ee565b6001016106b8565b506001811515146107115760405162461bcd60e51b815260040161056790612b6f565b6001925050505b92915050565b600061072a6002611839565b905090565b61074061073a6117c7565b82611844565b61075c5760405162461bcd60e51b815260040161056790613195565b61061f8383836118c9565b600e602052600090815260409020805460019091015460ff9091169082565b6001600160a01b03821660009081526001602052604081206107ae908363ffffffff6119e916565b9392505050565b61061f83838360405180602001604052806000815250611241565b6000908152600e602090815260408083206001600160a01b0394909416835260029093019052205460ff1690565b6000828152600e602090815260408083203384526002810190925282205460ff161561083c5760405162461bcd60e51b8152600401610567906131e6565b6002815460ff16600481111561084e57fe5b141561086c5760405162461bcd60e51b8152600401610567906132e1565b80600101548351146108905760405162461bcd60e51b815260040161056790612aef565b60005b835181101561096e5760008482815181106108aa57fe5b60200260200101519050600060048111156108c157fe5b835460ff1660048111156108d157fe5b14156108e7576108e13382610624565b50610965565b6001835460ff1660048111156108f957fe5b1415610909576108e13382611564565b6003835460ff16600481111561091b57fe5b141561092b576108e13382610fab565b6004835460ff16600481111561093d57fe5b141561094d576108e13382611647565b60405162461bcd60e51b815260040161056790613076565b50600101610893565b5061097933856119f5565b505092915050565b600f6020526000908152604090205481565b6000806109a760028463ffffffff611a5e16565b509392505050565b6109b7610cce565b51156109d55760405162461bcd60e51b815260040161056790612c2b565b6109de81611a7a565b50565b60006107188260405180606001604052806029815260200161347c602991396002919063ffffffff611a9116565b6000878152600e60209081526040808320338452600281019092529091205460ff1615610a4e5760405162461bcd60e51b8152600401610567906131e6565b6002815460ff166004811115610a6057fe5b14610a7d5760405162461bcd60e51b815260040161056790612ed4565b6000875111610a9e5760405162461bcd60e51b815260040161056790612de3565b8060010154875114610ac25760405162461bcd60e51b815260040161056790612aef565b6000805b8851811015610cb7576000898281518110610add57fe5b602002602001015190506000898381518110610af557fe5b60200260200101519050606081604051908082528060200260200182016040528015610b2b578160200160208202803883390190505b509050606082604051908082528060200260200182016040528015610b5a578160200160208202803883390190505b509050606083604051908082528060200260200182016040528015610b89578160200160208202803883390190505b509050606084604051908082528060200260200182016040528015610bb8578160200160208202803883390190505b50905060005b85811015610c95578d8981518110610bd257fe5b6020026020010151858281518110610be657fe5b6020026020010181815250508c8981518110610bfe57fe5b6020026020010151848281518110610c1257fe5b60200260200101906001600160a01b031690816001600160a01b0316815250508b8981518110610c3e57fe5b6020026020010151838281518110610c5257fe5b6020026020010181815250508a8981518110610c6a57fe5b6020026020010151828281518110610c7e57fe5b602090810291909101015260019889019801610bbe565b610ca3338887878787610d78565b505060019096019550610ac6945050505050565b50610cc2338a6119f5565b50505050505050505050565b60098054604080516020601f60026000196101006001881615020190951694909404938401819004810282018101909252828152606093909290918301828280156105355780601f1061050a57610100808354040283529160200191610535565b60006001600160a01b038216610d575760405162461bcd60e51b815260040161056790612d99565b6001600160a01b038216600090815260016020526040902061071890611839565b600c54604051630ebc905560e11b8152600091829182916001600160a01b031690631d7920aa90610dad908b90600401612a27565b60c06040518083038186803b158015610dc557600080fd5b505afa158015610dd9573d6000803e3d6000fd5b505050506040513d601f19601f82011682018060405250610dfd91908101906128bc565b5050600b5460405163095addb960e41b81529395506001600160a01b031693506395addb9092610e339250859150600401612a27565b6101406040518083038186803b158015610e4c57600080fd5b505afa158015610e60573d6000803e3d6000fd5b505050506040513d601f19601f82011682018060405250610e849190810190612532565b509950600097508796505050505050505b8851811015610f7857888181518110610eaa57fe5b6020026020010151868281518110610ebe57fe5b6020026020010151888381518110610ed257fe5b60200260200101518a8481518110610ee657fe5b60200260200101516000604051602001610f04959493929190612946565b604051602081830303815290604052805190602001208414610f2557600080fd5b8a6001600160a01b0316888281518110610f3b57fe5b60200260200101516001600160a01b03161415610f5757600191505b888181518110610f6357fe5b60209081029190910101519350600101610e95565b600182151514610f9a5760405162461bcd60e51b815260040161056790613254565b5060019a9950505050505050505050565b600c5460405163b31eb89560e01b81526000916060916001600160a01b039091169063b31eb89590610fe39086908890600401613374565b60006040518083038186803b158015610ffb57600080fd5b505afa15801561100f573d6000803e3d6000fd5b505050506040513d6000823e601f3d908101601f191682016040526110379190810190612724565b600c5460405163bf45572160e01b8152919350600092506001600160a01b03169063bf4557219061106c908790600401612a27565b60206040518083038186803b15801561108457600080fd5b505afa158015611098573d6000803e3d6000fd5b505050506040513d601f19601f820116820180604052506110bc919081019061267c565b905060008112156110df5760405162461bcd60e51b815260040161056790613131565b60008282815181106110ed57fe5b6020026020010151116107115760405162461bcd60e51b815260040161056790613298565b60078054604080516020601f60026000196101006001881615020190951694909404938401819004810282018101909252828152606093909290918301828280156105355780601f1061050a57610100808354040283529160200191610535565b61117b6117c7565b6001600160a01b0316826001600160a01b031614156111ac5760405162461bcd60e51b815260040161056790612bf4565b80600560006111b96117c7565b6001600160a01b03908116825260208083019390935260409182016000908120918716808252919093529120805460ff1916921515929092179091556111fd6117c7565b6001600160a01b03167f17307eab39ab6107e8899845ad3d59bd9653f200f220920489ca2b5937696c31836040516112359190612a1c565b60405180910390a35050565b61125261124c6117c7565b83611844565b61126e5760405162461bcd60e51b815260040161056790613195565b61127a84848484611a9e565b50505050565b606061128b826117b4565b6112a75760405162461bcd60e51b815260040161056790612fb9565b60008281526008602090815260409182902080548351601f600260001961010060018616150201909316929092049182018490048402810184019094528084526060939283018282801561133c5780601f106113115761010080835404028352916020019161133c565b820191906000526020600020905b81548152906001019060200180831161131f57829003601f168201915b50505050509050606061134d610cce565b9050805160001415611361575090506104a4565b81511561139357808260405160200161137b92919061299d565b604051602081830303815290604052925050506104a4565b8061139d85611ad1565b6040516020016113ae92919061299d565b60405160208183030381529060405292505050919050565b60008083116113e75760405162461bcd60e51b815260040161056790613330565b600d546000818152600e6020526040902080548690829060ff1916600183600481111561141057fe5b021790555060018101859055604051339083907ff12dd2cec284c7695fa5ff87a683b64add6d47d7a74e190171798ee5e70a744c90611450908890612a48565b60405180910390a35060018101600d55949350505050565b600b546001600160a01b031681565b600d5481565b600061072a600a611b95565b600c546001600160a01b0316156114b25760405162461bcd60e51b815260040161056790612e87565b600b546001600160a01b0316156114db5760405162461bcd60e51b815260040161056790612cf2565b6001600160a01b0382166115015760405162461bcd60e51b815260040161056790612cbb565b6001600160a01b0381166115275760405162461bcd60e51b81526004016105679061303f565b600c80546001600160a01b039384166001600160a01b031991821617909155600b8054929093169116179055565b600c546001600160a01b031681565b600c5460405163b31eb89560e01b815260009182916001600160a01b039091169063b31eb8959061159b9086908890600401613374565b60006040518083038186803b1580156115b357600080fd5b505afa1580156115c7573d6000803e3d6000fd5b505050506040513d6000823e601f3d908101601f191682016040526115ef9190810190612724565b5090508061160f5760405162461bcd60e51b8152600401610567906130ad565b5060019392505050565b6001600160a01b03918216600090815260056020908152604080832093909416825291909152205460ff1690565b60006001600160a01b03831661166f5760405162461bcd60e51b815260040161056790613168565b600c54604051630ebc905560e11b815260009182916001600160a01b0390911690631d7920aa906116a4908790600401612a27565b60c06040518083038186803b1580156116bc57600080fd5b505afa1580156116d0573d6000803e3d6000fd5b505050506040513d601f19601f820116820180604052506116f491908101906128bc565b5050600b5460405163095addb960e41b81529396506001600160a01b031693506395addb909261172a9250869150600401612a27565b6101406040518083038186803b15801561174357600080fd5b505afa158015611757573d6000803e3d6000fd5b505050506040513d601f19601f8201168201806040525061177b9190810190612532565b509698505050506001600160a01b038a811690871614945061071193505050505760405162461bcd60e51b815260040161056790613008565b600061071860028363ffffffff611b9916565b3390565b600081815260046020526040902080546001600160a01b0319166001600160a01b0384169081179091558190611800826109e1565b6001600160a01b03167f8c5be1e5ebec7d5bd14f71427d1e84f3dd0314c0f7b2291e5b200ac8c7c3b92560405160405180910390a45050565b600061071882611b95565b600061184f826117b4565b61186b5760405162461bcd60e51b815260040161056790612c6f565b6000611876836109e1565b9050806001600160a01b0316846001600160a01b031614806118b15750836001600160a01b03166118a684610540565b6001600160a01b0316145b806118c157506118c18185611619565b949350505050565b826001600160a01b03166118dc826109e1565b6001600160a01b0316146119025760405162461bcd60e51b815260040161056790612f70565b6001600160a01b0382166119285760405162461bcd60e51b815260040161056790612bb0565b61193383838361061f565b61193e6000826117cb565b6001600160a01b0383166000908152600160205260409020611966908263ffffffff611ba516565b506001600160a01b038216600090815260016020526040902061198f908263ffffffff611bb116565b506119a26002828463ffffffff611bbd16565b5080826001600160a01b0316846001600160a01b03167fddf252ad1be2c89b69c2b068fc378daa952ba7f163c4a11628f55a4df523b3ef60405160405180910390a4505050565b60006107ae8383611bd3565b6000611a01600a611c18565b6000611a0d600a611b95565b9050611a198482611c21565b6000818152600f60209081526040808320869055858352600e82528083206001600160a01b03881684526002019091529020805460ff19166001179055905092915050565b6000808080611a6d8686611cf1565b9097909650945050505050565b8051611a8d906009906020840190612139565b5050565b60006118c1848484611d4d565b611aa98484846118c9565b611ab584848484611dac565b61127a5760405162461bcd60e51b815260040161056790612a9d565b606081611af657506040805180820190915260018152600360fc1b60208201526104a4565b8160005b8115611b0e57600101600a82049150611afa565b6060816040519080825280601f01601f191660200182016040528015611b3b576020820181803883390190505b50859350905060001982015b8315611b8c57600a840660300160f81b82828060019003935081518110611b6a57fe5b60200101906001600160f81b031916908160001a905350600a84049350611b47565b50949350505050565b5490565b60006107ae8383611e91565b60006107ae8383611ea9565b60006107ae8383611f6f565b60006118c184846001600160a01b038516611fb9565b81546000908210611bf65760405162461bcd60e51b815260040161056790612a5b565b826000018281548110611c0557fe5b9060005260206000200154905092915050565b80546001019055565b6001600160a01b038216611c475760405162461bcd60e51b815260040161056790612e52565b611c50816117b4565b15611c6d5760405162461bcd60e51b815260040161056790612b38565b611c796000838361061f565b6001600160a01b0382166000908152600160205260409020611ca1908263ffffffff611bb116565b50611cb46002828463ffffffff611bbd16565b5060405181906001600160a01b038416906000907fddf252ad1be2c89b69c2b068fc378daa952ba7f163c4a11628f55a4df523b3ef908290a45050565b815460009081908310611d165760405162461bcd60e51b815260040161056790612e10565b6000846000018481548110611d2757fe5b906000526020600020906002020190508060000154816001015492509250509250929050565b60008281526001840160205260408120548281611d7d5760405162461bcd60e51b81526004016105679190612a48565b50846000016001820381548110611d9057fe5b9060005260206000209060020201600101549150509392505050565b6000611dc0846001600160a01b0316612050565b611dcc575060016118c1565b6060611e5a630a85bd0160e11b611de16117c7565b888787604051602401611df794939291906129df565b604051602081830303815290604052906001600160e01b0319166020820180516001600160e01b03838183161783525050505060405180606001604052806032815260200161344a603291396001600160a01b038816919063ffffffff61205616565b9050600081806020019051611e7291908101906125f4565b6001600160e01b031916630a85bd0160e11b1492505050949350505050565b60009081526001919091016020526040902054151590565b60008181526001830160205260408120548015611f655783546000198083019190810190600090879083908110611edc57fe5b9060005260206000200154905080876000018481548110611ef957fe5b600091825260208083209091019290925582815260018981019092526040902090840190558654879080611f2957fe5b60019003818190600052602060002001600090559055866001016000878152602001908152602001600020600090556001945050505050610718565b6000915050610718565b6000611f7b8383611e91565b611fb157508154600181810184556000848152602080822090930184905584548482528286019093526040902091909155610718565b506000610718565b60008281526001840160205260408120548061201e5750506040805180820182528381526020808201848152865460018181018955600089815284812095516002909302909501918255915190820155865486845281880190925292909120556107ae565b8285600001600183038154811061203157fe5b90600052602060002090600202016001018190555060009150506107ae565b3b151590565b60606118c184846000858561206a85612050565b6120865760405162461bcd60e51b81526004016105679061321d565b60006060866001600160a01b031685876040516120a39190612981565b60006040518083038185875af1925050503d80600081146120e0576040519150601f19603f3d011682016040523d82523d6000602084013e6120e5565b606091505b50915091506120f5828286612100565b979650505050505050565b6060831561210f5750816107ae565b82511561211f5782518084602001fd5b8160405162461bcd60e51b81526004016105679190612a48565b828054600181600116156101000203166002900490600052602060002090601f016020900481019282601f1061217a57805160ff19168380011785556121a7565b828001600101855582156121a7579182015b828111156121a757825182559160200191906001019061218c565b506121b39291506121b7565b5090565b61053d91905b808211156121b357600081556001016121bd565b8035610718816133fe565b600082601f8301126121ec578081fd5b81356121ff6121fa826133b2565b61338b565b81815291506020808301908481018184028601820187101561222057600080fd5b60005b84811015612248578135612236816133fe565b84529282019290820190600101612223565b505050505092915050565b600082601f830112612263578081fd5b81356122716121fa826133b2565b81815291506020808301908481018184028601820187101561229257600080fd5b60005b8481101561224857813584529282019290820190600101612295565b600082601f8301126122c1578081fd5b813567ffffffffffffffff8111156122d7578182fd5b6122ea601f8201601f191660200161338b565b915080825283602082850101111561230157600080fd5b8060208401602084013760009082016020015292915050565b60006020828403121561232b578081fd5b81356107ae816133fe565b60008060408385031215612348578081fd5b8235612353816133fe565b91506020830135612363816133fe565b809150509250929050565b600080600060608486031215612382578081fd5b833561238d816133fe565b9250602084013561239d816133fe565b929592945050506040919091013590565b600080600080608085870312156123c3578182fd5b84356123ce816133fe565b935060208501356123de816133fe565b925060408501359150606085013567ffffffffffffffff811115612400578182fd5b61240c878288016122b1565b91505092959194509250565b6000806040838503121561242a578182fd5b8235612435816133fe565b9150602083013561236381613413565b60008060408385031215612457578182fd5b8235612462816133fe565b946020939093013593505050565b60008060008060008060c08789031215612488578384fd5b61249288886121d1565b955060208701359450604087013567ffffffffffffffff808211156124b5578586fd5b6124c18a838b01612253565b955060608901359150808211156124d6578384fd5b6124e28a838b016121dc565b945060808901359150808211156124f7578384fd5b6125038a838b01612253565b935060a0890135915080821115612518578283fd5b5061252589828a01612253565b9150509295509295509295565b6000806000806000806000806000806101408b8d031215612551578788fd5b8a51995060208b0151612563816133fe565b60408c015190995061257481613437565b60608c015190985061258581613437565b60808c015190975061259681613437565b60a08c01519096506125a781613413565b8095505060c08b0151935060e08b015192506101008b015191506101208b015190509295989b9194979a5092959850565b6000602082840312156125e9578081fd5b81356107ae81613421565b600060208284031215612605578081fd5b81516107ae81613421565b60008060408385031215612348578182fd5b600080600060608486031215612636578081fd5b833560058110612644578182fd5b925060208401359150604084013567ffffffffffffffff811115612666578182fd5b612672868287016122b1565b9150509250925092565b60006020828403121561268d578081fd5b5051919050565b6000602082840312156126a5578081fd5b813567ffffffffffffffff8111156126bb578182fd5b6118c1848285016122b1565b6000602082840312156126d8578081fd5b5035919050565b600080604083850312156126f1578182fd5b82359150602083013567ffffffffffffffff81111561270e578182fd5b61271a85828601612253565b9150509250929050565b60008060408385031215612736578182fd5b8251915060208084015167ffffffffffffffff811115612754578283fd5b80850186601f820112612765578384fd5b805191506127756121fa836133b2565b82815283810190828501858502840186018a1015612791578687fd5b8693505b848410156127b3578051835260019390930192918501918501612795565b5080955050505050509250929050565b600080600080600080600060e0888a0312156127dd578081fd5b87359650602088013567ffffffffffffffff808211156127fb578283fd5b6128078b838c01612253565b975060408a013591508082111561281c578283fd5b6128288b838c01612253565b965060608a013591508082111561283d578283fd5b6128498b838c01612253565b955060808a013591508082111561285e578283fd5b61286a8b838c016121dc565b945060a08a013591508082111561287f578283fd5b61288b8b838c01612253565b935060c08a01359150808211156128a0578283fd5b506128ad8a828b01612253565b91505092959891949750929550565b60008060008060008060c087890312156128d4578384fd5b86519550602087015194506040870151935060608701516128f4816133fe565b608088015160a0890151919450925061290c816133fe565b809150509295509295509295565b600081518084526129328160208601602086016133d2565b601f01601f19169290920160200192915050565b94855260208501939093526040840191909152606090811b6bffffffffffffffffffffffff191690830152151560f81b607482015260750190565b600082516129938184602087016133d2565b9190910192915050565b600083516129af8184602088016133d2565b83519083016129c28282602088016133d2565b01949350505050565b6001600160a01b0391909116815260200190565b6001600160a01b0385811682528416602082015260408101839052608060608201819052600090612a129083018461291a565b9695505050505050565b901515815260200190565b90815260200190565b6040810160058410612a3e57fe5b9281526020015290565b6000602082526107ae602083018461291a565b60208082526022908201527f456e756d657261626c655365743a20696e646578206f7574206f6620626f756e604082015261647360f01b606082015260800190565b60208082526032908201527f4552433732313a207472616e7366657220746f206e6f6e20455243373231526560408201527131b2b4bb32b91034b6b83632b6b2b73a32b960711b606082015260800190565b60208082526029908201527f4d61726b65747320636f756e7420616e64206f6363757272656e63657320646f6040820152680dc4ee840dac2e8c6d60bb1b606082015260800190565b6020808252601c908201527f4552433732313a20746f6b656e20616c7265616479206d696e74656400000000604082015260600190565b60208082526021908201527f7573657220646f6573206e6f7420686f6c64206f7574636f6d652073686172656040820152607360f81b606082015260800190565b60208082526024908201527f4552433732313a207472616e7366657220746f20746865207a65726f206164646040820152637265737360e01b606082015260800190565b60208082526019908201527f4552433732313a20617070726f766520746f2063616c6c657200000000000000604082015260600190565b60208082526024908201527f626173655552492063616e206f6e6c7920626520696e697469616c697a6564206040820152636f6e636560e01b606082015260800190565b6020808252602c908201527f4552433732313a206f70657261746f7220717565727920666f72206e6f6e657860408201526b34b9ba32b73a103a37b5b2b760a11b606082015260800190565b6020808252601e908201527f5f70726564696374696f6e4d61726b6574206164647265737320697320300000604082015260600190565b6020808252602a908201527f7265616c6974696f45524332302063616e206f6e6c7920626520696e697469616040820152696c697a6564206f6e636560b01b606082015260800190565b60208082526038908201527f4552433732313a20617070726f76652063616c6c6572206973206e6f74206f7760408201527f6e6572206e6f7220617070726f76656420666f7220616c6c0000000000000000606082015260800190565b6020808252602a908201527f4552433732313a2062616c616e636520717565727920666f7220746865207a65604082015269726f206164647265737360b01b606082015260800190565b602080825260139082015272139bc81858dd1a5bdb9cc81c1c9bdd9a591959606a1b604082015260600190565b60208082526022908201527f456e756d657261626c654d61703a20696e646578206f7574206f6620626f756e604082015261647360f01b606082015260800190565b6020808252818101527f4552433732313a206d696e7420746f20746865207a65726f2061646472657373604082015260600190565b6020808252602d908201527f70726564696374696f6e4d61726b65742063616e206f6e6c7920626520696e6960408201526c7469616c697a6564206f6e636560981b606082015260800190565b60208082526030908201527f4d6574686f64206f6e6c79207573656420666f7220626f6e6420706c6163656d60408201526f656e7420616368696576656d656e747360801b606082015260800190565b6020808252602c908201527f4552433732313a20617070726f76656420717565727920666f72206e6f6e657860408201526b34b9ba32b73a103a37b5b2b760a11b606082015260800190565b60208082526029908201527f4552433732313a207472616e73666572206f6620746f6b656e2074686174206960408201526839903737ba1037bbb760b91b606082015260800190565b6020808252602f908201527f4552433732314d657461646174613a2055524920717565727920666f72206e6f60408201526e3732bc34b9ba32b73a103a37b5b2b760891b606082015260800190565b6020808252601a908201527f7573657220646964206e6f7420637265617465206d61726b6574000000000000604082015260600190565b6020808252601b908201527f5f7265616c6974696f4552433230206164647265737320697320300000000000604082015260600190565b6020808252601a908201527f496e76616c696420616368696576656d656e7420616374696f6e000000000000604082015260600190565b60208082526023908201527f7573657220646f6573206e6f7420686f6c64206c69717569646974792073686160408201526272657360e81b606082015260800190565b60208082526021908201527f4552433732313a20617070726f76616c20746f2063757272656e74206f776e656040820152603960f91b606082015260800190565b6020808252601c908201527f6d61726b6574206973207374696c6c206e6f74207265736f6c76656400000000604082015260600190565b60208082526013908201527207573657220616464726573732069732030783606c1b604082015260600190565b60208082526031908201527f4552433732313a207472616e736665722063616c6c6572206973206e6f74206f6040820152701ddb995c881b9bdc88185c1c1c9bdd9959607a1b606082015260800190565b6020808252601b908201527f416368696576656d656e7420616c726561647920636c61696d65640000000000604082015260600190565b6020808252601d908201527f416464726573733a2063616c6c20746f206e6f6e2d636f6e7472616374000000604082015260600190565b60208082526024908201527f7573657220686173206e6f7420706c61636564206120626f6e6420696e206d616040820152631c9ad95d60e21b606082015260800190565b60208082526029908201527f7573657220646f6573206e6f7420686f6c642077696e6e696e67206f7574636f6040820152686d652073686172657360b81b606082015260800190565b6020808252602f908201527f4d6574686f64206e6f74207573656420666f7220626f6e6420706c6163656d6560408201526e6e7420616368696576656d656e747360881b606082015260800190565b60208082526024908201527f6f6363757272656e6365732068617320746f20626520677265617465722074686040820152630616e20360e41b606082015260800190565b9182526001600160a01b0316602082015260400190565b60405181810167ffffffffffffffff811182821017156133aa57600080fd5b604052919050565b600067ffffffffffffffff8211156133c8578081fd5b5060209081020190565b60005b838110156133ed5781810151838201526020016133d5565b8381111561127a5750506000910152565b6001600160a01b03811681146109de57600080fd5b80151581146109de57600080fd5b6001600160e01b0319811681146109de57600080fd5b63ffffffff811681146109de57600080fdfe4552433732313a207472616e7366657220746f206e6f6e20455243373231526563656976657220696d706c656d656e7465724552433732313a206f776e657220717565727920666f72206e6f6e6578697374656e7420746f6b656ea2646970667358221220a923c545df19947c47cf8e9723fafda0044340170c68a3d2543b0791b7aaaf5464736f6c63430006020033",
  "source": "pragma solidity ^0.6.0;\npragma experimental ABIEncoderV2;\n\nimport \"./RealitioERC20.sol\";\nimport \"./PredictionMarketV2.sol\";\n\n// openzeppelin imports\nimport \"@openzeppelin/contracts/math/SafeMath.sol\";\nimport \"@openzeppelin/contracts/token/ERC721/ERC721.sol\";\nimport \"@openzeppelin/contracts/utils/Counters.sol\";\n\n/// @title Prediction Market Achievements Contract\ncontract Achievements is ERC721 {\n  using Counters for Counters.Counter;\n  Counters.Counter private _tokenIds;\n\n  /// @dev protocol is immutable and has no ownership\n  RealitioERC20 public realitioERC20;\n  PredictionMarketV2 public predictionMarket;\n\n  event LogNewAchievement(uint256 indexed achievementId, address indexed user, string content);\n\n  // Buy: Claim through market[x].outcome[y].shares.holders[msg.sender] > 0\n  // AddLiquidity: Claim through market[x].liquidityShares[msg.sender] > 0\n  // CreateMarket: RealitioERC20 question arbitrator == msg.sender\n  // ClaimWinnings: Claim through market[x].outcome[y].shares.holders[msg.sender] > 0 && y == market.resolution.outcomeId\n  // Bond: Use RealitioERC20 historyHashes logic value and ensure addrs.includes(msg.sender)\n  enum Action {\n    Buy,\n    AddLiquidity,\n    Bond,\n    ClaimWinnings,\n    CreateMarket\n  }\n\n  struct Achievement {\n    Action action;\n    uint256 occurrences;\n    mapping(address => bool) claims;\n  }\n\n  uint256 public achievementIndex = 0;\n  mapping(uint256 => Achievement) public achievements;\n  mapping(uint256 => uint256) public tokens; // tokenId => achievementId\n\n  constructor(string memory token, string memory ticker) public ERC721(token, ticker) {}\n\n  function setContracts(PredictionMarketV2 _predictionMarket, RealitioERC20 _realitioERC20) public {\n    require(address(predictionMarket) == address(0), \"predictionMarket can only be initialized once\");\n    require(address(realitioERC20) == address(0), \"realitioERC20 can only be initialized once\");\n\n    require(address(_predictionMarket) != address(0), \"_predictionMarket address is 0\");\n    require(address(_realitioERC20) != address(0), \"_realitioERC20 address is 0\");\n\n    predictionMarket = _predictionMarket;\n    realitioERC20 = _realitioERC20;\n  }\n\n  function setBaseURI(string memory _baseURI) public {\n    require(bytes(baseURI()).length == 0, \"baseURI can only be initialized once\");\n\n    _setBaseURI(_baseURI);\n  }\n\n  function createAchievement(\n    Action action,\n    uint256 occurrences,\n    string memory content\n  ) public returns (uint256) {\n    require(occurrences > 0, \"occurrences has to be greater than 0\");\n    uint256 achievementId = achievementIndex;\n    Achievement storage achievement = achievements[achievementId];\n\n    achievement.action = action;\n    achievement.occurrences = occurrences;\n    emit LogNewAchievement(achievementId, msg.sender, content);\n    achievementIndex = achievementId + 1;\n    return achievementId;\n  }\n\n  function hasUserClaimedAchievement(address user, uint256 achievementId) public view returns (bool) {\n    Achievement storage achievement = achievements[achievementId];\n\n    return achievement.claims[user];\n  }\n\n  function hasUserPlacedPrediction(address user, uint256 marketId) public view returns (bool) {\n    uint256[] memory outcomeShares;\n    (, outcomeShares) = predictionMarket.getUserMarketShares(marketId, user);\n\n    bool hasPlacedPrediction;\n\n    for (uint256 i = 0; i < outcomeShares.length; i++) {\n      if (outcomeShares[i] > 0) {\n        hasPlacedPrediction = true;\n        break;\n      }\n    }\n\n    require(hasPlacedPrediction == true, \"user does not hold outcome shares\");\n\n    return true;\n  }\n\n  function hasUserAddedLiquidity(address user, uint256 marketId) public view returns (bool) {\n    uint256 liquidityShares;\n    (liquidityShares, ) = predictionMarket.getUserMarketShares(marketId, user);\n\n    require(liquidityShares > 0, \"user does not hold liquidity shares\");\n\n    return true;\n  }\n\n  function hasUserPlacedBond(\n    address user,\n    uint256 marketId,\n    bytes32[] memory history_hashes,\n    address[] memory addrs,\n    uint256[] memory bonds,\n    bytes32[] memory answers\n  ) public view returns (bool) {\n    bytes32 last_history_hash;\n    bytes32 questionId;\n    (, questionId, , , , ) = predictionMarket.getMarketAltData(marketId);\n    (, , , , , , , , last_history_hash, ) = realitioERC20.questions(questionId);\n    bool bonded;\n\n    uint256 i;\n    for (i = 0; i < history_hashes.length; i++) {\n      require(\n        last_history_hash == keccak256(abi.encodePacked(history_hashes[i], answers[i], bonds[i], addrs[i], false))\n      );\n\n      if (addrs[i] == user) bonded = true;\n\n      last_history_hash = history_hashes[i];\n    }\n\n    require(bonded == true, \"user has not placed a bond in market\");\n\n    return true;\n  }\n\n  function hasUserClaimedWinnings(address user, uint256 marketId) public view returns (bool) {\n    uint256[] memory outcomeShares;\n    (, outcomeShares) = predictionMarket.getUserMarketShares(marketId, user);\n    int256 resolvedOutcomeId = predictionMarket.getMarketResolvedOutcome(marketId);\n\n    require(resolvedOutcomeId >= 0, \"market is still not resolved\");\n    require(outcomeShares[uint256(resolvedOutcomeId)] > 0, \"user does not hold winning outcome shares\");\n\n    return true;\n  }\n\n  function hasUserCreatedMarket(address user, uint256 marketId) public view returns (bool) {\n    require(user != address(0), \"user address is 0x0\");\n\n    bytes32 questionId;\n    address arbitrator;\n    (, questionId, , , , ) = predictionMarket.getMarketAltData(marketId);\n    (, arbitrator, , , , , , , , ) = realitioERC20.questions(questionId);\n\n    require(user == arbitrator, \"user did not create market\");\n\n    return true;\n  }\n\n  function claimAchievement(uint256 achievementId, uint256[] memory marketIds) public returns (uint256) {\n    Achievement storage achievement = achievements[achievementId];\n\n    require(achievement.claims[msg.sender] == false, \"Achievement already claimed\");\n    require(achievement.action != Action.Bond, \"Method not used for bond placement achievements\");\n    require(marketIds.length == achievement.occurrences, \"Markets count and occurrences don't match\");\n\n    for (uint256 i = 0; i < marketIds.length; i++) {\n      uint256 marketId = marketIds[i];\n\n      if (achievement.action == Action.Buy) {\n        hasUserPlacedPrediction(msg.sender, marketId);\n      } else if (achievement.action == Action.AddLiquidity) {\n        hasUserAddedLiquidity(msg.sender, marketId);\n      } else if (achievement.action == Action.ClaimWinnings) {\n        hasUserClaimedWinnings(msg.sender, marketId);\n      } else if (achievement.action == Action.CreateMarket) {\n        hasUserCreatedMarket(msg.sender, marketId);\n      } else {\n        revert(\"Invalid achievement action\");\n      }\n    }\n\n    mintAchievement(msg.sender, achievementId);\n  }\n\n  function claimAchievement(\n    uint256 achievementId,\n    uint256[] memory marketIds,\n    uint256[] memory lengths,\n    bytes32[] memory history_hashes,\n    address[] memory addrs,\n    uint256[] memory bonds,\n    bytes32[] memory answers\n  ) public {\n    Achievement storage achievement = achievements[achievementId];\n\n    require(achievement.claims[msg.sender] == false, \"Achievement already claimed\");\n    require(achievement.action == Action.Bond, \"Method only used for bond placement achievements\");\n    require(marketIds.length > 0, \"No actions provided\");\n    require(marketIds.length == achievement.occurrences, \"Markets count and occurrences don't match\");\n\n    uint256 qi;\n\n    for (uint256 i = 0; i < marketIds.length; i++) {\n      uint256 marketId = marketIds[i];\n\n      uint256 ln = lengths[i];\n      bytes32[] memory hh = new bytes32[](ln);\n      address[] memory ad = new address[](ln);\n      uint256[] memory bo = new uint256[](ln);\n      bytes32[] memory an = new bytes32[](ln);\n      uint256 j;\n      for (j = 0; j < ln; j++) {\n        hh[j] = history_hashes[qi];\n        ad[j] = addrs[qi];\n        bo[j] = bonds[qi];\n        an[j] = answers[qi];\n        qi++;\n      }\n      hasUserPlacedBond(msg.sender, marketId, hh, ad, bo, an);\n    }\n\n    mintAchievement(msg.sender, achievementId);\n  }\n\n  function mintAchievement(address user, uint256 achievementId) private returns (uint256) {\n    _tokenIds.increment();\n\n    uint256 tokenId = _tokenIds.current();\n    _mint(user, tokenId);\n    tokens[tokenId] = achievementId;\n\n    Achievement storage achievement = achievements[achievementId];\n    achievement.claims[user] = true;\n\n    return tokenId;\n  }\n\n  function tokenIndex() public view returns (uint256) {\n    return _tokenIds.current();\n  }\n}\n",
  "sourcePath": "/Users/ricardomarques/dev/workspace/polkamarkets/bepro-js/contracts/Achievements.sol",
  "compiler": {
    "name": "solc",
    "version": "0.6.2+commit.bacdbe57.Emscripten.clang"
  },
  "schemaVersion": "3.4.4",
  "updatedAt": "2023-03-08T20:55:30.822Z",
  "devdoc": {
    "methods": {
      "approve(address,uint256)": {
        "details": "See {IERC721-approve}."
      },
      "balanceOf(address)": {
        "details": "See {IERC721-balanceOf}."
      },
      "baseURI()": {
        "details": "Returns the base URI set via {_setBaseURI}. This will be automatically added as a prefix in {tokenURI} to each token's URI, or to the token ID if no specific URI is set for that token ID."
      },
      "getApproved(uint256)": {
        "details": "See {IERC721-getApproved}."
      },
      "isApprovedForAll(address,address)": {
        "details": "See {IERC721-isApprovedForAll}."
      },
      "name()": {
        "details": "See {IERC721Metadata-name}."
      },
      "ownerOf(uint256)": {
        "details": "See {IERC721-ownerOf}."
      },
      "safeTransferFrom(address,address,uint256)": {
        "details": "See {IERC721-safeTransferFrom}."
      },
      "safeTransferFrom(address,address,uint256,bytes)": {
        "details": "See {IERC721-safeTransferFrom}."
      },
      "setApprovalForAll(address,bool)": {
        "details": "See {IERC721-setApprovalForAll}."
      },
      "supportsInterface(bytes4)": {
        "details": "See {IERC165-supportsInterface}.     * Time complexity O(1), guaranteed to always use less than 30 000 gas."
      },
      "symbol()": {
        "details": "See {IERC721Metadata-symbol}."
      },
      "tokenByIndex(uint256)": {
        "details": "See {IERC721Enumerable-tokenByIndex}."
      },
      "tokenOfOwnerByIndex(address,uint256)": {
        "details": "See {IERC721Enumerable-tokenOfOwnerByIndex}."
      },
      "tokenURI(uint256)": {
        "details": "See {IERC721Metadata-tokenURI}."
      },
      "totalSupply()": {
        "details": "See {IERC721Enumerable-totalSupply}."
      },
      "transferFrom(address,address,uint256)": {
        "details": "See {IERC721-transferFrom}."
      }
    },
    "title": "Prediction Market Achievements Contract"
  },
  "userdoc": {
    "methods": {}
  }
}