{
  "contractName": "Achievements",
  "abi": [
    {
      "inputs": [
        {
          "internalType": "string",
          "name": "token",
          "type": "string"
        },
        {
          "internalType": "string",
          "name": "ticker",
          "type": "string"
        }
      ],
      "stateMutability": "nonpayable",
      "type": "constructor"
    },
    {
      "anonymous": false,
      "inputs": [
        {
          "indexed": true,
          "internalType": "address",
          "name": "owner",
          "type": "address"
        },
        {
          "indexed": true,
          "internalType": "address",
          "name": "approved",
          "type": "address"
        },
        {
          "indexed": true,
          "internalType": "uint256",
          "name": "tokenId",
          "type": "uint256"
        }
      ],
      "name": "Approval",
      "type": "event"
    },
    {
      "anonymous": false,
      "inputs": [
        {
          "indexed": true,
          "internalType": "address",
          "name": "owner",
          "type": "address"
        },
        {
          "indexed": true,
          "internalType": "address",
          "name": "operator",
          "type": "address"
        },
        {
          "indexed": false,
          "internalType": "bool",
          "name": "approved",
          "type": "bool"
        }
      ],
      "name": "ApprovalForAll",
      "type": "event"
    },
    {
      "anonymous": false,
      "inputs": [
        {
          "indexed": true,
          "internalType": "uint256",
          "name": "achievementId",
          "type": "uint256"
        },
        {
          "indexed": true,
          "internalType": "address",
          "name": "user",
          "type": "address"
        },
        {
          "indexed": false,
          "internalType": "string",
          "name": "content",
          "type": "string"
        }
      ],
      "name": "LogNewAchievement",
      "type": "event"
    },
    {
      "anonymous": false,
      "inputs": [
        {
          "indexed": true,
          "internalType": "address",
          "name": "from",
          "type": "address"
        },
        {
          "indexed": true,
          "internalType": "address",
          "name": "to",
          "type": "address"
        },
        {
          "indexed": true,
          "internalType": "uint256",
          "name": "tokenId",
          "type": "uint256"
        }
      ],
      "name": "Transfer",
      "type": "event"
    },
    {
      "inputs": [],
      "name": "achievementIndex",
      "outputs": [
        {
          "internalType": "uint256",
          "name": "",
          "type": "uint256"
        }
      ],
      "stateMutability": "view",
      "type": "function"
    },
    {
      "inputs": [
        {
          "internalType": "uint256",
          "name": "",
          "type": "uint256"
        }
      ],
      "name": "achievements",
      "outputs": [
        {
          "internalType": "enum Achievements.Action",
          "name": "action",
          "type": "uint8"
        },
        {
          "internalType": "uint256",
          "name": "occurrences",
          "type": "uint256"
        }
      ],
      "stateMutability": "view",
      "type": "function"
    },
    {
      "inputs": [
        {
          "internalType": "address",
          "name": "to",
          "type": "address"
        },
        {
          "internalType": "uint256",
          "name": "tokenId",
          "type": "uint256"
        }
      ],
      "name": "approve",
      "outputs": [],
      "stateMutability": "nonpayable",
      "type": "function"
    },
    {
      "inputs": [
        {
          "internalType": "address",
          "name": "owner",
          "type": "address"
        }
      ],
      "name": "balanceOf",
      "outputs": [
        {
          "internalType": "uint256",
          "name": "",
          "type": "uint256"
        }
      ],
      "stateMutability": "view",
      "type": "function"
    },
    {
      "inputs": [],
      "name": "baseURI",
      "outputs": [
        {
          "internalType": "string",
          "name": "",
          "type": "string"
        }
      ],
      "stateMutability": "view",
      "type": "function"
    },
    {
      "inputs": [
        {
          "internalType": "uint256",
          "name": "tokenId",
          "type": "uint256"
        }
      ],
      "name": "getApproved",
      "outputs": [
        {
          "internalType": "address",
          "name": "",
          "type": "address"
        }
      ],
      "stateMutability": "view",
      "type": "function"
    },
    {
      "inputs": [
        {
          "internalType": "address",
          "name": "owner",
          "type": "address"
        },
        {
          "internalType": "address",
          "name": "operator",
          "type": "address"
        }
      ],
      "name": "isApprovedForAll",
      "outputs": [
        {
          "internalType": "bool",
          "name": "",
          "type": "bool"
        }
      ],
      "stateMutability": "view",
      "type": "function"
    },
    {
      "inputs": [],
      "name": "name",
      "outputs": [
        {
          "internalType": "string",
          "name": "",
          "type": "string"
        }
      ],
      "stateMutability": "view",
      "type": "function"
    },
    {
      "inputs": [
        {
          "internalType": "uint256",
          "name": "tokenId",
          "type": "uint256"
        }
      ],
      "name": "ownerOf",
      "outputs": [
        {
          "internalType": "address",
          "name": "",
          "type": "address"
        }
      ],
      "stateMutability": "view",
      "type": "function"
    },
    {
      "inputs": [],
      "name": "predictionMarket",
      "outputs": [
        {
          "internalType": "contract PredictionMarketV2",
          "name": "",
          "type": "address"
        }
      ],
      "stateMutability": "view",
      "type": "function"
    },
    {
      "inputs": [],
      "name": "realitioERC20",
      "outputs": [
        {
          "internalType": "contract RealitioERC20",
          "name": "",
          "type": "address"
        }
      ],
      "stateMutability": "view",
      "type": "function"
    },
    {
      "inputs": [
        {
          "internalType": "address",
          "name": "from",
          "type": "address"
        },
        {
          "internalType": "address",
          "name": "to",
          "type": "address"
        },
        {
          "internalType": "uint256",
          "name": "tokenId",
          "type": "uint256"
        }
      ],
      "name": "safeTransferFrom",
      "outputs": [],
      "stateMutability": "nonpayable",
      "type": "function"
    },
    {
      "inputs": [
        {
          "internalType": "address",
          "name": "from",
          "type": "address"
        },
        {
          "internalType": "address",
          "name": "to",
          "type": "address"
        },
        {
          "internalType": "uint256",
          "name": "tokenId",
          "type": "uint256"
        },
        {
          "internalType": "bytes",
          "name": "_data",
          "type": "bytes"
        }
      ],
      "name": "safeTransferFrom",
      "outputs": [],
      "stateMutability": "nonpayable",
      "type": "function"
    },
    {
      "inputs": [
        {
          "internalType": "address",
          "name": "operator",
          "type": "address"
        },
        {
          "internalType": "bool",
          "name": "approved",
          "type": "bool"
        }
      ],
      "name": "setApprovalForAll",
      "outputs": [],
      "stateMutability": "nonpayable",
      "type": "function"
    },
    {
      "inputs": [
        {
          "internalType": "bytes4",
          "name": "interfaceId",
          "type": "bytes4"
        }
      ],
      "name": "supportsInterface",
      "outputs": [
        {
          "internalType": "bool",
          "name": "",
          "type": "bool"
        }
      ],
      "stateMutability": "view",
      "type": "function"
    },
    {
      "inputs": [],
      "name": "symbol",
      "outputs": [
        {
          "internalType": "string",
          "name": "",
          "type": "string"
        }
      ],
      "stateMutability": "view",
      "type": "function"
    },
    {
      "inputs": [
        {
          "internalType": "uint256",
          "name": "index",
          "type": "uint256"
        }
      ],
      "name": "tokenByIndex",
      "outputs": [
        {
          "internalType": "uint256",
          "name": "",
          "type": "uint256"
        }
      ],
      "stateMutability": "view",
      "type": "function"
    },
    {
      "inputs": [
        {
          "internalType": "address",
          "name": "owner",
          "type": "address"
        },
        {
          "internalType": "uint256",
          "name": "index",
          "type": "uint256"
        }
      ],
      "name": "tokenOfOwnerByIndex",
      "outputs": [
        {
          "internalType": "uint256",
          "name": "",
          "type": "uint256"
        }
      ],
      "stateMutability": "view",
      "type": "function"
    },
    {
      "inputs": [
        {
          "internalType": "uint256",
          "name": "tokenId",
          "type": "uint256"
        }
      ],
      "name": "tokenURI",
      "outputs": [
        {
          "internalType": "string",
          "name": "",
          "type": "string"
        }
      ],
      "stateMutability": "view",
      "type": "function"
    },
    {
      "inputs": [
        {
          "internalType": "uint256",
          "name": "",
          "type": "uint256"
        }
      ],
      "name": "tokens",
      "outputs": [
        {
          "internalType": "uint256",
          "name": "",
          "type": "uint256"
        }
      ],
      "stateMutability": "view",
      "type": "function"
    },
    {
      "inputs": [],
      "name": "totalSupply",
      "outputs": [
        {
          "internalType": "uint256",
          "name": "",
          "type": "uint256"
        }
      ],
      "stateMutability": "view",
      "type": "function"
    },
    {
      "inputs": [
        {
          "internalType": "address",
          "name": "from",
          "type": "address"
        },
        {
          "internalType": "address",
          "name": "to",
          "type": "address"
        },
        {
          "internalType": "uint256",
          "name": "tokenId",
          "type": "uint256"
        }
      ],
      "name": "transferFrom",
      "outputs": [],
      "stateMutability": "nonpayable",
      "type": "function"
    },
    {
      "inputs": [
        {
          "internalType": "contract PredictionMarketV2",
          "name": "_predictionMarket",
          "type": "address"
        },
        {
          "internalType": "contract RealitioERC20",
          "name": "_realitioERC20",
          "type": "address"
        }
      ],
      "name": "setContracts",
      "outputs": [],
      "stateMutability": "nonpayable",
      "type": "function"
    },
    {
      "inputs": [
        {
          "internalType": "string",
          "name": "_baseURI",
          "type": "string"
        }
      ],
      "name": "setBaseURI",
      "outputs": [],
      "stateMutability": "nonpayable",
      "type": "function"
    },
    {
      "inputs": [
        {
          "internalType": "enum Achievements.Action",
          "name": "action",
          "type": "uint8"
        },
        {
          "internalType": "uint256",
          "name": "occurrences",
          "type": "uint256"
        },
        {
          "internalType": "string",
          "name": "content",
          "type": "string"
        }
      ],
      "name": "createAchievement",
      "outputs": [
        {
          "internalType": "uint256",
          "name": "",
          "type": "uint256"
        }
      ],
      "stateMutability": "nonpayable",
      "type": "function"
    },
    {
      "inputs": [
        {
          "internalType": "address",
          "name": "user",
          "type": "address"
        },
        {
          "internalType": "uint256",
          "name": "achievementId",
          "type": "uint256"
        }
      ],
      "name": "hasUserClaimedAchievement",
      "outputs": [
        {
          "internalType": "bool",
          "name": "",
          "type": "bool"
        }
      ],
      "stateMutability": "view",
      "type": "function"
    },
    {
      "inputs": [
        {
          "internalType": "address",
          "name": "user",
          "type": "address"
        },
        {
          "internalType": "uint256",
          "name": "marketId",
          "type": "uint256"
        }
      ],
      "name": "hasUserPlacedPrediction",
      "outputs": [
        {
          "internalType": "bool",
          "name": "",
          "type": "bool"
        }
      ],
      "stateMutability": "view",
      "type": "function"
    },
    {
      "inputs": [
        {
          "internalType": "address",
          "name": "user",
          "type": "address"
        },
        {
          "internalType": "uint256",
          "name": "marketId",
          "type": "uint256"
        }
      ],
      "name": "hasUserAddedLiquidity",
      "outputs": [
        {
          "internalType": "bool",
          "name": "",
          "type": "bool"
        }
      ],
      "stateMutability": "view",
      "type": "function"
    },
    {
      "inputs": [
        {
          "internalType": "address",
          "name": "user",
          "type": "address"
        },
        {
          "internalType": "uint256",
          "name": "marketId",
          "type": "uint256"
        },
        {
          "internalType": "bytes32[]",
          "name": "history_hashes",
          "type": "bytes32[]"
        },
        {
          "internalType": "address[]",
          "name": "addrs",
          "type": "address[]"
        },
        {
          "internalType": "uint256[]",
          "name": "bonds",
          "type": "uint256[]"
        },
        {
          "internalType": "bytes32[]",
          "name": "answers",
          "type": "bytes32[]"
        }
      ],
      "name": "hasUserPlacedBond",
      "outputs": [
        {
          "internalType": "bool",
          "name": "",
          "type": "bool"
        }
      ],
      "stateMutability": "view",
      "type": "function"
    },
    {
      "inputs": [
        {
          "internalType": "address",
          "name": "user",
          "type": "address"
        },
        {
          "internalType": "uint256",
          "name": "marketId",
          "type": "uint256"
        }
      ],
      "name": "hasUserClaimedWinnings",
      "outputs": [
        {
          "internalType": "bool",
          "name": "",
          "type": "bool"
        }
      ],
      "stateMutability": "view",
      "type": "function"
    },
    {
      "inputs": [
        {
          "internalType": "address",
          "name": "user",
          "type": "address"
        },
        {
          "internalType": "uint256",
          "name": "marketId",
          "type": "uint256"
        }
      ],
      "name": "hasUserCreatedMarket",
      "outputs": [
        {
          "internalType": "bool",
          "name": "",
          "type": "bool"
        }
      ],
      "stateMutability": "view",
      "type": "function"
    },
    {
      "inputs": [
        {
          "internalType": "uint256",
          "name": "achievementId",
          "type": "uint256"
        },
        {
          "internalType": "uint256[]",
          "name": "marketIds",
          "type": "uint256[]"
        }
      ],
      "name": "claimAchievement",
      "outputs": [
        {
          "internalType": "uint256",
          "name": "",
          "type": "uint256"
        }
      ],
      "stateMutability": "nonpayable",
      "type": "function"
    },
    {
      "inputs": [
        {
          "internalType": "uint256",
          "name": "achievementId",
          "type": "uint256"
        },
        {
          "internalType": "uint256[]",
          "name": "marketIds",
          "type": "uint256[]"
        },
        {
          "internalType": "uint256[]",
          "name": "lengths",
          "type": "uint256[]"
        },
        {
          "internalType": "bytes32[]",
          "name": "history_hashes",
          "type": "bytes32[]"
        },
        {
          "internalType": "address[]",
          "name": "addrs",
          "type": "address[]"
        },
        {
          "internalType": "uint256[]",
          "name": "bonds",
          "type": "uint256[]"
        },
        {
          "internalType": "bytes32[]",
          "name": "answers",
          "type": "bytes32[]"
        }
      ],
      "name": "claimAchievement",
      "outputs": [],
      "stateMutability": "nonpayable",
      "type": "function"
    },
    {
      "inputs": [],
      "name": "tokenIndex",
      "outputs": [
        {
          "internalType": "uint256",
          "name": "",
          "type": "uint256"
        }
      ],
      "stateMutability": "view",
      "type": "function"
    }
  ],
  "bytecode": "0x60806040526000600d553480156200001657600080fd5b5060405162003cb038038062003cb0833981016040819052620000399162000284565b8181620000566301ffc9a760e01b6001600160e01b03620000dd16565b81516200006b90600690602085019062000138565b5080516200008190600790602084019062000138565b506200009d6380ac58cd60e01b6001600160e01b03620000dd16565b620000b8635b5e139f60e01b6001600160e01b03620000dd16565b620000d363780e9d6360e01b6001600160e01b03620000dd16565b5050505062000322565b6001600160e01b03198082161415620001135760405162461bcd60e51b81526004016200010a90620002eb565b60405180910390fd5b6001600160e01b0319166000908152602081905260409020805460ff19166001179055565b828054600181600116156101000203166002900490600052602060002090601f016020900481019282601f106200017b57805160ff1916838001178555620001ab565b82800160010185558215620001ab579182015b82811115620001ab5782518255916020019190600101906200018e565b50620001b9929150620001bd565b5090565b620001da91905b80821115620001b95760008155600101620001c4565b90565b600082601f830112620001ee578081fd5b81516001600160401b038082111562000205578283fd5b6040516020601f8401601f191682018101838111838210171562000227578586fd5b806040525081945083825286818588010111156200024457600080fd5b600092505b8383101562000268578583018101518284018201529182019162000249565b838311156200027a5760008185840101525b5050505092915050565b6000806040838503121562000297578182fd5b82516001600160401b0380821115620002ae578384fd5b620002bc86838701620001dd565b93506020850151915080821115620002d2578283fd5b50620002e185828601620001dd565b9150509250929050565b6020808252601c908201527f4552433136353a20696e76616c696420696e7465726661636520696400000000604082015260600190565b61397e80620003326000396000f3fe608060405234801561001057600080fd5b50600436106102265760003560e01c80636c0360eb1161012a578063c8c787ae116100bd578063d8952a491161008c578063e7c3873011610071578063e7c387301461046d578063e985e9c514610480578063ecf5f69b1461049357610226565b8063d8952a4914610452578063def114b61461046557610226565b8063c8c787ae14610427578063c97c89761461043a578063c99aea3314610442578063d55f92731461044a57610226565b806395d89b41116100f957806395d89b41146103e6578063a22cb465146103ee578063b88d4fde14610401578063c87b56dd1461041457610226565b80636c0360eb146103a557806370a08231146103ad5780638c8b8f4e146103c0578063947f53a2146103d357610226565b80632f745c59116101bd5780634f64b2be1161018c57806355f804b31161017157806355f804b31461036c5780636352211e1461037f5780636be5179f1461039257610226565b80634f64b2be146103465780634f6ccce71461035957610226565b80632f745c59146102fa57806342842e0e1461030d57806342da0beb14610320578063497e40961461033357610226565b80630c04f83b116101f95780630c04f83b1461029e57806318160ddd146102b157806323b872dd146102c657806327aed72e146102d957610226565b806301ffc9a71461022b57806306fdde0314610254578063081812fc14610269578063095ea7b314610289575b600080fd5b61023e61023936600461287e565b6104a6565b60405161024b9190612cd4565b60405180910390f35b61025c6104e1565b60405161024b9190612d00565b61027c61027736600461296d565b610578565b60405161024b9190612c84565b61029c6102973660046126eb565b6105c4565b005b61023e6102ac3660046126eb565b61065c565b6102b961078d565b60405161024b9190612cdf565b61029c6102d4366004612614565b61079e565b6102ec6102e736600461296d565b6107d6565b60405161024b929190612ce8565b6102b96103083660046126eb565b6107f5565b61029c61031b366004612614565b610824565b61023e61032e3660046126eb565b61083f565b6102b9610341366004612985565b61086d565b6102b961035436600461296d565b6109f0565b6102b961036736600461296d565b610a02565b61029c61037a36600461293a565b610a1e565b61027c61038d36600461296d565b610a50565b61029c6103a0366004612a69565b610a7e565b61025c610d3d565b6102b96103bb3660046125c0565b610d9e565b61023e6103ce366004612716565b610de7565b61023e6103e13660046126eb565b61104a565b61025c611201565b61029c6103fc3660046126be565b611262565b61029c61040f366004612654565b61134e565b61025c61042236600461296d565b61138d565b6102b96104353660046128c8565b6114d3565b61027c611593565b6102b96115a2565b6102b96115a8565b61029c6104603660046128b6565b6115b4565b61027c611698565b61023e61047b3660046126eb565b6116a7565b61023e61048e3660046125dc565b611793565b61023e6104a13660046126eb565b6117c1565b7fffffffff00000000000000000000000000000000000000000000000000000000811660009081526020819052604090205460ff165b919050565b60068054604080516020601f600260001961010060018816150201909516949094049384018190048102820181019092528281526060939092909183018282801561056d5780601f106105425761010080835404028352916020019161056d565b820191906000526020600020905b81548152906001019060200180831161055057829003601f168201915b505050505090505b90565b60006105838261195e565b6105a85760405162461bcd60e51b815260040161059f906132dd565b60405180910390fd5b506000908152600460205260409020546001600160a01b031690565b60006105cf82610a50565b9050806001600160a01b0316836001600160a01b031614156106035760405162461bcd60e51b815260040161059f906134f6565b806001600160a01b0316610615611971565b6001600160a01b0316148061063157506106318161048e611971565b61064d5760405162461bcd60e51b815260040161059f906130a0565b6106578383611975565b505050565b600c546040517fb31eb8950000000000000000000000000000000000000000000000000000000081526000916060916001600160a01b039091169063b31eb895906106ad9086908890600401613800565b60006040518083038186803b1580156106c557600080fd5b505afa1580156106d9573d6000803e3d6000fd5b505050506040513d6000823e601f3d9081017fffffffffffffffffffffffffffffffffffffffffffffffffffffffffffffffe016820160405261071f91908101906129ca565b915060009050805b825181101561075d57600083828151811061073e57fe5b60200260200101511115610755576001915061075d565b600101610727565b506001811515146107805760405162461bcd60e51b815260040161059f90612e61565b6001925050505b92915050565b600061079960026119fb565b905090565b6107af6107a9611971565b82611a06565b6107cb5760405162461bcd60e51b815260040161059f906135c1565b610657838383611a8b565b600e602052600090815260409020805460019091015460ff9091169082565b6001600160a01b038216600090815260016020526040812061081d908363ffffffff611bab16565b9392505050565b6106578383836040518060200160405280600081525061134e565b6000908152600e602090815260408083206001600160a01b0394909416835260029093019052205460ff1690565b6000828152600e602090815260408083203384526002810190925282205460ff16156108ab5760405162461bcd60e51b815260040161059f9061361e565b6002815460ff1660048111156108bd57fe5b14156108db5760405162461bcd60e51b815260040161059f90613746565b80600101548351146108ff5760405162461bcd60e51b815260040161059f90612dcd565b60005b83518110156109dd57600084828151811061091957fe5b602002602001015190506000600481111561093057fe5b835460ff16600481111561094057fe5b141561095657610950338261065c565b506109d4565b6001835460ff16600481111561096857fe5b14156109785761095033826116a7565b6003835460ff16600481111561098a57fe5b141561099a57610950338261104a565b6004835460ff1660048111156109ac57fe5b14156109bc5761095033826117c1565b60405162461bcd60e51b815260040161059f90613462565b50600101610902565b506109e83385611bb7565b505092915050565b600f6020526000908152604090205481565b600080610a1660028463ffffffff611c3e16565b509392505050565b610a26610d3d565b5115610a445760405162461bcd60e51b815260040161059f90612f52565b610a4d81611c5a565b50565b600061078782604051806060016040528060298152602001613920602991396002919063ffffffff611c7116565b6000878152600e60209081526040808320338452600281019092529091205460ff1615610abd5760405162461bcd60e51b815260040161059f9061361e565b6002815460ff166004811115610acf57fe5b14610aec5760405162461bcd60e51b815260040161059f90613280565b6000875111610b0d5760405162461bcd60e51b815260040161059f9061315a565b8060010154875114610b315760405162461bcd60e51b815260040161059f90612dcd565b6000805b8851811015610d26576000898281518110610b4c57fe5b602002602001015190506000898381518110610b6457fe5b60200260200101519050606081604051908082528060200260200182016040528015610b9a578160200160208202803883390190505b509050606082604051908082528060200260200182016040528015610bc9578160200160208202803883390190505b509050606083604051908082528060200260200182016040528015610bf8578160200160208202803883390190505b509050606084604051908082528060200260200182016040528015610c27578160200160208202803883390190505b50905060005b85811015610d04578d8981518110610c4157fe5b6020026020010151858281518110610c5557fe5b6020026020010181815250508c8981518110610c6d57fe5b6020026020010151848281518110610c8157fe5b60200260200101906001600160a01b031690816001600160a01b0316815250508b8981518110610cad57fe5b6020026020010151838281518110610cc157fe5b6020026020010181815250508a8981518110610cd957fe5b6020026020010151828281518110610ced57fe5b602090810291909101015260019889019801610c2d565b610d12338887878787610de7565b505060019096019550610b35945050505050565b50610d31338a611bb7565b50505050505050505050565b60098054604080516020601f600260001961010060018816150201909516949094049384018190048102820181019092528281526060939092909183018282801561056d5780601f106105425761010080835404028352916020019161056d565b60006001600160a01b038216610dc65760405162461bcd60e51b815260040161059f906130fd565b6001600160a01b0382166000908152600160205260409020610787906119fb565b600c546040517f1d7920aa000000000000000000000000000000000000000000000000000000008152600091829182916001600160a01b031690631d7920aa90610e35908b90600401612cdf565b60806040518083038186803b158015610e4d57600080fd5b505afa158015610e61573d6000803e3d6000fd5b505050506040513d601f19601f82011682018060405250610e859190810190612b62565b5050600b546040517f95addb900000000000000000000000000000000000000000000000000000000081529193506001600160a01b031691506395addb9090610ed2908490600401612cdf565b6101406040518083038186803b158015610eeb57600080fd5b505afa158015610eff573d6000803e3d6000fd5b505050506040513d601f19601f82011682018060405250610f2391908101906127d8565b509950600097508796505050505050505b885181101561101757888181518110610f4957fe5b6020026020010151868281518110610f5d57fe5b6020026020010151888381518110610f7157fe5b60200260200101518a8481518110610f8557fe5b60200260200101516000604051602001610fa3959493929190612bec565b604051602081830303815290604052805190602001208414610fc457600080fd5b8a6001600160a01b0316888281518110610fda57fe5b60200260200101516001600160a01b03161415610ff657600191505b88818151811061100257fe5b60209081029190910101519350600101610f34565b6001821515146110395760405162461bcd60e51b815260040161059f9061368c565b5060019a9950505050505050505050565b600c546040517fb31eb8950000000000000000000000000000000000000000000000000000000081526000916060916001600160a01b039091169063b31eb8959061109b9086908890600401613800565b60006040518083038186803b1580156110b357600080fd5b505afa1580156110c7573d6000803e3d6000fd5b505050506040513d6000823e601f3d9081017fffffffffffffffffffffffffffffffffffffffffffffffffffffffffffffffe016820160405261110d91908101906129ca565b600c546040517fbf455721000000000000000000000000000000000000000000000000000000008152919350600092506001600160a01b03169063bf4557219061115b908790600401612cdf565b60206040518083038186803b15801561117357600080fd5b505afa158015611187573d6000803e3d6000fd5b505050506040513d601f19601f820116820180604052506111ab9190810190612922565b905060008112156111ce5760405162461bcd60e51b815260040161059f90613553565b60008282815181106111dc57fe5b6020026020010151116107805760405162461bcd60e51b815260040161059f906136e9565b60078054604080516020601f600260001961010060018816150201909516949094049384018190048102820181019092528281526060939092909183018282801561056d5780601f106105425761010080835404028352916020019161056d565b61126a611971565b6001600160a01b0316826001600160a01b0316141561129b5760405162461bcd60e51b815260040161059f90612f1b565b80600560006112a8611971565b6001600160a01b0390811682526020808301939093526040918201600090812091871680825291909352912080547fffffffffffffffffffffffffffffffffffffffffffffffffffffffffffffff00169215159290921790915561130a611971565b6001600160a01b03167f17307eab39ab6107e8899845ad3d59bd9653f200f220920489ca2b5937696c31836040516113429190612cd4565b60405180910390a35050565b61135f611359611971565b83611a06565b61137b5760405162461bcd60e51b815260040161059f906135c1565b61138784848484611c7e565b50505050565b60606113988261195e565b6113b45760405162461bcd60e51b815260040161059f90613397565b60008281526008602090815260409182902080548351601f60026000196101006001861615020190931692909204918201849004840281018401909452808452606093928301828280156114495780601f1061141e57610100808354040283529160200191611449565b820191906000526020600020905b81548152906001019060200180831161142c57829003601f168201915b50505050509050606061145a610d3d565b905080516000141561146e575090506104dc565b8151156114a0578082604051602001611488929190612c56565b604051602081830303815290604052925050506104dc565b806114aa85611cb1565b6040516020016114bb929190612c56565b60405160208183030381529060405292505050919050565b60008083116114f45760405162461bcd60e51b815260040161059f906137a3565b600d546000818152600e602052604090208054869082907fffffffffffffffffffffffffffffffffffffffffffffffffffffffffffffff0016600183600481111561153b57fe5b021790555060018101859055604051339083907ff12dd2cec284c7695fa5ff87a683b64add6d47d7a74e190171798ee5e70a744c9061157b908890612d00565b60405180910390a35060018101600d55949350505050565b600b546001600160a01b031681565b600d5481565b6000610799600a611da9565b600c546001600160a01b0316156115dd5760405162461bcd60e51b815260040161059f90613223565b600b546001600160a01b0316156116065760405162461bcd60e51b815260040161059f90613043565b6001600160a01b03821661162c5760405162461bcd60e51b815260040161059f9061300c565b6001600160a01b0381166116525760405162461bcd60e51b815260040161059f9061342b565b600c80546001600160a01b039384167fffffffffffffffffffffffff000000000000000000000000000000000000000091821617909155600b8054929093169116179055565b600c546001600160a01b031681565b600c546040517fb31eb89500000000000000000000000000000000000000000000000000000000815260009182916001600160a01b039091169063b31eb895906116f79086908890600401613800565b60006040518083038186803b15801561170f57600080fd5b505afa158015611723573d6000803e3d6000fd5b505050506040513d6000823e601f3d9081017fffffffffffffffffffffffffffffffffffffffffffffffffffffffffffffffe016820160405261176991908101906129ca565b509050806117895760405162461bcd60e51b815260040161059f90613499565b5060019392505050565b6001600160a01b03918216600090815260056020908152604080832093909416825291909152205460ff1690565b60006001600160a01b0383166117e95760405162461bcd60e51b815260040161059f9061358a565b600c546040517f1d7920aa00000000000000000000000000000000000000000000000000000000815260009182916001600160a01b0390911690631d7920aa90611837908790600401612cdf565b60806040518083038186803b15801561184f57600080fd5b505afa158015611863573d6000803e3d6000fd5b505050506040513d601f19601f820116820180604052506118879190810190612b62565b5050600b546040517f95addb900000000000000000000000000000000000000000000000000000000081529194506001600160a01b031691506395addb90906118d4908590600401612cdf565b6101406040518083038186803b1580156118ed57600080fd5b505afa158015611901573d6000803e3d6000fd5b505050506040513d601f19601f8201168201806040525061192591908101906127d8565b509698505050506001600160a01b038a811690871614945061078093505050505760405162461bcd60e51b815260040161059f906133f4565b600061078760028363ffffffff611dad16565b3390565b600081815260046020526040902080547fffffffffffffffffffffffff0000000000000000000000000000000000000000166001600160a01b03841690811790915581906119c282610a50565b6001600160a01b03167f8c5be1e5ebec7d5bd14f71427d1e84f3dd0314c0f7b2291e5b200ac8c7c3b92560405160405180910390a45050565b600061078782611da9565b6000611a118261195e565b611a2d5760405162461bcd60e51b815260040161059f90612faf565b6000611a3883610a50565b9050806001600160a01b0316846001600160a01b03161480611a735750836001600160a01b0316611a6884610578565b6001600160a01b0316145b80611a835750611a838185611793565b949350505050565b826001600160a01b0316611a9e82610a50565b6001600160a01b031614611ac45760405162461bcd60e51b815260040161059f9061333a565b6001600160a01b038216611aea5760405162461bcd60e51b815260040161059f90612ebe565b611af5838383610657565b611b00600082611975565b6001600160a01b0383166000908152600160205260409020611b28908263ffffffff611db916565b506001600160a01b0382166000908152600160205260409020611b51908263ffffffff611dc516565b50611b646002828463ffffffff611dd116565b5080826001600160a01b0316846001600160a01b03167fddf252ad1be2c89b69c2b068fc378daa952ba7f163c4a11628f55a4df523b3ef60405160405180910390a4505050565b600061081d8383611de7565b6000611bc3600a611e2c565b6000611bcf600a611da9565b9050611bdb8482611e35565b6000818152600f60209081526040808320869055858352600e82528083206001600160a01b0388168452600201909152902080547fffffffffffffffffffffffffffffffffffffffffffffffffffffffffffffff00166001179055905092915050565b6000808080611c4d8686611f05565b9097909650945050505050565b8051611c6d9060099060208401906123c1565b5050565b6000611a83848484611f61565b611c89848484611a8b565b611c9584848484611fc0565b6113875760405162461bcd60e51b815260040161059f90612d70565b606081611cf2575060408051808201909152600181527f300000000000000000000000000000000000000000000000000000000000000060208201526104dc565b8160005b8115611d0a57600101600a82049150611cf6565b6060816040519080825280601f01601f191660200182016040528015611d37576020820181803883390190505b50859350905060001982015b8315611da057600a840660300160f81b82828060019003935081518110611d6657fe5b60200101907effffffffffffffffffffffffffffffffffffffffffffffffffffffffffffff1916908160001a905350600a84049350611d43565b50949350505050565b5490565b600061081d8383612119565b600061081d8383612131565b600061081d83836121f7565b6000611a8384846001600160a01b038516612241565b81546000908210611e0a5760405162461bcd60e51b815260040161059f90612d13565b826000018281548110611e1957fe5b9060005260206000200154905092915050565b80546001019055565b6001600160a01b038216611e5b5760405162461bcd60e51b815260040161059f906131ee565b611e648161195e565b15611e815760405162461bcd60e51b815260040161059f90612e2a565b611e8d60008383610657565b6001600160a01b0382166000908152600160205260409020611eb5908263ffffffff611dc516565b50611ec86002828463ffffffff611dd116565b5060405181906001600160a01b038416906000907fddf252ad1be2c89b69c2b068fc378daa952ba7f163c4a11628f55a4df523b3ef908290a45050565b815460009081908310611f2a5760405162461bcd60e51b815260040161059f90613191565b6000846000018481548110611f3b57fe5b906000526020600020906002020190508060000154816001015492509250509250929050565b60008281526001840160205260408120548281611f915760405162461bcd60e51b815260040161059f9190612d00565b50846000016001820381548110611fa457fe5b9060005260206000209060020201600101549150509392505050565b6000611fd4846001600160a01b03166122d8565b611fe057506001611a83565b60606120b17f150b7a020000000000000000000000000000000000000000000000000000000061200e611971565b8887876040516024016120249493929190612c98565b604051602081830303815290604052907bffffffffffffffffffffffffffffffffffffffffffffffffffffffff19166020820180517bffffffffffffffffffffffffffffffffffffffffffffffffffffffff83818316178352505050506040518060600160405280603281526020016138ee603291396001600160a01b038816919063ffffffff6122de16565b90506000818060200190516120c9919081019061289a565b7fffffffff00000000000000000000000000000000000000000000000000000000167f150b7a02000000000000000000000000000000000000000000000000000000001492505050949350505050565b60009081526001919091016020526040902054151590565b600081815260018301602052604081205480156121ed578354600019808301919081019060009087908390811061216457fe5b906000526020600020015490508087600001848154811061218157fe5b6000918252602080832090910192909255828152600189810190925260409020908401905586548790806121b157fe5b60019003818190600052602060002001600090559055866001016000878152602001908152602001600020600090556001945050505050610787565b6000915050610787565b60006122038383612119565b61223957508154600181810184556000848152602080822090930184905584548482528286019093526040902091909155610787565b506000610787565b6000828152600184016020526040812054806122a657505060408051808201825283815260208082018481528654600181810189556000898152848120955160029093029095019182559151908201558654868452818801909252929091205561081d565b828560000160018303815481106122b957fe5b906000526020600020906002020160010181905550600091505061081d565b3b151590565b6060611a838484600085856122f2856122d8565b61230e5760405162461bcd60e51b815260040161059f90613655565b60006060866001600160a01b0316858760405161232b9190612c3a565b60006040518083038185875af1925050503d8060008114612368576040519150601f19603f3d011682016040523d82523d6000602084013e61236d565b606091505b509150915061237d828286612388565b979650505050505050565b6060831561239757508161081d565b8251156123a75782518084602001fd5b8160405162461bcd60e51b815260040161059f9190612d00565b828054600181600116156101000203166002900490600052602060002090601f016020900481019282601f1061240257805160ff191683800117855561242f565b8280016001018555821561242f579182015b8281111561242f578251825591602001919060010190612414565b5061243b92915061243f565b5090565b61057591905b8082111561243b5760008155600101612445565b80356107878161388a565b600082601f830112612474578081fd5b81356124876124828261383e565b613817565b8181529150602080830190848101818402860182018710156124a857600080fd5b60005b848110156124d05781356124be8161388a565b845292820192908201906001016124ab565b505050505092915050565b600082601f8301126124eb578081fd5b81356124f96124828261383e565b81815291506020808301908481018184028601820187101561251a57600080fd5b60005b848110156124d05781358452928201929082019060010161251d565b600082601f830112612549578081fd5b813567ffffffffffffffff81111561255f578182fd5b61259060207fffffffffffffffffffffffffffffffffffffffffffffffffffffffffffffffe0601f84011601613817565b91508082528360208285010111156125a757600080fd5b8060208401602084013760009082016020015292915050565b6000602082840312156125d1578081fd5b813561081d8161388a565b600080604083850312156125ee578081fd5b82356125f98161388a565b915060208301356126098161388a565b809150509250929050565b600080600060608486031215612628578081fd5b83356126338161388a565b925060208401356126438161388a565b929592945050506040919091013590565b60008060008060808587031215612669578182fd5b84356126748161388a565b935060208501356126848161388a565b925060408501359150606085013567ffffffffffffffff8111156126a6578182fd5b6126b287828801612539565b91505092959194509250565b600080604083850312156126d0578182fd5b82356126db8161388a565b915060208301356126098161389f565b600080604083850312156126fd578182fd5b82356127088161388a565b946020939093013593505050565b60008060008060008060c0878903121561272e578384fd5b6127388888612459565b955060208701359450604087013567ffffffffffffffff8082111561275b578586fd5b6127678a838b016124db565b9550606089013591508082111561277c578384fd5b6127888a838b01612464565b9450608089013591508082111561279d578384fd5b6127a98a838b016124db565b935060a08901359150808211156127be578283fd5b506127cb89828a016124db565b9150509295509295509295565b6000806000806000806000806000806101408b8d0312156127f7578788fd5b8a51995060208b01516128098161388a565b60408c015190995061281a816138db565b60608c015190985061282b816138db565b60808c015190975061283c816138db565b60a08c015190965061284d8161389f565b8095505060c08b0151935060e08b015192506101008b015191506101208b015190509295989b9194979a5092959850565b60006020828403121561288f578081fd5b813561081d816138ad565b6000602082840312156128ab578081fd5b815161081d816138ad565b600080604083850312156125ee578182fd5b6000806000606084860312156128dc578081fd5b8335600581106128ea578182fd5b925060208401359150604084013567ffffffffffffffff81111561290c578182fd5b61291886828701612539565b9150509250925092565b600060208284031215612933578081fd5b5051919050565b60006020828403121561294b578081fd5b813567ffffffffffffffff811115612961578182fd5b611a8384828501612539565b60006020828403121561297e578081fd5b5035919050565b60008060408385031215612997578182fd5b82359150602083013567ffffffffffffffff8111156129b4578182fd5b6129c0858286016124db565b9150509250929050565b600080604083850312156129dc578182fd5b8251915060208084015167ffffffffffffffff8111156129fa578283fd5b80850186601f820112612a0b578384fd5b80519150612a1b6124828361383e565b82815283810190828501858502840186018a1015612a37578687fd5b8693505b84841015612a59578051835260019390930192918501918501612a3b565b5080955050505050509250929050565b600080600080600080600060e0888a031215612a83578081fd5b87359650602088013567ffffffffffffffff80821115612aa1578283fd5b612aad8b838c016124db565b975060408a0135915080821115612ac2578283fd5b612ace8b838c016124db565b965060608a0135915080821115612ae3578283fd5b612aef8b838c016124db565b955060808a0135915080821115612b04578283fd5b612b108b838c01612464565b945060a08a0135915080821115612b25578283fd5b612b318b838c016124db565b935060c08a0135915080821115612b46578283fd5b50612b538a828b016124db565b91505092959891949750929550565b60008060008060808587031215612b77578182fd5b8451935060208501519250604085015191506060850151612b978161388a565b939692955090935050565b60008151808452612bba81602086016020860161385e565b601f017fffffffffffffffffffffffffffffffffffffffffffffffffffffffffffffffe0169290920160200192915050565b94855260208501939093526040840191909152606090811b7fffffffffffffffffffffffffffffffffffffffff0000000000000000000000001690830152151560f81b607482015260750190565b60008251612c4c81846020870161385e565b9190910192915050565b60008351612c6881846020880161385e565b8351908301612c7b82826020880161385e565b01949350505050565b6001600160a01b0391909116815260200190565b60006001600160a01b03808716835280861660208401525083604083015260806060830152612cca6080830184612ba2565b9695505050505050565b901515815260200190565b90815260200190565b6040810160058410612cf657fe5b9281526020015290565b60006020825261081d6020830184612ba2565b60208082526022908201527f456e756d657261626c655365743a20696e646578206f7574206f6620626f756e60408201527f6473000000000000000000000000000000000000000000000000000000000000606082015260800190565b60208082526032908201527f4552433732313a207472616e7366657220746f206e6f6e20455243373231526560408201527f63656976657220696d706c656d656e7465720000000000000000000000000000606082015260800190565b60208082526029908201527f4d61726b65747320636f756e7420616e64206f6363757272656e63657320646f60408201527f6e2774206d617463680000000000000000000000000000000000000000000000606082015260800190565b6020808252601c908201527f4552433732313a20746f6b656e20616c7265616479206d696e74656400000000604082015260600190565b60208082526021908201527f7573657220646f6573206e6f7420686f6c64206f7574636f6d6520736861726560408201527f7300000000000000000000000000000000000000000000000000000000000000606082015260800190565b60208082526024908201527f4552433732313a207472616e7366657220746f20746865207a65726f2061646460408201527f7265737300000000000000000000000000000000000000000000000000000000606082015260800190565b60208082526019908201527f4552433732313a20617070726f766520746f2063616c6c657200000000000000604082015260600190565b60208082526024908201527f626173655552492063616e206f6e6c7920626520696e697469616c697a65642060408201527f6f6e636500000000000000000000000000000000000000000000000000000000606082015260800190565b6020808252602c908201527f4552433732313a206f70657261746f7220717565727920666f72206e6f6e657860408201527f697374656e7420746f6b656e0000000000000000000000000000000000000000606082015260800190565b6020808252601e908201527f5f70726564696374696f6e4d61726b6574206164647265737320697320300000604082015260600190565b6020808252602a908201527f7265616c6974696f45524332302063616e206f6e6c7920626520696e6974696160408201527f6c697a6564206f6e636500000000000000000000000000000000000000000000606082015260800190565b60208082526038908201527f4552433732313a20617070726f76652063616c6c6572206973206e6f74206f7760408201527f6e6572206e6f7220617070726f76656420666f7220616c6c0000000000000000606082015260800190565b6020808252602a908201527f4552433732313a2062616c616e636520717565727920666f7220746865207a6560408201527f726f206164647265737300000000000000000000000000000000000000000000606082015260800190565b60208082526013908201527f4e6f20616374696f6e732070726f766964656400000000000000000000000000604082015260600190565b60208082526022908201527f456e756d657261626c654d61703a20696e646578206f7574206f6620626f756e60408201527f6473000000000000000000000000000000000000000000000000000000000000606082015260800190565b6020808252818101527f4552433732313a206d696e7420746f20746865207a65726f2061646472657373604082015260600190565b6020808252602d908201527f70726564696374696f6e4d61726b65742063616e206f6e6c7920626520696e6960408201527f7469616c697a6564206f6e636500000000000000000000000000000000000000606082015260800190565b60208082526030908201527f4d6574686f64206f6e6c79207573656420666f7220626f6e6420706c6163656d60408201527f656e7420616368696576656d656e747300000000000000000000000000000000606082015260800190565b6020808252602c908201527f4552433732313a20617070726f76656420717565727920666f72206e6f6e657860408201527f697374656e7420746f6b656e0000000000000000000000000000000000000000606082015260800190565b60208082526029908201527f4552433732313a207472616e73666572206f6620746f6b656e2074686174206960408201527f73206e6f74206f776e0000000000000000000000000000000000000000000000606082015260800190565b6020808252602f908201527f4552433732314d657461646174613a2055524920717565727920666f72206e6f60408201527f6e6578697374656e7420746f6b656e0000000000000000000000000000000000606082015260800190565b6020808252601a908201527f7573657220646964206e6f7420637265617465206d61726b6574000000000000604082015260600190565b6020808252601b908201527f5f7265616c6974696f4552433230206164647265737320697320300000000000604082015260600190565b6020808252601a908201527f496e76616c696420616368696576656d656e7420616374696f6e000000000000604082015260600190565b60208082526023908201527f7573657220646f6573206e6f7420686f6c64206c69717569646974792073686160408201527f7265730000000000000000000000000000000000000000000000000000000000606082015260800190565b60208082526021908201527f4552433732313a20617070726f76616c20746f2063757272656e74206f776e6560408201527f7200000000000000000000000000000000000000000000000000000000000000606082015260800190565b6020808252601c908201527f6d61726b6574206973207374696c6c206e6f74207265736f6c76656400000000604082015260600190565b60208082526013908201527f7573657220616464726573732069732030783000000000000000000000000000604082015260600190565b60208082526031908201527f4552433732313a207472616e736665722063616c6c6572206973206e6f74206f60408201527f776e6572206e6f7220617070726f766564000000000000000000000000000000606082015260800190565b6020808252601b908201527f416368696576656d656e7420616c726561647920636c61696d65640000000000604082015260600190565b6020808252601d908201527f416464726573733a2063616c6c20746f206e6f6e2d636f6e7472616374000000604082015260600190565b60208082526024908201527f7573657220686173206e6f7420706c61636564206120626f6e6420696e206d6160408201527f726b657400000000000000000000000000000000000000000000000000000000606082015260800190565b60208082526029908201527f7573657220646f6573206e6f7420686f6c642077696e6e696e67206f7574636f60408201527f6d65207368617265730000000000000000000000000000000000000000000000606082015260800190565b6020808252602f908201527f4d6574686f64206e6f74207573656420666f7220626f6e6420706c6163656d6560408201527f6e7420616368696576656d656e74730000000000000000000000000000000000606082015260800190565b60208082526024908201527f6f6363757272656e6365732068617320746f206265206772656174657220746860408201527f616e203000000000000000000000000000000000000000000000000000000000606082015260800190565b9182526001600160a01b0316602082015260400190565b60405181810167ffffffffffffffff8111828210171561383657600080fd5b604052919050565b600067ffffffffffffffff821115613854578081fd5b5060209081020190565b60005b83811015613879578181015183820152602001613861565b838111156113875750506000910152565b6001600160a01b0381168114610a4d57600080fd5b8015158114610a4d57600080fd5b7fffffffff0000000000000000000000000000000000000000000000000000000081168114610a4d57600080fd5b63ffffffff81168114610a4d57600080fdfe4552433732313a207472616e7366657220746f206e6f6e20455243373231526563656976657220696d706c656d656e7465724552433732313a206f776e657220717565727920666f72206e6f6e6578697374656e7420746f6b656ea2646970667358221220cf9397db188159170742af138e79da082295183541264f3d2c248dd8000e158964736f6c63430006020033",
  "source": "pragma solidity ^0.6.0;\npragma experimental ABIEncoderV2;\n\nimport \"./RealitioERC20.sol\";\nimport \"./PredictionMarketV2.sol\";\n\n// openzeppelin imports\nimport \"@openzeppelin/contracts/math/SafeMath.sol\";\nimport \"@openzeppelin/contracts/token/ERC721/ERC721.sol\";\nimport \"@openzeppelin/contracts/utils/Counters.sol\";\n\n/// @title Prediction Market Achievements Contract\ncontract Achievements is ERC721 {\n  using Counters for Counters.Counter;\n  Counters.Counter private _tokenIds;\n\n  /// @dev protocol is immutable and has no ownership\n  RealitioERC20 public realitioERC20;\n  PredictionMarketV2 public predictionMarket;\n\n  event LogNewAchievement(uint256 indexed achievementId, address indexed user, string content);\n\n  // Buy: Claim through market[x].outcome[y].shares.holders[msg.sender] > 0\n  // AddLiquidity: Claim through market[x].liquidityShares[msg.sender] > 0\n  // CreateMarket: RealitioERC20 question arbitrator == msg.sender\n  // ClaimWinnings: Claim through market[x].outcome[y].shares.holders[msg.sender] > 0 && y == market.resolution.outcomeId\n  // Bond: Use RealitioERC20 historyHashes logic value and ensure addrs.includes(msg.sender)\n  enum Action {\n    Buy,\n    AddLiquidity,\n    Bond,\n    ClaimWinnings,\n    CreateMarket\n  }\n\n  struct Achievement {\n    Action action;\n    uint256 occurrences;\n    mapping(address => bool) claims;\n  }\n\n  uint256 public achievementIndex = 0;\n  mapping(uint256 => Achievement) public achievements;\n  mapping(uint256 => uint256) public tokens; // tokenId => achievementId\n\n  constructor(string memory token, string memory ticker) public ERC721(token, ticker) {}\n\n  function setContracts(PredictionMarketV2 _predictionMarket, RealitioERC20 _realitioERC20) public {\n    require(address(predictionMarket) == address(0), \"predictionMarket can only be initialized once\");\n    require(address(realitioERC20) == address(0), \"realitioERC20 can only be initialized once\");\n\n    require(address(_predictionMarket) != address(0), \"_predictionMarket address is 0\");\n    require(address(_realitioERC20) != address(0), \"_realitioERC20 address is 0\");\n\n    predictionMarket = _predictionMarket;\n    realitioERC20 = _realitioERC20;\n  }\n\n  function setBaseURI(string memory _baseURI) public {\n    require(bytes(baseURI()).length == 0, \"baseURI can only be initialized once\");\n\n    _setBaseURI(_baseURI);\n  }\n\n  function createAchievement(\n    Action action,\n    uint256 occurrences,\n    string memory content\n  ) public returns (uint256) {\n    require(occurrences > 0, \"occurrences has to be greater than 0\");\n    uint256 achievementId = achievementIndex;\n    Achievement storage achievement = achievements[achievementId];\n\n    achievement.action = action;\n    achievement.occurrences = occurrences;\n    emit LogNewAchievement(achievementId, msg.sender, content);\n    achievementIndex = achievementId + 1;\n    return achievementId;\n  }\n\n  function hasUserClaimedAchievement(address user, uint256 achievementId) public view returns (bool) {\n    Achievement storage achievement = achievements[achievementId];\n\n    return achievement.claims[user];\n  }\n\n  function hasUserPlacedPrediction(address user, uint256 marketId) public view returns (bool) {\n    uint256[] memory outcomeShares;\n    (, outcomeShares) = predictionMarket.getUserMarketShares(marketId, user);\n\n    bool hasPlacedPrediction;\n\n    for (uint256 i = 0; i < outcomeShares.length; i++) {\n      if (outcomeShares[i] > 0) {\n        hasPlacedPrediction = true;\n        break;\n      }\n    }\n\n    require(hasPlacedPrediction == true, \"user does not hold outcome shares\");\n\n    return true;\n  }\n\n  function hasUserAddedLiquidity(address user, uint256 marketId) public view returns (bool) {\n    uint256 liquidityShares;\n    (liquidityShares, ) = predictionMarket.getUserMarketShares(marketId, user);\n\n    require(liquidityShares > 0, \"user does not hold liquidity shares\");\n\n    return true;\n  }\n\n  function hasUserPlacedBond(\n    address user,\n    uint256 marketId,\n    bytes32[] memory history_hashes,\n    address[] memory addrs,\n    uint256[] memory bonds,\n    bytes32[] memory answers\n  ) public view returns (bool) {\n    bytes32 last_history_hash;\n    bytes32 questionId;\n    (, questionId, , ) = predictionMarket.getMarketAltData(marketId);\n    (, , , , , , , , last_history_hash, ) = realitioERC20.questions(questionId);\n    bool bonded;\n\n    uint256 i;\n    for (i = 0; i < history_hashes.length; i++) {\n      require(\n        last_history_hash == keccak256(abi.encodePacked(history_hashes[i], answers[i], bonds[i], addrs[i], false))\n      );\n\n      if (addrs[i] == user) bonded = true;\n\n      last_history_hash = history_hashes[i];\n    }\n\n    require(bonded == true, \"user has not placed a bond in market\");\n\n    return true;\n  }\n\n  function hasUserClaimedWinnings(address user, uint256 marketId) public view returns (bool) {\n    uint256[] memory outcomeShares;\n    (, outcomeShares) = predictionMarket.getUserMarketShares(marketId, user);\n    int256 resolvedOutcomeId = predictionMarket.getMarketResolvedOutcome(marketId);\n\n    require(resolvedOutcomeId >= 0, \"market is still not resolved\");\n    require(outcomeShares[uint256(resolvedOutcomeId)] > 0, \"user does not hold winning outcome shares\");\n\n    return true;\n  }\n\n  function hasUserCreatedMarket(address user, uint256 marketId) public view returns (bool) {\n    require(user != address(0), \"user address is 0x0\");\n\n    bytes32 questionId;\n    address arbitrator;\n    (, questionId, , ) = predictionMarket.getMarketAltData(marketId);\n    (, arbitrator, , , , , , , , ) = realitioERC20.questions(questionId);\n\n    require(user == arbitrator, \"user did not create market\");\n\n    return true;\n  }\n\n  function claimAchievement(uint256 achievementId, uint256[] memory marketIds) public returns (uint256) {\n    Achievement storage achievement = achievements[achievementId];\n\n    require(achievement.claims[msg.sender] == false, \"Achievement already claimed\");\n    require(achievement.action != Action.Bond, \"Method not used for bond placement achievements\");\n    require(marketIds.length == achievement.occurrences, \"Markets count and occurrences don't match\");\n\n    for (uint256 i = 0; i < marketIds.length; i++) {\n      uint256 marketId = marketIds[i];\n\n      if (achievement.action == Action.Buy) {\n        hasUserPlacedPrediction(msg.sender, marketId);\n      } else if (achievement.action == Action.AddLiquidity) {\n        hasUserAddedLiquidity(msg.sender, marketId);\n      } else if (achievement.action == Action.ClaimWinnings) {\n        hasUserClaimedWinnings(msg.sender, marketId);\n      } else if (achievement.action == Action.CreateMarket) {\n        hasUserCreatedMarket(msg.sender, marketId);\n      } else {\n        revert(\"Invalid achievement action\");\n      }\n    }\n\n    mintAchievement(msg.sender, achievementId);\n  }\n\n  function claimAchievement(\n    uint256 achievementId,\n    uint256[] memory marketIds,\n    uint256[] memory lengths,\n    bytes32[] memory history_hashes,\n    address[] memory addrs,\n    uint256[] memory bonds,\n    bytes32[] memory answers\n  ) public {\n    Achievement storage achievement = achievements[achievementId];\n\n    require(achievement.claims[msg.sender] == false, \"Achievement already claimed\");\n    require(achievement.action == Action.Bond, \"Method only used for bond placement achievements\");\n    require(marketIds.length > 0, \"No actions provided\");\n    require(marketIds.length == achievement.occurrences, \"Markets count and occurrences don't match\");\n\n    uint256 qi;\n\n    for (uint256 i = 0; i < marketIds.length; i++) {\n      uint256 marketId = marketIds[i];\n\n      uint256 ln = lengths[i];\n      bytes32[] memory hh = new bytes32[](ln);\n      address[] memory ad = new address[](ln);\n      uint256[] memory bo = new uint256[](ln);\n      bytes32[] memory an = new bytes32[](ln);\n      uint256 j;\n      for (j = 0; j < ln; j++) {\n        hh[j] = history_hashes[qi];\n        ad[j] = addrs[qi];\n        bo[j] = bonds[qi];\n        an[j] = answers[qi];\n        qi++;\n      }\n      hasUserPlacedBond(msg.sender, marketId, hh, ad, bo, an);\n    }\n\n    mintAchievement(msg.sender, achievementId);\n  }\n\n  function mintAchievement(address user, uint256 achievementId) private returns (uint256) {\n    _tokenIds.increment();\n\n    uint256 tokenId = _tokenIds.current();\n    _mint(user, tokenId);\n    tokens[tokenId] = achievementId;\n\n    Achievement storage achievement = achievements[achievementId];\n    achievement.claims[user] = true;\n\n    return tokenId;\n  }\n\n  function tokenIndex() public view returns (uint256) {\n    return _tokenIds.current();\n  }\n}\n",
  "sourcePath": "/Users/ricardomarques/dev/workspace/polkamarkets/bepro-js/contracts/Achievements.sol",
  "compiler": {
    "name": "solc",
    "version": "0.6.2+commit.bacdbe57.Emscripten.clang"
  },
  "schemaVersion": "3.4.4",
  "updatedAt": "2023-02-07T16:52:19.679Z",
  "devdoc": {
    "methods": {
      "approve(address,uint256)": {
        "details": "See {IERC721-approve}."
      },
      "balanceOf(address)": {
        "details": "See {IERC721-balanceOf}."
      },
      "baseURI()": {
        "details": "Returns the base URI set via {_setBaseURI}. This will be automatically added as a prefix in {tokenURI} to each token's URI, or to the token ID if no specific URI is set for that token ID."
      },
      "getApproved(uint256)": {
        "details": "See {IERC721-getApproved}."
      },
      "isApprovedForAll(address,address)": {
        "details": "See {IERC721-isApprovedForAll}."
      },
      "name()": {
        "details": "See {IERC721Metadata-name}."
      },
      "ownerOf(uint256)": {
        "details": "See {IERC721-ownerOf}."
      },
      "safeTransferFrom(address,address,uint256)": {
        "details": "See {IERC721-safeTransferFrom}."
      },
      "safeTransferFrom(address,address,uint256,bytes)": {
        "details": "See {IERC721-safeTransferFrom}."
      },
      "setApprovalForAll(address,bool)": {
        "details": "See {IERC721-setApprovalForAll}."
      },
      "supportsInterface(bytes4)": {
        "details": "See {IERC165-supportsInterface}.     * Time complexity O(1), guaranteed to always use less than 30 000 gas."
      },
      "symbol()": {
        "details": "See {IERC721Metadata-symbol}."
      },
      "tokenByIndex(uint256)": {
        "details": "See {IERC721Enumerable-tokenByIndex}."
      },
      "tokenOfOwnerByIndex(address,uint256)": {
        "details": "See {IERC721Enumerable-tokenOfOwnerByIndex}."
      },
      "tokenURI(uint256)": {
        "details": "See {IERC721Metadata-tokenURI}."
      },
      "totalSupply()": {
        "details": "See {IERC721Enumerable-totalSupply}."
      },
      "transferFrom(address,address,uint256)": {
        "details": "See {IERC721-transferFrom}."
      }
    },
    "title": "Prediction Market Achievements Contract"
  },
  "userdoc": {
    "methods": {}
  }
}