{
  "contractName": "Achievements",
  "abi": [
    {
      "inputs": [
        {
          "internalType": "string",
          "name": "token",
          "type": "string"
        },
        {
          "internalType": "string",
          "name": "ticker",
          "type": "string"
        }
      ],
      "stateMutability": "nonpayable",
      "type": "constructor"
    },
    {
      "anonymous": false,
      "inputs": [
        {
          "indexed": true,
          "internalType": "address",
          "name": "owner",
          "type": "address"
        },
        {
          "indexed": true,
          "internalType": "address",
          "name": "approved",
          "type": "address"
        },
        {
          "indexed": true,
          "internalType": "uint256",
          "name": "tokenId",
          "type": "uint256"
        }
      ],
      "name": "Approval",
      "type": "event"
    },
    {
      "anonymous": false,
      "inputs": [
        {
          "indexed": true,
          "internalType": "address",
          "name": "owner",
          "type": "address"
        },
        {
          "indexed": true,
          "internalType": "address",
          "name": "operator",
          "type": "address"
        },
        {
          "indexed": false,
          "internalType": "bool",
          "name": "approved",
          "type": "bool"
        }
      ],
      "name": "ApprovalForAll",
      "type": "event"
    },
    {
      "anonymous": false,
      "inputs": [
        {
          "indexed": true,
          "internalType": "uint256",
          "name": "achievementId",
          "type": "uint256"
        },
        {
          "indexed": true,
          "internalType": "address",
          "name": "user",
          "type": "address"
        },
        {
          "indexed": false,
          "internalType": "string",
          "name": "content",
          "type": "string"
        }
      ],
      "name": "LogNewAchievement",
      "type": "event"
    },
    {
      "anonymous": false,
      "inputs": [
        {
          "indexed": true,
          "internalType": "address",
          "name": "from",
          "type": "address"
        },
        {
          "indexed": true,
          "internalType": "address",
          "name": "to",
          "type": "address"
        },
        {
          "indexed": true,
          "internalType": "uint256",
          "name": "tokenId",
          "type": "uint256"
        }
      ],
      "name": "Transfer",
      "type": "event"
    },
    {
      "inputs": [],
      "name": "achievementIndex",
      "outputs": [
        {
          "internalType": "uint256",
          "name": "",
          "type": "uint256"
        }
      ],
      "stateMutability": "view",
      "type": "function"
    },
    {
      "inputs": [
        {
          "internalType": "uint256",
          "name": "",
          "type": "uint256"
        }
      ],
      "name": "achievements",
      "outputs": [
        {
          "internalType": "enum Achievements.Action",
          "name": "action",
          "type": "uint8"
        },
        {
          "internalType": "uint256",
          "name": "occurrences",
          "type": "uint256"
        }
      ],
      "stateMutability": "view",
      "type": "function"
    },
    {
      "inputs": [
        {
          "internalType": "address",
          "name": "to",
          "type": "address"
        },
        {
          "internalType": "uint256",
          "name": "tokenId",
          "type": "uint256"
        }
      ],
      "name": "approve",
      "outputs": [],
      "stateMutability": "nonpayable",
      "type": "function"
    },
    {
      "inputs": [
        {
          "internalType": "address",
          "name": "owner",
          "type": "address"
        }
      ],
      "name": "balanceOf",
      "outputs": [
        {
          "internalType": "uint256",
          "name": "",
          "type": "uint256"
        }
      ],
      "stateMutability": "view",
      "type": "function"
    },
    {
      "inputs": [],
      "name": "baseURI",
      "outputs": [
        {
          "internalType": "string",
          "name": "",
          "type": "string"
        }
      ],
      "stateMutability": "view",
      "type": "function"
    },
    {
      "inputs": [
        {
          "internalType": "uint256",
          "name": "tokenId",
          "type": "uint256"
        }
      ],
      "name": "getApproved",
      "outputs": [
        {
          "internalType": "address",
          "name": "",
          "type": "address"
        }
      ],
      "stateMutability": "view",
      "type": "function"
    },
    {
      "inputs": [
        {
          "internalType": "address",
          "name": "owner",
          "type": "address"
        },
        {
          "internalType": "address",
          "name": "operator",
          "type": "address"
        }
      ],
      "name": "isApprovedForAll",
      "outputs": [
        {
          "internalType": "bool",
          "name": "",
          "type": "bool"
        }
      ],
      "stateMutability": "view",
      "type": "function"
    },
    {
      "inputs": [],
      "name": "name",
      "outputs": [
        {
          "internalType": "string",
          "name": "",
          "type": "string"
        }
      ],
      "stateMutability": "view",
      "type": "function"
    },
    {
      "inputs": [
        {
          "internalType": "uint256",
          "name": "tokenId",
          "type": "uint256"
        }
      ],
      "name": "ownerOf",
      "outputs": [
        {
          "internalType": "address",
          "name": "",
          "type": "address"
        }
      ],
      "stateMutability": "view",
      "type": "function"
    },
    {
      "inputs": [],
      "name": "predictionMarket",
      "outputs": [
        {
          "internalType": "contract PredictionMarketV2",
          "name": "",
          "type": "address"
        }
      ],
      "stateMutability": "view",
      "type": "function"
    },
    {
      "inputs": [],
      "name": "predictionMarketResolver",
      "outputs": [
        {
          "internalType": "contract PredictionMarketResolver",
          "name": "",
          "type": "address"
        }
      ],
      "stateMutability": "view",
      "type": "function"
    },
    {
      "inputs": [],
      "name": "realitioERC20",
      "outputs": [
        {
          "internalType": "contract RealitioERC20",
          "name": "",
          "type": "address"
        }
      ],
      "stateMutability": "view",
      "type": "function"
    },
    {
      "inputs": [
        {
          "internalType": "address",
          "name": "from",
          "type": "address"
        },
        {
          "internalType": "address",
          "name": "to",
          "type": "address"
        },
        {
          "internalType": "uint256",
          "name": "tokenId",
          "type": "uint256"
        }
      ],
      "name": "safeTransferFrom",
      "outputs": [],
      "stateMutability": "nonpayable",
      "type": "function"
    },
    {
      "inputs": [
        {
          "internalType": "address",
          "name": "from",
          "type": "address"
        },
        {
          "internalType": "address",
          "name": "to",
          "type": "address"
        },
        {
          "internalType": "uint256",
          "name": "tokenId",
          "type": "uint256"
        },
        {
          "internalType": "bytes",
          "name": "_data",
          "type": "bytes"
        }
      ],
      "name": "safeTransferFrom",
      "outputs": [],
      "stateMutability": "nonpayable",
      "type": "function"
    },
    {
      "inputs": [
        {
          "internalType": "address",
          "name": "operator",
          "type": "address"
        },
        {
          "internalType": "bool",
          "name": "approved",
          "type": "bool"
        }
      ],
      "name": "setApprovalForAll",
      "outputs": [],
      "stateMutability": "nonpayable",
      "type": "function"
    },
    {
      "inputs": [
        {
          "internalType": "bytes4",
          "name": "interfaceId",
          "type": "bytes4"
        }
      ],
      "name": "supportsInterface",
      "outputs": [
        {
          "internalType": "bool",
          "name": "",
          "type": "bool"
        }
      ],
      "stateMutability": "view",
      "type": "function"
    },
    {
      "inputs": [],
      "name": "symbol",
      "outputs": [
        {
          "internalType": "string",
          "name": "",
          "type": "string"
        }
      ],
      "stateMutability": "view",
      "type": "function"
    },
    {
      "inputs": [
        {
          "internalType": "uint256",
          "name": "index",
          "type": "uint256"
        }
      ],
      "name": "tokenByIndex",
      "outputs": [
        {
          "internalType": "uint256",
          "name": "",
          "type": "uint256"
        }
      ],
      "stateMutability": "view",
      "type": "function"
    },
    {
      "inputs": [
        {
          "internalType": "address",
          "name": "owner",
          "type": "address"
        },
        {
          "internalType": "uint256",
          "name": "index",
          "type": "uint256"
        }
      ],
      "name": "tokenOfOwnerByIndex",
      "outputs": [
        {
          "internalType": "uint256",
          "name": "",
          "type": "uint256"
        }
      ],
      "stateMutability": "view",
      "type": "function"
    },
    {
      "inputs": [
        {
          "internalType": "uint256",
          "name": "tokenId",
          "type": "uint256"
        }
      ],
      "name": "tokenURI",
      "outputs": [
        {
          "internalType": "string",
          "name": "",
          "type": "string"
        }
      ],
      "stateMutability": "view",
      "type": "function"
    },
    {
      "inputs": [
        {
          "internalType": "uint256",
          "name": "",
          "type": "uint256"
        }
      ],
      "name": "tokens",
      "outputs": [
        {
          "internalType": "uint256",
          "name": "",
          "type": "uint256"
        }
      ],
      "stateMutability": "view",
      "type": "function"
    },
    {
      "inputs": [],
      "name": "totalSupply",
      "outputs": [
        {
          "internalType": "uint256",
          "name": "",
          "type": "uint256"
        }
      ],
      "stateMutability": "view",
      "type": "function"
    },
    {
      "inputs": [
        {
          "internalType": "address",
          "name": "from",
          "type": "address"
        },
        {
          "internalType": "address",
          "name": "to",
          "type": "address"
        },
        {
          "internalType": "uint256",
          "name": "tokenId",
          "type": "uint256"
        }
      ],
      "name": "transferFrom",
      "outputs": [],
      "stateMutability": "nonpayable",
      "type": "function"
    },
    {
      "inputs": [
        {
          "internalType": "contract PredictionMarketV2",
          "name": "_predictionMarket",
          "type": "address"
        },
        {
          "internalType": "contract PredictionMarketResolver",
          "name": "_predictionMarketResolver",
          "type": "address"
        },
        {
          "internalType": "contract RealitioERC20",
          "name": "_realitioERC20",
          "type": "address"
        }
      ],
      "name": "setContracts",
      "outputs": [],
      "stateMutability": "nonpayable",
      "type": "function"
    },
    {
      "inputs": [
        {
          "internalType": "string",
          "name": "_baseURI",
          "type": "string"
        }
      ],
      "name": "setBaseURI",
      "outputs": [],
      "stateMutability": "nonpayable",
      "type": "function"
    },
    {
      "inputs": [
        {
          "internalType": "enum Achievements.Action",
          "name": "action",
          "type": "uint8"
        },
        {
          "internalType": "uint256",
          "name": "occurrences",
          "type": "uint256"
        },
        {
          "internalType": "string",
          "name": "content",
          "type": "string"
        }
      ],
      "name": "createAchievement",
      "outputs": [
        {
          "internalType": "uint256",
          "name": "",
          "type": "uint256"
        }
      ],
      "stateMutability": "nonpayable",
      "type": "function"
    },
    {
      "inputs": [
        {
          "internalType": "address",
          "name": "user",
          "type": "address"
        },
        {
          "internalType": "uint256",
          "name": "achievementId",
          "type": "uint256"
        }
      ],
      "name": "hasUserClaimedAchievement",
      "outputs": [
        {
          "internalType": "bool",
          "name": "",
          "type": "bool"
        }
      ],
      "stateMutability": "view",
      "type": "function"
    },
    {
      "inputs": [
        {
          "internalType": "address",
          "name": "user",
          "type": "address"
        },
        {
          "internalType": "uint256",
          "name": "marketId",
          "type": "uint256"
        }
      ],
      "name": "hasUserPlacedPrediction",
      "outputs": [
        {
          "internalType": "bool",
          "name": "",
          "type": "bool"
        }
      ],
      "stateMutability": "view",
      "type": "function"
    },
    {
      "inputs": [
        {
          "internalType": "address",
          "name": "user",
          "type": "address"
        },
        {
          "internalType": "uint256",
          "name": "marketId",
          "type": "uint256"
        }
      ],
      "name": "hasUserAddedLiquidity",
      "outputs": [
        {
          "internalType": "bool",
          "name": "",
          "type": "bool"
        }
      ],
      "stateMutability": "view",
      "type": "function"
    },
    {
      "inputs": [
        {
          "internalType": "address",
          "name": "user",
          "type": "address"
        },
        {
          "internalType": "uint256",
          "name": "marketId",
          "type": "uint256"
        },
        {
          "internalType": "bytes32[]",
          "name": "history_hashes",
          "type": "bytes32[]"
        },
        {
          "internalType": "address[]",
          "name": "addrs",
          "type": "address[]"
        },
        {
          "internalType": "uint256[]",
          "name": "bonds",
          "type": "uint256[]"
        },
        {
          "internalType": "bytes32[]",
          "name": "answers",
          "type": "bytes32[]"
        }
      ],
      "name": "hasUserPlacedBond",
      "outputs": [
        {
          "internalType": "bool",
          "name": "",
          "type": "bool"
        }
      ],
      "stateMutability": "view",
      "type": "function"
    },
    {
      "inputs": [
        {
          "internalType": "address",
          "name": "user",
          "type": "address"
        },
        {
          "internalType": "uint256",
          "name": "marketId",
          "type": "uint256"
        }
      ],
      "name": "hasUserClaimedWinnings",
      "outputs": [
        {
          "internalType": "bool",
          "name": "",
          "type": "bool"
        }
      ],
      "stateMutability": "view",
      "type": "function"
    },
    {
      "inputs": [
        {
          "internalType": "address",
          "name": "user",
          "type": "address"
        },
        {
          "internalType": "uint256",
          "name": "marketId",
          "type": "uint256"
        }
      ],
      "name": "hasUserCreatedMarket",
      "outputs": [
        {
          "internalType": "bool",
          "name": "",
          "type": "bool"
        }
      ],
      "stateMutability": "view",
      "type": "function"
    },
    {
      "inputs": [
        {
          "internalType": "uint256",
          "name": "achievementId",
          "type": "uint256"
        },
        {
          "internalType": "uint256[]",
          "name": "marketIds",
          "type": "uint256[]"
        }
      ],
      "name": "claimAchievement",
      "outputs": [
        {
          "internalType": "uint256",
          "name": "",
          "type": "uint256"
        }
      ],
      "stateMutability": "nonpayable",
      "type": "function"
    },
    {
      "inputs": [
        {
          "internalType": "uint256",
          "name": "achievementId",
          "type": "uint256"
        },
        {
          "internalType": "uint256[]",
          "name": "marketIds",
          "type": "uint256[]"
        },
        {
          "internalType": "uint256[]",
          "name": "lengths",
          "type": "uint256[]"
        },
        {
          "internalType": "bytes32[]",
          "name": "history_hashes",
          "type": "bytes32[]"
        },
        {
          "internalType": "address[]",
          "name": "addrs",
          "type": "address[]"
        },
        {
          "internalType": "uint256[]",
          "name": "bonds",
          "type": "uint256[]"
        },
        {
          "internalType": "bytes32[]",
          "name": "answers",
          "type": "bytes32[]"
        }
      ],
      "name": "claimAchievement",
      "outputs": [],
      "stateMutability": "nonpayable",
      "type": "function"
    },
    {
      "inputs": [],
      "name": "tokenIndex",
      "outputs": [
        {
          "internalType": "uint256",
          "name": "",
          "type": "uint256"
        }
      ],
      "stateMutability": "view",
      "type": "function"
    }
  ],
  "bytecode": "0x60806040526000600e553480156200001657600080fd5b506040516200389438038062003894833981016040819052620000399162000284565b8181620000566301ffc9a760e01b6001600160e01b03620000dd16565b81516200006b90600690602085019062000138565b5080516200008190600790602084019062000138565b506200009d6380ac58cd60e01b6001600160e01b03620000dd16565b620000b8635b5e139f60e01b6001600160e01b03620000dd16565b620000d363780e9d6360e01b6001600160e01b03620000dd16565b5050505062000322565b6001600160e01b03198082161415620001135760405162461bcd60e51b81526004016200010a90620002eb565b60405180910390fd5b6001600160e01b0319166000908152602081905260409020805460ff19166001179055565b828054600181600116156101000203166002900490600052602060002090601f016020900481019282601f106200017b57805160ff1916838001178555620001ab565b82800160010185558215620001ab579182015b82811115620001ab5782518255916020019190600101906200018e565b50620001b9929150620001bd565b5090565b620001da91905b80821115620001b95760008155600101620001c4565b90565b600082601f830112620001ee578081fd5b81516001600160401b038082111562000205578283fd5b6040516020601f8401601f191682018101838111838210171562000227578586fd5b806040525081945083825286818588010111156200024457600080fd5b600092505b8383101562000268578583018101518284018201529182019162000249565b838311156200027a5760008185840101525b5050505092915050565b6000806040838503121562000297578182fd5b82516001600160401b0380821115620002ae578384fd5b620002bc86838701620001dd565b93506020850151915080821115620002d2578283fd5b50620002e185828601620001dd565b9150509250929050565b6020808252601c908201527f4552433136353a20696e76616c696420696e7465726661636520696400000000604082015260600190565b61356280620003326000396000f3fe608060405234801561001057600080fd5b50600436106101a15760003560e01c806301ffc9a7146101a657806306fdde03146101cf578063081812fc146101e4578063095ea7b3146102045780630c04f83b1461021957806318160ddd1461022c57806323b872dd1461024157806327aed72e146102545780632f745c591461027557806342842e0e1461028857806342da0beb1461029b578063497e4096146102ae5780634f64b2be146102c15780634f6ccce7146102d457806355f804b3146102e75780636352211e146102fa5780636be5179f1461030d5780636c0360eb146103205780636f64432a1461032857806370a08231146103305780638c8b8f4e14610343578063947f53a21461035657806395d89b4114610369578063a22cb46514610371578063b3066d4914610384578063b88d4fde14610397578063c87b56dd146103aa578063c8c787ae146103bd578063c97c8976146103d0578063c99aea33146103d8578063d55f9273146103e0578063def114b6146103e8578063e7c38730146103f0578063e985e9c514610403578063ecf5f69b14610416575b600080fd5b6101b96101b43660046125ef565b610429565b6040516101c69190612a55565b60405180910390f35b6101d761044c565b6040516101c69190612a81565b6101f76101f2366004612737565b6104e3565b6040516101c69190612a04565b61021761021236600461245d565b61052f565b005b6101b961022736600461245d565b6105c7565b6102346106c1565b6040516101c69190612a60565b61021761024f366004612387565b6106d2565b610267610262366004612737565b61070a565b6040516101c6929190612a69565b61023461028336600461245d565b610729565b610217610296366004612387565b610758565b6101b96102a936600461245d565b610773565b6102346102bc36600461274f565b6107a1565b6102346102cf366004612737565b610924565b6102346102e2366004612737565b610936565b6102176102f53660046126ca565b610952565b6101f7610308366004612737565b610984565b61021761031b366004612833565b6109b2565b6101d7610c71565b6101f7610cd2565b61023461033e366004612333565b610ce1565b6101b9610351366004612488565b610d2a565b6101b961036436600461245d565b610f5a565b6101d76110dc565b61021761037f366004612430565b61113d565b610217610392366004612627565b61120b565b6102176103a53660046123c7565b611337565b6101d76103b8366004612737565b611376565b6102346103cb366004612671565b6114bc565b6101f761155e565b61023461156d565b610234611573565b6101f761157f565b6101b96103fe36600461245d565b61158e565b6101b961041136600461234f565b611643565b6101b961042436600461245d565b611671565b6001600160e01b0319811660009081526020819052604090205460ff165b919050565b60068054604080516020601f60026000196101006001881615020190951694909404938401819004810282018101909252828152606093909290918301828280156104d85780601f106104ad576101008083540402835291602001916104d8565b820191906000526020600020905b8154815290600101906020018083116104bb57829003601f168201915b505050505090505b90565b60006104ee826117db565b6105135760405162461bcd60e51b815260040161050a90612f89565b60405180910390fd5b506000908152600460205260409020546001600160a01b031690565b600061053a82610984565b9050806001600160a01b0316836001600160a01b0316141561056e5760405162461bcd60e51b815260040161050a9061314d565b806001600160a01b03166105806117ee565b6001600160a01b0316148061059c575061059c816104116117ee565b6105b85760405162461bcd60e51b815260040161050a90612d70565b6105c283836117f2565b505050565b600c5460405163b31eb89560e01b81526000916060916001600160a01b039091169063b31eb895906105ff90869088906004016133de565b60006040518083038186803b15801561061757600080fd5b505afa15801561062b573d6000803e3d6000fd5b505050506040513d6000823e601f3d908101601f191682016040526106539190810190612793565b915060009050805b825181101561069157600083828151811061067257fe5b602002602001015111156106895760019150610691565b60010161065b565b506001811515146106b45760405162461bcd60e51b815260040161050a90612ba7565b6001925050505b92915050565b60006106cd6002611860565b905090565b6106e36106dd6117ee565b8261186b565b6106ff5760405162461bcd60e51b815260040161050a90613201565b6105c28383836118f0565b600f602052600090815260409020805460019091015460ff9091169082565b6001600160a01b0382166000908152600160205260408120610751908363ffffffff6119fe16565b9392505050565b6105c283838360405180602001604052806000815250611337565b6000908152600f602090815260408083206001600160a01b0394909416835260029093019052205460ff1690565b6000828152600f602090815260408083203384526002810190925282205460ff16156107df5760405162461bcd60e51b815260040161050a90613252565b6002815460ff1660048111156107f157fe5b141561080f5760405162461bcd60e51b815260040161050a9061334b565b80600101548351146108335760405162461bcd60e51b815260040161050a90612b28565b60005b835181101561091157600084828151811061084d57fe5b602002602001015190506000600481111561086457fe5b835460ff16600481111561087457fe5b141561088a5761088433826105c7565b50610908565b6001835460ff16600481111561089c57fe5b14156108ac57610884338261158e565b6003835460ff1660048111156108be57fe5b14156108ce576108843382610f5a565b6004835460ff1660048111156108e057fe5b14156108f0576108843382611671565b60405162461bcd60e51b815260040161050a906130d6565b50600101610836565b5061091c3385611a0a565b505092915050565b60106020526000908152604090205481565b60008061094a60028463ffffffff611a7316565b509392505050565b61095a610c71565b51156109785760405162461bcd60e51b815260040161050a90612c5f565b61098181611a8f565b50565b60006106bb826040518060600160405280602981526020016134e4602991396002919063ffffffff611aa616565b6000878152600f60209081526040808320338452600281019092529091205460ff16156109f15760405162461bcd60e51b815260040161050a90613252565b6002815460ff166004811115610a0357fe5b14610a205760405162461bcd60e51b815260040161050a90612f39565b6000875111610a415760405162461bcd60e51b815260040161050a90612e12565b8060010154875114610a655760405162461bcd60e51b815260040161050a90612b28565b6000805b8851811015610c5a576000898281518110610a8057fe5b602002602001015190506000898381518110610a9857fe5b60200260200101519050606081604051908082528060200260200182016040528015610ace578160200160208202803883390190505b509050606082604051908082528060200260200182016040528015610afd578160200160208202803883390190505b509050606083604051908082528060200260200182016040528015610b2c578160200160208202803883390190505b509050606084604051908082528060200260200182016040528015610b5b578160200160208202803883390190505b50905060005b85811015610c38578d8981518110610b7557fe5b6020026020010151858281518110610b8957fe5b6020026020010181815250508c8981518110610ba157fe5b6020026020010151848281518110610bb557fe5b60200260200101906001600160a01b031690816001600160a01b0316815250508b8981518110610be157fe5b6020026020010151838281518110610bf557fe5b6020026020010181815250508a8981518110610c0d57fe5b6020026020010151828281518110610c2157fe5b602090810291909101015260019889019801610b61565b610c46338887878787610d2a565b505060019096019550610a69945050505050565b50610c65338a611a0a565b50505050505050505050565b60098054604080516020601f60026000196101006001881615020190951694909404938401819004810282018101909252828152606093909290918301828280156104d85780601f106104ad576101008083540402835291602001916104d8565b600d546001600160a01b031681565b60006001600160a01b038216610d095760405162461bcd60e51b815260040161050a90612dc8565b6001600160a01b03821660009081526001602052604090206106bb90611860565b600c54604051630ebc905560e11b8152600091829182916001600160a01b031690631d7920aa90610d5f908b90600401612a60565b60606040518083038186803b158015610d7757600080fd5b505afa158015610d8b573d6000803e3d6000fd5b505050506040513d601f19601f82011682018060405250610daf919081019061292b565b50600b5460405163095addb960e41b81529193506001600160a01b031691506395addb9090610de2908490600401612a60565b6101406040518083038186803b158015610dfb57600080fd5b505afa158015610e0f573d6000803e3d6000fd5b505050506040513d601f19601f82011682018060405250610e339190810190612549565b509950600097508796505050505050505b8851811015610f2757888181518110610e5957fe5b6020026020010151868281518110610e6d57fe5b6020026020010151888381518110610e8157fe5b60200260200101518a8481518110610e9557fe5b60200260200101516000604051602001610eb3959493929190612984565b604051602081830303815290604052805190602001208414610ed457600080fd5b8a6001600160a01b0316888281518110610eea57fe5b60200260200101516001600160a01b03161415610f0657600191505b888181518110610f1257fe5b60209081029190910101519350600101610e44565b600182151514610f495760405162461bcd60e51b815260040161050a906132be565b5060019a9950505050505050505050565b600c5460405163b31eb89560e01b81526000916060916001600160a01b039091169063b31eb89590610f9290869088906004016133de565b60006040518083038186803b158015610faa57600080fd5b505afa158015610fbe573d6000803e3d6000fd5b505050506040513d6000823e601f3d908101601f19168201604052610fe69190810190612793565b9150610ff2905061213c565b600d5460405163232e45d760e01b81526001600160a01b039091169063232e45d790611022908790600401612a60565b604080518083038186803b15801561103957600080fd5b505afa15801561104d573d6000803e3d6000fd5b505050506040513d601f19601f8201168201806040525061107191908101906126fc565b6020810151815191925090151560011461109d5760405162461bcd60e51b815260040161050a90612eb6565b60008382815181106110ab57fe5b6020026020010151116110d05760405162461bcd60e51b815260040161050a90613302565b50600195945050505050565b60078054604080516020601f60026000196101006001881615020190951694909404938401819004810282018101909252828152606093909290918301828280156104d85780601f106104ad576101008083540402835291602001916104d8565b6111456117ee565b6001600160a01b0316826001600160a01b031614156111765760405162461bcd60e51b815260040161050a90612c2c565b80600560006111836117ee565b6001600160a01b03908116825260208083019390935260409182016000908120918716808252919093529120805460ff1916921515929092179091556111c76117ee565b6001600160a01b03167f17307eab39ab6107e8899845ad3d59bd9653f200f220920489ca2b5937696c31836040516111ff9190612a55565b60405180910390a35050565b600c546001600160a01b0316156112345760405162461bcd60e51b815260040161050a90612eec565b600d546001600160a01b03161561125d5760405162461bcd60e51b815260040161050a90612eec565b600b546001600160a01b0316156112865760405162461bcd60e51b815260040161050a90612d26565b6001600160a01b0383166112ac5760405162461bcd60e51b815260040161050a90612cef565b6001600160a01b0382166112d25760405162461bcd60e51b815260040161050a9061318e565b6001600160a01b0381166112f85760405162461bcd60e51b815260040161050a906130a1565b600c80546001600160a01b039485166001600160a01b031991821617909155600d805493851693821693909317909255600b8054919093169116179055565b6113486113426117ee565b8361186b565b6113645760405162461bcd60e51b815260040161050a90613201565b61137084848484611ab3565b50505050565b6060611381826117db565b61139d5760405162461bcd60e51b815260040161050a9061301e565b60008281526008602090815260409182902080548351601f60026000196101006001861615020190931692909204918201849004840281018401909452808452606093928301828280156114325780601f1061140757610100808354040283529160200191611432565b820191906000526020600020905b81548152906001019060200180831161141557829003601f168201915b505050505090506060611443610c71565b905080516000141561145757509050610447565b8151156114895780826040516020016114719291906129d6565b60405160208183030381529060405292505050610447565b8061149385611ae6565b6040516020016114a49291906129d6565b60405160208183030381529060405292505050919050565b60008083116114dd5760405162461bcd60e51b815260040161050a9061339a565b600e546000818152600f6020526040902080548690829060ff1916600183600481111561150657fe5b021790555060018101859055604051339083907ff12dd2cec284c7695fa5ff87a683b64add6d47d7a74e190171798ee5e70a744c90611546908890612a81565b60405180910390a35060018101600e55949350505050565b600b546001600160a01b031681565b600e5481565b60006106cd600a611baa565b600c546001600160a01b031681565b600c5460405163b31eb89560e01b815260009182916001600160a01b039091169063b31eb895906115c590869088906004016133de565b60006040518083038186803b1580156115dd57600080fd5b505afa1580156115f1573d6000803e3d6000fd5b505050506040513d6000823e601f3d908101601f191682016040526116199190810190612793565b509050806116395760405162461bcd60e51b815260040161050a9061310a565b5060019392505050565b6001600160a01b03918216600090815260056020908152604080832093909416825291909152205460ff1690565b60006001600160a01b0383166116995760405162461bcd60e51b815260040161050a906131d4565b600c54604051630ebc905560e11b815260009182916001600160a01b0390911690631d7920aa906116ce908790600401612a60565b60606040518083038186803b1580156116e657600080fd5b505afa1580156116fa573d6000803e3d6000fd5b505050506040513d601f19601f8201168201806040525061171e919081019061292b565b50600b5460405163095addb960e41b81529194506001600160a01b031691506395addb9090611751908590600401612a60565b6101406040518083038186803b15801561176a57600080fd5b505afa15801561177e573d6000803e3d6000fd5b505050506040513d601f19601f820116820180604052506117a29190810190612549565b509698505050506001600160a01b038a81169087161494506106b493505050505760405162461bcd60e51b815260040161050a9061306d565b60006106bb60028363ffffffff611bae16565b3390565b600081815260046020526040902080546001600160a01b0319166001600160a01b038416908117909155819061182782610984565b6001600160a01b03167f8c5be1e5ebec7d5bd14f71427d1e84f3dd0314c0f7b2291e5b200ac8c7c3b92560405160405180910390a45050565b60006106bb82611baa565b6000611876826117db565b6118925760405162461bcd60e51b815260040161050a90612ca3565b600061189d83610984565b9050806001600160a01b0316846001600160a01b031614806118d85750836001600160a01b03166118cd846104e3565b6001600160a01b0316145b806118e857506118e88185611643565b949350505050565b826001600160a01b031661190382610984565b6001600160a01b0316146119295760405162461bcd60e51b815260040161050a90612fd5565b6001600160a01b03821661194f5760405162461bcd60e51b815260040161050a90612be8565b61195a8383836105c2565b6119656000826117f2565b6001600160a01b038316600090815260016020526040902061198d908263ffffffff611bba16565b506001600160a01b03821660009081526001602052604090206119b6908263ffffffff611bc616565b506119c96002828463ffffffff611bd216565b5080826001600160a01b0316846001600160a01b031660008051602061350d83398151915260405160405180910390a4505050565b60006107518383611be8565b6000611a16600a611c2d565b6000611a22600a611baa565b9050611a2e8482611c36565b6000818152601060209081526040808320869055858352600f82528083206001600160a01b03881684526002019091529020805460ff19166001179055905092915050565b6000808080611a828686611cf4565b9097909650945050505050565b8051611aa2906009906020840190612153565b5050565b60006118e8848484611d50565b611abe8484846118f0565b611aca84848484611daf565b6113705760405162461bcd60e51b815260040161050a90612ad6565b606081611b0b57506040805180820190915260018152600360fc1b6020820152610447565b8160005b8115611b2357600101600a82049150611b0f565b6060816040519080825280601f01601f191660200182016040528015611b50576020820181803883390190505b50859350905060001982015b8315611ba157600a840660300160f81b82828060019003935081518110611b7f57fe5b60200101906001600160f81b031916908160001a905350600a84049350611b5c565b50949350505050565b5490565b60006107518383611e94565b60006107518383611eac565b60006107518383611f72565b60006118e884846001600160a01b038516611fbc565b81546000908210611c0b5760405162461bcd60e51b815260040161050a90612a94565b826000018281548110611c1a57fe5b9060005260206000200154905092915050565b80546001019055565b6001600160a01b038216611c5c5760405162461bcd60e51b815260040161050a90612e81565b611c65816117db565b15611c825760405162461bcd60e51b815260040161050a90612b71565b611c8e600083836105c2565b6001600160a01b0382166000908152600160205260409020611cb6908263ffffffff611bc616565b50611cc96002828463ffffffff611bd216565b5060405181906001600160a01b0384169060009060008051602061350d833981519152908290a45050565b815460009081908310611d195760405162461bcd60e51b815260040161050a90612e3f565b6000846000018481548110611d2a57fe5b906000526020600020906002020190508060000154816001015492509250509250929050565b60008281526001840160205260408120548281611d805760405162461bcd60e51b815260040161050a9190612a81565b50846000016001820381548110611d9357fe5b9060005260206000209060020201600101549150509392505050565b6000611dc3846001600160a01b0316612053565b611dcf575060016118e8565b6060611e5d630a85bd0160e11b611de46117ee565b888787604051602401611dfa9493929190612a18565b604051602081830303815290604052906001600160e01b0319166020820180516001600160e01b0383818316178352505050506040518060600160405280603281526020016134b2603291396001600160a01b038816919063ffffffff61205916565b9050600081806020019051611e75919081019061260b565b6001600160e01b031916630a85bd0160e11b1492505050949350505050565b60009081526001919091016020526040902054151590565b60008181526001830160205260408120548015611f685783546000198083019190810190600090879083908110611edf57fe5b9060005260206000200154905080876000018481548110611efc57fe5b600091825260208083209091019290925582815260018981019092526040902090840190558654879080611f2c57fe5b600190038181906000526020600020016000905590558660010160008781526020019081526020016000206000905560019450505050506106bb565b60009150506106bb565b6000611f7e8383611e94565b611fb4575081546001818101845560008481526020808220909301849055845484825282860190935260409020919091556106bb565b5060006106bb565b600082815260018401602052604081205480612021575050604080518082018252838152602080820184815286546001818101895560008981528481209551600290930290950191825591519082015586548684528188019092529290912055610751565b8285600001600183038154811061203457fe5b9060005260206000209060020201600101819055506000915050610751565b3b151590565b60606118e884846000858561206d85612053565b6120895760405162461bcd60e51b815260040161050a90613287565b60006060866001600160a01b031685876040516120a691906129ba565b60006040518083038185875af1925050503d80600081146120e3576040519150601f19603f3d011682016040523d82523d6000602084013e6120e8565b606091505b50915091506120f8828286612103565b979650505050505050565b60608315612112575081610751565b8251156121225782518084602001fd5b8160405162461bcd60e51b815260040161050a9190612a81565b604080518082019091526000808252602082015290565b828054600181600116156101000203166002900490600052602060002090601f016020900481019282601f1061219457805160ff19168380011785556121c1565b828001600101855582156121c1579182015b828111156121c15782518255916020019190600101906121a6565b506121cd9291506121d1565b5090565b6104e091905b808211156121cd57600081556001016121d7565b80356106bb81613466565b600082601f830112612206578081fd5b81356122196122148261341b565b6133f5565b81815291506020808301908481018184028601820187101561223a57600080fd5b60005b8481101561226257813561225081613466565b8452928201929082019060010161223d565b505050505092915050565b600082601f83011261227d578081fd5b813561228b6122148261341b565b8181529150602080830190848101818402860182018710156122ac57600080fd5b60005b84811015612262578135845292820192908201906001016122af565b600082601f8301126122db578081fd5b81356001600160401b038111156122f0578182fd5b612303601f8201601f19166020016133f5565b915080825283602082850101111561231a57600080fd5b8060208401602084013760009082016020015292915050565b600060208284031215612344578081fd5b813561075181613466565b60008060408385031215612361578081fd5b823561236c81613466565b9150602083013561237c81613466565b809150509250929050565b60008060006060848603121561239b578081fd5b83356123a681613466565b925060208401356123b681613466565b929592945050506040919091013590565b600080600080608085870312156123dc578182fd5b84356123e781613466565b935060208501356123f781613466565b92506040850135915060608501356001600160401b03811115612418578182fd5b612424878288016122cb565b91505092959194509250565b60008060408385031215612442578182fd5b823561244d81613466565b9150602083013561237c8161347b565b6000806040838503121561246f578182fd5b823561247a81613466565b946020939093013593505050565b60008060008060008060c087890312156124a0578384fd5b6124aa88886121eb565b95506020870135945060408701356001600160401b03808211156124cc578586fd5b6124d88a838b0161226d565b955060608901359150808211156124ed578384fd5b6124f98a838b016121f6565b9450608089013591508082111561250e578384fd5b61251a8a838b0161226d565b935060a089013591508082111561252f578283fd5b5061253c89828a0161226d565b9150509295509295509295565b6000806000806000806000806000806101408b8d031215612568578788fd5b8a51995060208b015161257a81613466565b60408c015190995061258b8161349f565b60608c015190985061259c8161349f565b60808c01519097506125ad8161349f565b60a08c01519096506125be8161347b565b8095505060c08b0151935060e08b015192506101008b015191506101208b015190509295989b9194979a5092959850565b600060208284031215612600578081fd5b813561075181613489565b60006020828403121561261c578081fd5b815161075181613489565b60008060006060848603121561263b578081fd5b833561264681613466565b9250602084013561265681613466565b9150604084013561266681613466565b809150509250925092565b600080600060608486031215612685578081fd5b833560058110612693578182fd5b92506020840135915060408401356001600160401b038111156126b4578182fd5b6126c0868287016122cb565b9150509250925092565b6000602082840312156126db578081fd5b81356001600160401b038111156126f0578182fd5b6118e8848285016122cb565b60006040828403121561270d578081fd5b61271760406133f5565b82516127228161347b565b81526020928301519281019290925250919050565b600060208284031215612748578081fd5b5035919050565b60008060408385031215612761578182fd5b8235915060208301356001600160401b0381111561277d578182fd5b6127898582860161226d565b9150509250929050565b600080604083850312156127a5578182fd5b8251602080850151919350906001600160401b038111156127c4578283fd5b80850186601f8201126127d5578384fd5b805191506127e56122148361341b565b82815283810190828501858502840186018a1015612801578687fd5b8693505b84841015612823578051835260019390930192918501918501612805565b5080955050505050509250929050565b600080600080600080600060e0888a03121561284d578081fd5b8735965060208801356001600160401b038082111561286a578283fd5b6128768b838c0161226d565b975060408a013591508082111561288b578283fd5b6128978b838c0161226d565b965060608a01359150808211156128ac578283fd5b6128b88b838c0161226d565b955060808a01359150808211156128cd578283fd5b6128d98b838c016121f6565b945060a08a01359150808211156128ee578283fd5b6128fa8b838c0161226d565b935060c08a013591508082111561290f578283fd5b5061291c8a828b0161226d565b91505092959891949750929550565b60008060006060848603121561293f578081fd5b8351925060208401519150604084015190509250925092565b6000815180845261297081602086016020860161343a565b601f01601f19169290920160200192915050565b94855260208501939093526040840191909152606090811b6001600160601b03191690830152151560f81b607482015260750190565b600082516129cc81846020870161343a565b9190910192915050565b600083516129e881846020880161343a565b83519083016129fb82826020880161343a565b01949350505050565b6001600160a01b0391909116815260200190565b6001600160a01b0385811682528416602082015260408101839052608060608201819052600090612a4b90830184612958565b9695505050505050565b901515815260200190565b90815260200190565b6040810160058410612a7757fe5b9281526020015290565b6000602082526107516020830184612958565b60208082526022908201527f456e756d657261626c655365743a20696e646578206f7574206f6620626f756e604082015261647360f01b606082015260800190565b60208082526032908201527f4552433732313a207472616e7366657220746f206e6f6e20455243373231526560408201527131b2b4bb32b91034b6b83632b6b2b73a32b960711b606082015260800190565b60208082526029908201527f4d61726b65747320636f756e7420616e64206f6363757272656e63657320646f6040820152680dc4ee840dac2e8c6d60bb1b606082015260800190565b6020808252601c908201527b115490cdcc8c4e881d1bdad95b88185b1c9958591e481b5a5b9d195960221b604082015260600190565b60208082526021908201527f7573657220646f6573206e6f7420686f6c64206f7574636f6d652073686172656040820152607360f81b606082015260800190565b60208082526024908201527f4552433732313a207472616e7366657220746f20746865207a65726f206164646040820152637265737360e01b606082015260800190565b60208082526019908201527822a9219b99189d1030b8383937bb32903a379031b0b63632b960391b604082015260600190565b60208082526024908201527f626173655552492063616e206f6e6c7920626520696e697469616c697a6564206040820152636f6e636560e01b606082015260800190565b6020808252602c908201527f4552433732313a206f70657261746f7220717565727920666f72206e6f6e657860408201526b34b9ba32b73a103a37b5b2b760a11b606082015260800190565b6020808252601e908201527f5f70726564696374696f6e4d61726b6574206164647265737320697320300000604082015260600190565b6020808252602a908201527f7265616c6974696f45524332302063616e206f6e6c7920626520696e697469616040820152696c697a6564206f6e636560b01b606082015260800190565b60208082526038908201527f4552433732313a20617070726f76652063616c6c6572206973206e6f74206f776040820152771b995c881b9bdc88185c1c1c9bdd995908199bdc88185b1b60421b606082015260800190565b6020808252602a908201527f4552433732313a2062616c616e636520717565727920666f7220746865207a65604082015269726f206164647265737360b01b606082015260800190565b602080825260139082015272139bc81858dd1a5bdb9cc81c1c9bdd9a591959606a1b604082015260600190565b60208082526022908201527f456e756d657261626c654d61703a20696e646578206f7574206f6620626f756e604082015261647360f01b606082015260800190565b6020808252818101527f4552433732313a206d696e7420746f20746865207a65726f2061646472657373604082015260600190565b6020808252601c908201527b1b585c9ad95d081a185cc81b9bdd081899595b881c995cdbdb1d995960221b604082015260600190565b6020808252602d908201527f70726564696374696f6e4d61726b65742063616e206f6e6c7920626520696e6960408201526c7469616c697a6564206f6e636560981b606082015260800190565b60208082526030908201527f4d6574686f64206f6e6c79207573656420666f7220626f6e6420706c6163656d60408201526f656e7420616368696576656d656e747360801b606082015260800190565b6020808252602c908201527f4552433732313a20617070726f76656420717565727920666f72206e6f6e657860408201526b34b9ba32b73a103a37b5b2b760a11b606082015260800190565b60208082526029908201527f4552433732313a207472616e73666572206f6620746f6b656e2074686174206960408201526839903737ba1037bbb760b91b606082015260800190565b6020808252602f908201527f4552433732314d657461646174613a2055524920717565727920666f72206e6f60408201526e3732bc34b9ba32b73a103a37b5b2b760891b606082015260800190565b6020808252601a90820152791d5cd95c88191a59081b9bdd0818dc99585d19481b585c9ad95d60321b604082015260600190565b6020808252601b908201527a05f7265616c6974696f45524332302061646472657373206973203602c1b604082015260600190565b6020808252601a908201527924b73b30b634b21030b1b434b2bb32b6b2b73a1030b1ba34b7b760311b604082015260600190565b60208082526023908201527f7573657220646f6573206e6f7420686f6c64206c69717569646974792073686160408201526272657360e81b606082015260800190565b60208082526021908201527f4552433732313a20617070726f76616c20746f2063757272656e74206f776e656040820152603960f91b606082015260800190565b60208082526026908201527f5f70726564696374696f6e4d61726b65745265736f6c7665722061646472657360408201526507320697320360d41b606082015260800190565b60208082526013908201527207573657220616464726573732069732030783606c1b604082015260600190565b60208082526031908201527f4552433732313a207472616e736665722063616c6c6572206973206e6f74206f6040820152701ddb995c881b9bdc88185c1c1c9bdd9959607a1b606082015260800190565b6020808252601b908201527a1058da1a595d995b595b9d08185b1c9958591e4818db185a5b5959602a1b604082015260600190565b6020808252601d908201527f416464726573733a2063616c6c20746f206e6f6e2d636f6e7472616374000000604082015260600190565b60208082526024908201527f7573657220686173206e6f7420706c61636564206120626f6e6420696e206d616040820152631c9ad95d60e21b606082015260800190565b60208082526029908201527f7573657220646f6573206e6f7420686f6c642077696e6e696e67206f7574636f6040820152686d652073686172657360b81b606082015260800190565b6020808252602f908201527f4d6574686f64206e6f74207573656420666f7220626f6e6420706c6163656d6560408201526e6e7420616368696576656d656e747360881b606082015260800190565b60208082526024908201527f6f6363757272656e6365732068617320746f20626520677265617465722074686040820152630616e20360e41b606082015260800190565b9182526001600160a01b0316602082015260400190565b6040518181016001600160401b038111828210171561341357600080fd5b604052919050565b60006001600160401b03821115613430578081fd5b5060209081020190565b60005b8381101561345557818101518382015260200161343d565b838111156113705750506000910152565b6001600160a01b038116811461098157600080fd5b801515811461098157600080fd5b6001600160e01b03198116811461098157600080fd5b63ffffffff8116811461098157600080fdfe4552433732313a207472616e7366657220746f206e6f6e20455243373231526563656976657220696d706c656d656e7465724552433732313a206f776e657220717565727920666f72206e6f6e6578697374656e7420746f6b656eddf252ad1be2c89b69c2b068fc378daa952ba7f163c4a11628f55a4df523b3efa26469706673582212206e9625fc1869d5d11f368d24e87013f6492f1e323f0a56733ab54580a03c7e4864736f6c63430006020033",
  "source": "pragma solidity ^0.6.0;\npragma experimental ABIEncoderV2;\n\nimport \"./RealitioERC20.sol\";\nimport \"./PredictionMarketV2.sol\";\nimport \"./PredictionMarketResolver.sol\";\n\n// openzeppelin imports\nimport \"@openzeppelin/contracts/math/SafeMath.sol\";\nimport \"@openzeppelin/contracts/token/ERC721/ERC721.sol\";\nimport \"@openzeppelin/contracts/utils/Counters.sol\";\n\n/// @title Prediction Market Achievements Contract\ncontract Achievements is ERC721 {\n  using Counters for Counters.Counter;\n  Counters.Counter private _tokenIds;\n\n  /// @dev protocol is immutable and has no ownership\n  RealitioERC20 public realitioERC20;\n  PredictionMarketV2 public predictionMarket;\n  PredictionMarketResolver public predictionMarketResolver;\n\n  event LogNewAchievement(uint256 indexed achievementId, address indexed user, string content);\n\n  // Buy: Claim through market[x].outcome[y].shares.holders[msg.sender] > 0\n  // AddLiquidity: Claim through market[x].liquidityShares[msg.sender] > 0\n  // CreateMarket: RealitioERC20 question arbitrator == msg.sender\n  // ClaimWinnings: Claim through market[x].outcome[y].shares.holders[msg.sender] > 0 && y == market.resolution.outcomeId\n  // Bond: Use RealitioERC20 historyHashes logic value and ensure addrs.includes(msg.sender)\n  enum Action {\n    Buy,\n    AddLiquidity,\n    Bond,\n    ClaimWinnings,\n    CreateMarket\n  }\n\n  struct Achievement {\n    Action action;\n    uint256 occurrences;\n    mapping(address => bool) claims;\n  }\n\n  uint256 public achievementIndex = 0;\n  mapping(uint256 => Achievement) public achievements;\n  mapping(uint256 => uint256) public tokens; // tokenId => achievementId\n\n  constructor(string memory token, string memory ticker) public ERC721(token, ticker) {}\n\n  function setContracts(\n    PredictionMarketV2 _predictionMarket,\n    PredictionMarketResolver _predictionMarketResolver,\n    RealitioERC20 _realitioERC20\n  ) public {\n    require(address(predictionMarket) == address(0), \"predictionMarket can only be initialized once\");\n    require(address(predictionMarketResolver) == address(0), \"predictionMarket can only be initialized once\");\n    require(address(realitioERC20) == address(0), \"realitioERC20 can only be initialized once\");\n\n    require(address(_predictionMarket) != address(0), \"_predictionMarket address is 0\");\n    require(address(_predictionMarketResolver) != address(0), \"_predictionMarketResolver address is 0\");\n    require(address(_realitioERC20) != address(0), \"_realitioERC20 address is 0\");\n\n    predictionMarket = _predictionMarket;\n    predictionMarketResolver = _predictionMarketResolver;\n    realitioERC20 = _realitioERC20;\n  }\n\n  function setBaseURI(string memory _baseURI) public {\n    require(bytes(baseURI()).length == 0, \"baseURI can only be initialized once\");\n\n    _setBaseURI(_baseURI);\n  }\n\n  function createAchievement(\n    Action action,\n    uint256 occurrences,\n    string memory content\n  ) public returns (uint256) {\n    require(occurrences > 0, \"occurrences has to be greater than 0\");\n    uint256 achievementId = achievementIndex;\n    Achievement storage achievement = achievements[achievementId];\n\n    achievement.action = action;\n    achievement.occurrences = occurrences;\n    emit LogNewAchievement(achievementId, msg.sender, content);\n    achievementIndex = achievementId + 1;\n    return achievementId;\n  }\n\n  function hasUserClaimedAchievement(address user, uint256 achievementId) public view returns (bool) {\n    Achievement storage achievement = achievements[achievementId];\n\n    return achievement.claims[user];\n  }\n\n  function hasUserPlacedPrediction(address user, uint256 marketId) public view returns (bool) {\n    uint256[] memory outcomeShares;\n    (, outcomeShares) = predictionMarket.getUserMarketShares(marketId, user);\n\n    bool hasPlacedPrediction;\n\n    for (uint256 i = 0; i < outcomeShares.length; i++) {\n      if (outcomeShares[i] > 0) {\n        hasPlacedPrediction = true;\n        break;\n      }\n    }\n\n    require(hasPlacedPrediction == true, \"user does not hold outcome shares\");\n\n    return true;\n  }\n\n  function hasUserAddedLiquidity(address user, uint256 marketId) public view returns (bool) {\n    uint256 liquidityShares;\n    (liquidityShares, ) = predictionMarket.getUserMarketShares(marketId, user);\n\n    require(liquidityShares > 0, \"user does not hold liquidity shares\");\n\n    return true;\n  }\n\n  function hasUserPlacedBond(\n    address user,\n    uint256 marketId,\n    bytes32[] memory history_hashes,\n    address[] memory addrs,\n    uint256[] memory bonds,\n    bytes32[] memory answers\n  ) public view returns (bool) {\n    bytes32 last_history_hash;\n    bytes32 questionId;\n    (, questionId, ) = predictionMarket.getMarketAltData(marketId);\n    (, , , , , , , , last_history_hash, ) = realitioERC20.questions(questionId);\n    bool bonded;\n\n    uint256 i;\n    for (i = 0; i < history_hashes.length; i++) {\n      require(\n        last_history_hash == keccak256(abi.encodePacked(history_hashes[i], answers[i], bonds[i], addrs[i], false))\n      );\n\n      if (addrs[i] == user) bonded = true;\n\n      last_history_hash = history_hashes[i];\n    }\n\n    require(bonded == true, \"user has not placed a bond in market\");\n\n    return true;\n  }\n\n  function hasUserClaimedWinnings(address user, uint256 marketId) public view returns (bool) {\n    uint256[] memory outcomeShares;\n    (, outcomeShares) = predictionMarket.getUserMarketShares(marketId, user);\n    PredictionMarketResolver.MarketResolution memory marketResolution = predictionMarketResolver.getMarketResolution(\n      marketId\n    );\n\n    uint256 resolvedOutcomeId = marketResolution.outcomeId;\n\n    require(marketResolution.resolved == true, \"market has not been resolved\");\n    require(outcomeShares[resolvedOutcomeId] > 0, \"user does not hold winning outcome shares\");\n\n    return true;\n  }\n\n  function hasUserCreatedMarket(address user, uint256 marketId) public view returns (bool) {\n    require(user != address(0), \"user address is 0x0\");\n\n    bytes32 questionId;\n    address arbitrator;\n    (, questionId, ) = predictionMarket.getMarketAltData(marketId);\n    (, arbitrator, , , , , , , , ) = realitioERC20.questions(questionId);\n\n    require(user == arbitrator, \"user did not create market\");\n\n    return true;\n  }\n\n  function claimAchievement(uint256 achievementId, uint256[] memory marketIds) public returns (uint256) {\n    Achievement storage achievement = achievements[achievementId];\n\n    require(achievement.claims[msg.sender] == false, \"Achievement already claimed\");\n    require(achievement.action != Action.Bond, \"Method not used for bond placement achievements\");\n    require(marketIds.length == achievement.occurrences, \"Markets count and occurrences don't match\");\n\n    for (uint256 i = 0; i < marketIds.length; i++) {\n      uint256 marketId = marketIds[i];\n\n      if (achievement.action == Action.Buy) {\n        hasUserPlacedPrediction(msg.sender, marketId);\n      } else if (achievement.action == Action.AddLiquidity) {\n        hasUserAddedLiquidity(msg.sender, marketId);\n      } else if (achievement.action == Action.ClaimWinnings) {\n        hasUserClaimedWinnings(msg.sender, marketId);\n      } else if (achievement.action == Action.CreateMarket) {\n        hasUserCreatedMarket(msg.sender, marketId);\n      } else {\n        revert(\"Invalid achievement action\");\n      }\n    }\n\n    mintAchievement(msg.sender, achievementId);\n  }\n\n  function claimAchievement(\n    uint256 achievementId,\n    uint256[] memory marketIds,\n    uint256[] memory lengths,\n    bytes32[] memory history_hashes,\n    address[] memory addrs,\n    uint256[] memory bonds,\n    bytes32[] memory answers\n  ) public {\n    Achievement storage achievement = achievements[achievementId];\n\n    require(achievement.claims[msg.sender] == false, \"Achievement already claimed\");\n    require(achievement.action == Action.Bond, \"Method only used for bond placement achievements\");\n    require(marketIds.length > 0, \"No actions provided\");\n    require(marketIds.length == achievement.occurrences, \"Markets count and occurrences don't match\");\n\n    uint256 qi;\n\n    for (uint256 i = 0; i < marketIds.length; i++) {\n      uint256 marketId = marketIds[i];\n\n      uint256 ln = lengths[i];\n      bytes32[] memory hh = new bytes32[](ln);\n      address[] memory ad = new address[](ln);\n      uint256[] memory bo = new uint256[](ln);\n      bytes32[] memory an = new bytes32[](ln);\n      uint256 j;\n      for (j = 0; j < ln; j++) {\n        hh[j] = history_hashes[qi];\n        ad[j] = addrs[qi];\n        bo[j] = bonds[qi];\n        an[j] = answers[qi];\n        qi++;\n      }\n      hasUserPlacedBond(msg.sender, marketId, hh, ad, bo, an);\n    }\n\n    mintAchievement(msg.sender, achievementId);\n  }\n\n  function mintAchievement(address user, uint256 achievementId) private returns (uint256) {\n    _tokenIds.increment();\n\n    uint256 tokenId = _tokenIds.current();\n    _mint(user, tokenId);\n    tokens[tokenId] = achievementId;\n\n    Achievement storage achievement = achievements[achievementId];\n    achievement.claims[user] = true;\n\n    return tokenId;\n  }\n\n  function tokenIndex() public view returns (uint256) {\n    return _tokenIds.current();\n  }\n}\n",
  "sourcePath": "/Users/ricardomarques/dev/workspace/polkamarkets/bepro-js/contracts/Achievements.sol",
  "compiler": {
    "name": "solc",
    "version": "0.6.2+commit.bacdbe57.Emscripten.clang"
  },
  "schemaVersion": "3.4.4",
  "updatedAt": "2022-11-21T14:31:35.558Z",
  "devdoc": {
    "methods": {
      "approve(address,uint256)": {
        "details": "See {IERC721-approve}."
      },
      "balanceOf(address)": {
        "details": "See {IERC721-balanceOf}."
      },
      "baseURI()": {
        "details": "Returns the base URI set via {_setBaseURI}. This will be automatically added as a prefix in {tokenURI} to each token's URI, or to the token ID if no specific URI is set for that token ID."
      },
      "getApproved(uint256)": {
        "details": "See {IERC721-getApproved}."
      },
      "isApprovedForAll(address,address)": {
        "details": "See {IERC721-isApprovedForAll}."
      },
      "name()": {
        "details": "See {IERC721Metadata-name}."
      },
      "ownerOf(uint256)": {
        "details": "See {IERC721-ownerOf}."
      },
      "safeTransferFrom(address,address,uint256)": {
        "details": "See {IERC721-safeTransferFrom}."
      },
      "safeTransferFrom(address,address,uint256,bytes)": {
        "details": "See {IERC721-safeTransferFrom}."
      },
      "setApprovalForAll(address,bool)": {
        "details": "See {IERC721-setApprovalForAll}."
      },
      "supportsInterface(bytes4)": {
        "details": "See {IERC165-supportsInterface}.     * Time complexity O(1), guaranteed to always use less than 30 000 gas."
      },
      "symbol()": {
        "details": "See {IERC721Metadata-symbol}."
      },
      "tokenByIndex(uint256)": {
        "details": "See {IERC721Enumerable-tokenByIndex}."
      },
      "tokenOfOwnerByIndex(address,uint256)": {
        "details": "See {IERC721Enumerable-tokenOfOwnerByIndex}."
      },
      "tokenURI(uint256)": {
        "details": "See {IERC721Metadata-tokenURI}."
      },
      "totalSupply()": {
        "details": "See {IERC721Enumerable-totalSupply}."
      },
      "transferFrom(address,address,uint256)": {
        "details": "See {IERC721-transferFrom}."
      }
    },
    "title": "Prediction Market Achievements Contract"
  },
  "userdoc": {
    "methods": {}
  }
}