{
  "contractName": "Achievements",
  "abi": [
    {
      "inputs": [
        {
          "internalType": "string",
          "name": "token",
          "type": "string"
        },
        {
          "internalType": "string",
          "name": "ticker",
          "type": "string"
        }
      ],
      "stateMutability": "nonpayable",
      "type": "constructor"
    },
    {
      "anonymous": false,
      "inputs": [
        {
          "indexed": true,
          "internalType": "address",
          "name": "owner",
          "type": "address"
        },
        {
          "indexed": true,
          "internalType": "address",
          "name": "approved",
          "type": "address"
        },
        {
          "indexed": true,
          "internalType": "uint256",
          "name": "tokenId",
          "type": "uint256"
        }
      ],
      "name": "Approval",
      "type": "event"
    },
    {
      "anonymous": false,
      "inputs": [
        {
          "indexed": true,
          "internalType": "address",
          "name": "owner",
          "type": "address"
        },
        {
          "indexed": true,
          "internalType": "address",
          "name": "operator",
          "type": "address"
        },
        {
          "indexed": false,
          "internalType": "bool",
          "name": "approved",
          "type": "bool"
        }
      ],
      "name": "ApprovalForAll",
      "type": "event"
    },
    {
      "anonymous": false,
      "inputs": [
        {
          "indexed": true,
          "internalType": "uint256",
          "name": "achievementId",
          "type": "uint256"
        },
        {
          "indexed": true,
          "internalType": "address",
          "name": "user",
          "type": "address"
        },
        {
          "indexed": false,
          "internalType": "string",
          "name": "content",
          "type": "string"
        }
      ],
      "name": "LogNewAchievement",
      "type": "event"
    },
    {
      "anonymous": false,
      "inputs": [
        {
          "indexed": true,
          "internalType": "address",
          "name": "from",
          "type": "address"
        },
        {
          "indexed": true,
          "internalType": "address",
          "name": "to",
          "type": "address"
        },
        {
          "indexed": true,
          "internalType": "uint256",
          "name": "tokenId",
          "type": "uint256"
        }
      ],
      "name": "Transfer",
      "type": "event"
    },
    {
      "inputs": [],
      "name": "achievementIndex",
      "outputs": [
        {
          "internalType": "uint256",
          "name": "",
          "type": "uint256"
        }
      ],
      "stateMutability": "view",
      "type": "function"
    },
    {
      "inputs": [
        {
          "internalType": "uint256",
          "name": "",
          "type": "uint256"
        }
      ],
      "name": "achievements",
      "outputs": [
        {
          "internalType": "enum Achievements.Action",
          "name": "action",
          "type": "uint8"
        },
        {
          "internalType": "uint256",
          "name": "occurrences",
          "type": "uint256"
        }
      ],
      "stateMutability": "view",
      "type": "function"
    },
    {
      "inputs": [
        {
          "internalType": "address",
          "name": "to",
          "type": "address"
        },
        {
          "internalType": "uint256",
          "name": "tokenId",
          "type": "uint256"
        }
      ],
      "name": "approve",
      "outputs": [],
      "stateMutability": "nonpayable",
      "type": "function"
    },
    {
      "inputs": [
        {
          "internalType": "address",
          "name": "owner",
          "type": "address"
        }
      ],
      "name": "balanceOf",
      "outputs": [
        {
          "internalType": "uint256",
          "name": "",
          "type": "uint256"
        }
      ],
      "stateMutability": "view",
      "type": "function"
    },
    {
      "inputs": [
        {
          "internalType": "uint256",
          "name": "tokenId",
          "type": "uint256"
        }
      ],
      "name": "getApproved",
      "outputs": [
        {
          "internalType": "address",
          "name": "",
          "type": "address"
        }
      ],
      "stateMutability": "view",
      "type": "function"
    },
    {
      "inputs": [
        {
          "internalType": "address",
          "name": "owner",
          "type": "address"
        },
        {
          "internalType": "address",
          "name": "operator",
          "type": "address"
        }
      ],
      "name": "isApprovedForAll",
      "outputs": [
        {
          "internalType": "bool",
          "name": "",
          "type": "bool"
        }
      ],
      "stateMutability": "view",
      "type": "function"
    },
    {
      "inputs": [],
      "name": "name",
      "outputs": [
        {
          "internalType": "string",
          "name": "",
          "type": "string"
        }
      ],
      "stateMutability": "view",
      "type": "function"
    },
    {
      "inputs": [
        {
          "internalType": "uint256",
          "name": "tokenId",
          "type": "uint256"
        }
      ],
      "name": "ownerOf",
      "outputs": [
        {
          "internalType": "address",
          "name": "",
          "type": "address"
        }
      ],
      "stateMutability": "view",
      "type": "function"
    },
    {
      "inputs": [],
      "name": "predictionMarket",
      "outputs": [
        {
          "internalType": "contract PredictionMarketV2",
          "name": "",
          "type": "address"
        }
      ],
      "stateMutability": "view",
      "type": "function"
    },
    {
      "inputs": [
        {
          "internalType": "address",
          "name": "from",
          "type": "address"
        },
        {
          "internalType": "address",
          "name": "to",
          "type": "address"
        },
        {
          "internalType": "uint256",
          "name": "tokenId",
          "type": "uint256"
        }
      ],
      "name": "safeTransferFrom",
      "outputs": [],
      "stateMutability": "nonpayable",
      "type": "function"
    },
    {
      "inputs": [
        {
          "internalType": "address",
          "name": "from",
          "type": "address"
        },
        {
          "internalType": "address",
          "name": "to",
          "type": "address"
        },
        {
          "internalType": "uint256",
          "name": "tokenId",
          "type": "uint256"
        },
        {
          "internalType": "bytes",
          "name": "data",
          "type": "bytes"
        }
      ],
      "name": "safeTransferFrom",
      "outputs": [],
      "stateMutability": "nonpayable",
      "type": "function"
    },
    {
      "inputs": [
        {
          "internalType": "address",
          "name": "operator",
          "type": "address"
        },
        {
          "internalType": "bool",
          "name": "approved",
          "type": "bool"
        }
      ],
      "name": "setApprovalForAll",
      "outputs": [],
      "stateMutability": "nonpayable",
      "type": "function"
    },
    {
      "inputs": [
        {
          "internalType": "bytes4",
          "name": "interfaceId",
          "type": "bytes4"
        }
      ],
      "name": "supportsInterface",
      "outputs": [
        {
          "internalType": "bool",
          "name": "",
          "type": "bool"
        }
      ],
      "stateMutability": "view",
      "type": "function"
    },
    {
      "inputs": [],
      "name": "symbol",
      "outputs": [
        {
          "internalType": "string",
          "name": "",
          "type": "string"
        }
      ],
      "stateMutability": "view",
      "type": "function"
    },
    {
      "inputs": [
        {
          "internalType": "uint256",
          "name": "tokenId",
          "type": "uint256"
        }
      ],
      "name": "tokenURI",
      "outputs": [
        {
          "internalType": "string",
          "name": "",
          "type": "string"
        }
      ],
      "stateMutability": "view",
      "type": "function"
    },
    {
      "inputs": [
        {
          "internalType": "uint256",
          "name": "",
          "type": "uint256"
        }
      ],
      "name": "tokens",
      "outputs": [
        {
          "internalType": "uint256",
          "name": "",
          "type": "uint256"
        }
      ],
      "stateMutability": "view",
      "type": "function"
    },
    {
      "inputs": [
        {
          "internalType": "address",
          "name": "from",
          "type": "address"
        },
        {
          "internalType": "address",
          "name": "to",
          "type": "address"
        },
        {
          "internalType": "uint256",
          "name": "tokenId",
          "type": "uint256"
        }
      ],
      "name": "transferFrom",
      "outputs": [],
      "stateMutability": "nonpayable",
      "type": "function"
    },
    {
      "inputs": [
        {
          "internalType": "contract PredictionMarketV2",
          "name": "_predictionMarket",
          "type": "address"
        }
      ],
      "name": "setContracts",
      "outputs": [],
      "stateMutability": "nonpayable",
      "type": "function"
    },
    {
      "inputs": [
        {
          "internalType": "string",
          "name": "baseURI_",
          "type": "string"
        }
      ],
      "name": "setBaseURI",
      "outputs": [],
      "stateMutability": "nonpayable",
      "type": "function"
    },
    {
      "inputs": [
        {
          "internalType": "enum Achievements.Action",
          "name": "action",
          "type": "uint8"
        },
        {
          "internalType": "uint256",
          "name": "occurrences",
          "type": "uint256"
        },
        {
          "internalType": "string",
          "name": "content",
          "type": "string"
        }
      ],
      "name": "createAchievement",
      "outputs": [
        {
          "internalType": "uint256",
          "name": "",
          "type": "uint256"
        }
      ],
      "stateMutability": "nonpayable",
      "type": "function"
    },
    {
      "inputs": [
        {
          "internalType": "address",
          "name": "user",
          "type": "address"
        },
        {
          "internalType": "uint256",
          "name": "achievementId",
          "type": "uint256"
        }
      ],
      "name": "hasUserClaimedAchievement",
      "outputs": [
        {
          "internalType": "bool",
          "name": "",
          "type": "bool"
        }
      ],
      "stateMutability": "view",
      "type": "function"
    },
    {
      "inputs": [
        {
          "internalType": "address",
          "name": "user",
          "type": "address"
        },
        {
          "internalType": "uint256",
          "name": "marketId",
          "type": "uint256"
        }
      ],
      "name": "hasUserPlacedPrediction",
      "outputs": [
        {
          "internalType": "bool",
          "name": "",
          "type": "bool"
        }
      ],
      "stateMutability": "view",
      "type": "function"
    },
    {
      "inputs": [
        {
          "internalType": "address",
          "name": "user",
          "type": "address"
        },
        {
          "internalType": "uint256",
          "name": "marketId",
          "type": "uint256"
        }
      ],
      "name": "hasUserAddedLiquidity",
      "outputs": [
        {
          "internalType": "bool",
          "name": "",
          "type": "bool"
        }
      ],
      "stateMutability": "view",
      "type": "function"
    },
    {
      "inputs": [
        {
          "internalType": "address",
          "name": "user",
          "type": "address"
        },
        {
          "internalType": "uint256",
          "name": "marketId",
          "type": "uint256"
        }
      ],
      "name": "hasUserClaimedWinnings",
      "outputs": [
        {
          "internalType": "bool",
          "name": "",
          "type": "bool"
        }
      ],
      "stateMutability": "view",
      "type": "function"
    },
    {
      "inputs": [
        {
          "internalType": "address",
          "name": "_user",
          "type": "address"
        },
        {
          "internalType": "uint256",
          "name": "_marketId",
          "type": "uint256"
        }
      ],
      "name": "hasUserCreatedMarket",
      "outputs": [
        {
          "internalType": "bool",
          "name": "",
          "type": "bool"
        }
      ],
      "stateMutability": "pure",
      "type": "function"
    },
    {
      "inputs": [
        {
          "internalType": "uint256",
          "name": "achievementId",
          "type": "uint256"
        },
        {
          "internalType": "uint256[]",
          "name": "marketIds",
          "type": "uint256[]"
        }
      ],
      "name": "claimAchievement",
      "outputs": [
        {
          "internalType": "uint256",
          "name": "",
          "type": "uint256"
        }
      ],
      "stateMutability": "nonpayable",
      "type": "function"
    },
    {
      "inputs": [],
      "name": "tokenIndex",
      "outputs": [
        {
          "internalType": "uint256",
          "name": "",
          "type": "uint256"
        }
      ],
      "stateMutability": "view",
      "type": "function"
    }
  ],
  "bytecode": "0x608060405260006008553480156200001657600080fd5b506040516200244238038062002442833981016040819052620000399162000128565b8181600062000049838262000221565b50600162000058828262000221565b5050505050620002ed565b634e487b7160e01b600052604160045260246000fd5b600082601f8301126200008b57600080fd5b81516001600160401b0380821115620000a857620000a862000063565b604051601f8301601f19908116603f01168101908282118183101715620000d357620000d362000063565b81604052838152602092508683858801011115620000f057600080fd5b600091505b83821015620001145785820183015181830184015290820190620000f5565b600093810190920192909252949350505050565b600080604083850312156200013c57600080fd5b82516001600160401b03808211156200015457600080fd5b620001628683870162000079565b935060208501519150808211156200017957600080fd5b50620001888582860162000079565b9150509250929050565b600181811c90821680620001a757607f821691505b602082108103620001c857634e487b7160e01b600052602260045260246000fd5b50919050565b601f8211156200021c57600081815260208120601f850160051c81016020861015620001f75750805b601f850160051c820191505b81811015620002185782815560010162000203565b5050505b505050565b81516001600160401b038111156200023d576200023d62000063565b62000255816200024e845462000192565b84620001ce565b602080601f8311600181146200028d5760008415620002745750858301515b600019600386901b1c1916600185901b17855562000218565b600085815260208120601f198616915b82811015620002be578886015182559484019460019091019084016200029d565b5085821015620002dd5787850151600019600388901b60f8161c191681555b5050505050600190811b01905550565b61214580620002fd6000396000f3fe608060405234801561001057600080fd5b50600436106101a95760003560e01c80636352211e116100f9578063c8c787ae11610097578063def114b611610071578063def114b6146103e0578063e7c38730146103f3578063e985e9c514610406578063ecf5f69b1461044257600080fd5b8063c8c787ae146103bc578063c99aea33146103cf578063d55f9273146103d857600080fd5b806395d89b41116100d357806395d89b411461037b578063a22cb46514610383578063b88d4fde14610396578063c87b56dd146103a957600080fd5b80636352211e1461034257806370a0823114610355578063947f53a21461036857600080fd5b806327aed72e11610166578063497e409611610140578063497e4096146102db5780634f64b2be146102fc57806355f804b31461031c5780635a2e2f471461032f57600080fd5b806327aed72e1461025157806342842e0e1461028c57806342da0beb1461029f57600080fd5b806301ffc9a7146101ae57806306fdde03146101d6578063081812fc146101eb578063095ea7b3146102165780630c04f83b1461022b57806323b872dd1461023e575b600080fd5b6101c16101bc3660046118de565b610458565b60405190151581526020015b60405180910390f35b6101de6104aa565b6040516101cd919061194b565b6101fe6101f936600461195e565b61053c565b6040516001600160a01b0390911681526020016101cd565b61022961022436600461198c565b610563565b005b6101c161023936600461198c565b61067d565b61022961024c3660046119b8565b6107b1565b61027e61025f36600461195e565b6009602052600090815260409020805460019091015460ff9091169082565b6040516101cd929190611a0f565b61022961029a3660046119b8565b6107e2565b6101c16102ad36600461198c565b60009081526009602090815260408083206001600160a01b0394909416835260029093019052205460ff1690565b6102ee6102e9366004611aa6565b6107fd565b6040519081526020016101cd565b6102ee61030a36600461195e565b600a6020526000908152604090205481565b61022961032a366004611bc0565b610a19565b61022961033d366004611bf5565b610a8b565b6101fe61035036600461195e565b610b72565b6102ee610363366004611bf5565b610bd2565b6101c161037636600461198c565b610c58565b6101de610e16565b610229610391366004611c12565b610e25565b6102296103a4366004611c50565b610e30565b6101de6103b736600461195e565b610e68565b6102ee6103ca366004611cd0565b610ecf565b6102ee60085481565b6102ee610fba565b6007546101fe906001600160a01b031681565b6101c161040136600461198c565b610fca565b6101c1610414366004611d2d565b6001600160a01b03918216600090815260056020908152604080832093909416825291909152205460ff1690565b6101c161045036600461198c565b600092915050565b60006001600160e01b031982166380ac58cd60e01b148061048957506001600160e01b03198216635b5e139f60e01b145b806104a457506301ffc9a760e01b6001600160e01b03198316145b92915050565b6060600080546104b990611d5b565b80601f01602080910402602001604051908101604052809291908181526020018280546104e590611d5b565b80156105325780601f1061050757610100808354040283529160200191610532565b820191906000526020600020905b81548152906001019060200180831161051557829003601f168201915b5050505050905090565b6000610547826110ad565b506000908152600460205260409020546001600160a01b031690565b600061056e82610b72565b9050806001600160a01b0316836001600160a01b0316036105e05760405162461bcd60e51b815260206004820152602160248201527f4552433732313a20617070726f76616c20746f2063757272656e74206f776e656044820152603960f91b60648201526084015b60405180910390fd5b336001600160a01b03821614806105fc57506105fc8133610414565b61066e5760405162461bcd60e51b815260206004820152603d60248201527f4552433732313a20617070726f76652063616c6c6572206973206e6f7420746f60448201527f6b656e206f776e6572206f7220617070726f76656420666f7220616c6c00000060648201526084016105d7565b610678838361110f565b505050565b60075460405163b31eb89560e01b8152600481018390526001600160a01b03848116602483015260009260609291169063b31eb89590604401600060405180830381865afa1580156106d3573d6000803e3d6000fd5b505050506040513d6000823e601f3d908101601f191682016040526106fb9190810190611d95565b915060009050805b825181101561074957600083828151811061072057610720611e23565b602002602001015111156107375760019150610749565b8061074181611e4f565b915050610703565b506001811515146107a65760405162461bcd60e51b815260206004820152602160248201527f7573657220646f6573206e6f7420686f6c64206f7574636f6d652073686172656044820152607360f81b60648201526084016105d7565b506001949350505050565b6107bb338261117d565b6107d75760405162461bcd60e51b81526004016105d790611e68565b6106788383836111fc565b61067883838360405180602001604052806000815250610e30565b60008281526009602090815260408083203384526002810190925282205460ff161561086b5760405162461bcd60e51b815260206004820152601b60248201527f416368696576656d656e7420616c726561647920636c61696d6564000000000060448201526064016105d7565b80600101548351146108d15760405162461bcd60e51b815260206004820152602960248201527f4d61726b65747320636f756e7420616e64206f6363757272656e63657320646f6044820152680dc4ee840dac2e8c6d60bb1b60648201526084016105d7565b60005b8351811015610a065760008482815181106108f1576108f1611e23565b602002602001015190506000600381111561090e5761090e6119f9565b835460ff166003811115610924576109246119f9565b0361093957610933338261067d565b506109f3565b6001835460ff166003811115610951576109516119f9565b03610960576109333382610fca565b6002835460ff166003811115610978576109786119f9565b03610987576109333382610c58565b6003835460ff16600381111561099f5761099f6119f9565b036109ab576000610933565b60405162461bcd60e51b815260206004820152601a60248201527f496e76616c696420616368696576656d656e7420616374696f6e00000000000060448201526064016105d7565b50806109fe81611e4f565b9150506108d4565b50610a113385611360565b505092915050565b610a216113cc565b5115610a7b5760405162461bcd60e51b8152602060048201526024808201527f626173655552492063616e206f6e6c7920626520696e697469616c697a6564206044820152636f6e636560e01b60648201526084016105d7565b600b610a878282611f03565b5050565b6007546001600160a01b031615610afa5760405162461bcd60e51b815260206004820152602d60248201527f70726564696374696f6e4d61726b65742063616e206f6e6c7920626520696e6960448201526c7469616c697a6564206f6e636560981b60648201526084016105d7565b6001600160a01b038116610b505760405162461bcd60e51b815260206004820152601e60248201527f5f70726564696374696f6e4d61726b657420616464726573732069732030000060448201526064016105d7565b600780546001600160a01b0319166001600160a01b0392909216919091179055565b6000818152600260205260408120546001600160a01b0316806104a45760405162461bcd60e51b8152602060048201526018602482015277115490cdcc8c4e881a5b9d985b1a59081d1bdad95b88125160421b60448201526064016105d7565b60006001600160a01b038216610c3c5760405162461bcd60e51b815260206004820152602960248201527f4552433732313a2061646472657373207a65726f206973206e6f7420612076616044820152683634b21037bbb732b960b91b60648201526084016105d7565b506001600160a01b031660009081526003602052604090205490565b60075460405163b31eb89560e01b8152600481018390526001600160a01b03848116602483015260009260609291169063b31eb89590604401600060405180830381865afa158015610cae573d6000803e3d6000fd5b505050506040513d6000823e601f3d908101601f19168201604052610cd69190810190611d95565b60075460405163bf45572160e01b815260048101879052919350600092506001600160a01b03169063bf45572190602401602060405180830381865afa158015610d24573d6000803e3d6000fd5b505050506040513d601f19601f82011682018060405250810190610d489190611fc3565b90506000811215610d9b5760405162461bcd60e51b815260206004820152601c60248201527f6d61726b6574206973207374696c6c206e6f74207265736f6c7665640000000060448201526064016105d7565b6000828281518110610daf57610daf611e23565b6020026020010151116107a65760405162461bcd60e51b815260206004820152602960248201527f7573657220646f6573206e6f7420686f6c642077696e6e696e67206f7574636f6044820152686d652073686172657360b81b60648201526084016105d7565b6060600180546104b990611d5b565b610a873383836113db565b610e3a338361117d565b610e565760405162461bcd60e51b81526004016105d790611e68565b610e62848484846114a9565b50505050565b6060610e73826110ad565b6000610e7d6113cc565b90506000815111610e9d5760405180602001604052806000815250610ec8565b80610ea7846114dc565b604051602001610eb8929190611fdc565b6040516020818303038152906040525b9392505050565b6000808311610f2c5760405162461bcd60e51b8152602060048201526024808201527f6f6363757272656e6365732068617320746f20626520677265617465722074686044820152630616e20360e41b60648201526084016105d7565b600854600081815260096020526040902080548690829060ff19166001836003811115610f5b57610f5b6119f9565b021790555060018101859055604051339083907ff12dd2cec284c7695fa5ff87a683b64add6d47d7a74e190171798ee5e70a744c90610f9b90889061194b565b60405180910390a3610fae82600161200b565b60085550949350505050565b6000610fc560065490565b905090565b60075460405163b31eb89560e01b8152600481018390526001600160a01b038481166024830152600092839291169063b31eb89590604401600060405180830381865afa15801561101f573d6000803e3d6000fd5b505050506040513d6000823e601f3d908101601f191682016040526110479190810190611d95565b509050806110a35760405162461bcd60e51b815260206004820152602360248201527f7573657220646f6573206e6f7420686f6c64206c69717569646974792073686160448201526272657360e81b60648201526084016105d7565b5060019392505050565b6000818152600260205260409020546001600160a01b031661110c5760405162461bcd60e51b8152602060048201526018602482015277115490cdcc8c4e881a5b9d985b1a59081d1bdad95b88125160421b60448201526064016105d7565b50565b600081815260046020526040902080546001600160a01b0319166001600160a01b038416908117909155819061114482610b72565b6001600160a01b03167f8c5be1e5ebec7d5bd14f71427d1e84f3dd0314c0f7b2291e5b200ac8c7c3b92560405160405180910390a45050565b60008061118983610b72565b9050806001600160a01b0316846001600160a01b031614806111d057506001600160a01b0380821660009081526005602090815260408083209388168352929052205460ff165b806111f45750836001600160a01b03166111e98461053c565b6001600160a01b0316145b949350505050565b826001600160a01b031661120f82610b72565b6001600160a01b0316146112355760405162461bcd60e51b81526004016105d79061201e565b6001600160a01b0382166112975760405162461bcd60e51b8152602060048201526024808201527f4552433732313a207472616e7366657220746f20746865207a65726f206164646044820152637265737360e01b60648201526084016105d7565b826001600160a01b03166112aa82610b72565b6001600160a01b0316146112d05760405162461bcd60e51b81526004016105d79061201e565b600081815260046020908152604080832080546001600160a01b03199081169091556001600160a01b0387811680865260038552838620805460001901905590871680865283862080546001019055868652600290945282852080549092168417909155905184937fddf252ad1be2c89b69c2b068fc378daa952ba7f163c4a11628f55a4df523b3ef91a4505050565b6000611370600680546001019055565b600061137b60065490565b9050611387848261156f565b6000818152600a60209081526040808320869055858352600982528083206001600160a01b03881684526002019091529020805460ff19166001179055905092915050565b6060600b80546104b990611d5b565b816001600160a01b0316836001600160a01b03160361143c5760405162461bcd60e51b815260206004820152601960248201527f4552433732313a20617070726f766520746f2063616c6c65720000000000000060448201526064016105d7565b6001600160a01b03838116600081815260056020908152604080832094871680845294825291829020805460ff191686151590811790915591519182527f17307eab39ab6107e8899845ad3d59bd9653f200f220920489ca2b5937696c31910160405180910390a3505050565b6114b48484846111fc565b6114c0848484846116fa565b610e625760405162461bcd60e51b81526004016105d790612063565b606060006114e9836117f0565b600101905060008167ffffffffffffffff81111561150957611509611a3b565b6040519080825280601f01601f191660200182016040528015611533576020820181803683370190505b5090508181016020015b600019016f181899199a1a9b1b9c1cb0b131b232b360811b600a86061a8153600a850494508461153d57509392505050565b6001600160a01b0382166115c55760405162461bcd60e51b815260206004820181905260248201527f4552433732313a206d696e7420746f20746865207a65726f206164647265737360448201526064016105d7565b6000818152600260205260409020546001600160a01b03161561162a5760405162461bcd60e51b815260206004820152601c60248201527f4552433732313a20746f6b656e20616c7265616479206d696e7465640000000060448201526064016105d7565b6000818152600260205260409020546001600160a01b03161561168f5760405162461bcd60e51b815260206004820152601c60248201527f4552433732313a20746f6b656e20616c7265616479206d696e7465640000000060448201526064016105d7565b6001600160a01b038216600081815260036020908152604080832080546001019055848352600290915280822080546001600160a01b0319168417905551839291907fddf252ad1be2c89b69c2b068fc378daa952ba7f163c4a11628f55a4df523b3ef908290a45050565b60006001600160a01b0384163b156107a657604051630a85bd0160e11b81526001600160a01b0385169063150b7a029061173e9033908990889088906004016120b5565b6020604051808303816000875af1925050508015611779575060408051601f3d908101601f19168201909252611776918101906120f2565b60015b6117d6573d8080156117a7576040519150601f19603f3d011682016040523d82523d6000602084013e6117ac565b606091505b5080516000036117ce5760405162461bcd60e51b81526004016105d790612063565b805181602001fd5b6001600160e01b031916630a85bd0160e11b1490506111f4565b60008072184f03e93ff9f4daa797ed6e38ed64bf6a1f0160401b831061182f5772184f03e93ff9f4daa797ed6e38ed64bf6a1f0160401b830492506040015b6d04ee2d6d415b85acef8100000000831061185b576d04ee2d6d415b85acef8100000000830492506020015b662386f26fc10000831061187957662386f26fc10000830492506010015b6305f5e1008310611891576305f5e100830492506008015b61271083106118a557612710830492506004015b606483106118b7576064830492506002015b600a83106104a45760010192915050565b6001600160e01b03198116811461110c57600080fd5b6000602082840312156118f057600080fd5b8135610ec8816118c8565b60005b838110156119165781810151838201526020016118fe565b50506000910152565b600081518084526119378160208601602086016118fb565b601f01601f19169290920160200192915050565b602081526000610ec8602083018461191f565b60006020828403121561197057600080fd5b5035919050565b6001600160a01b038116811461110c57600080fd5b6000806040838503121561199f57600080fd5b82356119aa81611977565b946020939093013593505050565b6000806000606084860312156119cd57600080fd5b83356119d881611977565b925060208401356119e881611977565b929592945050506040919091013590565b634e487b7160e01b600052602160045260246000fd5b6040810160048410611a3157634e487b7160e01b600052602160045260246000fd5b9281526020015290565b634e487b7160e01b600052604160045260246000fd5b604051601f8201601f1916810167ffffffffffffffff81118282101715611a7a57611a7a611a3b565b604052919050565b600067ffffffffffffffff821115611a9c57611a9c611a3b565b5060051b60200190565b60008060408385031215611ab957600080fd5b8235915060208084013567ffffffffffffffff811115611ad857600080fd5b8401601f81018613611ae957600080fd5b8035611afc611af782611a82565b611a51565b81815260059190911b82018301908381019088831115611b1b57600080fd5b928401925b82841015611b3957833582529284019290840190611b20565b80955050505050509250929050565b600067ffffffffffffffff831115611b6257611b62611a3b565b611b75601f8401601f1916602001611a51565b9050828152838383011115611b8957600080fd5b828260208301376000602084830101529392505050565b600082601f830112611bb157600080fd5b610ec883833560208501611b48565b600060208284031215611bd257600080fd5b813567ffffffffffffffff811115611be957600080fd5b6111f484828501611ba0565b600060208284031215611c0757600080fd5b8135610ec881611977565b60008060408385031215611c2557600080fd5b8235611c3081611977565b915060208301358015158114611c4557600080fd5b809150509250929050565b60008060008060808587031215611c6657600080fd5b8435611c7181611977565b93506020850135611c8181611977565b925060408501359150606085013567ffffffffffffffff811115611ca457600080fd5b8501601f81018713611cb557600080fd5b611cc487823560208401611b48565b91505092959194509250565b600080600060608486031215611ce557600080fd5b833560048110611cf457600080fd5b925060208401359150604084013567ffffffffffffffff811115611d1757600080fd5b611d2386828701611ba0565b9150509250925092565b60008060408385031215611d4057600080fd5b8235611d4b81611977565b91506020830135611c4581611977565b600181811c90821680611d6f57607f821691505b602082108103611d8f57634e487b7160e01b600052602260045260246000fd5b50919050565b60008060408385031215611da857600080fd5b8251915060208084015167ffffffffffffffff811115611dc757600080fd5b8401601f81018613611dd857600080fd5b8051611de6611af782611a82565b81815260059190911b82018301908381019088831115611e0557600080fd5b928401925b82841015611b3957835182529284019290840190611e0a565b634e487b7160e01b600052603260045260246000fd5b634e487b7160e01b600052601160045260246000fd5b600060018201611e6157611e61611e39565b5060010190565b6020808252602d908201527f4552433732313a2063616c6c6572206973206e6f7420746f6b656e206f776e6560408201526c1c881bdc88185c1c1c9bdd9959609a1b606082015260800190565b601f82111561067857600081815260208120601f850160051c81016020861015611edc5750805b601f850160051c820191505b81811015611efb57828155600101611ee8565b505050505050565b815167ffffffffffffffff811115611f1d57611f1d611a3b565b611f3181611f2b8454611d5b565b84611eb5565b602080601f831160018114611f665760008415611f4e5750858301515b600019600386901b1c1916600185901b178555611efb565b600085815260208120601f198616915b82811015611f9557888601518255948401946001909101908401611f76565b5085821015611fb35787850151600019600388901b60f8161c191681555b5050505050600190811b01905550565b600060208284031215611fd557600080fd5b5051919050565b60008351611fee8184602088016118fb565b8351908301906120028183602088016118fb565b01949350505050565b808201808211156104a4576104a4611e39565b60208082526025908201527f4552433732313a207472616e736665722066726f6d20696e636f72726563742060408201526437bbb732b960d91b606082015260800190565b60208082526032908201527f4552433732313a207472616e7366657220746f206e6f6e20455243373231526560408201527131b2b4bb32b91034b6b83632b6b2b73a32b960711b606082015260800190565b6001600160a01b03858116825284166020820152604081018390526080606082018190526000906120e89083018461191f565b9695505050505050565b60006020828403121561210457600080fd5b8151610ec8816118c856fea2646970667358221220ebef6de31119a1da3c15823af9edfef603226b0e7c1d61752d2d392083ca775b64736f6c63430008120033",
  "immutableReferences": {},
  "source": "pragma solidity ^0.8.18;\npragma experimental ABIEncoderV2;\n\nimport \"./PredictionMarketV2.sol\";\n\n// openzeppelin imports\nimport \"@openzeppelin/contracts/utils/math/SafeMath.sol\";\nimport \"@openzeppelin/contracts/token/ERC721/ERC721.sol\";\nimport \"@openzeppelin/contracts/utils/Counters.sol\";\n\n/// @title Prediction Market Achievements Contract\ncontract Achievements is ERC721 {\n  using Counters for Counters.Counter;\n  Counters.Counter private _tokenIds;\n\n  /// @dev protocol is immutable and has no ownership\n  PredictionMarketV2 public predictionMarket;\n\n  event LogNewAchievement(uint256 indexed achievementId, address indexed user, string content);\n\n  // Buy: Claim through market[x].outcome[y].shares.holders[msg.sender] > 0\n  // AddLiquidity: Claim through market[x].liquidityShares[msg.sender] > 0\n  // CreateMarket: RealitioERC20 question arbitrator == msg.sender\n  // ClaimWinnings: Claim through market[x].outcome[y].shares.holders[msg.sender] > 0 && y == market.resolution.outcomeId\n  enum Action {\n    Buy,\n    AddLiquidity,\n    ClaimWinnings,\n    CreateMarket\n  }\n\n  struct Achievement {\n    Action action;\n    uint256 occurrences;\n    mapping(address => bool) claims;\n  }\n\n  uint256 public achievementIndex = 0;\n  mapping(uint256 => Achievement) public achievements;\n  mapping(uint256 => uint256) public tokens; // tokenId => achievementId\n\n  // Base URI\n  string private _baseURIExtended;\n\n  constructor(string memory token, string memory ticker) ERC721(token, ticker) {}\n\n  function setContracts(PredictionMarketV2 _predictionMarket) public {\n    require(address(predictionMarket) == address(0), \"predictionMarket can only be initialized once\");\n    require(address(_predictionMarket) != address(0), \"_predictionMarket address is 0\");\n    predictionMarket = _predictionMarket;\n  }\n\n  function _baseURI() internal view virtual override returns (string memory) {\n    return _baseURIExtended;\n  }\n\n  function setBaseURI(string memory baseURI_) external {\n    require(bytes(_baseURI()).length == 0, \"baseURI can only be initialized once\");\n    _baseURIExtended = baseURI_;\n  }\n\n  function createAchievement(\n    Action action,\n    uint256 occurrences,\n    string memory content\n  ) public returns (uint256) {\n    require(occurrences > 0, \"occurrences has to be greater than 0\");\n    uint256 achievementId = achievementIndex;\n    Achievement storage achievement = achievements[achievementId];\n\n    achievement.action = action;\n    achievement.occurrences = occurrences;\n    emit LogNewAchievement(achievementId, msg.sender, content);\n    achievementIndex = achievementId + 1;\n    return achievementId;\n  }\n\n  function hasUserClaimedAchievement(address user, uint256 achievementId) public view returns (bool) {\n    Achievement storage achievement = achievements[achievementId];\n\n    return achievement.claims[user];\n  }\n\n  function hasUserPlacedPrediction(address user, uint256 marketId) public view returns (bool) {\n    uint256[] memory outcomeShares;\n    (, outcomeShares) = predictionMarket.getUserMarketShares(marketId, user);\n\n    bool hasPlacedPrediction;\n\n    for (uint256 i = 0; i < outcomeShares.length; i++) {\n      if (outcomeShares[i] > 0) {\n        hasPlacedPrediction = true;\n        break;\n      }\n    }\n\n    require(hasPlacedPrediction == true, \"user does not hold outcome shares\");\n\n    return true;\n  }\n\n  function hasUserAddedLiquidity(address user, uint256 marketId) public view returns (bool) {\n    uint256 liquidityShares;\n    (liquidityShares, ) = predictionMarket.getUserMarketShares(marketId, user);\n\n    require(liquidityShares > 0, \"user does not hold liquidity shares\");\n\n    return true;\n  }\n\n  function hasUserClaimedWinnings(address user, uint256 marketId) public view returns (bool) {\n    uint256[] memory outcomeShares;\n    (, outcomeShares) = predictionMarket.getUserMarketShares(marketId, user);\n    int256 resolvedOutcomeId = predictionMarket.getMarketResolvedOutcome(marketId);\n\n    require(resolvedOutcomeId >= 0, \"market is still not resolved\");\n    require(outcomeShares[uint256(resolvedOutcomeId)] > 0, \"user does not hold winning outcome shares\");\n\n    return true;\n  }\n\n  function hasUserCreatedMarket(address _user, uint256 _marketId) public pure returns (bool) {\n    // TODO\n    return false;\n  }\n\n  function claimAchievement(uint256 achievementId, uint256[] memory marketIds) public returns (uint256) {\n    Achievement storage achievement = achievements[achievementId];\n\n    require(achievement.claims[msg.sender] == false, \"Achievement already claimed\");\n    require(marketIds.length == achievement.occurrences, \"Markets count and occurrences don't match\");\n\n    for (uint256 i = 0; i < marketIds.length; i++) {\n      uint256 marketId = marketIds[i];\n\n      if (achievement.action == Action.Buy) {\n        hasUserPlacedPrediction(msg.sender, marketId);\n      } else if (achievement.action == Action.AddLiquidity) {\n        hasUserAddedLiquidity(msg.sender, marketId);\n      } else if (achievement.action == Action.ClaimWinnings) {\n        hasUserClaimedWinnings(msg.sender, marketId);\n      } else if (achievement.action == Action.CreateMarket) {\n        hasUserCreatedMarket(msg.sender, marketId);\n      } else {\n        revert(\"Invalid achievement action\");\n      }\n    }\n\n    mintAchievement(msg.sender, achievementId);\n  }\n\n  function mintAchievement(address user, uint256 achievementId) private returns (uint256) {\n    _tokenIds.increment();\n\n    uint256 tokenId = _tokenIds.current();\n    _mint(user, tokenId);\n    tokens[tokenId] = achievementId;\n\n    Achievement storage achievement = achievements[achievementId];\n    achievement.claims[user] = true;\n\n    return tokenId;\n  }\n\n  function tokenIndex() public view returns (uint256) {\n    return _tokenIds.current();\n  }\n}\n",
  "sourcePath": "/Users/ricardomarques/dev/workspace/polkamarkets/bepro-js/contracts/Achievements.sol",
  "compiler": {
    "name": "solc",
    "version": "0.8.18+commit.87f61d96.Emscripten.clang"
  },
  "schemaVersion": "3.3.4",
  "updatedAt": "2023-05-15T13:18:35.167Z",
  "devdoc": {
    "events": {
      "Approval(address,address,uint256)": {
        "details": "Emitted when `owner` enables `approved` to manage the `tokenId` token."
      },
      "ApprovalForAll(address,address,bool)": {
        "details": "Emitted when `owner` enables or disables (`approved`) `operator` to manage all of its assets."
      },
      "Transfer(address,address,uint256)": {
        "details": "Emitted when `tokenId` token is transferred from `from` to `to`."
      }
    },
    "kind": "dev",
    "methods": {
      "approve(address,uint256)": {
        "details": "See {IERC721-approve}."
      },
      "balanceOf(address)": {
        "details": "See {IERC721-balanceOf}."
      },
      "getApproved(uint256)": {
        "details": "See {IERC721-getApproved}."
      },
      "isApprovedForAll(address,address)": {
        "details": "See {IERC721-isApprovedForAll}."
      },
      "name()": {
        "details": "See {IERC721Metadata-name}."
      },
      "ownerOf(uint256)": {
        "details": "See {IERC721-ownerOf}."
      },
      "safeTransferFrom(address,address,uint256)": {
        "details": "See {IERC721-safeTransferFrom}."
      },
      "safeTransferFrom(address,address,uint256,bytes)": {
        "details": "See {IERC721-safeTransferFrom}."
      },
      "setApprovalForAll(address,bool)": {
        "details": "See {IERC721-setApprovalForAll}."
      },
      "supportsInterface(bytes4)": {
        "details": "See {IERC165-supportsInterface}."
      },
      "symbol()": {
        "details": "See {IERC721Metadata-symbol}."
      },
      "tokenURI(uint256)": {
        "details": "See {IERC721Metadata-tokenURI}."
      },
      "transferFrom(address,address,uint256)": {
        "details": "See {IERC721-transferFrom}."
      }
    },
    "stateVariables": {
      "predictionMarket": {
        "details": "protocol is immutable and has no ownership"
      }
    },
    "title": "Prediction Market Achievements Contract",
    "version": 1
  },
  "userdoc": {
    "kind": "user",
    "methods": {},
    "version": 1
  }
}