{
  "contractName": "FantasyERC20",
  "abi": [
    {
      "inputs": [
        {
          "internalType": "string",
          "name": "name",
          "type": "string"
        },
        {
          "internalType": "string",
          "name": "symbol",
          "type": "string"
        },
        {
          "internalType": "uint256",
          "name": "_tokenAmountToClaim",
          "type": "uint256"
        },
        {
          "internalType": "address",
          "name": "_tokenManager",
          "type": "address"
        }
      ],
      "stateMutability": "nonpayable",
      "type": "constructor"
    },
    {
      "anonymous": false,
      "inputs": [
        {
          "indexed": true,
          "internalType": "address",
          "name": "owner",
          "type": "address"
        },
        {
          "indexed": true,
          "internalType": "address",
          "name": "spender",
          "type": "address"
        },
        {
          "indexed": false,
          "internalType": "uint256",
          "name": "value",
          "type": "uint256"
        }
      ],
      "name": "Approval",
      "type": "event"
    },
    {
      "anonymous": false,
      "inputs": [
        {
          "indexed": false,
          "internalType": "address",
          "name": "account",
          "type": "address"
        }
      ],
      "name": "Paused",
      "type": "event"
    },
    {
      "anonymous": false,
      "inputs": [
        {
          "indexed": true,
          "internalType": "bytes32",
          "name": "role",
          "type": "bytes32"
        },
        {
          "indexed": true,
          "internalType": "bytes32",
          "name": "previousAdminRole",
          "type": "bytes32"
        },
        {
          "indexed": true,
          "internalType": "bytes32",
          "name": "newAdminRole",
          "type": "bytes32"
        }
      ],
      "name": "RoleAdminChanged",
      "type": "event"
    },
    {
      "anonymous": false,
      "inputs": [
        {
          "indexed": true,
          "internalType": "bytes32",
          "name": "role",
          "type": "bytes32"
        },
        {
          "indexed": true,
          "internalType": "address",
          "name": "account",
          "type": "address"
        },
        {
          "indexed": true,
          "internalType": "address",
          "name": "sender",
          "type": "address"
        }
      ],
      "name": "RoleGranted",
      "type": "event"
    },
    {
      "anonymous": false,
      "inputs": [
        {
          "indexed": true,
          "internalType": "bytes32",
          "name": "role",
          "type": "bytes32"
        },
        {
          "indexed": true,
          "internalType": "address",
          "name": "account",
          "type": "address"
        },
        {
          "indexed": true,
          "internalType": "address",
          "name": "sender",
          "type": "address"
        }
      ],
      "name": "RoleRevoked",
      "type": "event"
    },
    {
      "anonymous": false,
      "inputs": [
        {
          "indexed": true,
          "internalType": "address",
          "name": "user",
          "type": "address"
        },
        {
          "indexed": false,
          "internalType": "uint256",
          "name": "amount",
          "type": "uint256"
        },
        {
          "indexed": false,
          "internalType": "uint256",
          "name": "timestamp",
          "type": "uint256"
        }
      ],
      "name": "TokensClaimed",
      "type": "event"
    },
    {
      "anonymous": false,
      "inputs": [
        {
          "indexed": true,
          "internalType": "address",
          "name": "from",
          "type": "address"
        },
        {
          "indexed": true,
          "internalType": "address",
          "name": "to",
          "type": "address"
        },
        {
          "indexed": false,
          "internalType": "uint256",
          "name": "value",
          "type": "uint256"
        }
      ],
      "name": "Transfer",
      "type": "event"
    },
    {
      "anonymous": false,
      "inputs": [
        {
          "indexed": false,
          "internalType": "address",
          "name": "account",
          "type": "address"
        }
      ],
      "name": "Unpaused",
      "type": "event"
    },
    {
      "inputs": [],
      "name": "DEFAULT_ADMIN_ROLE",
      "outputs": [
        {
          "internalType": "bytes32",
          "name": "",
          "type": "bytes32"
        }
      ],
      "stateMutability": "view",
      "type": "function"
    },
    {
      "inputs": [],
      "name": "MINTER_ROLE",
      "outputs": [
        {
          "internalType": "bytes32",
          "name": "",
          "type": "bytes32"
        }
      ],
      "stateMutability": "view",
      "type": "function"
    },
    {
      "inputs": [],
      "name": "PAUSER_ROLE",
      "outputs": [
        {
          "internalType": "bytes32",
          "name": "",
          "type": "bytes32"
        }
      ],
      "stateMutability": "view",
      "type": "function"
    },
    {
      "inputs": [
        {
          "internalType": "address",
          "name": "owner",
          "type": "address"
        },
        {
          "internalType": "address",
          "name": "spender",
          "type": "address"
        }
      ],
      "name": "allowance",
      "outputs": [
        {
          "internalType": "uint256",
          "name": "",
          "type": "uint256"
        }
      ],
      "stateMutability": "view",
      "type": "function"
    },
    {
      "inputs": [
        {
          "internalType": "address",
          "name": "spender",
          "type": "address"
        },
        {
          "internalType": "uint256",
          "name": "amount",
          "type": "uint256"
        }
      ],
      "name": "approve",
      "outputs": [
        {
          "internalType": "bool",
          "name": "",
          "type": "bool"
        }
      ],
      "stateMutability": "nonpayable",
      "type": "function"
    },
    {
      "inputs": [
        {
          "internalType": "address",
          "name": "account",
          "type": "address"
        }
      ],
      "name": "balanceOf",
      "outputs": [
        {
          "internalType": "uint256",
          "name": "",
          "type": "uint256"
        }
      ],
      "stateMutability": "view",
      "type": "function"
    },
    {
      "inputs": [
        {
          "internalType": "uint256",
          "name": "amount",
          "type": "uint256"
        }
      ],
      "name": "burn",
      "outputs": [],
      "stateMutability": "nonpayable",
      "type": "function"
    },
    {
      "inputs": [
        {
          "internalType": "address",
          "name": "account",
          "type": "address"
        },
        {
          "internalType": "uint256",
          "name": "amount",
          "type": "uint256"
        }
      ],
      "name": "burnFrom",
      "outputs": [],
      "stateMutability": "nonpayable",
      "type": "function"
    },
    {
      "inputs": [],
      "name": "decimals",
      "outputs": [
        {
          "internalType": "uint8",
          "name": "",
          "type": "uint8"
        }
      ],
      "stateMutability": "view",
      "type": "function"
    },
    {
      "inputs": [
        {
          "internalType": "address",
          "name": "spender",
          "type": "address"
        },
        {
          "internalType": "uint256",
          "name": "subtractedValue",
          "type": "uint256"
        }
      ],
      "name": "decreaseAllowance",
      "outputs": [
        {
          "internalType": "bool",
          "name": "",
          "type": "bool"
        }
      ],
      "stateMutability": "nonpayable",
      "type": "function"
    },
    {
      "inputs": [
        {
          "internalType": "bytes32",
          "name": "role",
          "type": "bytes32"
        }
      ],
      "name": "getRoleAdmin",
      "outputs": [
        {
          "internalType": "bytes32",
          "name": "",
          "type": "bytes32"
        }
      ],
      "stateMutability": "view",
      "type": "function"
    },
    {
      "inputs": [
        {
          "internalType": "bytes32",
          "name": "role",
          "type": "bytes32"
        },
        {
          "internalType": "uint256",
          "name": "index",
          "type": "uint256"
        }
      ],
      "name": "getRoleMember",
      "outputs": [
        {
          "internalType": "address",
          "name": "",
          "type": "address"
        }
      ],
      "stateMutability": "view",
      "type": "function"
    },
    {
      "inputs": [
        {
          "internalType": "bytes32",
          "name": "role",
          "type": "bytes32"
        }
      ],
      "name": "getRoleMemberCount",
      "outputs": [
        {
          "internalType": "uint256",
          "name": "",
          "type": "uint256"
        }
      ],
      "stateMutability": "view",
      "type": "function"
    },
    {
      "inputs": [
        {
          "internalType": "bytes32",
          "name": "role",
          "type": "bytes32"
        },
        {
          "internalType": "address",
          "name": "account",
          "type": "address"
        }
      ],
      "name": "grantRole",
      "outputs": [],
      "stateMutability": "nonpayable",
      "type": "function"
    },
    {
      "inputs": [
        {
          "internalType": "bytes32",
          "name": "role",
          "type": "bytes32"
        },
        {
          "internalType": "address",
          "name": "account",
          "type": "address"
        }
      ],
      "name": "hasRole",
      "outputs": [
        {
          "internalType": "bool",
          "name": "",
          "type": "bool"
        }
      ],
      "stateMutability": "view",
      "type": "function"
    },
    {
      "inputs": [
        {
          "internalType": "address",
          "name": "spender",
          "type": "address"
        },
        {
          "internalType": "uint256",
          "name": "addedValue",
          "type": "uint256"
        }
      ],
      "name": "increaseAllowance",
      "outputs": [
        {
          "internalType": "bool",
          "name": "",
          "type": "bool"
        }
      ],
      "stateMutability": "nonpayable",
      "type": "function"
    },
    {
      "inputs": [
        {
          "internalType": "address",
          "name": "to",
          "type": "address"
        },
        {
          "internalType": "uint256",
          "name": "amount",
          "type": "uint256"
        }
      ],
      "name": "mint",
      "outputs": [],
      "stateMutability": "nonpayable",
      "type": "function"
    },
    {
      "inputs": [],
      "name": "name",
      "outputs": [
        {
          "internalType": "string",
          "name": "",
          "type": "string"
        }
      ],
      "stateMutability": "view",
      "type": "function"
    },
    {
      "inputs": [],
      "name": "pause",
      "outputs": [],
      "stateMutability": "nonpayable",
      "type": "function"
    },
    {
      "inputs": [],
      "name": "paused",
      "outputs": [
        {
          "internalType": "bool",
          "name": "",
          "type": "bool"
        }
      ],
      "stateMutability": "view",
      "type": "function"
    },
    {
      "inputs": [
        {
          "internalType": "bytes32",
          "name": "role",
          "type": "bytes32"
        },
        {
          "internalType": "address",
          "name": "account",
          "type": "address"
        }
      ],
      "name": "renounceRole",
      "outputs": [],
      "stateMutability": "nonpayable",
      "type": "function"
    },
    {
      "inputs": [
        {
          "internalType": "bytes32",
          "name": "role",
          "type": "bytes32"
        },
        {
          "internalType": "address",
          "name": "account",
          "type": "address"
        }
      ],
      "name": "revokeRole",
      "outputs": [],
      "stateMutability": "nonpayable",
      "type": "function"
    },
    {
      "inputs": [],
      "name": "symbol",
      "outputs": [
        {
          "internalType": "string",
          "name": "",
          "type": "string"
        }
      ],
      "stateMutability": "view",
      "type": "function"
    },
    {
      "inputs": [],
      "name": "tokenAmountToClaim",
      "outputs": [
        {
          "internalType": "uint256",
          "name": "",
          "type": "uint256"
        }
      ],
      "stateMutability": "view",
      "type": "function"
    },
    {
      "inputs": [],
      "name": "tokenManager",
      "outputs": [
        {
          "internalType": "address",
          "name": "",
          "type": "address"
        }
      ],
      "stateMutability": "view",
      "type": "function"
    },
    {
      "inputs": [],
      "name": "totalSupply",
      "outputs": [
        {
          "internalType": "uint256",
          "name": "",
          "type": "uint256"
        }
      ],
      "stateMutability": "view",
      "type": "function"
    },
    {
      "inputs": [
        {
          "internalType": "address",
          "name": "recipient",
          "type": "address"
        },
        {
          "internalType": "uint256",
          "name": "amount",
          "type": "uint256"
        }
      ],
      "name": "transfer",
      "outputs": [
        {
          "internalType": "bool",
          "name": "",
          "type": "bool"
        }
      ],
      "stateMutability": "nonpayable",
      "type": "function"
    },
    {
      "inputs": [
        {
          "internalType": "address",
          "name": "sender",
          "type": "address"
        },
        {
          "internalType": "address",
          "name": "recipient",
          "type": "address"
        },
        {
          "internalType": "uint256",
          "name": "amount",
          "type": "uint256"
        }
      ],
      "name": "transferFrom",
      "outputs": [
        {
          "internalType": "bool",
          "name": "",
          "type": "bool"
        }
      ],
      "stateMutability": "nonpayable",
      "type": "function"
    },
    {
      "inputs": [],
      "name": "unpause",
      "outputs": [],
      "stateMutability": "nonpayable",
      "type": "function"
    },
    {
      "inputs": [],
      "name": "claimTokens",
      "outputs": [],
      "stateMutability": "nonpayable",
      "type": "function"
    },
    {
      "inputs": [],
      "name": "claimAndApproveTokens",
      "outputs": [],
      "stateMutability": "nonpayable",
      "type": "function"
    },
    {
      "inputs": [
        {
          "internalType": "address",
          "name": "user",
          "type": "address"
        }
      ],
      "name": "hasUserClaimedTokens",
      "outputs": [
        {
          "internalType": "bool",
          "name": "",
          "type": "bool"
        }
      ],
      "stateMutability": "view",
      "type": "function"
    }
  ],
  "bytecode": "0x60806040523480156200001157600080fd5b506040516200200238038062002002833981810160405260808110156200003757600080fd5b81019080805160405193929190846401000000008211156200005857600080fd5b9083019060208201858111156200006e57600080fd5b82516401000000008111828201881017156200008957600080fd5b82525081516020918201929091019080838360005b83811015620000b85781810151838201526020016200009e565b50505050905090810190601f168015620000e65780820380516001836020036101000a031916815260200191505b50604052602001805160405193929190846401000000008211156200010a57600080fd5b9083019060208201858111156200012057600080fd5b82516401000000008111828201881017156200013b57600080fd5b82525081516020918201929091019080838360005b838110156200016a57818101518382015260200162000150565b50505050905090810190601f168015620001985780820380516001836020036101000a031916815260200191505b5060409081526020828101519290910151865192945092508591859183918391620001c991600491850190620003f7565b508051620001df906005906020840190620003f7565b50506006805461ff001960ff19909116601217169055506200021e60006200020f6001600160e01b03620002be16565b6001600160e01b03620002c316565b604080516a4d494e5445525f524f4c4560a81b8152905190819003600b01902062000256906200020f6001600160e01b03620002be16565b604080516a5041555345525f524f4c4560a81b8152905190819003600b0190206200028e906200020f6001600160e01b03620002be16565b5050600991909155600880546001600160a01b0319166001600160a01b0390921691909117905550620004999050565b335b90565b620002d882826001600160e01b03620002dc16565b5050565b600082815260208181526040909120620003019183906200153c6200035e821b17901c565b15620002d8576200031a6001600160e01b03620002be16565b6001600160a01b0316816001600160a01b0316837f2f8788117e7eff1d82e926ec794901d17c78024a50270940304540a733656f0d60405160405180910390a45050565b60006200037e836001600160a01b0384166001600160e01b036200038716565b90505b92915050565b60006200039e83836001600160e01b03620003df16565b620003d65750815460018181018455600084815260208082209093018490558454848252828601909352604090209190915562000381565b50600062000381565b60009081526001919091016020526040902054151590565b828054600181600116156101000203166002900490600052602060002090601f016020900481019282601f106200043a57805160ff19168380011785556200046a565b828001600101855582156200046a579182015b828111156200046a5782518255916020019190600101906200044d565b50620004789291506200047c565b5090565b620002c091905b8082111562000478576000815560010162000483565b611b5980620004a96000396000f3fe608060405234801561001057600080fd5b50600436106101805760003560e01c806306fdde0314610185578063095ea7b31461020257806318160ddd1461024257806323b872dd1461025c578063248a9ca3146102925780632a709b14146102af5780632f2ff15d146102d3578063313ce5671461030157806336568abe1461031f57806337a657251461034b57806339509351146103535780633f4ba83a1461037f57806340c10f191461038757806342966c68146103b357806348c54b9d146103d05780635c975abb146103d857806370a08231146103e057806379cc6790146104065780638456cb591461043257806387bbfe0a1461043a5780639010d07c1461046057806391d148541461048357806395d89b41146104af578063a217fddf146104b7578063a457c2d7146104bf578063a9059cbb146104eb578063adb1f0d814610517578063ca15c8731461051f578063d53913931461053c578063d547741f14610544578063dd62ed3e14610570578063e63ab1e91461059e575b600080fd5b61018d6105a6565b6040805160208082528351818301528351919283929083019185019080838360005b838110156101c75781810151838201526020016101af565b50505050905090810190601f1680156101f45780820380516001836020036101000a031916815260200191505b509250505060405180910390f35b61022e6004803603604081101561021857600080fd5b506001600160a01b03813516906020013561063c565b604080519115158252519081900360200190f35b61024a61065a565b60408051918252519081900360200190f35b61022e6004803603606081101561027257600080fd5b506001600160a01b03813581169160208101359091169060400135610660565b61024a600480360360208110156102a857600080fd5b50356106ed565b6102b7610702565b604080516001600160a01b039092168252519081900360200190f35b6102ff600480360360408110156102e957600080fd5b50803590602001356001600160a01b0316610711565b005b61030961077d565b6040805160ff9092168252519081900360200190f35b6102ff6004803603604081101561033557600080fd5b50803590602001356001600160a01b0316610786565b61024a6107e7565b61022e6004803603604081101561036957600080fd5b506001600160a01b0381351690602001356107ed565b6102ff610841565b6102ff6004803603604081101561039d57600080fd5b506001600160a01b0381351690602001356108b2565b6102ff600480360360208110156103c957600080fd5b5035610923565b6102ff610937565b61022e6109ef565b61024a600480360360208110156103f657600080fd5b50356001600160a01b03166109fd565b6102ff6004803603604081101561041c57600080fd5b506001600160a01b038135169060200135610a18565b6102ff610a78565b61022e6004803603602081101561045057600080fd5b50356001600160a01b0316610ae7565b6102b76004803603604081101561047657600080fd5b5080359060200135610b05565b61022e6004803603604081101561049957600080fd5b50803590602001356001600160a01b0316610b2a565b61018d610b48565b61024a610ba9565b61022e600480360360408110156104d557600080fd5b506001600160a01b038135169060200135610bae565b61022e6004803603604081101561050157600080fd5b506001600160a01b038135169060200135610c1c565b6102ff610c30565b61024a6004803603602081101561053557600080fd5b5035610ca4565b61024a610cbb565b6102ff6004803603604081101561055a57600080fd5b50803590602001356001600160a01b0316610cde565b61024a6004803603604081101561058657600080fd5b506001600160a01b0381358116916020013516610d37565b61024a610d62565b60048054604080516020601f60026000196101006001881615020190951694909404938401819004810282018101909252828152606093909290918301828280156106325780601f1061060757610100808354040283529160200191610632565b820191906000526020600020905b81548152906001019060200180831161061557829003601f168201915b5050505050905090565b6000610650610649610d85565b8484610d89565b5060015b92915050565b60035490565b600061066d848484610e75565b6106e384610679610d85565b6106de85604051806060016040528060288152602001611925602891396001600160a01b038a166000908152600260205260408120906106b7610d85565b6001600160a01b03168152602081019190915260400160002054919063ffffffff610ee416565b610d89565b5060019392505050565b60009081526020819052604090206002015490565b6008546001600160a01b031681565b6000828152602081905260409020600201546107349061072f610d85565b610b2a565b61076f5760405162461bcd60e51b815260040180806020018281038252602f8152602001806117f3602f913960400191505060405180910390fd5b6107798282610f7b565b5050565b60065460ff1690565b61078e610d85565b6001600160a01b0316816001600160a01b0316146107dd5760405162461bcd60e51b815260040180806020018281038252602f815260200180611acb602f913960400191505060405180910390fd5b6107798282610fea565b60095481565b60006106506107fa610d85565b846106de856002600061080b610d85565b6001600160a01b03908116825260208083019390935260409182016000908120918c16815292529020549063ffffffff61105916565b604080516a5041555345525f524f4c4560a81b8152905190819003600b01902061086d9061072f610d85565b6108a85760405162461bcd60e51b81526004018080602001828103825260398152602001806118446039913960400191505060405180910390fd5b6108b06110b1565b565b604080516a4d494e5445525f524f4c4560a81b8152905190819003600b0190206108de9061072f610d85565b6109195760405162461bcd60e51b815260040180806020018281038252603681526020018061194d6036913960400191505060405180910390fd5b6107798282611152565b61093461092e610d85565b8261123e565b50565b3360009081526007602052604090205460ff16156109865760405162461bcd60e51b81526004018080602001828103825260308152602001806118f56030913960400191505060405180910390fd5b61099233600954611152565b33600081815260076020908152604091829020805460ff191660011790556009548251908152429181019190915281517f9923b4306c6c030f2bdfbf156517d5983b87e15b96176da122cd4f2effa4ba7b929181900390910190a2565b600654610100900460ff1690565b6001600160a01b031660009081526001602052604090205490565b6000610a558260405180606001604052806024815260200161198360249139610a4886610a43610d85565b610d37565b919063ffffffff610ee416565b9050610a6983610a63610d85565b83610d89565b610a73838361123e565b505050565b604080516a5041555345525f524f4c4560a81b8152905190819003600b019020610aa49061072f610d85565b610adf5760405162461bcd60e51b8152600401808060200182810382526037815260200180611a316037913960400191505060405180910390fd5b6108b0611334565b6001600160a01b031660009081526007602052604090205460ff1690565b6000828152602081905260408120610b23908363ffffffff6113b916565b9392505050565b6000828152602081905260408120610b23908363ffffffff6113c516565b60058054604080516020601f60026000196101006001881615020190951694909404938401819004810282018101909252828152606093909290918301828280156106325780601f1061060757610100808354040283529160200191610632565b600081565b6000610650610bbb610d85565b846106de85604051806060016040528060258152602001611aa66025913960026000610be5610d85565b6001600160a01b03908116825260208083019390935260409182016000908120918d1681529252902054919063ffffffff610ee416565b6000610650610c29610d85565b8484610e75565b3360009081526007602052604090205460ff1615610c7f5760405162461bcd60e51b81526004018080602001828103825260308152602001806118f56030913960400191505060405180910390fd5b610c87610937565b600854610934906001600160a01b03166001600160801b0361063c565b6000818152602081905260408120610654906113da565b604080516a4d494e5445525f524f4c4560a81b8152905190819003600b01902081565b600082815260208190526040902060020154610cfc9061072f610d85565b6107dd5760405162461bcd60e51b81526004018080602001828103825260308152602001806118c56030913960400191505060405180910390fd5b6001600160a01b03918216600090815260026020908152604080832093909416825291909152205490565b604080516a5041555345525f524f4c4560a81b8152905190819003600b01902081565b3390565b6001600160a01b038316610dce5760405162461bcd60e51b8152600401808060200182810382526024815260200180611a0d6024913960400191505060405180910390fd5b6001600160a01b038216610e135760405162461bcd60e51b815260040180806020018281038252602281526020018061187d6022913960400191505060405180910390fd5b6001600160a01b03808416600081815260026020908152604080832094871680845294825291829020859055815185815291517f8c5be1e5ebec7d5bd14f71427d1e84f3dd0314c0f7b2291e5b200ac8c7c3b9259281900390910190a3505050565b6008546001600160a01b0384811691161480610e9e57506008546001600160a01b038381169116145b610ed95760405162461bcd60e51b815260040180806020018281038252603e815260200180611a68603e913960400191505060405180910390fd5b610a738383836113e5565b60008184841115610f735760405162461bcd60e51b81526004018080602001828103825283818151815260200191508051906020019080838360005b83811015610f38578181015183820152602001610f20565b50505050905090810190601f168015610f655780820380516001836020036101000a031916815260200191505b509250505060405180910390fd5b505050900390565b6000828152602081905260409020610f99908263ffffffff61153c16565b1561077957610fa6610d85565b6001600160a01b0316816001600160a01b0316837f2f8788117e7eff1d82e926ec794901d17c78024a50270940304540a733656f0d60405160405180910390a45050565b6000828152602081905260409020611008908263ffffffff61155116565b1561077957611015610d85565b6001600160a01b0316816001600160a01b0316837ff6391f5c32d9c69d2a47ea670b442974b53935d1edc7fd64eb21e047a839171b60405160405180910390a45050565b600082820183811015610b23576040805162461bcd60e51b815260206004820152601b60248201527a536166654d6174683a206164646974696f6e206f766572666c6f7760281b604482015290519081900360640190fd5b6110b96109ef565b611101576040805162461bcd60e51b815260206004820152601460248201527314185d5cd8589b194e881b9bdd081c185d5cd95960621b604482015290519081900360640190fd5b6006805461ff00191690557f5db9ee0a495bf2e6ff9c91a7834c1ba4fdd244a5e8aa4e537bd38aeae4b073aa611135610d85565b604080516001600160a01b039092168252519081900360200190a1565b6001600160a01b0382166111ad576040805162461bcd60e51b815260206004820152601f60248201527f45524332303a206d696e7420746f20746865207a65726f206164647265737300604482015290519081900360640190fd5b6111b960008383611566565b6003546111cc908263ffffffff61105916565b6003556001600160a01b0382166000908152600160205260409020546111f8908263ffffffff61105916565b6001600160a01b03831660008181526001602090815260408083209490945583518581529351929391926000805160206119a78339815191529281900390910190a35050565b6001600160a01b0382166112835760405162461bcd60e51b81526004018080602001828103825260218152602001806119c76021913960400191505060405180910390fd5b61128f82600083611566565b6112d281604051806060016040528060228152602001611822602291396001600160a01b038516600090815260016020526040902054919063ffffffff610ee416565b6001600160a01b0383166000908152600160205260409020556003546112fe908263ffffffff61157116565b6003556040805182815290516000916001600160a01b038516916000805160206119a78339815191529181900360200190a35050565b61133c6109ef565b15611381576040805162461bcd60e51b815260206004820152601060248201526f14185d5cd8589b194e881c185d5cd95960821b604482015290519081900360640190fd5b6006805461ff0019166101001790557f62e78cea01bee320cd4e420270b5ea74000d11b0c9f74754ebdbfc544b05a258611135610d85565b6000610b2383836115ce565b6000610b23836001600160a01b038416611632565b60006106548261164a565b6001600160a01b03831661142a5760405162461bcd60e51b81526004018080602001828103825260258152602001806119e86025913960400191505060405180910390fd5b6001600160a01b03821661146f5760405162461bcd60e51b81526004018080602001828103825260238152602001806117d06023913960400191505060405180910390fd5b61147a838383611566565b6114bd8160405180606001604052806026815260200161189f602691396001600160a01b038616600090815260016020526040902054919063ffffffff610ee416565b6001600160a01b0380851660009081526001602052604080822093909355908416815220546114f2908263ffffffff61105916565b6001600160a01b0380841660008181526001602090815260409182902094909455805185815290519193928716926000805160206119a783398151915292918290030190a3505050565b6000610b23836001600160a01b03841661164e565b6000610b23836001600160a01b038416611698565b610a7383838361175e565b6000828211156115c8576040805162461bcd60e51b815260206004820152601e60248201527f536166654d6174683a207375627472616374696f6e206f766572666c6f770000604482015290519081900360640190fd5b50900390565b815460009082106116105760405162461bcd60e51b81526004018080602001828103825260228152602001806117ae6022913960400191505060405180910390fd5b82600001828154811061161f57fe5b9060005260206000200154905092915050565b60009081526001919091016020526040902054151590565b5490565b600061165a8383611632565b61169057508154600181810184556000848152602080822090930184905584548482528286019093526040902091909155610654565b506000610654565b6000818152600183016020526040812054801561175457835460001980830191908101906000908790839081106116cb57fe5b90600052602060002001549050808760000184815481106116e857fe5b60009182526020808320909101929092558281526001898101909252604090209084019055865487908061171857fe5b60019003818190600052602060002001600090559055866001016000878152602001908152602001600020600090556001945050505050610654565b6000915050610654565b611769838383610a73565b6117716109ef565b15610a735760405162461bcd60e51b815260040180806020018281038252602a815260200180611afa602a913960400191505060405180910390fdfe456e756d657261626c655365743a20696e646578206f7574206f6620626f756e647345524332303a207472616e7366657220746f20746865207a65726f2061646472657373416363657373436f6e74726f6c3a2073656e646572206d75737420626520616e2061646d696e20746f206772616e7445524332303a206275726e20616d6f756e7420657863656564732062616c616e636545524332305072657365744d696e7465725061757365723a206d75737420686176652070617573657220726f6c6520746f20756e706175736545524332303a20617070726f766520746f20746865207a65726f206164647265737345524332303a207472616e7366657220616d6f756e7420657863656564732062616c616e6365416363657373436f6e74726f6c3a2073656e646572206d75737420626520616e2061646d696e20746f207265766f6b6546616e7461737945524332303a206164647265737320616c726561647920636c61696d65642074686520746f6b656e7345524332303a207472616e7366657220616d6f756e74206578636565647320616c6c6f77616e636545524332305072657365744d696e7465725061757365723a206d7573742068617665206d696e74657220726f6c6520746f206d696e7445524332303a206275726e20616d6f756e74206578636565647320616c6c6f77616e6365ddf252ad1be2c89b69c2b068fc378daa952ba7f163c4a11628f55a4df523b3ef45524332303a206275726e2066726f6d20746865207a65726f206164647265737345524332303a207472616e736665722066726f6d20746865207a65726f206164647265737345524332303a20617070726f76652066726f6d20746865207a65726f206164647265737345524332305072657365744d696e7465725061757365723a206d75737420686176652070617573657220726f6c6520746f20706175736546616e7461737945524332303a20746f6b656e207472616e73666572206e6f7420616c6c6f776564206265747765656e207468652061646472657373657345524332303a2064656372656173656420616c6c6f77616e63652062656c6f77207a65726f416363657373436f6e74726f6c3a2063616e206f6e6c792072656e6f756e636520726f6c657320666f722073656c6645524332305061757361626c653a20746f6b656e207472616e73666572207768696c6520706175736564a2646970667358221220be147c271f67ea62b38487c1e3a64c9447746bba177b12725a52af5d537c8d0064736f6c63430006020033",
  "source": "pragma solidity ^0.6.0;\n\nimport \"@openzeppelin/contracts/presets/ERC20PresetMinterPauser.sol\";\n\ncontract FantasyERC20 is ERC20PresetMinterPauser {\n\n  event TokensClaimed(\n    address indexed user,\n    uint256 amount,\n    uint256 timestamp\n  );\n\n  mapping(address => bool) usersClaimed;\n  address public tokenManager;\n  uint256 public tokenAmountToClaim;\n\n  // ------ Modifiers ------\n\n  modifier shouldNotHaveClaimedYet() {\n    require(usersClaimed[msg.sender] == false, \"FantasyERC20: address already claimed the tokens\");\n    _;\n  }\n\n  constructor(\n    string memory name,\n    string memory symbol,\n    uint256 _tokenAmountToClaim,\n    address _tokenManager\n    ) public ERC20PresetMinterPauser(name, symbol) {\n      tokenAmountToClaim = _tokenAmountToClaim;\n      tokenManager = _tokenManager;\n    }\n\n  /// @dev Validates if the transfer is from or to the tokenManager, blocking it otherwise\n  function _transfer(\n    address from,\n    address to,\n    uint256 amount\n  ) internal override {\n    require(from == tokenManager || to == tokenManager, \"FantasyERC20: token transfer not allowed between the addresses\");\n\n    super._transfer(from, to, amount);\n  }\n\n  /// @dev Allows user to claim the amount of tokens by minting them\n  function claimTokens() shouldNotHaveClaimedYet public {\n    _mint(msg.sender, tokenAmountToClaim);\n\n    usersClaimed[msg.sender] = true;\n\n    emit TokensClaimed(msg.sender, tokenAmountToClaim, now);\n  }\n\n  /// @dev Allows user to approve and claim the amount of tokens by minting them\n  function claimAndApproveTokens() shouldNotHaveClaimedYet external {\n    claimTokens();\n    approve(tokenManager, 2 ** 128 - 1);\n  }\n\n  /// @dev Returns if the address has already claimed or not the tokens\n  function hasUserClaimedTokens(address user) external view returns (bool) {\n    return usersClaimed[user];\n  }\n}\n",
  "sourcePath": "/Users/ricardomarques/dev/workspace/polkamarkets/bepro-js/contracts/FantasyERC20.sol",
  "compiler": {
    "name": "solc",
    "version": "0.6.2+commit.bacdbe57.Emscripten.clang"
  },
  "schemaVersion": "3.4.4",
  "updatedAt": "2022-11-21T14:31:30.150Z",
  "devdoc": {
    "methods": {
      "allowance(address,address)": {
        "details": "See {IERC20-allowance}."
      },
      "approve(address,uint256)": {
        "details": "See {IERC20-approve}.     * Requirements:     * - `spender` cannot be the zero address."
      },
      "balanceOf(address)": {
        "details": "See {IERC20-balanceOf}."
      },
      "burn(uint256)": {
        "details": "Destroys `amount` tokens from the caller.     * See {ERC20-_burn}."
      },
      "burnFrom(address,uint256)": {
        "details": "Destroys `amount` tokens from `account`, deducting from the caller's allowance.     * See {ERC20-_burn} and {ERC20-allowance}.     * Requirements:     * - the caller must have allowance for ``accounts``'s tokens of at least `amount`."
      },
      "claimAndApproveTokens()": {
        "details": "Allows user to approve and claim the amount of tokens by minting them"
      },
      "claimTokens()": {
        "details": "Allows user to claim the amount of tokens by minting them"
      },
      "decimals()": {
        "details": "Returns the number of decimals used to get its user representation. For example, if `decimals` equals `2`, a balance of `505` tokens should be displayed to a user as `5,05` (`505 / 10 ** 2`).     * Tokens usually opt for a value of 18, imitating the relationship between Ether and Wei. This is the value {ERC20} uses, unless {_setupDecimals} is called.     * NOTE: This information is only used for _display_ purposes: it in no way affects any of the arithmetic of the contract, including {IERC20-balanceOf} and {IERC20-transfer}."
      },
      "decreaseAllowance(address,uint256)": {
        "details": "Atomically decreases the allowance granted to `spender` by the caller.     * This is an alternative to {approve} that can be used as a mitigation for problems described in {IERC20-approve}.     * Emits an {Approval} event indicating the updated allowance.     * Requirements:     * - `spender` cannot be the zero address. - `spender` must have allowance for the caller of at least `subtractedValue`."
      },
      "getRoleAdmin(bytes32)": {
        "details": "Returns the admin role that controls `role`. See {grantRole} and {revokeRole}.     * To change a role's admin, use {_setRoleAdmin}."
      },
      "getRoleMember(bytes32,uint256)": {
        "details": "Returns one of the accounts that have `role`. `index` must be a value between 0 and {getRoleMemberCount}, non-inclusive.     * Role bearers are not sorted in any particular way, and their ordering may change at any point.     * WARNING: When using {getRoleMember} and {getRoleMemberCount}, make sure you perform all queries on the same block. See the following https://forum.openzeppelin.com/t/iterating-over-elements-on-enumerableset-in-openzeppelin-contracts/2296[forum post] for more information."
      },
      "getRoleMemberCount(bytes32)": {
        "details": "Returns the number of accounts that have `role`. Can be used together with {getRoleMember} to enumerate all bearers of a role."
      },
      "grantRole(bytes32,address)": {
        "details": "Grants `role` to `account`.     * If `account` had not been already granted `role`, emits a {RoleGranted} event.     * Requirements:     * - the caller must have ``role``'s admin role."
      },
      "hasRole(bytes32,address)": {
        "details": "Returns `true` if `account` has been granted `role`."
      },
      "hasUserClaimedTokens(address)": {
        "details": "Returns if the address has already claimed or not the tokens"
      },
      "increaseAllowance(address,uint256)": {
        "details": "Atomically increases the allowance granted to `spender` by the caller.     * This is an alternative to {approve} that can be used as a mitigation for problems described in {IERC20-approve}.     * Emits an {Approval} event indicating the updated allowance.     * Requirements:     * - `spender` cannot be the zero address."
      },
      "mint(address,uint256)": {
        "details": "Creates `amount` new tokens for `to`.     * See {ERC20-_mint}.     * Requirements:     * - the caller must have the `MINTER_ROLE`."
      },
      "name()": {
        "details": "Returns the name of the token."
      },
      "pause()": {
        "details": "Pauses all token transfers.     * See {ERC20Pausable} and {Pausable-_pause}.     * Requirements:     * - the caller must have the `PAUSER_ROLE`."
      },
      "paused()": {
        "details": "Returns true if the contract is paused, and false otherwise."
      },
      "renounceRole(bytes32,address)": {
        "details": "Revokes `role` from the calling account.     * Roles are often managed via {grantRole} and {revokeRole}: this function's purpose is to provide a mechanism for accounts to lose their privileges if they are compromised (such as when a trusted device is misplaced).     * If the calling account had been granted `role`, emits a {RoleRevoked} event.     * Requirements:     * - the caller must be `account`."
      },
      "revokeRole(bytes32,address)": {
        "details": "Revokes `role` from `account`.     * If `account` had been granted `role`, emits a {RoleRevoked} event.     * Requirements:     * - the caller must have ``role``'s admin role."
      },
      "symbol()": {
        "details": "Returns the symbol of the token, usually a shorter version of the name."
      },
      "totalSupply()": {
        "details": "See {IERC20-totalSupply}."
      },
      "transfer(address,uint256)": {
        "details": "See {IERC20-transfer}.     * Requirements:     * - `recipient` cannot be the zero address. - the caller must have a balance of at least `amount`."
      },
      "transferFrom(address,address,uint256)": {
        "details": "See {IERC20-transferFrom}.     * Emits an {Approval} event indicating the updated allowance. This is not required by the EIP. See the note at the beginning of {ERC20}.     * Requirements:     * - `sender` and `recipient` cannot be the zero address. - `sender` must have a balance of at least `amount`. - the caller must have allowance for ``sender``'s tokens of at least `amount`."
      },
      "unpause()": {
        "details": "Unpauses all token transfers.     * See {ERC20Pausable} and {Pausable-_unpause}.     * Requirements:     * - the caller must have the `PAUSER_ROLE`."
      }
    }
  },
  "userdoc": {
    "methods": {}
  }
}