{
  "contractName": "FantasyERC20",
  "abi": [
    {
      "inputs": [
        {
          "internalType": "string",
          "name": "name",
          "type": "string"
        },
        {
          "internalType": "string",
          "name": "symbol",
          "type": "string"
        },
        {
          "internalType": "uint256",
          "name": "_tokenAmountToClaim",
          "type": "uint256"
        },
        {
          "internalType": "address",
          "name": "_tokenManager",
          "type": "address"
        }
      ],
      "stateMutability": "nonpayable",
      "type": "constructor"
    },
    {
      "anonymous": false,
      "inputs": [
        {
          "indexed": true,
          "internalType": "address",
          "name": "owner",
          "type": "address"
        },
        {
          "indexed": true,
          "internalType": "address",
          "name": "spender",
          "type": "address"
        },
        {
          "indexed": false,
          "internalType": "uint256",
          "name": "value",
          "type": "uint256"
        }
      ],
      "name": "Approval",
      "type": "event"
    },
    {
      "anonymous": false,
      "inputs": [
        {
          "indexed": false,
          "internalType": "address",
          "name": "account",
          "type": "address"
        }
      ],
      "name": "Paused",
      "type": "event"
    },
    {
      "anonymous": false,
      "inputs": [
        {
          "indexed": true,
          "internalType": "bytes32",
          "name": "role",
          "type": "bytes32"
        },
        {
          "indexed": true,
          "internalType": "bytes32",
          "name": "previousAdminRole",
          "type": "bytes32"
        },
        {
          "indexed": true,
          "internalType": "bytes32",
          "name": "newAdminRole",
          "type": "bytes32"
        }
      ],
      "name": "RoleAdminChanged",
      "type": "event"
    },
    {
      "anonymous": false,
      "inputs": [
        {
          "indexed": true,
          "internalType": "bytes32",
          "name": "role",
          "type": "bytes32"
        },
        {
          "indexed": true,
          "internalType": "address",
          "name": "account",
          "type": "address"
        },
        {
          "indexed": true,
          "internalType": "address",
          "name": "sender",
          "type": "address"
        }
      ],
      "name": "RoleGranted",
      "type": "event"
    },
    {
      "anonymous": false,
      "inputs": [
        {
          "indexed": true,
          "internalType": "bytes32",
          "name": "role",
          "type": "bytes32"
        },
        {
          "indexed": true,
          "internalType": "address",
          "name": "account",
          "type": "address"
        },
        {
          "indexed": true,
          "internalType": "address",
          "name": "sender",
          "type": "address"
        }
      ],
      "name": "RoleRevoked",
      "type": "event"
    },
    {
      "anonymous": false,
      "inputs": [
        {
          "indexed": true,
          "internalType": "address",
          "name": "user",
          "type": "address"
        },
        {
          "indexed": false,
          "internalType": "uint256",
          "name": "amount",
          "type": "uint256"
        },
        {
          "indexed": false,
          "internalType": "uint256",
          "name": "timestamp",
          "type": "uint256"
        }
      ],
      "name": "TokensClaimed",
      "type": "event"
    },
    {
      "anonymous": false,
      "inputs": [
        {
          "indexed": true,
          "internalType": "address",
          "name": "from",
          "type": "address"
        },
        {
          "indexed": true,
          "internalType": "address",
          "name": "to",
          "type": "address"
        },
        {
          "indexed": false,
          "internalType": "uint256",
          "name": "value",
          "type": "uint256"
        }
      ],
      "name": "Transfer",
      "type": "event"
    },
    {
      "anonymous": false,
      "inputs": [
        {
          "indexed": false,
          "internalType": "address",
          "name": "account",
          "type": "address"
        }
      ],
      "name": "Unpaused",
      "type": "event"
    },
    {
      "inputs": [],
      "name": "DEFAULT_ADMIN_ROLE",
      "outputs": [
        {
          "internalType": "bytes32",
          "name": "",
          "type": "bytes32"
        }
      ],
      "stateMutability": "view",
      "type": "function"
    },
    {
      "inputs": [],
      "name": "MINTER_ROLE",
      "outputs": [
        {
          "internalType": "bytes32",
          "name": "",
          "type": "bytes32"
        }
      ],
      "stateMutability": "view",
      "type": "function"
    },
    {
      "inputs": [],
      "name": "PAUSER_ROLE",
      "outputs": [
        {
          "internalType": "bytes32",
          "name": "",
          "type": "bytes32"
        }
      ],
      "stateMutability": "view",
      "type": "function"
    },
    {
      "inputs": [
        {
          "internalType": "address",
          "name": "owner",
          "type": "address"
        },
        {
          "internalType": "address",
          "name": "spender",
          "type": "address"
        }
      ],
      "name": "allowance",
      "outputs": [
        {
          "internalType": "uint256",
          "name": "",
          "type": "uint256"
        }
      ],
      "stateMutability": "view",
      "type": "function"
    },
    {
      "inputs": [
        {
          "internalType": "address",
          "name": "spender",
          "type": "address"
        },
        {
          "internalType": "uint256",
          "name": "amount",
          "type": "uint256"
        }
      ],
      "name": "approve",
      "outputs": [
        {
          "internalType": "bool",
          "name": "",
          "type": "bool"
        }
      ],
      "stateMutability": "nonpayable",
      "type": "function"
    },
    {
      "inputs": [
        {
          "internalType": "address",
          "name": "account",
          "type": "address"
        }
      ],
      "name": "balanceOf",
      "outputs": [
        {
          "internalType": "uint256",
          "name": "",
          "type": "uint256"
        }
      ],
      "stateMutability": "view",
      "type": "function"
    },
    {
      "inputs": [
        {
          "internalType": "uint256",
          "name": "amount",
          "type": "uint256"
        }
      ],
      "name": "burn",
      "outputs": [],
      "stateMutability": "nonpayable",
      "type": "function"
    },
    {
      "inputs": [
        {
          "internalType": "address",
          "name": "account",
          "type": "address"
        },
        {
          "internalType": "uint256",
          "name": "amount",
          "type": "uint256"
        }
      ],
      "name": "burnFrom",
      "outputs": [],
      "stateMutability": "nonpayable",
      "type": "function"
    },
    {
      "inputs": [],
      "name": "decimals",
      "outputs": [
        {
          "internalType": "uint8",
          "name": "",
          "type": "uint8"
        }
      ],
      "stateMutability": "view",
      "type": "function"
    },
    {
      "inputs": [
        {
          "internalType": "address",
          "name": "spender",
          "type": "address"
        },
        {
          "internalType": "uint256",
          "name": "subtractedValue",
          "type": "uint256"
        }
      ],
      "name": "decreaseAllowance",
      "outputs": [
        {
          "internalType": "bool",
          "name": "",
          "type": "bool"
        }
      ],
      "stateMutability": "nonpayable",
      "type": "function"
    },
    {
      "inputs": [
        {
          "internalType": "bytes32",
          "name": "role",
          "type": "bytes32"
        }
      ],
      "name": "getRoleAdmin",
      "outputs": [
        {
          "internalType": "bytes32",
          "name": "",
          "type": "bytes32"
        }
      ],
      "stateMutability": "view",
      "type": "function"
    },
    {
      "inputs": [
        {
          "internalType": "bytes32",
          "name": "role",
          "type": "bytes32"
        },
        {
          "internalType": "uint256",
          "name": "index",
          "type": "uint256"
        }
      ],
      "name": "getRoleMember",
      "outputs": [
        {
          "internalType": "address",
          "name": "",
          "type": "address"
        }
      ],
      "stateMutability": "view",
      "type": "function"
    },
    {
      "inputs": [
        {
          "internalType": "bytes32",
          "name": "role",
          "type": "bytes32"
        }
      ],
      "name": "getRoleMemberCount",
      "outputs": [
        {
          "internalType": "uint256",
          "name": "",
          "type": "uint256"
        }
      ],
      "stateMutability": "view",
      "type": "function"
    },
    {
      "inputs": [
        {
          "internalType": "bytes32",
          "name": "role",
          "type": "bytes32"
        },
        {
          "internalType": "address",
          "name": "account",
          "type": "address"
        }
      ],
      "name": "grantRole",
      "outputs": [],
      "stateMutability": "nonpayable",
      "type": "function"
    },
    {
      "inputs": [
        {
          "internalType": "bytes32",
          "name": "role",
          "type": "bytes32"
        },
        {
          "internalType": "address",
          "name": "account",
          "type": "address"
        }
      ],
      "name": "hasRole",
      "outputs": [
        {
          "internalType": "bool",
          "name": "",
          "type": "bool"
        }
      ],
      "stateMutability": "view",
      "type": "function"
    },
    {
      "inputs": [
        {
          "internalType": "address",
          "name": "spender",
          "type": "address"
        },
        {
          "internalType": "uint256",
          "name": "addedValue",
          "type": "uint256"
        }
      ],
      "name": "increaseAllowance",
      "outputs": [
        {
          "internalType": "bool",
          "name": "",
          "type": "bool"
        }
      ],
      "stateMutability": "nonpayable",
      "type": "function"
    },
    {
      "inputs": [
        {
          "internalType": "address",
          "name": "to",
          "type": "address"
        },
        {
          "internalType": "uint256",
          "name": "amount",
          "type": "uint256"
        }
      ],
      "name": "mint",
      "outputs": [],
      "stateMutability": "nonpayable",
      "type": "function"
    },
    {
      "inputs": [],
      "name": "name",
      "outputs": [
        {
          "internalType": "string",
          "name": "",
          "type": "string"
        }
      ],
      "stateMutability": "view",
      "type": "function"
    },
    {
      "inputs": [],
      "name": "pause",
      "outputs": [],
      "stateMutability": "nonpayable",
      "type": "function"
    },
    {
      "inputs": [],
      "name": "paused",
      "outputs": [
        {
          "internalType": "bool",
          "name": "",
          "type": "bool"
        }
      ],
      "stateMutability": "view",
      "type": "function"
    },
    {
      "inputs": [
        {
          "internalType": "bytes32",
          "name": "role",
          "type": "bytes32"
        },
        {
          "internalType": "address",
          "name": "account",
          "type": "address"
        }
      ],
      "name": "renounceRole",
      "outputs": [],
      "stateMutability": "nonpayable",
      "type": "function"
    },
    {
      "inputs": [
        {
          "internalType": "bytes32",
          "name": "role",
          "type": "bytes32"
        },
        {
          "internalType": "address",
          "name": "account",
          "type": "address"
        }
      ],
      "name": "revokeRole",
      "outputs": [],
      "stateMutability": "nonpayable",
      "type": "function"
    },
    {
      "inputs": [
        {
          "internalType": "bytes4",
          "name": "interfaceId",
          "type": "bytes4"
        }
      ],
      "name": "supportsInterface",
      "outputs": [
        {
          "internalType": "bool",
          "name": "",
          "type": "bool"
        }
      ],
      "stateMutability": "view",
      "type": "function"
    },
    {
      "inputs": [],
      "name": "symbol",
      "outputs": [
        {
          "internalType": "string",
          "name": "",
          "type": "string"
        }
      ],
      "stateMutability": "view",
      "type": "function"
    },
    {
      "inputs": [],
      "name": "tokenAmountToClaim",
      "outputs": [
        {
          "internalType": "uint256",
          "name": "",
          "type": "uint256"
        }
      ],
      "stateMutability": "view",
      "type": "function"
    },
    {
      "inputs": [],
      "name": "tokenManager",
      "outputs": [
        {
          "internalType": "address",
          "name": "",
          "type": "address"
        }
      ],
      "stateMutability": "view",
      "type": "function"
    },
    {
      "inputs": [],
      "name": "totalSupply",
      "outputs": [
        {
          "internalType": "uint256",
          "name": "",
          "type": "uint256"
        }
      ],
      "stateMutability": "view",
      "type": "function"
    },
    {
      "inputs": [
        {
          "internalType": "address",
          "name": "to",
          "type": "address"
        },
        {
          "internalType": "uint256",
          "name": "amount",
          "type": "uint256"
        }
      ],
      "name": "transfer",
      "outputs": [
        {
          "internalType": "bool",
          "name": "",
          "type": "bool"
        }
      ],
      "stateMutability": "nonpayable",
      "type": "function"
    },
    {
      "inputs": [
        {
          "internalType": "address",
          "name": "from",
          "type": "address"
        },
        {
          "internalType": "address",
          "name": "to",
          "type": "address"
        },
        {
          "internalType": "uint256",
          "name": "amount",
          "type": "uint256"
        }
      ],
      "name": "transferFrom",
      "outputs": [
        {
          "internalType": "bool",
          "name": "",
          "type": "bool"
        }
      ],
      "stateMutability": "nonpayable",
      "type": "function"
    },
    {
      "inputs": [],
      "name": "unpause",
      "outputs": [],
      "stateMutability": "nonpayable",
      "type": "function"
    },
    {
      "inputs": [],
      "name": "claimTokens",
      "outputs": [],
      "stateMutability": "nonpayable",
      "type": "function"
    },
    {
      "inputs": [],
      "name": "claimAndApproveTokens",
      "outputs": [],
      "stateMutability": "nonpayable",
      "type": "function"
    },
    {
      "inputs": [
        {
          "internalType": "address",
          "name": "user",
          "type": "address"
        }
      ],
      "name": "hasUserClaimedTokens",
      "outputs": [
        {
          "internalType": "bool",
          "name": "",
          "type": "bool"
        }
      ],
      "stateMutability": "view",
      "type": "function"
    }
  ],
  "bytecode": "0x60806040523480156200001157600080fd5b506040516200202c3803806200202c833981016040819052620000349162000321565b83838181600562000046838262000444565b50600662000055828262000444565b50506007805460ff19169055506200006f600033620000f7565b6200009b7f9f2df0fed2c77648de5860a4cc508cd0818c85b8b8a1ab4ceeef8d981c8956a633620000f7565b620000c77f65d7a28e3265b37a6474929f336521b332c1681b933f6cb9f3376673440d862a33620000f7565b5050600a91909155600980546001600160a01b0319166001600160a01b0390921691909117905550620005109050565b62000103828262000107565b5050565b6200011e82826200014a60201b62000ac71760201c565b60008281526001602090815260409091206200014591839062000b4b620001ea821b17901c565b505050565b6000828152602081815260408083206001600160a01b038516845290915290205460ff1662000103576000828152602081815260408083206001600160a01b03851684529091529020805460ff19166001179055620001a63390565b6001600160a01b0316816001600160a01b0316837f2f8788117e7eff1d82e926ec794901d17c78024a50270940304540a733656f0d60405160405180910390a45050565b600062000201836001600160a01b0384166200020a565b90505b92915050565b6000818152600183016020526040812054620002535750815460018181018455600084815260208082209093018490558454848252828601909352604090209190915562000204565b50600062000204565b634e487b7160e01b600052604160045260246000fd5b600082601f8301126200028457600080fd5b81516001600160401b0380821115620002a157620002a16200025c565b604051601f8301601f19908116603f01168101908282118183101715620002cc57620002cc6200025c565b81604052838152602092508683858801011115620002e957600080fd5b600091505b838210156200030d5785820183015181830184015290820190620002ee565b600093810190920192909252949350505050565b600080600080608085870312156200033857600080fd5b84516001600160401b03808211156200035057600080fd5b6200035e8883890162000272565b955060208701519150808211156200037557600080fd5b50620003848782880162000272565b60408701516060880151919550935090506001600160a01b0381168114620003ab57600080fd5b939692955090935050565b600181811c90821680620003cb57607f821691505b602082108103620003ec57634e487b7160e01b600052602260045260246000fd5b50919050565b601f8211156200014557600081815260208120601f850160051c810160208610156200041b5750805b601f850160051c820191505b818110156200043c5782815560010162000427565b505050505050565b81516001600160401b038111156200046057620004606200025c565b6200047881620004718454620003b6565b84620003f2565b602080601f831160018114620004b05760008415620004975750858301515b600019600386901b1c1916600185901b1785556200043c565b600085815260208120601f198616915b82811015620004e157888601518255948401946001909101908401620004c0565b5085821015620005005787850151600019600388901b60f8161c191681555b5050505050600190811b01905550565b611b0c80620005206000396000f3fe608060405234801561001057600080fd5b50600436106101fb5760003560e01c80635c975abb1161011a578063a217fddf116100ad578063ca15c8731161007c578063ca15c8731461042b578063d53913931461043e578063d547741f14610465578063dd62ed3e14610478578063e63ab1e91461048b57600080fd5b8063a217fddf146103f5578063a457c2d7146103fd578063a9059cbb14610410578063adb1f0d81461042357600080fd5b806387bbfe0a116100e957806387bbfe0a1461039b5780639010d07c146103c757806391d14854146103da57806395d89b41146103ed57600080fd5b80635c975abb1461034c57806370a082311461035757806379cc6790146103805780638456cb591461039357600080fd5b8063313ce567116101925780633f4ba83a116101615780633f4ba83a1461031657806340c10f191461031e57806342966c681461033157806348c54b9d1461034457600080fd5b8063313ce567146102d857806336568abe146102e757806337a65725146102fa578063395093511461030357600080fd5b806323b872dd116101ce57806323b872dd14610262578063248a9ca3146102755780632a709b14146102985780632f2ff15d146102c357600080fd5b806301ffc9a71461020057806306fdde0314610228578063095ea7b31461023d57806318160ddd14610250575b600080fd5b61021361020e36600461177c565b6104b2565b60405190151581526020015b60405180910390f35b6102306104dd565b60405161021f91906117ca565b61021361024b366004611819565b61056f565b6004545b60405190815260200161021f565b610213610270366004611843565b610587565b61025461028336600461187f565b60009081526020819052604090206001015490565b6009546102ab906001600160a01b031681565b6040516001600160a01b03909116815260200161021f565b6102d66102d1366004611898565b6105ab565b005b6040516012815260200161021f565b6102d66102f5366004611898565b6105d5565b610254600a5481565b610213610311366004611819565b610658565b6102d661067a565b6102d661032c366004611819565b610720565b6102d661033f36600461187f565b6107bf565b6102d66107cc565b60075460ff16610213565b6102546103653660046118c4565b6001600160a01b031660009081526002602052604090205490565b6102d661038e366004611819565b610869565b6102d661087e565b6102136103a93660046118c4565b6001600160a01b031660009081526008602052604090205460ff1690565b6102ab6103d53660046118df565b610922565b6102136103e8366004611898565b610941565b61023061096a565b610254600081565b61021361040b366004611819565b610979565b61021361041e366004611819565b6109f4565b6102d6610a02565b61025461043936600461187f565b610a60565b6102547f9f2df0fed2c77648de5860a4cc508cd0818c85b8b8a1ab4ceeef8d981c8956a681565b6102d6610473366004611898565b610a77565b610254610486366004611901565b610a9c565b6102547f65d7a28e3265b37a6474929f336521b332c1681b933f6cb9f3376673440d862a81565b60006001600160e01b03198216635a05180f60e01b14806104d757506104d782610b60565b92915050565b6060600580546104ec9061192b565b80601f01602080910402602001604051908101604052809291908181526020018280546105189061192b565b80156105655780601f1061053a57610100808354040283529160200191610565565b820191906000526020600020905b81548152906001019060200180831161054857829003601f168201915b5050505050905090565b60003361057d818585610b95565b5060019392505050565b600033610595858285610cb9565b6105a0858585610d33565b506001949350505050565b6000828152602081905260409020600101546105c681610dd9565b6105d08383610de3565b505050565b6001600160a01b038116331461064a5760405162461bcd60e51b815260206004820152602f60248201527f416363657373436f6e74726f6c3a2063616e206f6e6c792072656e6f756e636560448201526e103937b632b9903337b91039b2b63360891b60648201526084015b60405180910390fd5b6106548282610e05565b5050565b60003361057d81858561066b8383610a9c565b610675919061197b565b610b95565b6106a47f65d7a28e3265b37a6474929f336521b332c1681b933f6cb9f3376673440d862a33610941565b6107165760405162461bcd60e51b815260206004820152603960248201527f45524332305072657365744d696e7465725061757365723a206d75737420686160448201527f76652070617573657220726f6c6520746f20756e7061757365000000000000006064820152608401610641565b61071e610e27565b565b61074a7f9f2df0fed2c77648de5860a4cc508cd0818c85b8b8a1ab4ceeef8d981c8956a633610941565b6107b55760405162461bcd60e51b815260206004820152603660248201527f45524332305072657365744d696e7465725061757365723a206d7573742068616044820152751d99481b5a5b9d195c881c9bdb19481d1bc81b5a5b9d60521b6064820152608401610641565b6106548282610e79565b6107c93382610f46565b50565b3360009081526008602052604090205460ff16156107fc5760405162461bcd60e51b81526004016106419061198e565b61080833600a54610e79565b3360008181526008602052604090819020805460ff19166001179055600a5490517f9923b4306c6c030f2bdfbf156517d5983b87e15b96176da122cd4f2effa4ba7b9161085f914290918252602082015260400190565b60405180910390a2565b610874823383610cb9565b6106548282610f46565b6108a87f65d7a28e3265b37a6474929f336521b332c1681b933f6cb9f3376673440d862a33610941565b61091a5760405162461bcd60e51b815260206004820152603760248201527f45524332305072657365744d696e7465725061757365723a206d75737420686160448201527f76652070617573657220726f6c6520746f2070617573650000000000000000006064820152608401610641565b61071e611086565b600082815260016020526040812061093a90836110c3565b9392505050565b6000918252602082815260408084206001600160a01b0393909316845291905290205460ff1690565b6060600680546104ec9061192b565b600033816109878286610a9c565b9050838110156109e75760405162461bcd60e51b815260206004820152602560248201527f45524332303a2064656372656173656420616c6c6f77616e63652062656c6f77604482015264207a65726f60d81b6064820152608401610641565b6105a08286868403610b95565b60003361057d818585610d33565b3360009081526008602052604090205460ff1615610a325760405162461bcd60e51b81526004016106419061198e565b610a3a6107cc565b6009546107c9906001600160a01b03166fffffffffffffffffffffffffffffffff61056f565b60008181526001602052604081206104d7906110cf565b600082815260208190526040902060010154610a9281610dd9565b6105d08383610e05565b6001600160a01b03918216600090815260036020908152604080832093909416825291909152205490565b610ad18282610941565b610654576000828152602081815260408083206001600160a01b03851684529091529020805460ff19166001179055610b073390565b6001600160a01b0316816001600160a01b0316837f2f8788117e7eff1d82e926ec794901d17c78024a50270940304540a733656f0d60405160405180910390a45050565b600061093a836001600160a01b0384166110d9565b60006001600160e01b03198216637965db0b60e01b14806104d757506301ffc9a760e01b6001600160e01b03198316146104d7565b6001600160a01b038316610bf75760405162461bcd60e51b8152602060048201526024808201527f45524332303a20617070726f76652066726f6d20746865207a65726f206164646044820152637265737360e01b6064820152608401610641565b6001600160a01b038216610c585760405162461bcd60e51b815260206004820152602260248201527f45524332303a20617070726f766520746f20746865207a65726f206164647265604482015261737360f01b6064820152608401610641565b6001600160a01b0383811660008181526003602090815260408083209487168084529482529182902085905590518481527f8c5be1e5ebec7d5bd14f71427d1e84f3dd0314c0f7b2291e5b200ac8c7c3b925910160405180910390a3505050565b6000610cc58484610a9c565b90506000198114610d2d5781811015610d205760405162461bcd60e51b815260206004820152601d60248201527f45524332303a20696e73756666696369656e7420616c6c6f77616e63650000006044820152606401610641565b610d2d8484848403610b95565b50505050565b6009546001600160a01b0384811691161480610d5c57506009546001600160a01b038381169116145b610dce5760405162461bcd60e51b815260206004820152603e60248201527f46616e7461737945524332303a20746f6b656e207472616e73666572206e6f7460448201527f20616c6c6f776564206265747765656e207468652061646472657373657300006064820152608401610641565b6105d0838383611128565b6107c981336112de565b610ded8282610ac7565b60008281526001602052604090206105d09082610b4b565b610e0f8282611337565b60008281526001602052604090206105d0908261139c565b610e2f6113b1565b6007805460ff191690557f5db9ee0a495bf2e6ff9c91a7834c1ba4fdd244a5e8aa4e537bd38aeae4b073aa335b6040516001600160a01b03909116815260200160405180910390a1565b6001600160a01b038216610ecf5760405162461bcd60e51b815260206004820152601f60248201527f45524332303a206d696e7420746f20746865207a65726f2061646472657373006044820152606401610641565b610edb600083836113fa565b8060046000828254610eed919061197b565b90915550506001600160a01b0382166000818152600260209081526040808320805486019055518481527fddf252ad1be2c89b69c2b068fc378daa952ba7f163c4a11628f55a4df523b3ef910160405180910390a35050565b6001600160a01b038216610fa65760405162461bcd60e51b815260206004820152602160248201527f45524332303a206275726e2066726f6d20746865207a65726f206164647265736044820152607360f81b6064820152608401610641565b610fb2826000836113fa565b6001600160a01b038216600090815260026020526040902054818110156110265760405162461bcd60e51b815260206004820152602260248201527f45524332303a206275726e20616d6f756e7420657863656564732062616c616e604482015261636560f01b6064820152608401610641565b6001600160a01b03831660008181526002602090815260408083208686039055600480548790039055518581529192917fddf252ad1be2c89b69c2b068fc378daa952ba7f163c4a11628f55a4df523b3ef910160405180910390a3505050565b61108e611405565b6007805460ff191660011790557f62e78cea01bee320cd4e420270b5ea74000d11b0c9f74754ebdbfc544b05a258610e5c3390565b600061093a838361144b565b60006104d7825490565b6000818152600183016020526040812054611120575081546001818101845560008481526020808220909301849055845484825282860190935260409020919091556104d7565b5060006104d7565b6001600160a01b03831661118c5760405162461bcd60e51b815260206004820152602560248201527f45524332303a207472616e736665722066726f6d20746865207a65726f206164604482015264647265737360d81b6064820152608401610641565b6001600160a01b0382166111ee5760405162461bcd60e51b815260206004820152602360248201527f45524332303a207472616e7366657220746f20746865207a65726f206164647260448201526265737360e81b6064820152608401610641565b6111f98383836113fa565b6001600160a01b038316600090815260026020526040902054818110156112715760405162461bcd60e51b815260206004820152602660248201527f45524332303a207472616e7366657220616d6f756e7420657863656564732062604482015265616c616e636560d01b6064820152608401610641565b6001600160a01b0380851660008181526002602052604080822086860390559286168082529083902080548601905591517fddf252ad1be2c89b69c2b068fc378daa952ba7f163c4a11628f55a4df523b3ef906112d19086815260200190565b60405180910390a3610d2d565b6112e88282610941565b610654576112f581611475565b611300836020611487565b6040516020016113119291906119de565b60408051601f198184030181529082905262461bcd60e51b8252610641916004016117ca565b6113418282610941565b15610654576000828152602081815260408083206001600160a01b0385168085529252808320805460ff1916905551339285917ff6391f5c32d9c69d2a47ea670b442974b53935d1edc7fd64eb21e047a839171b9190a45050565b600061093a836001600160a01b038416611623565b60075460ff1661071e5760405162461bcd60e51b815260206004820152601460248201527314185d5cd8589b194e881b9bdd081c185d5cd95960621b6044820152606401610641565b6105d0838383611716565b60075460ff161561071e5760405162461bcd60e51b815260206004820152601060248201526f14185d5cd8589b194e881c185d5cd95960821b6044820152606401610641565b600082600001828154811061146257611462611a53565b9060005260206000200154905092915050565b60606104d76001600160a01b03831660145b60606000611496836002611a69565b6114a190600261197b565b67ffffffffffffffff8111156114b9576114b9611a80565b6040519080825280601f01601f1916602001820160405280156114e3576020820181803683370190505b509050600360fc1b816000815181106114fe576114fe611a53565b60200101906001600160f81b031916908160001a905350600f60fb1b8160018151811061152d5761152d611a53565b60200101906001600160f81b031916908160001a9053506000611551846002611a69565b61155c90600161197b565b90505b60018111156115d4576f181899199a1a9b1b9c1cb0b131b232b360811b85600f166010811061159057611590611a53565b1a60f81b8282815181106115a6576115a6611a53565b60200101906001600160f81b031916908160001a90535060049490941c936115cd81611a96565b905061155f565b50831561093a5760405162461bcd60e51b815260206004820181905260248201527f537472696e67733a20686578206c656e67746820696e73756666696369656e746044820152606401610641565b6000818152600183016020526040812054801561170c576000611647600183611aad565b855490915060009061165b90600190611aad565b90508181146116c057600086600001828154811061167b5761167b611a53565b906000526020600020015490508087600001848154811061169e5761169e611a53565b6000918252602080832090910192909255918252600188019052604090208390555b85548690806116d1576116d1611ac0565b6001900381819060005260206000200160009055905585600101600086815260200190815260200160002060009055600193505050506104d7565b60009150506104d7565b60075460ff16156105d05760405162461bcd60e51b815260206004820152602a60248201527f45524332305061757361626c653a20746f6b656e207472616e736665722077686044820152691a5b19481c185d5cd95960b21b6064820152608401610641565b60006020828403121561178e57600080fd5b81356001600160e01b03198116811461093a57600080fd5b60005b838110156117c15781810151838201526020016117a9565b50506000910152565b60208152600082518060208401526117e98160408501602087016117a6565b601f01601f19169190910160400192915050565b80356001600160a01b038116811461181457600080fd5b919050565b6000806040838503121561182c57600080fd5b611835836117fd565b946020939093013593505050565b60008060006060848603121561185857600080fd5b611861846117fd565b925061186f602085016117fd565b9150604084013590509250925092565b60006020828403121561189157600080fd5b5035919050565b600080604083850312156118ab57600080fd5b823591506118bb602084016117fd565b90509250929050565b6000602082840312156118d657600080fd5b61093a826117fd565b600080604083850312156118f257600080fd5b50508035926020909101359150565b6000806040838503121561191457600080fd5b61191d836117fd565b91506118bb602084016117fd565b600181811c9082168061193f57607f821691505b60208210810361195f57634e487b7160e01b600052602260045260246000fd5b50919050565b634e487b7160e01b600052601160045260246000fd5b808201808211156104d7576104d7611965565b60208082526030908201527f46616e7461737945524332303a206164647265737320616c726561647920636c60408201526f61696d65642074686520746f6b656e7360801b606082015260800190565b7f416363657373436f6e74726f6c3a206163636f756e7420000000000000000000815260008351611a168160178501602088016117a6565b7001034b99036b4b9b9b4b733903937b6329607d1b6017918401918201528351611a478160288401602088016117a6565b01602801949350505050565b634e487b7160e01b600052603260045260246000fd5b80820281158282048414176104d7576104d7611965565b634e487b7160e01b600052604160045260246000fd5b600081611aa557611aa5611965565b506000190190565b818103818111156104d7576104d7611965565b634e487b7160e01b600052603160045260246000fdfea26469706673582212203eb2bd896d740ecd5553f52df63570f7468e245108a39b4457fffa09200bcaec64736f6c63430008120033",
  "immutableReferences": {},
  "source": "pragma solidity ^0.8.18;\n\nimport \"@openzeppelin/contracts/token/ERC20/presets/ERC20PresetMinterPauser.sol\";\n\ncontract FantasyERC20 is ERC20PresetMinterPauser {\n  event TokensClaimed(address indexed user, uint256 amount, uint256 timestamp);\n\n  mapping(address => bool) usersClaimed;\n  address public tokenManager;\n  uint256 public tokenAmountToClaim;\n\n  // ------ Modifiers ------\n\n  modifier shouldNotHaveClaimedYet() {\n    require(usersClaimed[msg.sender] == false, \"FantasyERC20: address already claimed the tokens\");\n    _;\n  }\n\n  constructor(\n    string memory name,\n    string memory symbol,\n    uint256 _tokenAmountToClaim,\n    address _tokenManager\n  ) ERC20PresetMinterPauser(name, symbol) {\n    tokenAmountToClaim = _tokenAmountToClaim;\n    tokenManager = _tokenManager;\n  }\n\n  /// @dev Validates if the transfer is from or to the tokenManager, blocking it otherwise\n  function _transfer(\n    address from,\n    address to,\n    uint256 amount\n  ) internal override {\n    require(\n      from == tokenManager || to == tokenManager,\n      \"FantasyERC20: token transfer not allowed between the addresses\"\n    );\n\n    super._transfer(from, to, amount);\n  }\n\n  /// @dev Allows user to claim the amount of tokens by minting them\n  function claimTokens() public shouldNotHaveClaimedYet {\n    _mint(msg.sender, tokenAmountToClaim);\n\n    usersClaimed[msg.sender] = true;\n\n    emit TokensClaimed(msg.sender, tokenAmountToClaim, block.timestamp);\n  }\n\n  /// @dev Allows user to approve and claim the amount of tokens by minting them\n  function claimAndApproveTokens() external shouldNotHaveClaimedYet {\n    claimTokens();\n    approve(tokenManager, 2**128 - 1);\n  }\n\n  /// @dev Returns if the address has already claimed or not the tokens\n  function hasUserClaimedTokens(address user) external view returns (bool) {\n    return usersClaimed[user];\n  }\n}\n",
  "sourcePath": "/Users/ricardomarques/dev/workspace/polkamarkets/bepro-js/contracts/FantasyERC20.sol",
  "compiler": {
    "name": "solc",
    "version": "0.8.18+commit.87f61d96.Emscripten.clang"
  },
  "schemaVersion": "3.4.10",
  "updatedAt": "2023-05-19T16:01:44.007Z",
  "devdoc": {
    "events": {
      "Approval(address,address,uint256)": {
        "details": "Emitted when the allowance of a `spender` for an `owner` is set by a call to {approve}. `value` is the new allowance."
      },
      "Paused(address)": {
        "details": "Emitted when the pause is triggered by `account`."
      },
      "RoleAdminChanged(bytes32,bytes32,bytes32)": {
        "details": "Emitted when `newAdminRole` is set as ``role``'s admin role, replacing `previousAdminRole` `DEFAULT_ADMIN_ROLE` is the starting admin for all roles, despite {RoleAdminChanged} not being emitted signaling this. _Available since v3.1._"
      },
      "RoleGranted(bytes32,address,address)": {
        "details": "Emitted when `account` is granted `role`. `sender` is the account that originated the contract call, an admin role bearer except when using {AccessControl-_setupRole}."
      },
      "RoleRevoked(bytes32,address,address)": {
        "details": "Emitted when `account` is revoked `role`. `sender` is the account that originated the contract call:   - if using `revokeRole`, it is the admin role bearer   - if using `renounceRole`, it is the role bearer (i.e. `account`)"
      },
      "Transfer(address,address,uint256)": {
        "details": "Emitted when `value` tokens are moved from one account (`from`) to another (`to`). Note that `value` may be zero."
      },
      "Unpaused(address)": {
        "details": "Emitted when the pause is lifted by `account`."
      }
    },
    "kind": "dev",
    "methods": {
      "allowance(address,address)": {
        "details": "See {IERC20-allowance}."
      },
      "approve(address,uint256)": {
        "details": "See {IERC20-approve}. NOTE: If `amount` is the maximum `uint256`, the allowance is not updated on `transferFrom`. This is semantically equivalent to an infinite approval. Requirements: - `spender` cannot be the zero address."
      },
      "balanceOf(address)": {
        "details": "See {IERC20-balanceOf}."
      },
      "burn(uint256)": {
        "details": "Destroys `amount` tokens from the caller. See {ERC20-_burn}."
      },
      "burnFrom(address,uint256)": {
        "details": "Destroys `amount` tokens from `account`, deducting from the caller's allowance. See {ERC20-_burn} and {ERC20-allowance}. Requirements: - the caller must have allowance for ``accounts``'s tokens of at least `amount`."
      },
      "claimAndApproveTokens()": {
        "details": "Allows user to approve and claim the amount of tokens by minting them"
      },
      "claimTokens()": {
        "details": "Allows user to claim the amount of tokens by minting them"
      },
      "decimals()": {
        "details": "Returns the number of decimals used to get its user representation. For example, if `decimals` equals `2`, a balance of `505` tokens should be displayed to a user as `5.05` (`505 / 10 ** 2`). Tokens usually opt for a value of 18, imitating the relationship between Ether and Wei. This is the value {ERC20} uses, unless this function is overridden; NOTE: This information is only used for _display_ purposes: it in no way affects any of the arithmetic of the contract, including {IERC20-balanceOf} and {IERC20-transfer}."
      },
      "decreaseAllowance(address,uint256)": {
        "details": "Atomically decreases the allowance granted to `spender` by the caller. This is an alternative to {approve} that can be used as a mitigation for problems described in {IERC20-approve}. Emits an {Approval} event indicating the updated allowance. Requirements: - `spender` cannot be the zero address. - `spender` must have allowance for the caller of at least `subtractedValue`."
      },
      "getRoleAdmin(bytes32)": {
        "details": "Returns the admin role that controls `role`. See {grantRole} and {revokeRole}. To change a role's admin, use {_setRoleAdmin}."
      },
      "getRoleMember(bytes32,uint256)": {
        "details": "Returns one of the accounts that have `role`. `index` must be a value between 0 and {getRoleMemberCount}, non-inclusive. Role bearers are not sorted in any particular way, and their ordering may change at any point. WARNING: When using {getRoleMember} and {getRoleMemberCount}, make sure you perform all queries on the same block. See the following https://forum.openzeppelin.com/t/iterating-over-elements-on-enumerableset-in-openzeppelin-contracts/2296[forum post] for more information."
      },
      "getRoleMemberCount(bytes32)": {
        "details": "Returns the number of accounts that have `role`. Can be used together with {getRoleMember} to enumerate all bearers of a role."
      },
      "grantRole(bytes32,address)": {
        "details": "Grants `role` to `account`. If `account` had not been already granted `role`, emits a {RoleGranted} event. Requirements: - the caller must have ``role``'s admin role. May emit a {RoleGranted} event."
      },
      "hasRole(bytes32,address)": {
        "details": "Returns `true` if `account` has been granted `role`."
      },
      "hasUserClaimedTokens(address)": {
        "details": "Returns if the address has already claimed or not the tokens"
      },
      "increaseAllowance(address,uint256)": {
        "details": "Atomically increases the allowance granted to `spender` by the caller. This is an alternative to {approve} that can be used as a mitigation for problems described in {IERC20-approve}. Emits an {Approval} event indicating the updated allowance. Requirements: - `spender` cannot be the zero address."
      },
      "mint(address,uint256)": {
        "details": "Creates `amount` new tokens for `to`. See {ERC20-_mint}. Requirements: - the caller must have the `MINTER_ROLE`."
      },
      "name()": {
        "details": "Returns the name of the token."
      },
      "pause()": {
        "details": "Pauses all token transfers. See {ERC20Pausable} and {Pausable-_pause}. Requirements: - the caller must have the `PAUSER_ROLE`."
      },
      "paused()": {
        "details": "Returns true if the contract is paused, and false otherwise."
      },
      "renounceRole(bytes32,address)": {
        "details": "Revokes `role` from the calling account. Roles are often managed via {grantRole} and {revokeRole}: this function's purpose is to provide a mechanism for accounts to lose their privileges if they are compromised (such as when a trusted device is misplaced). If the calling account had been revoked `role`, emits a {RoleRevoked} event. Requirements: - the caller must be `account`. May emit a {RoleRevoked} event."
      },
      "revokeRole(bytes32,address)": {
        "details": "Revokes `role` from `account`. If `account` had been granted `role`, emits a {RoleRevoked} event. Requirements: - the caller must have ``role``'s admin role. May emit a {RoleRevoked} event."
      },
      "supportsInterface(bytes4)": {
        "details": "See {IERC165-supportsInterface}."
      },
      "symbol()": {
        "details": "Returns the symbol of the token, usually a shorter version of the name."
      },
      "totalSupply()": {
        "details": "See {IERC20-totalSupply}."
      },
      "transfer(address,uint256)": {
        "details": "See {IERC20-transfer}. Requirements: - `to` cannot be the zero address. - the caller must have a balance of at least `amount`."
      },
      "transferFrom(address,address,uint256)": {
        "details": "See {IERC20-transferFrom}. Emits an {Approval} event indicating the updated allowance. This is not required by the EIP. See the note at the beginning of {ERC20}. NOTE: Does not update the allowance if the current allowance is the maximum `uint256`. Requirements: - `from` and `to` cannot be the zero address. - `from` must have a balance of at least `amount`. - the caller must have allowance for ``from``'s tokens of at least `amount`."
      },
      "unpause()": {
        "details": "Unpauses all token transfers. See {ERC20Pausable} and {Pausable-_unpause}. Requirements: - the caller must have the `PAUSER_ROLE`."
      }
    },
    "version": 1
  },
  "userdoc": {
    "kind": "user",
    "methods": {},
    "version": 1
  }
}