{
  "contractName": "FantasyERC20",
  "abi": [
    {
      "inputs": [
        {
          "internalType": "string",
          "name": "name",
          "type": "string"
        },
        {
          "internalType": "string",
          "name": "symbol",
          "type": "string"
        },
        {
          "internalType": "uint256",
          "name": "_tokenAmountToClaim",
          "type": "uint256"
        },
        {
          "internalType": "address",
          "name": "_tokenManager",
          "type": "address"
        }
      ],
      "stateMutability": "nonpayable",
      "type": "constructor"
    },
    {
      "anonymous": false,
      "inputs": [
        {
          "indexed": true,
          "internalType": "address",
          "name": "owner",
          "type": "address"
        },
        {
          "indexed": true,
          "internalType": "address",
          "name": "spender",
          "type": "address"
        },
        {
          "indexed": false,
          "internalType": "uint256",
          "name": "value",
          "type": "uint256"
        }
      ],
      "name": "Approval",
      "type": "event"
    },
    {
      "anonymous": false,
      "inputs": [
        {
          "indexed": false,
          "internalType": "address",
          "name": "account",
          "type": "address"
        }
      ],
      "name": "Paused",
      "type": "event"
    },
    {
      "anonymous": false,
      "inputs": [
        {
          "indexed": true,
          "internalType": "bytes32",
          "name": "role",
          "type": "bytes32"
        },
        {
          "indexed": true,
          "internalType": "bytes32",
          "name": "previousAdminRole",
          "type": "bytes32"
        },
        {
          "indexed": true,
          "internalType": "bytes32",
          "name": "newAdminRole",
          "type": "bytes32"
        }
      ],
      "name": "RoleAdminChanged",
      "type": "event"
    },
    {
      "anonymous": false,
      "inputs": [
        {
          "indexed": true,
          "internalType": "bytes32",
          "name": "role",
          "type": "bytes32"
        },
        {
          "indexed": true,
          "internalType": "address",
          "name": "account",
          "type": "address"
        },
        {
          "indexed": true,
          "internalType": "address",
          "name": "sender",
          "type": "address"
        }
      ],
      "name": "RoleGranted",
      "type": "event"
    },
    {
      "anonymous": false,
      "inputs": [
        {
          "indexed": true,
          "internalType": "bytes32",
          "name": "role",
          "type": "bytes32"
        },
        {
          "indexed": true,
          "internalType": "address",
          "name": "account",
          "type": "address"
        },
        {
          "indexed": true,
          "internalType": "address",
          "name": "sender",
          "type": "address"
        }
      ],
      "name": "RoleRevoked",
      "type": "event"
    },
    {
      "anonymous": false,
      "inputs": [
        {
          "indexed": true,
          "internalType": "address",
          "name": "user",
          "type": "address"
        },
        {
          "indexed": false,
          "internalType": "uint256",
          "name": "amount",
          "type": "uint256"
        },
        {
          "indexed": false,
          "internalType": "uint256",
          "name": "timestamp",
          "type": "uint256"
        }
      ],
      "name": "TokensClaimed",
      "type": "event"
    },
    {
      "anonymous": false,
      "inputs": [
        {
          "indexed": true,
          "internalType": "address",
          "name": "from",
          "type": "address"
        },
        {
          "indexed": true,
          "internalType": "address",
          "name": "to",
          "type": "address"
        },
        {
          "indexed": false,
          "internalType": "uint256",
          "name": "value",
          "type": "uint256"
        }
      ],
      "name": "Transfer",
      "type": "event"
    },
    {
      "anonymous": false,
      "inputs": [
        {
          "indexed": false,
          "internalType": "address",
          "name": "account",
          "type": "address"
        }
      ],
      "name": "Unpaused",
      "type": "event"
    },
    {
      "inputs": [],
      "name": "DEFAULT_ADMIN_ROLE",
      "outputs": [
        {
          "internalType": "bytes32",
          "name": "",
          "type": "bytes32"
        }
      ],
      "stateMutability": "view",
      "type": "function"
    },
    {
      "inputs": [],
      "name": "MINTER_ROLE",
      "outputs": [
        {
          "internalType": "bytes32",
          "name": "",
          "type": "bytes32"
        }
      ],
      "stateMutability": "view",
      "type": "function"
    },
    {
      "inputs": [],
      "name": "PAUSER_ROLE",
      "outputs": [
        {
          "internalType": "bytes32",
          "name": "",
          "type": "bytes32"
        }
      ],
      "stateMutability": "view",
      "type": "function"
    },
    {
      "inputs": [
        {
          "internalType": "address",
          "name": "owner",
          "type": "address"
        },
        {
          "internalType": "address",
          "name": "spender",
          "type": "address"
        }
      ],
      "name": "allowance",
      "outputs": [
        {
          "internalType": "uint256",
          "name": "",
          "type": "uint256"
        }
      ],
      "stateMutability": "view",
      "type": "function"
    },
    {
      "inputs": [
        {
          "internalType": "address",
          "name": "spender",
          "type": "address"
        },
        {
          "internalType": "uint256",
          "name": "amount",
          "type": "uint256"
        }
      ],
      "name": "approve",
      "outputs": [
        {
          "internalType": "bool",
          "name": "",
          "type": "bool"
        }
      ],
      "stateMutability": "nonpayable",
      "type": "function"
    },
    {
      "inputs": [
        {
          "internalType": "address",
          "name": "account",
          "type": "address"
        }
      ],
      "name": "balanceOf",
      "outputs": [
        {
          "internalType": "uint256",
          "name": "",
          "type": "uint256"
        }
      ],
      "stateMutability": "view",
      "type": "function"
    },
    {
      "inputs": [
        {
          "internalType": "uint256",
          "name": "amount",
          "type": "uint256"
        }
      ],
      "name": "burn",
      "outputs": [],
      "stateMutability": "nonpayable",
      "type": "function"
    },
    {
      "inputs": [
        {
          "internalType": "address",
          "name": "account",
          "type": "address"
        },
        {
          "internalType": "uint256",
          "name": "amount",
          "type": "uint256"
        }
      ],
      "name": "burnFrom",
      "outputs": [],
      "stateMutability": "nonpayable",
      "type": "function"
    },
    {
      "inputs": [],
      "name": "decimals",
      "outputs": [
        {
          "internalType": "uint8",
          "name": "",
          "type": "uint8"
        }
      ],
      "stateMutability": "view",
      "type": "function"
    },
    {
      "inputs": [
        {
          "internalType": "address",
          "name": "spender",
          "type": "address"
        },
        {
          "internalType": "uint256",
          "name": "subtractedValue",
          "type": "uint256"
        }
      ],
      "name": "decreaseAllowance",
      "outputs": [
        {
          "internalType": "bool",
          "name": "",
          "type": "bool"
        }
      ],
      "stateMutability": "nonpayable",
      "type": "function"
    },
    {
      "inputs": [
        {
          "internalType": "bytes32",
          "name": "role",
          "type": "bytes32"
        }
      ],
      "name": "getRoleAdmin",
      "outputs": [
        {
          "internalType": "bytes32",
          "name": "",
          "type": "bytes32"
        }
      ],
      "stateMutability": "view",
      "type": "function"
    },
    {
      "inputs": [
        {
          "internalType": "bytes32",
          "name": "role",
          "type": "bytes32"
        },
        {
          "internalType": "uint256",
          "name": "index",
          "type": "uint256"
        }
      ],
      "name": "getRoleMember",
      "outputs": [
        {
          "internalType": "address",
          "name": "",
          "type": "address"
        }
      ],
      "stateMutability": "view",
      "type": "function"
    },
    {
      "inputs": [
        {
          "internalType": "bytes32",
          "name": "role",
          "type": "bytes32"
        }
      ],
      "name": "getRoleMemberCount",
      "outputs": [
        {
          "internalType": "uint256",
          "name": "",
          "type": "uint256"
        }
      ],
      "stateMutability": "view",
      "type": "function"
    },
    {
      "inputs": [
        {
          "internalType": "bytes32",
          "name": "role",
          "type": "bytes32"
        },
        {
          "internalType": "address",
          "name": "account",
          "type": "address"
        }
      ],
      "name": "grantRole",
      "outputs": [],
      "stateMutability": "nonpayable",
      "type": "function"
    },
    {
      "inputs": [
        {
          "internalType": "bytes32",
          "name": "role",
          "type": "bytes32"
        },
        {
          "internalType": "address",
          "name": "account",
          "type": "address"
        }
      ],
      "name": "hasRole",
      "outputs": [
        {
          "internalType": "bool",
          "name": "",
          "type": "bool"
        }
      ],
      "stateMutability": "view",
      "type": "function"
    },
    {
      "inputs": [
        {
          "internalType": "address",
          "name": "spender",
          "type": "address"
        },
        {
          "internalType": "uint256",
          "name": "addedValue",
          "type": "uint256"
        }
      ],
      "name": "increaseAllowance",
      "outputs": [
        {
          "internalType": "bool",
          "name": "",
          "type": "bool"
        }
      ],
      "stateMutability": "nonpayable",
      "type": "function"
    },
    {
      "inputs": [
        {
          "internalType": "address",
          "name": "to",
          "type": "address"
        },
        {
          "internalType": "uint256",
          "name": "amount",
          "type": "uint256"
        }
      ],
      "name": "mint",
      "outputs": [],
      "stateMutability": "nonpayable",
      "type": "function"
    },
    {
      "inputs": [],
      "name": "name",
      "outputs": [
        {
          "internalType": "string",
          "name": "",
          "type": "string"
        }
      ],
      "stateMutability": "view",
      "type": "function"
    },
    {
      "inputs": [],
      "name": "pause",
      "outputs": [],
      "stateMutability": "nonpayable",
      "type": "function"
    },
    {
      "inputs": [],
      "name": "paused",
      "outputs": [
        {
          "internalType": "bool",
          "name": "",
          "type": "bool"
        }
      ],
      "stateMutability": "view",
      "type": "function"
    },
    {
      "inputs": [
        {
          "internalType": "bytes32",
          "name": "role",
          "type": "bytes32"
        },
        {
          "internalType": "address",
          "name": "account",
          "type": "address"
        }
      ],
      "name": "renounceRole",
      "outputs": [],
      "stateMutability": "nonpayable",
      "type": "function"
    },
    {
      "inputs": [
        {
          "internalType": "bytes32",
          "name": "role",
          "type": "bytes32"
        },
        {
          "internalType": "address",
          "name": "account",
          "type": "address"
        }
      ],
      "name": "revokeRole",
      "outputs": [],
      "stateMutability": "nonpayable",
      "type": "function"
    },
    {
      "inputs": [],
      "name": "symbol",
      "outputs": [
        {
          "internalType": "string",
          "name": "",
          "type": "string"
        }
      ],
      "stateMutability": "view",
      "type": "function"
    },
    {
      "inputs": [],
      "name": "tokenAmountToClaim",
      "outputs": [
        {
          "internalType": "uint256",
          "name": "",
          "type": "uint256"
        }
      ],
      "stateMutability": "view",
      "type": "function"
    },
    {
      "inputs": [],
      "name": "tokenManager",
      "outputs": [
        {
          "internalType": "address",
          "name": "",
          "type": "address"
        }
      ],
      "stateMutability": "view",
      "type": "function"
    },
    {
      "inputs": [],
      "name": "totalSupply",
      "outputs": [
        {
          "internalType": "uint256",
          "name": "",
          "type": "uint256"
        }
      ],
      "stateMutability": "view",
      "type": "function"
    },
    {
      "inputs": [
        {
          "internalType": "address",
          "name": "recipient",
          "type": "address"
        },
        {
          "internalType": "uint256",
          "name": "amount",
          "type": "uint256"
        }
      ],
      "name": "transfer",
      "outputs": [
        {
          "internalType": "bool",
          "name": "",
          "type": "bool"
        }
      ],
      "stateMutability": "nonpayable",
      "type": "function"
    },
    {
      "inputs": [
        {
          "internalType": "address",
          "name": "sender",
          "type": "address"
        },
        {
          "internalType": "address",
          "name": "recipient",
          "type": "address"
        },
        {
          "internalType": "uint256",
          "name": "amount",
          "type": "uint256"
        }
      ],
      "name": "transferFrom",
      "outputs": [
        {
          "internalType": "bool",
          "name": "",
          "type": "bool"
        }
      ],
      "stateMutability": "nonpayable",
      "type": "function"
    },
    {
      "inputs": [],
      "name": "unpause",
      "outputs": [],
      "stateMutability": "nonpayable",
      "type": "function"
    },
    {
      "inputs": [
        {
          "internalType": "address",
          "name": "user",
          "type": "address"
        }
      ],
      "name": "claimTokens",
      "outputs": [],
      "stateMutability": "nonpayable",
      "type": "function"
    }
  ],
  "bytecode": "0x60806040523480156200001157600080fd5b5060405162001f6c38038062001f6c833981810160405260808110156200003757600080fd5b81019080805160405193929190846401000000008211156200005857600080fd5b9083019060208201858111156200006e57600080fd5b82516401000000008111828201881017156200008957600080fd5b82525081516020918201929091019080838360005b83811015620000b85781810151838201526020016200009e565b50505050905090810190601f168015620000e65780820380516001836020036101000a031916815260200191505b50604052602001805160405193929190846401000000008211156200010a57600080fd5b9083019060208201858111156200012057600080fd5b82516401000000008111828201881017156200013b57600080fd5b82525081516020918201929091019080838360005b838110156200016a57818101518382015260200162000150565b50505050905090810190601f168015620001985780820380516001836020036101000a031916815260200191505b5060409081526020828101519290910151865192945092508591859183918391620001c991600491850190620003f7565b508051620001df906005906020840190620003f7565b50506006805461ff001960ff19909116601217169055506200021e60006200020f6001600160e01b03620002be16565b6001600160e01b03620002c316565b604080516a4d494e5445525f524f4c4560a81b8152905190819003600b01902062000256906200020f6001600160e01b03620002be16565b604080516a5041555345525f524f4c4560a81b8152905190819003600b0190206200028e906200020f6001600160e01b03620002be16565b5050600991909155600880546001600160a01b0319166001600160a01b0390921691909117905550620004999050565b335b90565b620002d882826001600160e01b03620002dc16565b5050565b60008281526020818152604090912062000301918390620014a66200035e821b17901c565b15620002d8576200031a6001600160e01b03620002be16565b6001600160a01b0316816001600160a01b0316837f2f8788117e7eff1d82e926ec794901d17c78024a50270940304540a733656f0d60405160405180910390a45050565b60006200037e836001600160a01b0384166001600160e01b036200038716565b90505b92915050565b60006200039e83836001600160e01b03620003df16565b620003d65750815460018181018455600084815260208082209093018490558454848252828601909352604090209190915562000381565b50600062000381565b60009081526001919091016020526040902054151590565b828054600181600116156101000203166002900490600052602060002090601f016020900481019282601f106200043a57805160ff19168380011785556200046a565b828001600101855582156200046a579182015b828111156200046a5782518255916020019190600101906200044d565b50620004789291506200047c565b5090565b620002c091905b8082111562000478576000815560010162000483565b611ac380620004a96000396000f3fe608060405234801561001057600080fd5b506004361061016a5760003560e01c806306fdde031461016f578063095ea7b3146101ec57806318160ddd1461022c57806323b872dd14610246578063248a9ca31461027c5780632a709b14146102995780632f2ff15d146102bd578063313ce567146102eb57806336568abe1461030957806337a6572514610335578063395093511461033d5780633f4ba83a1461036957806340c10f191461037157806342966c681461039d5780635c975abb146103ba57806370a08231146103c257806379cc6790146103e85780638456cb59146104145780639010d07c1461041c57806391d148541461043f57806395d89b411461046b578063a217fddf14610473578063a457c2d71461047b578063a9059cbb146104a7578063ca15c873146104d3578063d5391393146104f0578063d547741f146104f8578063dd62ed3e14610524578063df8de3e714610552578063e63ab1e914610578575b600080fd5b610177610580565b6040805160208082528351818301528351919283929083019185019080838360005b838110156101b1578181015183820152602001610199565b50505050905090810190601f1680156101de5780820380516001836020036101000a031916815260200191505b509250505060405180910390f35b6102186004803603604081101561020257600080fd5b506001600160a01b038135169060200135610616565b604080519115158252519081900360200190f35b610234610634565b60408051918252519081900360200190f35b6102186004803603606081101561025c57600080fd5b506001600160a01b0381358116916020810135909116906040013561063a565b6102346004803603602081101561029257600080fd5b50356106c7565b6102a16106dc565b604080516001600160a01b039092168252519081900360200190f35b6102e9600480360360408110156102d357600080fd5b50803590602001356001600160a01b03166106eb565b005b6102f3610757565b6040805160ff9092168252519081900360200190f35b6102e96004803603604081101561031f57600080fd5b50803590602001356001600160a01b0316610760565b6102346107c1565b6102186004803603604081101561035357600080fd5b506001600160a01b0381351690602001356107c7565b6102e961081b565b6102e96004803603604081101561038757600080fd5b506001600160a01b03813516906020013561088c565b6102e9600480360360208110156103b357600080fd5b50356108fd565b610218610911565b610234600480360360208110156103d857600080fd5b50356001600160a01b031661091f565b6102e9600480360360408110156103fe57600080fd5b506001600160a01b03813516906020013561093a565b6102e961099a565b6102a16004803603604081101561043257600080fd5b5080359060200135610a09565b6102186004803603604081101561045557600080fd5b50803590602001356001600160a01b0316610a2e565b610177610a4c565b610234610aad565b6102186004803603604081101561049157600080fd5b506001600160a01b038135169060200135610ab2565b610218600480360360408110156104bd57600080fd5b506001600160a01b038135169060200135610b20565b610234600480360360208110156104e957600080fd5b5035610b34565b610234610b4b565b6102e96004803603604081101561050e57600080fd5b50803590602001356001600160a01b0316610b6e565b6102346004803603604081101561053a57600080fd5b506001600160a01b0381358116916020013516610bc7565b6102e96004803603602081101561056857600080fd5b50356001600160a01b0316610bf2565b610234610ccc565b60048054604080516020601f600260001961010060018816150201909516949094049384018190048102820181019092528281526060939092909183018282801561060c5780601f106105e15761010080835404028352916020019161060c565b820191906000526020600020905b8154815290600101906020018083116105ef57829003601f168201915b5050505050905090565b600061062a610623610cef565b8484610cf3565b5060015b92915050565b60035490565b6000610647848484610ddf565b6106bd84610653610cef565b6106b88560405180606001604052806028815260200161188f602891396001600160a01b038a16600090815260026020526040812090610691610cef565b6001600160a01b03168152602081019190915260400160002054919063ffffffff610f3616565b610cf3565b5060019392505050565b60009081526020819052604090206002015490565b6008546001600160a01b031681565b60008281526020819052604090206002015461070e90610709610cef565b610a2e565b6107495760405162461bcd60e51b815260040180806020018281038252602f81526020018061175d602f913960400191505060405180910390fd5b6107538282610fcd565b5050565b60065460ff1690565b610768610cef565b6001600160a01b0316816001600160a01b0316146107b75760405162461bcd60e51b815260040180806020018281038252602f815260200180611a35602f913960400191505060405180910390fd5b610753828261103c565b60095481565b600061062a6107d4610cef565b846106b885600260006107e5610cef565b6001600160a01b03908116825260208083019390935260409182016000908120918c16815292529020549063ffffffff6110ab16565b604080516a5041555345525f524f4c4560a81b8152905190819003600b01902061084790610709610cef565b6108825760405162461bcd60e51b81526004018080602001828103825260398152602001806117ae6039913960400191505060405180910390fd5b61088a611103565b565b604080516a4d494e5445525f524f4c4560a81b8152905190819003600b0190206108b890610709610cef565b6108f35760405162461bcd60e51b81526004018080602001828103825260368152602001806118b76036913960400191505060405180910390fd5b61075382826111a4565b61090e610908610cef565b82611290565b50565b600654610100900460ff1690565b6001600160a01b031660009081526001602052604090205490565b6000610977826040518060600160405280602481526020016118ed6024913961096a86610965610cef565b610bc7565b919063ffffffff610f3616565b905061098b83610985610cef565b83610cf3565b6109958383611290565b505050565b604080516a5041555345525f524f4c4560a81b8152905190819003600b0190206109c690610709610cef565b610a015760405162461bcd60e51b815260040180806020018281038252603781526020018061199b6037913960400191505060405180910390fd5b61088a611386565b6000828152602081905260408120610a27908363ffffffff61140b16565b9392505050565b6000828152602081905260408120610a27908363ffffffff61141716565b60058054604080516020601f600260001961010060018816150201909516949094049384018190048102820181019092528281526060939092909183018282801561060c5780601f106105e15761010080835404028352916020019161060c565b600081565b600061062a610abf610cef565b846106b885604051806060016040528060258152602001611a106025913960026000610ae9610cef565b6001600160a01b03908116825260208083019390935260409182016000908120918d1681529252902054919063ffffffff610f3616565b600061062a610b2d610cef565b8484610ddf565b600081815260208190526040812061062e9061142c565b604080516a4d494e5445525f524f4c4560a81b8152905190819003600b01902081565b600082815260208190526040902060020154610b8c90610709610cef565b6107b75760405162461bcd60e51b815260040180806020018281038252603081526020018061182f6030913960400191505060405180910390fd5b6001600160a01b03918216600090815260026020908152604080832093909416825291909152205490565b6001600160a01b03811660009081526007602052604090205460ff1615610c4a5760405162461bcd60e51b815260040180806020018281038252603081526020018061185f6030913960400191505060405180910390fd5b600854600954610c65916001600160a01b0316908390610ddf565b6001600160a01b038116600081815260076020908152604091829020805460ff191660011790556009548251908152429181019190915281517f9923b4306c6c030f2bdfbf156517d5983b87e15b96176da122cd4f2effa4ba7b929181900390910190a250565b604080516a5041555345525f524f4c4560a81b8152905190819003600b01902081565b3390565b6001600160a01b038316610d385760405162461bcd60e51b81526004018080602001828103825260248152602001806119776024913960400191505060405180910390fd5b6001600160a01b038216610d7d5760405162461bcd60e51b81526004018080602001828103825260228152602001806117e76022913960400191505060405180910390fd5b6001600160a01b03808416600081815260026020908152604080832094871680845294825291829020859055815185815291517f8c5be1e5ebec7d5bd14f71427d1e84f3dd0314c0f7b2291e5b200ac8c7c3b9259281900390910190a3505050565b6001600160a01b038316610e245760405162461bcd60e51b81526004018080602001828103825260258152602001806119526025913960400191505060405180910390fd5b6001600160a01b038216610e695760405162461bcd60e51b815260040180806020018281038252602381526020018061173a6023913960400191505060405180910390fd5b610e74838383611437565b610eb781604051806060016040528060268152602001611809602691396001600160a01b038616600090815260016020526040902054919063ffffffff610f3616565b6001600160a01b038085166000908152600160205260408082209390935590841681522054610eec908263ffffffff6110ab16565b6001600160a01b03808416600081815260016020908152604091829020949094558051858152905191939287169260008051602061191183398151915292918290030190a3505050565b60008184841115610fc55760405162461bcd60e51b81526004018080602001828103825283818151815260200191508051906020019080838360005b83811015610f8a578181015183820152602001610f72565b50505050905090810190601f168015610fb75780820380516001836020036101000a031916815260200191505b509250505060405180910390fd5b505050900390565b6000828152602081905260409020610feb908263ffffffff6114a616565b1561075357610ff8610cef565b6001600160a01b0316816001600160a01b0316837f2f8788117e7eff1d82e926ec794901d17c78024a50270940304540a733656f0d60405160405180910390a45050565b600082815260208190526040902061105a908263ffffffff6114bb16565b1561075357611067610cef565b6001600160a01b0316816001600160a01b0316837ff6391f5c32d9c69d2a47ea670b442974b53935d1edc7fd64eb21e047a839171b60405160405180910390a45050565b600082820183811015610a27576040805162461bcd60e51b815260206004820152601b60248201527a536166654d6174683a206164646974696f6e206f766572666c6f7760281b604482015290519081900360640190fd5b61110b610911565b611153576040805162461bcd60e51b815260206004820152601460248201527314185d5cd8589b194e881b9bdd081c185d5cd95960621b604482015290519081900360640190fd5b6006805461ff00191690557f5db9ee0a495bf2e6ff9c91a7834c1ba4fdd244a5e8aa4e537bd38aeae4b073aa611187610cef565b604080516001600160a01b039092168252519081900360200190a1565b6001600160a01b0382166111ff576040805162461bcd60e51b815260206004820152601f60248201527f45524332303a206d696e7420746f20746865207a65726f206164647265737300604482015290519081900360640190fd5b61120b60008383611437565b60035461121e908263ffffffff6110ab16565b6003556001600160a01b03821660009081526001602052604090205461124a908263ffffffff6110ab16565b6001600160a01b03831660008181526001602090815260408083209490945583518581529351929391926000805160206119118339815191529281900390910190a35050565b6001600160a01b0382166112d55760405162461bcd60e51b81526004018080602001828103825260218152602001806119316021913960400191505060405180910390fd5b6112e182600083611437565b6113248160405180606001604052806022815260200161178c602291396001600160a01b038516600090815260016020526040902054919063ffffffff610f3616565b6001600160a01b038316600090815260016020526040902055600354611350908263ffffffff6114d016565b6003556040805182815290516000916001600160a01b038516916000805160206119118339815191529181900360200190a35050565b61138e610911565b156113d3576040805162461bcd60e51b815260206004820152601060248201526f14185d5cd8589b194e881c185d5cd95960821b604482015290519081900360640190fd5b6006805461ff0019166101001790557f62e78cea01bee320cd4e420270b5ea74000d11b0c9f74754ebdbfc544b05a258611187610cef565b6000610a27838361152d565b6000610a27836001600160a01b038416611591565b600061062e826115a9565b6114428383836115ad565b6008546001600160a01b038481169116148061146b57506008546001600160a01b038381169116145b6109955760405162461bcd60e51b815260040180806020018281038252603e8152602001806119d2603e913960400191505060405180910390fd5b6000610a27836001600160a01b0384166115b8565b6000610a27836001600160a01b038416611602565b600082821115611527576040805162461bcd60e51b815260206004820152601e60248201527f536166654d6174683a207375627472616374696f6e206f766572666c6f770000604482015290519081900360640190fd5b50900390565b8154600090821061156f5760405162461bcd60e51b81526004018080602001828103825260228152602001806117186022913960400191505060405180910390fd5b82600001828154811061157e57fe5b9060005260206000200154905092915050565b60009081526001919091016020526040902054151590565b5490565b6109958383836116c8565b60006115c48383611591565b6115fa5750815460018181018455600084815260208082209093018490558454848252828601909352604090209190915561062e565b50600061062e565b600081815260018301602052604081205480156116be578354600019808301919081019060009087908390811061163557fe5b906000526020600020015490508087600001848154811061165257fe5b60009182526020808320909101929092558281526001898101909252604090209084019055865487908061168257fe5b6001900381819060005260206000200160009055905586600101600087815260200190815260200160002060009055600194505050505061062e565b600091505061062e565b6116d3838383610995565b6116db610911565b156109955760405162461bcd60e51b815260040180806020018281038252602a815260200180611a64602a913960400191505060405180910390fdfe456e756d657261626c655365743a20696e646578206f7574206f6620626f756e647345524332303a207472616e7366657220746f20746865207a65726f2061646472657373416363657373436f6e74726f6c3a2073656e646572206d75737420626520616e2061646d696e20746f206772616e7445524332303a206275726e20616d6f756e7420657863656564732062616c616e636545524332305072657365744d696e7465725061757365723a206d75737420686176652070617573657220726f6c6520746f20756e706175736545524332303a20617070726f766520746f20746865207a65726f206164647265737345524332303a207472616e7366657220616d6f756e7420657863656564732062616c616e6365416363657373436f6e74726f6c3a2073656e646572206d75737420626520616e2061646d696e20746f207265766f6b6546616e7461737945524332303a206164647265737320616c726561647920636c61696d65642074686520746f6b656e7345524332303a207472616e7366657220616d6f756e74206578636565647320616c6c6f77616e636545524332305072657365744d696e7465725061757365723a206d7573742068617665206d696e74657220726f6c6520746f206d696e7445524332303a206275726e20616d6f756e74206578636565647320616c6c6f77616e6365ddf252ad1be2c89b69c2b068fc378daa952ba7f163c4a11628f55a4df523b3ef45524332303a206275726e2066726f6d20746865207a65726f206164647265737345524332303a207472616e736665722066726f6d20746865207a65726f206164647265737345524332303a20617070726f76652066726f6d20746865207a65726f206164647265737345524332305072657365744d696e7465725061757365723a206d75737420686176652070617573657220726f6c6520746f20706175736546616e7461737945524332303a20746f6b656e207472616e73666572206e6f7420616c6c6f776564206265747765656e207468652061646472657373657345524332303a2064656372656173656420616c6c6f77616e63652062656c6f77207a65726f416363657373436f6e74726f6c3a2063616e206f6e6c792072656e6f756e636520726f6c657320666f722073656c6645524332305061757361626c653a20746f6b656e207472616e73666572207768696c6520706175736564a2646970667358221220faafe092f604b560c2bbc05fec4f8cc7743e2ab51b7a7404d1053e8288fc8afa64736f6c63430006020033",
  "source": "pragma solidity ^0.6.0;\n\nimport \"@openzeppelin/contracts/presets/ERC20PresetMinterPauser.sol\";\n\ncontract FantasyERC20 is ERC20PresetMinterPauser {\n\n  event TokensClaimed(\n    address indexed user,\n    uint256 amount,\n    uint256 timestamp\n  );\n\n  mapping(address => bool) usersClaimed;\n  address public tokenManager;\n  uint256 public tokenAmountToClaim;\n\n  constructor(\n    string memory name,\n    string memory symbol,\n    uint256 _tokenAmountToClaim,\n    address _tokenManager\n    ) public ERC20PresetMinterPauser(name, symbol) {\n      tokenAmountToClaim = _tokenAmountToClaim;\n      tokenManager = _tokenManager;\n    }\n\n  function _beforeTokenTransfer(\n    address from,\n    address to,\n    uint256 amount\n  ) internal override {\n    super._beforeTokenTransfer(from, to, amount);\n\n    require(from == tokenManager || to == tokenManager, \"FantasyERC20: token transfer not allowed between the addresses\");\n  }\n\n  function claimTokens(address user) external {\n    require(usersClaimed[user] == false, \"FantasyERC20: address already claimed the tokens\");\n\n    _transfer(tokenManager, user, tokenAmountToClaim);\n\n    usersClaimed[user] = true;\n\n    emit TokensClaimed(user, tokenAmountToClaim, now);\n  }\n}\n",
  "sourcePath": "/Users/andregoncalves/sideprojects/polkamarkets/polkamarkets-js/contracts/FantasyERC20.sol",
  "compiler": {
    "name": "solc",
    "version": "0.6.2+commit.bacdbe57.Emscripten.clang"
  },
  "schemaVersion": "3.4.10",
  "updatedAt": "2022-11-08T17:47:43.640Z",
  "devdoc": {
    "methods": {
      "allowance(address,address)": {
        "details": "See {IERC20-allowance}."
      },
      "approve(address,uint256)": {
        "details": "See {IERC20-approve}.     * Requirements:     * - `spender` cannot be the zero address."
      },
      "balanceOf(address)": {
        "details": "See {IERC20-balanceOf}."
      },
      "burn(uint256)": {
        "details": "Destroys `amount` tokens from the caller.     * See {ERC20-_burn}."
      },
      "burnFrom(address,uint256)": {
        "details": "Destroys `amount` tokens from `account`, deducting from the caller's allowance.     * See {ERC20-_burn} and {ERC20-allowance}.     * Requirements:     * - the caller must have allowance for ``accounts``'s tokens of at least `amount`."
      },
      "decimals()": {
        "details": "Returns the number of decimals used to get its user representation. For example, if `decimals` equals `2`, a balance of `505` tokens should be displayed to a user as `5,05` (`505 / 10 ** 2`).     * Tokens usually opt for a value of 18, imitating the relationship between Ether and Wei. This is the value {ERC20} uses, unless {_setupDecimals} is called.     * NOTE: This information is only used for _display_ purposes: it in no way affects any of the arithmetic of the contract, including {IERC20-balanceOf} and {IERC20-transfer}."
      },
      "decreaseAllowance(address,uint256)": {
        "details": "Atomically decreases the allowance granted to `spender` by the caller.     * This is an alternative to {approve} that can be used as a mitigation for problems described in {IERC20-approve}.     * Emits an {Approval} event indicating the updated allowance.     * Requirements:     * - `spender` cannot be the zero address. - `spender` must have allowance for the caller of at least `subtractedValue`."
      },
      "getRoleAdmin(bytes32)": {
        "details": "Returns the admin role that controls `role`. See {grantRole} and {revokeRole}.     * To change a role's admin, use {_setRoleAdmin}."
      },
      "getRoleMember(bytes32,uint256)": {
        "details": "Returns one of the accounts that have `role`. `index` must be a value between 0 and {getRoleMemberCount}, non-inclusive.     * Role bearers are not sorted in any particular way, and their ordering may change at any point.     * WARNING: When using {getRoleMember} and {getRoleMemberCount}, make sure you perform all queries on the same block. See the following https://forum.openzeppelin.com/t/iterating-over-elements-on-enumerableset-in-openzeppelin-contracts/2296[forum post] for more information."
      },
      "getRoleMemberCount(bytes32)": {
        "details": "Returns the number of accounts that have `role`. Can be used together with {getRoleMember} to enumerate all bearers of a role."
      },
      "grantRole(bytes32,address)": {
        "details": "Grants `role` to `account`.     * If `account` had not been already granted `role`, emits a {RoleGranted} event.     * Requirements:     * - the caller must have ``role``'s admin role."
      },
      "hasRole(bytes32,address)": {
        "details": "Returns `true` if `account` has been granted `role`."
      },
      "increaseAllowance(address,uint256)": {
        "details": "Atomically increases the allowance granted to `spender` by the caller.     * This is an alternative to {approve} that can be used as a mitigation for problems described in {IERC20-approve}.     * Emits an {Approval} event indicating the updated allowance.     * Requirements:     * - `spender` cannot be the zero address."
      },
      "mint(address,uint256)": {
        "details": "Creates `amount` new tokens for `to`.     * See {ERC20-_mint}.     * Requirements:     * - the caller must have the `MINTER_ROLE`."
      },
      "name()": {
        "details": "Returns the name of the token."
      },
      "pause()": {
        "details": "Pauses all token transfers.     * See {ERC20Pausable} and {Pausable-_pause}.     * Requirements:     * - the caller must have the `PAUSER_ROLE`."
      },
      "paused()": {
        "details": "Returns true if the contract is paused, and false otherwise."
      },
      "renounceRole(bytes32,address)": {
        "details": "Revokes `role` from the calling account.     * Roles are often managed via {grantRole} and {revokeRole}: this function's purpose is to provide a mechanism for accounts to lose their privileges if they are compromised (such as when a trusted device is misplaced).     * If the calling account had been granted `role`, emits a {RoleRevoked} event.     * Requirements:     * - the caller must be `account`."
      },
      "revokeRole(bytes32,address)": {
        "details": "Revokes `role` from `account`.     * If `account` had been granted `role`, emits a {RoleRevoked} event.     * Requirements:     * - the caller must have ``role``'s admin role."
      },
      "symbol()": {
        "details": "Returns the symbol of the token, usually a shorter version of the name."
      },
      "totalSupply()": {
        "details": "See {IERC20-totalSupply}."
      },
      "transfer(address,uint256)": {
        "details": "See {IERC20-transfer}.     * Requirements:     * - `recipient` cannot be the zero address. - the caller must have a balance of at least `amount`."
      },
      "transferFrom(address,address,uint256)": {
        "details": "See {IERC20-transferFrom}.     * Emits an {Approval} event indicating the updated allowance. This is not required by the EIP. See the note at the beginning of {ERC20}.     * Requirements:     * - `sender` and `recipient` cannot be the zero address. - `sender` must have a balance of at least `amount`. - the caller must have allowance for ``sender``'s tokens of at least `amount`."
      },
      "unpause()": {
        "details": "Unpauses all token transfers.     * See {ERC20Pausable} and {Pausable-_unpause}.     * Requirements:     * - the caller must have the `PAUSER_ROLE`."
      }
    }
  },
  "userdoc": {
    "methods": {}
  }
}