{
  "contractName": "FantasyERC20",
  "abi": [
    {
      "inputs": [
        {
          "internalType": "string",
          "name": "name",
          "type": "string"
        },
        {
          "internalType": "string",
          "name": "symbol",
          "type": "string"
        },
        {
          "internalType": "uint256",
          "name": "_tokenAmountToClaim",
          "type": "uint256"
        },
        {
          "internalType": "address",
          "name": "_tokenManager",
          "type": "address"
        }
      ],
      "stateMutability": "nonpayable",
      "type": "constructor"
    },
    {
      "anonymous": false,
      "inputs": [
        {
          "indexed": true,
          "internalType": "address",
          "name": "owner",
          "type": "address"
        },
        {
          "indexed": true,
          "internalType": "address",
          "name": "spender",
          "type": "address"
        },
        {
          "indexed": false,
          "internalType": "uint256",
          "name": "value",
          "type": "uint256"
        }
      ],
      "name": "Approval",
      "type": "event"
    },
    {
      "anonymous": false,
      "inputs": [
        {
          "indexed": false,
          "internalType": "address",
          "name": "account",
          "type": "address"
        }
      ],
      "name": "Paused",
      "type": "event"
    },
    {
      "anonymous": false,
      "inputs": [
        {
          "indexed": true,
          "internalType": "bytes32",
          "name": "role",
          "type": "bytes32"
        },
        {
          "indexed": true,
          "internalType": "bytes32",
          "name": "previousAdminRole",
          "type": "bytes32"
        },
        {
          "indexed": true,
          "internalType": "bytes32",
          "name": "newAdminRole",
          "type": "bytes32"
        }
      ],
      "name": "RoleAdminChanged",
      "type": "event"
    },
    {
      "anonymous": false,
      "inputs": [
        {
          "indexed": true,
          "internalType": "bytes32",
          "name": "role",
          "type": "bytes32"
        },
        {
          "indexed": true,
          "internalType": "address",
          "name": "account",
          "type": "address"
        },
        {
          "indexed": true,
          "internalType": "address",
          "name": "sender",
          "type": "address"
        }
      ],
      "name": "RoleGranted",
      "type": "event"
    },
    {
      "anonymous": false,
      "inputs": [
        {
          "indexed": true,
          "internalType": "bytes32",
          "name": "role",
          "type": "bytes32"
        },
        {
          "indexed": true,
          "internalType": "address",
          "name": "account",
          "type": "address"
        },
        {
          "indexed": true,
          "internalType": "address",
          "name": "sender",
          "type": "address"
        }
      ],
      "name": "RoleRevoked",
      "type": "event"
    },
    {
      "anonymous": false,
      "inputs": [
        {
          "indexed": true,
          "internalType": "address",
          "name": "user",
          "type": "address"
        },
        {
          "indexed": false,
          "internalType": "uint256",
          "name": "amount",
          "type": "uint256"
        },
        {
          "indexed": false,
          "internalType": "uint256",
          "name": "timestamp",
          "type": "uint256"
        }
      ],
      "name": "TokensClaimed",
      "type": "event"
    },
    {
      "anonymous": false,
      "inputs": [
        {
          "indexed": true,
          "internalType": "address",
          "name": "from",
          "type": "address"
        },
        {
          "indexed": true,
          "internalType": "address",
          "name": "to",
          "type": "address"
        },
        {
          "indexed": false,
          "internalType": "uint256",
          "name": "value",
          "type": "uint256"
        }
      ],
      "name": "Transfer",
      "type": "event"
    },
    {
      "anonymous": false,
      "inputs": [
        {
          "indexed": false,
          "internalType": "address",
          "name": "account",
          "type": "address"
        }
      ],
      "name": "Unpaused",
      "type": "event"
    },
    {
      "inputs": [],
      "name": "DEFAULT_ADMIN_ROLE",
      "outputs": [
        {
          "internalType": "bytes32",
          "name": "",
          "type": "bytes32"
        }
      ],
      "stateMutability": "view",
      "type": "function",
      "constant": true
    },
    {
      "inputs": [],
      "name": "MINTER_ROLE",
      "outputs": [
        {
          "internalType": "bytes32",
          "name": "",
          "type": "bytes32"
        }
      ],
      "stateMutability": "view",
      "type": "function",
      "constant": true
    },
    {
      "inputs": [],
      "name": "PAUSER_ROLE",
      "outputs": [
        {
          "internalType": "bytes32",
          "name": "",
          "type": "bytes32"
        }
      ],
      "stateMutability": "view",
      "type": "function",
      "constant": true
    },
    {
      "inputs": [
        {
          "internalType": "address",
          "name": "owner",
          "type": "address"
        },
        {
          "internalType": "address",
          "name": "spender",
          "type": "address"
        }
      ],
      "name": "allowance",
      "outputs": [
        {
          "internalType": "uint256",
          "name": "",
          "type": "uint256"
        }
      ],
      "stateMutability": "view",
      "type": "function",
      "constant": true
    },
    {
      "inputs": [
        {
          "internalType": "address",
          "name": "spender",
          "type": "address"
        },
        {
          "internalType": "uint256",
          "name": "amount",
          "type": "uint256"
        }
      ],
      "name": "approve",
      "outputs": [
        {
          "internalType": "bool",
          "name": "",
          "type": "bool"
        }
      ],
      "stateMutability": "nonpayable",
      "type": "function"
    },
    {
      "inputs": [
        {
          "internalType": "address",
          "name": "account",
          "type": "address"
        }
      ],
      "name": "balanceOf",
      "outputs": [
        {
          "internalType": "uint256",
          "name": "",
          "type": "uint256"
        }
      ],
      "stateMutability": "view",
      "type": "function",
      "constant": true
    },
    {
      "inputs": [
        {
          "internalType": "uint256",
          "name": "amount",
          "type": "uint256"
        }
      ],
      "name": "burn",
      "outputs": [],
      "stateMutability": "nonpayable",
      "type": "function"
    },
    {
      "inputs": [
        {
          "internalType": "address",
          "name": "account",
          "type": "address"
        },
        {
          "internalType": "uint256",
          "name": "amount",
          "type": "uint256"
        }
      ],
      "name": "burnFrom",
      "outputs": [],
      "stateMutability": "nonpayable",
      "type": "function"
    },
    {
      "inputs": [],
      "name": "decimals",
      "outputs": [
        {
          "internalType": "uint8",
          "name": "",
          "type": "uint8"
        }
      ],
      "stateMutability": "view",
      "type": "function",
      "constant": true
    },
    {
      "inputs": [
        {
          "internalType": "address",
          "name": "spender",
          "type": "address"
        },
        {
          "internalType": "uint256",
          "name": "subtractedValue",
          "type": "uint256"
        }
      ],
      "name": "decreaseAllowance",
      "outputs": [
        {
          "internalType": "bool",
          "name": "",
          "type": "bool"
        }
      ],
      "stateMutability": "nonpayable",
      "type": "function"
    },
    {
      "inputs": [
        {
          "internalType": "bytes32",
          "name": "role",
          "type": "bytes32"
        }
      ],
      "name": "getRoleAdmin",
      "outputs": [
        {
          "internalType": "bytes32",
          "name": "",
          "type": "bytes32"
        }
      ],
      "stateMutability": "view",
      "type": "function",
      "constant": true
    },
    {
      "inputs": [
        {
          "internalType": "bytes32",
          "name": "role",
          "type": "bytes32"
        },
        {
          "internalType": "uint256",
          "name": "index",
          "type": "uint256"
        }
      ],
      "name": "getRoleMember",
      "outputs": [
        {
          "internalType": "address",
          "name": "",
          "type": "address"
        }
      ],
      "stateMutability": "view",
      "type": "function",
      "constant": true
    },
    {
      "inputs": [
        {
          "internalType": "bytes32",
          "name": "role",
          "type": "bytes32"
        }
      ],
      "name": "getRoleMemberCount",
      "outputs": [
        {
          "internalType": "uint256",
          "name": "",
          "type": "uint256"
        }
      ],
      "stateMutability": "view",
      "type": "function",
      "constant": true
    },
    {
      "inputs": [
        {
          "internalType": "bytes32",
          "name": "role",
          "type": "bytes32"
        },
        {
          "internalType": "address",
          "name": "account",
          "type": "address"
        }
      ],
      "name": "grantRole",
      "outputs": [],
      "stateMutability": "nonpayable",
      "type": "function"
    },
    {
      "inputs": [
        {
          "internalType": "bytes32",
          "name": "role",
          "type": "bytes32"
        },
        {
          "internalType": "address",
          "name": "account",
          "type": "address"
        }
      ],
      "name": "hasRole",
      "outputs": [
        {
          "internalType": "bool",
          "name": "",
          "type": "bool"
        }
      ],
      "stateMutability": "view",
      "type": "function",
      "constant": true
    },
    {
      "inputs": [
        {
          "internalType": "address",
          "name": "spender",
          "type": "address"
        },
        {
          "internalType": "uint256",
          "name": "addedValue",
          "type": "uint256"
        }
      ],
      "name": "increaseAllowance",
      "outputs": [
        {
          "internalType": "bool",
          "name": "",
          "type": "bool"
        }
      ],
      "stateMutability": "nonpayable",
      "type": "function"
    },
    {
      "inputs": [
        {
          "internalType": "address",
          "name": "to",
          "type": "address"
        },
        {
          "internalType": "uint256",
          "name": "amount",
          "type": "uint256"
        }
      ],
      "name": "mint",
      "outputs": [],
      "stateMutability": "nonpayable",
      "type": "function"
    },
    {
      "inputs": [],
      "name": "name",
      "outputs": [
        {
          "internalType": "string",
          "name": "",
          "type": "string"
        }
      ],
      "stateMutability": "view",
      "type": "function",
      "constant": true
    },
    {
      "inputs": [],
      "name": "pause",
      "outputs": [],
      "stateMutability": "nonpayable",
      "type": "function"
    },
    {
      "inputs": [],
      "name": "paused",
      "outputs": [
        {
          "internalType": "bool",
          "name": "",
          "type": "bool"
        }
      ],
      "stateMutability": "view",
      "type": "function",
      "constant": true
    },
    {
      "inputs": [
        {
          "internalType": "bytes32",
          "name": "role",
          "type": "bytes32"
        },
        {
          "internalType": "address",
          "name": "account",
          "type": "address"
        }
      ],
      "name": "renounceRole",
      "outputs": [],
      "stateMutability": "nonpayable",
      "type": "function"
    },
    {
      "inputs": [
        {
          "internalType": "bytes32",
          "name": "role",
          "type": "bytes32"
        },
        {
          "internalType": "address",
          "name": "account",
          "type": "address"
        }
      ],
      "name": "revokeRole",
      "outputs": [],
      "stateMutability": "nonpayable",
      "type": "function"
    },
    {
      "inputs": [],
      "name": "symbol",
      "outputs": [
        {
          "internalType": "string",
          "name": "",
          "type": "string"
        }
      ],
      "stateMutability": "view",
      "type": "function",
      "constant": true
    },
    {
      "inputs": [],
      "name": "tokenAmountToClaim",
      "outputs": [
        {
          "internalType": "uint256",
          "name": "",
          "type": "uint256"
        }
      ],
      "stateMutability": "view",
      "type": "function",
      "constant": true
    },
    {
      "inputs": [],
      "name": "tokenManager",
      "outputs": [
        {
          "internalType": "address",
          "name": "",
          "type": "address"
        }
      ],
      "stateMutability": "view",
      "type": "function",
      "constant": true
    },
    {
      "inputs": [],
      "name": "totalSupply",
      "outputs": [
        {
          "internalType": "uint256",
          "name": "",
          "type": "uint256"
        }
      ],
      "stateMutability": "view",
      "type": "function",
      "constant": true
    },
    {
      "inputs": [
        {
          "internalType": "address",
          "name": "recipient",
          "type": "address"
        },
        {
          "internalType": "uint256",
          "name": "amount",
          "type": "uint256"
        }
      ],
      "name": "transfer",
      "outputs": [
        {
          "internalType": "bool",
          "name": "",
          "type": "bool"
        }
      ],
      "stateMutability": "nonpayable",
      "type": "function"
    },
    {
      "inputs": [
        {
          "internalType": "address",
          "name": "sender",
          "type": "address"
        },
        {
          "internalType": "address",
          "name": "recipient",
          "type": "address"
        },
        {
          "internalType": "uint256",
          "name": "amount",
          "type": "uint256"
        }
      ],
      "name": "transferFrom",
      "outputs": [
        {
          "internalType": "bool",
          "name": "",
          "type": "bool"
        }
      ],
      "stateMutability": "nonpayable",
      "type": "function"
    },
    {
      "inputs": [],
      "name": "unpause",
      "outputs": [],
      "stateMutability": "nonpayable",
      "type": "function"
    },
    {
      "inputs": [
        {
          "internalType": "address",
          "name": "user",
          "type": "address"
        }
      ],
      "name": "claimTokens",
      "outputs": [],
      "stateMutability": "nonpayable",
      "type": "function"
    },
    {
      "inputs": [
        {
          "internalType": "address",
          "name": "user",
          "type": "address"
        }
      ],
      "name": "hasUserClaimedTokens",
      "outputs": [
        {
          "internalType": "bool",
          "name": "",
          "type": "bool"
        }
      ],
      "stateMutability": "view",
      "type": "function",
      "constant": true
    }
  ],
  "bytecode": "0x60806040523480156200001157600080fd5b5060405162001fac38038062001fac833981810160405260808110156200003757600080fd5b81019080805160405193929190846401000000008211156200005857600080fd5b9083019060208201858111156200006e57600080fd5b82516401000000008111828201881017156200008957600080fd5b82525081516020918201929091019080838360005b83811015620000b85781810151838201526020016200009e565b50505050905090810190601f168015620000e65780820380516001836020036101000a031916815260200191505b50604052602001805160405193929190846401000000008211156200010a57600080fd5b9083019060208201858111156200012057600080fd5b82516401000000008111828201881017156200013b57600080fd5b82525081516020918201929091019080838360005b838110156200016a57818101518382015260200162000150565b50505050905090810190601f168015620001985780820380516001836020036101000a031916815260200191505b5060409081526020828101519290910151865192945092508591859183918391620001c991600491850190620003f7565b508051620001df906005906020840190620003f7565b50506006805461ff001960ff19909116601217169055506200021e60006200020f6001600160e01b03620002be16565b6001600160e01b03620002c316565b604080516a4d494e5445525f524f4c4560a81b8152905190819003600b01902062000256906200020f6001600160e01b03620002be16565b604080516a5041555345525f524f4c4560a81b8152905190819003600b0190206200028e906200020f6001600160e01b03620002be16565b5050600991909155600880546001600160a01b0319166001600160a01b0390921691909117905550620004999050565b335b90565b620002d882826001600160e01b03620002dc16565b5050565b60008281526020818152604090912062000301918390620014e66200035e821b17901c565b15620002d8576200031a6001600160e01b03620002be16565b6001600160a01b0316816001600160a01b0316837f2f8788117e7eff1d82e926ec794901d17c78024a50270940304540a733656f0d60405160405180910390a45050565b60006200037e836001600160a01b0384166001600160e01b036200038716565b90505b92915050565b60006200039e83836001600160e01b03620003df16565b620003d65750815460018181018455600084815260208082209093018490558454848252828601909352604090209190915562000381565b50600062000381565b60009081526001919091016020526040902054151590565b828054600181600116156101000203166002900490600052602060002090601f016020900481019282601f106200043a57805160ff19168380011785556200046a565b828001600101855582156200046a579182015b828111156200046a5782518255916020019190600101906200044d565b50620004789291506200047c565b5090565b620002c091905b8082111562000478576000815560010162000483565b611b0380620004a96000396000f3fe608060405234801561001057600080fd5b50600436106101755760003560e01c806306fdde031461017a578063095ea7b3146101f757806318160ddd1461023757806323b872dd14610251578063248a9ca3146102875780632a709b14146102a45780632f2ff15d146102c8578063313ce567146102f657806336568abe1461031457806337a657251461034057806339509351146103485780633f4ba83a1461037457806340c10f191461037c57806342966c68146103a85780635c975abb146103c557806370a08231146103cd57806379cc6790146103f35780638456cb591461041f57806387bbfe0a146104275780639010d07c1461044d57806391d148541461047057806395d89b411461049c578063a217fddf146104a4578063a457c2d7146104ac578063a9059cbb146104d8578063ca15c87314610504578063d539139314610521578063d547741f14610529578063dd62ed3e14610555578063df8de3e714610583578063e63ab1e9146105a9575b600080fd5b6101826105b1565b6040805160208082528351818301528351919283929083019185019080838360005b838110156101bc5781810151838201526020016101a4565b50505050905090810190601f1680156101e95780820380516001836020036101000a031916815260200191505b509250505060405180910390f35b6102236004803603604081101561020d57600080fd5b506001600160a01b038135169060200135610647565b604080519115158252519081900360200190f35b61023f610665565b60408051918252519081900360200190f35b6102236004803603606081101561026757600080fd5b506001600160a01b0381358116916020810135909116906040013561066b565b61023f6004803603602081101561029d57600080fd5b50356106f8565b6102ac61070d565b604080516001600160a01b039092168252519081900360200190f35b6102f4600480360360408110156102de57600080fd5b50803590602001356001600160a01b031661071c565b005b6102fe610788565b6040805160ff9092168252519081900360200190f35b6102f46004803603604081101561032a57600080fd5b50803590602001356001600160a01b0316610791565b61023f6107f2565b6102236004803603604081101561035e57600080fd5b506001600160a01b0381351690602001356107f8565b6102f461084c565b6102f46004803603604081101561039257600080fd5b506001600160a01b0381351690602001356108bd565b6102f4600480360360208110156103be57600080fd5b503561092e565b610223610942565b61023f600480360360208110156103e357600080fd5b50356001600160a01b0316610950565b6102f46004803603604081101561040957600080fd5b506001600160a01b03813516906020013561096b565b6102f46109cb565b6102236004803603602081101561043d57600080fd5b50356001600160a01b0316610a3a565b6102ac6004803603604081101561046357600080fd5b5080359060200135610a58565b6102236004803603604081101561048657600080fd5b50803590602001356001600160a01b0316610a7d565b610182610a9b565b61023f610afc565b610223600480360360408110156104c257600080fd5b506001600160a01b038135169060200135610b01565b610223600480360360408110156104ee57600080fd5b506001600160a01b038135169060200135610b6f565b61023f6004803603602081101561051a57600080fd5b5035610b83565b61023f610b9a565b6102f46004803603604081101561053f57600080fd5b50803590602001356001600160a01b0316610bbd565b61023f6004803603604081101561056b57600080fd5b506001600160a01b0381358116916020013516610c16565b6102f46004803603602081101561059957600080fd5b50356001600160a01b0316610c41565b61023f610d0c565b60048054604080516020601f600260001961010060018816150201909516949094049384018190048102820181019092528281526060939092909183018282801561063d5780601f106106125761010080835404028352916020019161063d565b820191906000526020600020905b81548152906001019060200180831161062057829003601f168201915b5050505050905090565b600061065b610654610d2f565b8484610d33565b5060015b92915050565b60035490565b6000610678848484610e1f565b6106ee84610684610d2f565b6106e9856040518060600160405280602881526020016118cf602891396001600160a01b038a166000908152600260205260408120906106c2610d2f565b6001600160a01b03168152602081019190915260400160002054919063ffffffff610e8e16565b610d33565b5060019392505050565b60009081526020819052604090206002015490565b6008546001600160a01b031681565b60008281526020819052604090206002015461073f9061073a610d2f565b610a7d565b61077a5760405162461bcd60e51b815260040180806020018281038252602f81526020018061179d602f913960400191505060405180910390fd5b6107848282610f25565b5050565b60065460ff1690565b610799610d2f565b6001600160a01b0316816001600160a01b0316146107e85760405162461bcd60e51b815260040180806020018281038252602f815260200180611a75602f913960400191505060405180910390fd5b6107848282610f94565b60095481565b600061065b610805610d2f565b846106e98560026000610816610d2f565b6001600160a01b03908116825260208083019390935260409182016000908120918c16815292529020549063ffffffff61100316565b604080516a5041555345525f524f4c4560a81b8152905190819003600b0190206108789061073a610d2f565b6108b35760405162461bcd60e51b81526004018080602001828103825260398152602001806117ee6039913960400191505060405180910390fd5b6108bb61105b565b565b604080516a4d494e5445525f524f4c4560a81b8152905190819003600b0190206108e99061073a610d2f565b6109245760405162461bcd60e51b81526004018080602001828103825260368152602001806118f76036913960400191505060405180910390fd5b61078482826110fc565b61093f610939610d2f565b826111e8565b50565b600654610100900460ff1690565b6001600160a01b031660009081526001602052604090205490565b60006109a88260405180606001604052806024815260200161192d6024913961099b86610996610d2f565b610c16565b919063ffffffff610e8e16565b90506109bc836109b6610d2f565b83610d33565b6109c683836111e8565b505050565b604080516a5041555345525f524f4c4560a81b8152905190819003600b0190206109f79061073a610d2f565b610a325760405162461bcd60e51b81526004018080602001828103825260378152602001806119db6037913960400191505060405180910390fd5b6108bb6112de565b6001600160a01b031660009081526007602052604090205460ff1690565b6000828152602081905260408120610a76908363ffffffff61136316565b9392505050565b6000828152602081905260408120610a76908363ffffffff61136f16565b60058054604080516020601f600260001961010060018816150201909516949094049384018190048102820181019092528281526060939092909183018282801561063d5780601f106106125761010080835404028352916020019161063d565b600081565b600061065b610b0e610d2f565b846106e985604051806060016040528060258152602001611a506025913960026000610b38610d2f565b6001600160a01b03908116825260208083019390935260409182016000908120918d1681529252902054919063ffffffff610e8e16565b600061065b610b7c610d2f565b8484610e1f565b600081815260208190526040812061065f90611384565b604080516a4d494e5445525f524f4c4560a81b8152905190819003600b01902081565b600082815260208190526040902060020154610bdb9061073a610d2f565b6107e85760405162461bcd60e51b815260040180806020018281038252603081526020018061186f6030913960400191505060405180910390fd5b6001600160a01b03918216600090815260026020908152604080832093909416825291909152205490565b6001600160a01b03811660009081526007602052604090205460ff1615610c995760405162461bcd60e51b815260040180806020018281038252603081526020018061189f6030913960400191505060405180910390fd5b610ca5816009546110fc565b6001600160a01b038116600081815260076020908152604091829020805460ff191660011790556009548251908152429181019190915281517f9923b4306c6c030f2bdfbf156517d5983b87e15b96176da122cd4f2effa4ba7b929181900390910190a250565b604080516a5041555345525f524f4c4560a81b8152905190819003600b01902081565b3390565b6001600160a01b038316610d785760405162461bcd60e51b81526004018080602001828103825260248152602001806119b76024913960400191505060405180910390fd5b6001600160a01b038216610dbd5760405162461bcd60e51b81526004018080602001828103825260228152602001806118276022913960400191505060405180910390fd5b6001600160a01b03808416600081815260026020908152604080832094871680845294825291829020859055815185815291517f8c5be1e5ebec7d5bd14f71427d1e84f3dd0314c0f7b2291e5b200ac8c7c3b9259281900390910190a3505050565b6008546001600160a01b0384811691161480610e4857506008546001600160a01b038381169116145b610e835760405162461bcd60e51b815260040180806020018281038252603e815260200180611a12603e913960400191505060405180910390fd5b6109c683838361138f565b60008184841115610f1d5760405162461bcd60e51b81526004018080602001828103825283818151815260200191508051906020019080838360005b83811015610ee2578181015183820152602001610eca565b50505050905090810190601f168015610f0f5780820380516001836020036101000a031916815260200191505b509250505060405180910390fd5b505050900390565b6000828152602081905260409020610f43908263ffffffff6114e616565b1561078457610f50610d2f565b6001600160a01b0316816001600160a01b0316837f2f8788117e7eff1d82e926ec794901d17c78024a50270940304540a733656f0d60405160405180910390a45050565b6000828152602081905260409020610fb2908263ffffffff6114fb16565b1561078457610fbf610d2f565b6001600160a01b0316816001600160a01b0316837ff6391f5c32d9c69d2a47ea670b442974b53935d1edc7fd64eb21e047a839171b60405160405180910390a45050565b600082820183811015610a76576040805162461bcd60e51b815260206004820152601b60248201527a536166654d6174683a206164646974696f6e206f766572666c6f7760281b604482015290519081900360640190fd5b611063610942565b6110ab576040805162461bcd60e51b815260206004820152601460248201527314185d5cd8589b194e881b9bdd081c185d5cd95960621b604482015290519081900360640190fd5b6006805461ff00191690557f5db9ee0a495bf2e6ff9c91a7834c1ba4fdd244a5e8aa4e537bd38aeae4b073aa6110df610d2f565b604080516001600160a01b039092168252519081900360200190a1565b6001600160a01b038216611157576040805162461bcd60e51b815260206004820152601f60248201527f45524332303a206d696e7420746f20746865207a65726f206164647265737300604482015290519081900360640190fd5b61116360008383611510565b600354611176908263ffffffff61100316565b6003556001600160a01b0382166000908152600160205260409020546111a2908263ffffffff61100316565b6001600160a01b03831660008181526001602090815260408083209490945583518581529351929391926000805160206119518339815191529281900390910190a35050565b6001600160a01b03821661122d5760405162461bcd60e51b81526004018080602001828103825260218152602001806119716021913960400191505060405180910390fd5b61123982600083611510565b61127c816040518060600160405280602281526020016117cc602291396001600160a01b038516600090815260016020526040902054919063ffffffff610e8e16565b6001600160a01b0383166000908152600160205260409020556003546112a8908263ffffffff61151b16565b6003556040805182815290516000916001600160a01b038516916000805160206119518339815191529181900360200190a35050565b6112e6610942565b1561132b576040805162461bcd60e51b815260206004820152601060248201526f14185d5cd8589b194e881c185d5cd95960821b604482015290519081900360640190fd5b6006805461ff0019166101001790557f62e78cea01bee320cd4e420270b5ea74000d11b0c9f74754ebdbfc544b05a2586110df610d2f565b6000610a768383611578565b6000610a76836001600160a01b0384166115dc565b600061065f826115f4565b6001600160a01b0383166113d45760405162461bcd60e51b81526004018080602001828103825260258152602001806119926025913960400191505060405180910390fd5b6001600160a01b0382166114195760405162461bcd60e51b815260040180806020018281038252602381526020018061177a6023913960400191505060405180910390fd5b611424838383611510565b61146781604051806060016040528060268152602001611849602691396001600160a01b038616600090815260016020526040902054919063ffffffff610e8e16565b6001600160a01b03808516600090815260016020526040808220939093559084168152205461149c908263ffffffff61100316565b6001600160a01b03808416600081815260016020908152604091829020949094558051858152905191939287169260008051602061195183398151915292918290030190a3505050565b6000610a76836001600160a01b0384166115f8565b6000610a76836001600160a01b038416611642565b6109c6838383611708565b600082821115611572576040805162461bcd60e51b815260206004820152601e60248201527f536166654d6174683a207375627472616374696f6e206f766572666c6f770000604482015290519081900360640190fd5b50900390565b815460009082106115ba5760405162461bcd60e51b81526004018080602001828103825260228152602001806117586022913960400191505060405180910390fd5b8260000182815481106115c957fe5b9060005260206000200154905092915050565b60009081526001919091016020526040902054151590565b5490565b600061160483836115dc565b61163a5750815460018181018455600084815260208082209093018490558454848252828601909352604090209190915561065f565b50600061065f565b600081815260018301602052604081205480156116fe578354600019808301919081019060009087908390811061167557fe5b906000526020600020015490508087600001848154811061169257fe5b6000918252602080832090910192909255828152600189810190925260409020908401905586548790806116c257fe5b6001900381819060005260206000200160009055905586600101600087815260200190815260200160002060009055600194505050505061065f565b600091505061065f565b6117138383836109c6565b61171b610942565b156109c65760405162461bcd60e51b815260040180806020018281038252602a815260200180611aa4602a913960400191505060405180910390fdfe456e756d657261626c655365743a20696e646578206f7574206f6620626f756e647345524332303a207472616e7366657220746f20746865207a65726f2061646472657373416363657373436f6e74726f6c3a2073656e646572206d75737420626520616e2061646d696e20746f206772616e7445524332303a206275726e20616d6f756e7420657863656564732062616c616e636545524332305072657365744d696e7465725061757365723a206d75737420686176652070617573657220726f6c6520746f20756e706175736545524332303a20617070726f766520746f20746865207a65726f206164647265737345524332303a207472616e7366657220616d6f756e7420657863656564732062616c616e6365416363657373436f6e74726f6c3a2073656e646572206d75737420626520616e2061646d696e20746f207265766f6b6546616e7461737945524332303a206164647265737320616c726561647920636c61696d65642074686520746f6b656e7345524332303a207472616e7366657220616d6f756e74206578636565647320616c6c6f77616e636545524332305072657365744d696e7465725061757365723a206d7573742068617665206d696e74657220726f6c6520746f206d696e7445524332303a206275726e20616d6f756e74206578636565647320616c6c6f77616e6365ddf252ad1be2c89b69c2b068fc378daa952ba7f163c4a11628f55a4df523b3ef45524332303a206275726e2066726f6d20746865207a65726f206164647265737345524332303a207472616e736665722066726f6d20746865207a65726f206164647265737345524332303a20617070726f76652066726f6d20746865207a65726f206164647265737345524332305072657365744d696e7465725061757365723a206d75737420686176652070617573657220726f6c6520746f20706175736546616e7461737945524332303a20746f6b656e207472616e73666572206e6f7420616c6c6f776564206265747765656e207468652061646472657373657345524332303a2064656372656173656420616c6c6f77616e63652062656c6f77207a65726f416363657373436f6e74726f6c3a2063616e206f6e6c792072656e6f756e636520726f6c657320666f722073656c6645524332305061757361626c653a20746f6b656e207472616e73666572207768696c6520706175736564a2646970667358221220d6d1b0412977e5ffb00af0c8b950ea27b4667f7eccaf1ca2d76b2c895d0fae7d64736f6c63430006020033",
  "source": "pragma solidity ^0.6.0;\n\nimport \"@openzeppelin/contracts/presets/ERC20PresetMinterPauser.sol\";\n\ncontract FantasyERC20 is ERC20PresetMinterPauser {\n\n  event TokensClaimed(\n    address indexed user,\n    uint256 amount,\n    uint256 timestamp\n  );\n\n  mapping(address => bool) usersClaimed;\n  address public tokenManager;\n  uint256 public tokenAmountToClaim;\n\n  constructor(\n    string memory name,\n    string memory symbol,\n    uint256 _tokenAmountToClaim,\n    address _tokenManager\n    ) public ERC20PresetMinterPauser(name, symbol) {\n      tokenAmountToClaim = _tokenAmountToClaim;\n      tokenManager = _tokenManager;\n    }\n\n  /// @dev Validates if the transfer is from or to the tokenManager, blocking it otherwise\n  function _transfer(\n    address from,\n    address to,\n    uint256 amount\n  ) internal override {\n    require(from == tokenManager || to == tokenManager, \"FantasyERC20: token transfer not allowed between the addresses\");\n\n    super._transfer(from, to, amount);\n  }\n\n  /// @dev Allows user to claim the amount of tokens by minting them\n  function claimTokens(address user) external {\n    require(usersClaimed[user] == false, \"FantasyERC20: address already claimed the tokens\");\n\n    _mint(user, tokenAmountToClaim);\n\n    usersClaimed[user] = true;\n\n    emit TokensClaimed(user, tokenAmountToClaim, now);\n  }\n\n  /// @dev Returns if the address has already claimed or not the tokens\n  function hasUserClaimedTokens(address user) external view returns (bool) {\n    return usersClaimed[user];\n  }\n}\n",
  "sourcePath": "/Users/andregoncalves/sideprojects/polkamarkets/polkamarkets-js/contracts/FantasyERC20.sol",
  "compiler": {
    "name": "solc",
    "version": "0.6.2+commit.bacdbe57.Emscripten.clang"
  },
  "schemaVersion": "3.4.10",
  "updatedAt": "2022-11-10T08:26:55.032Z",
  "networkType": "ethereum",
  "devdoc": {
    "methods": {
      "allowance(address,address)": {
        "details": "See {IERC20-allowance}."
      },
      "approve(address,uint256)": {
        "details": "See {IERC20-approve}.     * Requirements:     * - `spender` cannot be the zero address."
      },
      "balanceOf(address)": {
        "details": "See {IERC20-balanceOf}."
      },
      "burn(uint256)": {
        "details": "Destroys `amount` tokens from the caller.     * See {ERC20-_burn}."
      },
      "burnFrom(address,uint256)": {
        "details": "Destroys `amount` tokens from `account`, deducting from the caller's allowance.     * See {ERC20-_burn} and {ERC20-allowance}.     * Requirements:     * - the caller must have allowance for ``accounts``'s tokens of at least `amount`."
      },
      "claimTokens(address)": {
        "details": "Allows user to claim the amount of tokens by minting them"
      },
      "decimals()": {
        "details": "Returns the number of decimals used to get its user representation. For example, if `decimals` equals `2`, a balance of `505` tokens should be displayed to a user as `5,05` (`505 / 10 ** 2`).     * Tokens usually opt for a value of 18, imitating the relationship between Ether and Wei. This is the value {ERC20} uses, unless {_setupDecimals} is called.     * NOTE: This information is only used for _display_ purposes: it in no way affects any of the arithmetic of the contract, including {IERC20-balanceOf} and {IERC20-transfer}."
      },
      "decreaseAllowance(address,uint256)": {
        "details": "Atomically decreases the allowance granted to `spender` by the caller.     * This is an alternative to {approve} that can be used as a mitigation for problems described in {IERC20-approve}.     * Emits an {Approval} event indicating the updated allowance.     * Requirements:     * - `spender` cannot be the zero address. - `spender` must have allowance for the caller of at least `subtractedValue`."
      },
      "getRoleAdmin(bytes32)": {
        "details": "Returns the admin role that controls `role`. See {grantRole} and {revokeRole}.     * To change a role's admin, use {_setRoleAdmin}."
      },
      "getRoleMember(bytes32,uint256)": {
        "details": "Returns one of the accounts that have `role`. `index` must be a value between 0 and {getRoleMemberCount}, non-inclusive.     * Role bearers are not sorted in any particular way, and their ordering may change at any point.     * WARNING: When using {getRoleMember} and {getRoleMemberCount}, make sure you perform all queries on the same block. See the following https://forum.openzeppelin.com/t/iterating-over-elements-on-enumerableset-in-openzeppelin-contracts/2296[forum post] for more information."
      },
      "getRoleMemberCount(bytes32)": {
        "details": "Returns the number of accounts that have `role`. Can be used together with {getRoleMember} to enumerate all bearers of a role."
      },
      "grantRole(bytes32,address)": {
        "details": "Grants `role` to `account`.     * If `account` had not been already granted `role`, emits a {RoleGranted} event.     * Requirements:     * - the caller must have ``role``'s admin role."
      },
      "hasRole(bytes32,address)": {
        "details": "Returns `true` if `account` has been granted `role`."
      },
      "hasUserClaimedTokens(address)": {
        "details": "Returns if the address has already claimed or not the tokens"
      },
      "increaseAllowance(address,uint256)": {
        "details": "Atomically increases the allowance granted to `spender` by the caller.     * This is an alternative to {approve} that can be used as a mitigation for problems described in {IERC20-approve}.     * Emits an {Approval} event indicating the updated allowance.     * Requirements:     * - `spender` cannot be the zero address."
      },
      "mint(address,uint256)": {
        "details": "Creates `amount` new tokens for `to`.     * See {ERC20-_mint}.     * Requirements:     * - the caller must have the `MINTER_ROLE`."
      },
      "name()": {
        "details": "Returns the name of the token."
      },
      "pause()": {
        "details": "Pauses all token transfers.     * See {ERC20Pausable} and {Pausable-_pause}.     * Requirements:     * - the caller must have the `PAUSER_ROLE`."
      },
      "paused()": {
        "details": "Returns true if the contract is paused, and false otherwise."
      },
      "renounceRole(bytes32,address)": {
        "details": "Revokes `role` from the calling account.     * Roles are often managed via {grantRole} and {revokeRole}: this function's purpose is to provide a mechanism for accounts to lose their privileges if they are compromised (such as when a trusted device is misplaced).     * If the calling account had been granted `role`, emits a {RoleRevoked} event.     * Requirements:     * - the caller must be `account`."
      },
      "revokeRole(bytes32,address)": {
        "details": "Revokes `role` from `account`.     * If `account` had been granted `role`, emits a {RoleRevoked} event.     * Requirements:     * - the caller must have ``role``'s admin role."
      },
      "symbol()": {
        "details": "Returns the symbol of the token, usually a shorter version of the name."
      },
      "totalSupply()": {
        "details": "See {IERC20-totalSupply}."
      },
      "transfer(address,uint256)": {
        "details": "See {IERC20-transfer}.     * Requirements:     * - `recipient` cannot be the zero address. - the caller must have a balance of at least `amount`."
      },
      "transferFrom(address,address,uint256)": {
        "details": "See {IERC20-transferFrom}.     * Emits an {Approval} event indicating the updated allowance. This is not required by the EIP. See the note at the beginning of {ERC20}.     * Requirements:     * - `sender` and `recipient` cannot be the zero address. - `sender` must have a balance of at least `amount`. - the caller must have allowance for ``sender``'s tokens of at least `amount`."
      },
      "unpause()": {
        "details": "Unpauses all token transfers.     * See {ERC20Pausable} and {Pausable-_unpause}.     * Requirements:     * - the caller must have the `PAUSER_ROLE`."
      }
    }
  },
  "userdoc": {
    "methods": {}
  }
}