{
  "contractName": "MerkleDistributor",
  "abi": [
    {
      "inputs": [
        {
          "internalType": "address",
          "name": "token_",
          "type": "address"
        },
        {
          "internalType": "address",
          "name": "owner_",
          "type": "address"
        },
        {
          "internalType": "bytes32",
          "name": "merkleRoot_",
          "type": "bytes32"
        }
      ],
      "stateMutability": "nonpayable",
      "type": "constructor"
    },
    {
      "anonymous": false,
      "inputs": [
        {
          "indexed": false,
          "internalType": "uint256",
          "name": "index",
          "type": "uint256"
        },
        {
          "indexed": false,
          "internalType": "uint256",
          "name": "amount",
          "type": "uint256"
        },
        {
          "indexed": true,
          "internalType": "address",
          "name": "tokenReceiver",
          "type": "address"
        },
        {
          "indexed": true,
          "internalType": "uint256",
          "name": "week",
          "type": "uint256"
        }
      ],
      "name": "Claimed",
      "type": "event"
    },
    {
      "anonymous": false,
      "inputs": [
        {
          "indexed": true,
          "internalType": "bytes32",
          "name": "merkleRoot",
          "type": "bytes32"
        },
        {
          "indexed": true,
          "internalType": "uint32",
          "name": "week",
          "type": "uint32"
        }
      ],
      "name": "MerkleRootUpdated",
      "type": "event"
    },
    {
      "inputs": [],
      "name": "frozen",
      "outputs": [
        {
          "internalType": "bool",
          "name": "",
          "type": "bool"
        }
      ],
      "stateMutability": "view",
      "type": "function",
      "constant": true
    },
    {
      "inputs": [],
      "name": "merkleRoot",
      "outputs": [
        {
          "internalType": "bytes32",
          "name": "",
          "type": "bytes32"
        }
      ],
      "stateMutability": "view",
      "type": "function",
      "constant": true
    },
    {
      "inputs": [],
      "name": "owner",
      "outputs": [
        {
          "internalType": "address",
          "name": "",
          "type": "address"
        }
      ],
      "stateMutability": "view",
      "type": "function",
      "constant": true
    },
    {
      "inputs": [],
      "name": "token",
      "outputs": [
        {
          "internalType": "address",
          "name": "",
          "type": "address"
        }
      ],
      "stateMutability": "view",
      "type": "function",
      "constant": true
    },
    {
      "inputs": [
        {
          "internalType": "address",
          "name": "",
          "type": "address"
        }
      ],
      "name": "totalClaimed",
      "outputs": [
        {
          "internalType": "uint256",
          "name": "",
          "type": "uint256"
        }
      ],
      "stateMutability": "view",
      "type": "function",
      "constant": true
    },
    {
      "inputs": [],
      "name": "week",
      "outputs": [
        {
          "internalType": "uint32",
          "name": "",
          "type": "uint32"
        }
      ],
      "stateMutability": "view",
      "type": "function",
      "constant": true
    },
    {
      "inputs": [
        {
          "internalType": "uint256",
          "name": "index",
          "type": "uint256"
        },
        {
          "internalType": "address",
          "name": "account",
          "type": "address"
        },
        {
          "internalType": "uint256",
          "name": "amount",
          "type": "uint256"
        },
        {
          "internalType": "bytes32[]",
          "name": "merkleProof",
          "type": "bytes32[]"
        }
      ],
      "name": "claim",
      "outputs": [],
      "stateMutability": "nonpayable",
      "type": "function"
    },
    {
      "inputs": [
        {
          "internalType": "uint256",
          "name": "index",
          "type": "uint256"
        }
      ],
      "name": "isClaimed",
      "outputs": [
        {
          "internalType": "bool",
          "name": "",
          "type": "bool"
        }
      ],
      "stateMutability": "view",
      "type": "function",
      "constant": true
    },
    {
      "inputs": [],
      "name": "freeze",
      "outputs": [],
      "stateMutability": "nonpayable",
      "type": "function"
    },
    {
      "inputs": [],
      "name": "unfreeze",
      "outputs": [],
      "stateMutability": "nonpayable",
      "type": "function"
    },
    {
      "inputs": [
        {
          "internalType": "bytes32",
          "name": "_merkleRoot",
          "type": "bytes32"
        }
      ],
      "name": "updateMerkleRoot",
      "outputs": [],
      "stateMutability": "nonpayable",
      "type": "function"
    }
  ],
  "bytecode": "0x60c060405234801561001057600080fd5b50604051610bbe380380610bbe83398101604081905261002f916100ce565b6001600160a01b0383166100895760405162461bcd60e51b815260206004820181905260248201527f4d65726b6c654469737472696275746f723a20696e76616c696420746f6b656e604482015260640160405180910390fd5b6001600160a01b03928316608052911660a0526000556001805464ffffffffff1916905561010a565b80516001600160a01b03811681146100c957600080fd5b919050565b6000806000606084860312156100e357600080fd5b6100ec846100b2565b92506100fa602085016100b2565b9150604084015190509250925092565b60805160a051610a7361014b60003960008181610151015281816102d5015281816103e601526104450152600081816101c301526105f60152610a736000f3fe608060405234801561001057600080fd5b50600436106100a95760003560e01c806362a5af3b1161007157806362a5af3b1461013c5780636a28f000146101445780638da5cb5b1461014c5780639e34070f1461018b578063ef5d9ae81461019e578063fc0c546a146101be57600080fd5b8063054f7d9c146100ae5780632e7ba6ef146100d85780632eb4a7ab146100ed5780634783f0ef146101045780634995b45814610117575b600080fd5b6001546100c390640100000000900460ff1681565b60405190151581526020015b60405180910390f35b6100eb6100e6366004610846565b6101e5565b005b6100f660005481565b6040519081526020016100cf565b6100eb6101123660046108dd565b6102ca565b6001546101279063ffffffff1681565b60405163ffffffff90911681526020016100cf565b6100eb6103db565b6100eb61043a565b6101737f000000000000000000000000000000000000000000000000000000000000000081565b6040516001600160a01b0390911681526020016100cf565b6100c36101993660046108dd565b610492565b6100f66101ac3660046108f6565b60036020526000908152604090205481565b6101737f000000000000000000000000000000000000000000000000000000000000000081565b600154640100000000900460ff16156102545760405162461bcd60e51b815260206004820152602660248201527f4d65726b6c654469737472696275746f723a20436c61696d696e6720697320666044820152653937bd32b71760d11b60648201526084015b60405180910390fd5b61025d85610492565b156102b65760405162461bcd60e51b815260206004820152602360248201527f4d65726b6c654469737472696275746f723a20616c726561647920636c61696d60448201526232b21760e91b606482015260840161024b565b6102c385858585856104e7565b5050505050565b336001600160a01b037f000000000000000000000000000000000000000000000000000000000000000016146103125760405162461bcd60e51b815260040161024b90610911565b600154640100000000900460ff1661037c5760405162461bcd60e51b815260206004820152602760248201527f4d65726b6c654469737472696275746f723a20436f6e7472616374206e6f7420604482015266333937bd32b71760c91b606482015260840161024b565b600180546103929163ffffffff90911690610977565b6001805463ffffffff191663ffffffff929092169182179055600082815560405183917f1bed04c7cfb61e9a21d36517a6ed73b90844dc1ea8a74ce9f96ee2599be0db3b91a350565b336001600160a01b037f000000000000000000000000000000000000000000000000000000000000000016146104235760405162461bcd60e51b815260040161024b90610911565b6001805464ff000000001916640100000000179055565b336001600160a01b037f000000000000000000000000000000000000000000000000000000000000000016146104825760405162461bcd60e51b815260040161024b90610911565b6001805464ff0000000019169055565b6000806104a1610100846109b1565b905060006104b1610100856109c5565b6001805463ffffffff166000908152600260209081526040808320968352959052939093205492901b9182169091149392505050565b60408051602081018790526bffffffffffffffffffffffff19606087901b16918101919091526054810184905260009060740160405160208183030381529060405280519060200120905061057183838080602002602001604051908101604052809392919081815260200183836020028082843760009201829052505492508591506107409050565b6105c75760405162461bcd60e51b815260206004820152602160248201527f4d65726b6c654469737472696275746f723a20496e76616c69642070726f6f666044820152601760f91b606482015260840161024b565b6105d086610756565b60405163a9059cbb60e01b81526001600160a01b038681166004830152602482018690527f0000000000000000000000000000000000000000000000000000000000000000169063a9059cbb906044016020604051808303816000875af115801561063f573d6000803e3d6000fd5b505050506040513d601f19601f8201168201806040525081019061066391906109d9565b6106bb5760405162461bcd60e51b815260206004820152602360248201527f4d65726b6c654469737472696275746f723a205472616e73666572206661696c60448201526232b21760e91b606482015260840161024b565b6001600160a01b038516600090815260036020526040812080548692906106e39084906109fb565b9091555050600154604080518881526020810187905263ffffffff909216916001600160a01b038816917fb94bf7f9302edf52a596286915a69b4b0685574cffdedd0712e3c62f2550f0ba910160405180910390a3505050505050565b60008261074d85846107a9565b14949350505050565b6000610764610100836109b1565b90506000610774610100846109c5565b6001805463ffffffff1660009081526002602090815260408083209683529590529390932080549390911b9092179091555050565b600081815b84518110156107ee576107da828683815181106107cd576107cd610a0e565b60200260200101516107f8565b9150806107e681610a24565b9150506107ae565b5090505b92915050565b6000818310610814576000828152602084905260409020610823565b60008381526020839052604090205b9392505050565b80356001600160a01b038116811461084157600080fd5b919050565b60008060008060006080868803121561085e57600080fd5b8535945061086e6020870161082a565b935060408601359250606086013567ffffffffffffffff8082111561089257600080fd5b818801915088601f8301126108a657600080fd5b8135818111156108b557600080fd5b8960208260051b85010111156108ca57600080fd5b9699959850939650602001949392505050565b6000602082840312156108ef57600080fd5b5035919050565b60006020828403121561090857600080fd5b6108238261082a565b60208082526030908201527f4d65726b6c654469737472696275746f723a204f6e6c79206f776e657220636160408201526f37103237903a3434b99030b1ba34b7b760811b606082015260800190565b634e487b7160e01b600052601160045260246000fd5b63ffffffff81811683821601908082111561099457610994610961565b5092915050565b634e487b7160e01b600052601260045260246000fd5b6000826109c0576109c061099b565b500490565b6000826109d4576109d461099b565b500690565b6000602082840312156109eb57600080fd5b8151801515811461082357600080fd5b808201808211156107f2576107f2610961565b634e487b7160e01b600052603260045260246000fd5b600060018201610a3657610a36610961565b506001019056fea26469706673582212204cc59fed887e837b8f8f1e39173a7a44cfaab4293e5b719dd6a01125baf26a4864736f6c63430008120033",
  "immutableReferences": {
    "7019": [
      {
        "length": 32,
        "start": 451
      },
      {
        "length": 32,
        "start": 1526
      }
    ],
    "7021": [
      {
        "length": 32,
        "start": 337
      },
      {
        "length": 32,
        "start": 725
      },
      {
        "length": 32,
        "start": 998
      },
      {
        "length": 32,
        "start": 1093
      }
    ]
  },
  "source": "// SPDX-License-Identifier: UNLICENSED\npragma solidity ^0.8.18;\n\nimport \"@openzeppelin/contracts/token/ERC20/IERC20.sol\";\nimport \"@openzeppelin/contracts/utils/cryptography/MerkleProof.sol\";\nimport \"@openzeppelin/contracts/utils/cryptography/ECDSA.sol\";\n\ncontract MerkleDistributor {\n    address public immutable token;\n    address public immutable owner;\n    bytes32 public merkleRoot;\n    uint32 public week;\n    bool public frozen;\n\n    // This is a packed array of booleans.\n    mapping(uint256 => mapping(uint256 => uint256)) private claimedBitMap;\n\n\t  // Total claimed for receiver addresses. for informational purposes only\n    mapping(address => uint256) public totalClaimed;\n\n    // This event is triggered whenever a call to #claim succeeds.\n    event Claimed(uint256 index, uint256 amount, address indexed tokenReceiver, uint256 indexed week);\n\n    // This event is triggered whenever the merkle root gets updated.\n    event MerkleRootUpdated(bytes32 indexed merkleRoot, uint32 indexed week);\n\n    modifier onlyOwner() {\n        require(msg.sender == owner, \"MerkleDistributor: Only owner can do this action\");\n        _;\n    }\n\n    constructor(address token_,address owner_, bytes32 merkleRoot_) public {\n        require(token_ != address(0), \"MerkleDistributor: invalid token\");\n        token = token_;\n        owner = owner_;\n        merkleRoot = merkleRoot_;\n        week = 0;\n        frozen = false;\n    }\n\n    function claim(uint256 index, address account, uint256 amount, bytes32[] calldata merkleProof) external {\n        require(!frozen, \"MerkleDistributor: Claiming is frozen.\");\n        require(!isClaimed(index), \"MerkleDistributor: already claimed.\");\n\n        _claim(index, account, amount, merkleProof);\n    }\n\n    function isClaimed(uint256 index) public view returns (bool) {\n        uint256 claimedWordIndex = index / 256;\n        uint256 claimedBitIndex = index % 256;\n        uint256 claimedWord = claimedBitMap[week][claimedWordIndex];\n        uint256 mask = (1 << claimedBitIndex);\n        return claimedWord & mask == mask;\n    }\n\n    function freeze() public onlyOwner {\n        frozen = true;\n    }\n\n    function unfreeze() public onlyOwner {\n        frozen = false;\n    }\n\n    function updateMerkleRoot(bytes32 _merkleRoot) public onlyOwner {\n        require(frozen, \"MerkleDistributor: Contract not frozen.\");\n\n        // Increment the week (simulates the clearing of the claimedBitMap)\n        week = week + 1;\n        // Set the new merkle root\n        merkleRoot = _merkleRoot;\n\n        emit MerkleRootUpdated(merkleRoot, week);\n    }\n\n    function _claim(uint256 index, address tokenReceiver, uint256 amount, bytes32[] calldata merkleProof) internal {\n        // Verify the merkle proof.\n        bytes32 node = keccak256(abi.encodePacked(index, tokenReceiver, amount));\n        require(MerkleProof.verify(merkleProof, merkleRoot, node), \"MerkleDistributor: Invalid proof.\");\n\n        // Mark it claimed and send the token.\n        _setClaimed(index);\n        require(IERC20(token).transfer(tokenReceiver, amount), \"MerkleDistributor: Transfer failed.\");\n\n\t\t    totalClaimed[tokenReceiver] += amount;\n\n        emit Claimed(index, amount, tokenReceiver, week);\n    }\n\n    function _setClaimed(uint256 index) private {\n        uint256 claimedWordIndex = index / 256;\n        uint256 claimedBitIndex = index % 256;\n        claimedBitMap[week][claimedWordIndex] = claimedBitMap[week][claimedWordIndex] | (1 << claimedBitIndex);\n    }\n}",
  "sourcePath": "/Users/andregoncalves/sideprojects/polkamarkets/polkamarkets-js/contracts/MerkleDistributor.sol",
  "compiler": {
    "name": "solc",
    "version": "0.8.18+commit.87f61d96.Emscripten.clang"
  },
  "schemaVersion": "3.4.10",
  "updatedAt": "2023-09-05T16:44:53.536Z",
  "networkType": "ethereum",
  "devdoc": {
    "kind": "dev",
    "methods": {},
    "version": 1
  },
  "userdoc": {
    "kind": "user",
    "methods": {},
    "version": 1
  }
}