{
  "contractName": "MyriadRaffle",
  "abi": [
    {
      "inputs": [
        {
          "internalType": "uint256",
          "name": "subscriptionId",
          "type": "uint256"
        }
      ],
      "stateMutability": "nonpayable",
      "type": "constructor"
    },
    {
      "inputs": [
        {
          "internalType": "address",
          "name": "have",
          "type": "address"
        },
        {
          "internalType": "address",
          "name": "want",
          "type": "address"
        }
      ],
      "name": "OnlyCoordinatorCanFulfill",
      "type": "error"
    },
    {
      "inputs": [
        {
          "internalType": "address",
          "name": "have",
          "type": "address"
        },
        {
          "internalType": "address",
          "name": "owner",
          "type": "address"
        },
        {
          "internalType": "address",
          "name": "coordinator",
          "type": "address"
        }
      ],
      "name": "OnlyOwnerOrCoordinator",
      "type": "error"
    },
    {
      "inputs": [],
      "name": "ZeroAddress",
      "type": "error"
    },
    {
      "anonymous": false,
      "inputs": [
        {
          "indexed": false,
          "internalType": "address",
          "name": "vrfCoordinator",
          "type": "address"
        }
      ],
      "name": "CoordinatorSet",
      "type": "event"
    },
    {
      "anonymous": false,
      "inputs": [
        {
          "indexed": true,
          "internalType": "address",
          "name": "from",
          "type": "address"
        },
        {
          "indexed": true,
          "internalType": "address",
          "name": "to",
          "type": "address"
        }
      ],
      "name": "OwnershipTransferRequested",
      "type": "event"
    },
    {
      "anonymous": false,
      "inputs": [
        {
          "indexed": true,
          "internalType": "address",
          "name": "from",
          "type": "address"
        },
        {
          "indexed": true,
          "internalType": "address",
          "name": "to",
          "type": "address"
        }
      ],
      "name": "OwnershipTransferred",
      "type": "event"
    },
    {
      "anonymous": false,
      "inputs": [
        {
          "indexed": false,
          "internalType": "uint256",
          "name": "requestId",
          "type": "uint256"
        },
        {
          "indexed": false,
          "internalType": "uint256[]",
          "name": "randomWords",
          "type": "uint256[]"
        }
      ],
      "name": "RequestFulfilled",
      "type": "event"
    },
    {
      "anonymous": false,
      "inputs": [
        {
          "indexed": false,
          "internalType": "uint256",
          "name": "requestId",
          "type": "uint256"
        },
        {
          "indexed": false,
          "internalType": "uint32",
          "name": "numWords",
          "type": "uint32"
        }
      ],
      "name": "RequestSent",
      "type": "event"
    },
    {
      "inputs": [
        {
          "internalType": "uint256",
          "name": "",
          "type": "uint256"
        }
      ],
      "name": "_raffles",
      "outputs": [
        {
          "internalType": "bool",
          "name": "exists",
          "type": "bool"
        },
        {
          "internalType": "bool",
          "name": "fulfilled",
          "type": "bool"
        },
        {
          "internalType": "bool",
          "name": "winnersSelected",
          "type": "bool"
        },
        {
          "internalType": "string",
          "name": "ipfsHash",
          "type": "string"
        },
        {
          "internalType": "string",
          "name": "contestName",
          "type": "string"
        },
        {
          "internalType": "uint256",
          "name": "numEntries",
          "type": "uint256"
        },
        {
          "internalType": "uint256",
          "name": "numWinners",
          "type": "uint256"
        }
      ],
      "stateMutability": "view",
      "type": "function",
      "constant": true
    },
    {
      "inputs": [],
      "name": "acceptOwnership",
      "outputs": [],
      "stateMutability": "nonpayable",
      "type": "function"
    },
    {
      "inputs": [],
      "name": "lastRequestId",
      "outputs": [
        {
          "internalType": "uint256",
          "name": "",
          "type": "uint256"
        }
      ],
      "stateMutability": "view",
      "type": "function",
      "constant": true
    },
    {
      "inputs": [],
      "name": "owner",
      "outputs": [
        {
          "internalType": "address",
          "name": "",
          "type": "address"
        }
      ],
      "stateMutability": "view",
      "type": "function",
      "constant": true
    },
    {
      "inputs": [
        {
          "internalType": "uint256",
          "name": "requestId",
          "type": "uint256"
        },
        {
          "internalType": "uint256[]",
          "name": "randomWords",
          "type": "uint256[]"
        }
      ],
      "name": "rawFulfillRandomWords",
      "outputs": [],
      "stateMutability": "nonpayable",
      "type": "function"
    },
    {
      "inputs": [
        {
          "internalType": "uint256",
          "name": "",
          "type": "uint256"
        }
      ],
      "name": "requestIds",
      "outputs": [
        {
          "internalType": "uint256",
          "name": "",
          "type": "uint256"
        }
      ],
      "stateMutability": "view",
      "type": "function",
      "constant": true
    },
    {
      "inputs": [],
      "name": "s_vrfCoordinator",
      "outputs": [
        {
          "internalType": "contract IVRFCoordinatorV2Plus",
          "name": "",
          "type": "address"
        }
      ],
      "stateMutability": "view",
      "type": "function",
      "constant": true
    },
    {
      "inputs": [
        {
          "internalType": "address",
          "name": "_vrfCoordinator",
          "type": "address"
        }
      ],
      "name": "setCoordinator",
      "outputs": [],
      "stateMutability": "nonpayable",
      "type": "function"
    },
    {
      "inputs": [
        {
          "internalType": "address",
          "name": "to",
          "type": "address"
        }
      ],
      "name": "transferOwnership",
      "outputs": [],
      "stateMutability": "nonpayable",
      "type": "function"
    },
    {
      "inputs": [
        {
          "internalType": "string",
          "name": "ipfsHash",
          "type": "string"
        },
        {
          "internalType": "string",
          "name": "contestName",
          "type": "string"
        },
        {
          "internalType": "uint256",
          "name": "numEntries",
          "type": "uint256"
        },
        {
          "internalType": "uint256",
          "name": "numWinners",
          "type": "uint256"
        }
      ],
      "name": "startRaffle",
      "outputs": [],
      "stateMutability": "nonpayable",
      "type": "function"
    },
    {
      "inputs": [
        {
          "internalType": "uint256",
          "name": "requestId",
          "type": "uint256"
        }
      ],
      "name": "selectWinners",
      "outputs": [],
      "stateMutability": "nonpayable",
      "type": "function"
    },
    {
      "inputs": [
        {
          "internalType": "uint256",
          "name": "requestId",
          "type": "uint256"
        }
      ],
      "name": "getRaffle",
      "outputs": [
        {
          "internalType": "uint256[]",
          "name": "randomWords",
          "type": "uint256[]"
        },
        {
          "internalType": "bool",
          "name": "fulfilled",
          "type": "bool"
        },
        {
          "internalType": "bool",
          "name": "winnersSelected",
          "type": "bool"
        },
        {
          "internalType": "string",
          "name": "ipfsHash",
          "type": "string"
        },
        {
          "internalType": "string",
          "name": "contestName",
          "type": "string"
        },
        {
          "internalType": "uint256",
          "name": "numEntries",
          "type": "uint256"
        },
        {
          "internalType": "uint256",
          "name": "numWinners",
          "type": "uint256"
        },
        {
          "internalType": "uint256[]",
          "name": "winners",
          "type": "uint256[]"
        }
      ],
      "stateMutability": "view",
      "type": "function",
      "constant": true
    }
  ],
  "bytecode": "0x6080604052600580546001600160a01b031916733c0ca683b403e37668ae3dc4fb62f4b29b6f7a3e1790557f8472ba59cf7134dfe321f4d61a430c4857e8b19cdd5230b09952a92671c244096006556007805466010003000186a06001600160501b03199091161790553480156200007657600080fd5b50604051620016c6380380620016c683398101604081905262000099916200022e565b6005546001600160a01b03163380600081620000fc5760405162461bcd60e51b815260206004820152601860248201527f43616e6e6f7420736574206f776e657220746f207a65726f000000000000000060448201526064015b60405180910390fd5b600080546001600160a01b0319166001600160a01b03848116919091179091558116156200012f576200012f8162000183565b5050506001600160a01b0381166200015a5760405163d92e233d60e01b815260040160405180910390fd5b600280546001600160a01b0319166001600160a01b039290921691909117905560045562000248565b336001600160a01b03821603620001dd5760405162461bcd60e51b815260206004820152601760248201527f43616e6e6f74207472616e7366657220746f2073656c660000000000000000006044820152606401620000f3565b600180546001600160a01b0319166001600160a01b0383811691821790925560008054604051929316917fed8889f560326eb138920d842192f0eb3dd22b4f139c87a2c57538e05bae12789190a350565b6000602082840312156200024157600080fd5b5051919050565b61146e80620002586000396000f3fe608060405234801561001057600080fd5b50600436106100b45760003560e01c80638ea98117116100715780638ea981171461015e5780639eccacf614610171578063b115164a14610184578063e4dafec914610197578063f2fde38b146101be578063fc2a88c3146101d157600080fd5b80631fe543e3146100b957806339a2eb2a146100ce578063433959f7146100e157806379ba5097146101105780638796ba8c146101185780638da5cb5b14610139575b600080fd5b6100cc6100c7366004610e32565b6101da565b005b6100cc6100dc366004610eb1565b61022f565b6100f46100ef366004610eb1565b6103c4565b6040516101079796959493929190610f10565b60405180910390f35b6100cc61051d565b61012b610126366004610eb1565b6105c7565b604051908152602001610107565b6000546001600160a01b03165b6040516001600160a01b039091168152602001610107565b6100cc61016c366004610f64565b6105e8565b600254610146906001600160a01b031681565b6100cc610192366004611037565b6106da565b6101aa6101a5366004610eb1565b6108e3565b6040516101079897969594939291906110e6565b6100cc6101cc366004610f64565b610b54565b61012b60085481565b6002546001600160a01b0316331461021f5760025460405163073e64fd60e21b81523360048201526001600160a01b0390911660248201526044015b60405180910390fd5b61022a838383610b68565b505050565b610237610c28565b6000818152600360205260408120600581015460049091015490918267ffffffffffffffff81111561026b5761026b610f94565b604051908082528060200260200182016040528015610294578160200160208202803683370190505b506000858152600360205260408120919250600790910190805b85811015610376576000878152600360209081526040808320905188926102d89291879101611161565b6040516020818303038152906040528051906020012060001c6102fb91906111b1565b6103069060016111e9565b60008181526020869052604090205490915060ff16610365578085838151811061033257610332611202565b60209081029190910181019190915260008281529085905260409020805460ff1916600117905561036282611218565b91505b61036e83611218565b9250506102ae565b6000878152600360209081526040909120855161039b92600690920191870190610d97565b505050600094855250506003602052505060409020600101805462ff0000191662010000179055565b6003602052600090815260409020600181015460028201805460ff80841694610100850482169462010000900490911692909161040090611231565b80601f016020809104026020016040519081016040528092919081815260200182805461042c90611231565b80156104795780601f1061044e57610100808354040283529160200191610479565b820191906000526020600020905b81548152906001019060200180831161045c57829003601f168201915b50505050509080600301805461048e90611231565b80601f01602080910402602001604051908101604052809291908181526020018280546104ba90611231565b80156105075780601f106104dc57610100808354040283529160200191610507565b820191906000526020600020905b8154815290600101906020018083116104ea57829003601f168201915b5050505050908060040154908060050154905087565b6001546001600160a01b031633146105705760405162461bcd60e51b815260206004820152601660248201527526bab9ba10313290383937b837b9b2b21037bbb732b960511b6044820152606401610216565b60008054336001600160a01b0319808316821784556001805490911690556040516001600160a01b0390921692909183917f8be0079c531659141344cd1fd0a4f28419497f9722a3daafe3b4186f6b6457e091a350565b600981815481106105d757600080fd5b600091825260209091200154905081565b6000546001600160a01b0316331480159061060e57506002546001600160a01b03163314155b1561065f57336106266000546001600160a01b031690565b60025460405163061db9c160e01b81526001600160a01b0393841660048201529183166024830152919091166044820152606401610216565b6001600160a01b0381166106865760405163d92e233d60e01b815260040160405180910390fd5b600280546001600160a01b0319166001600160a01b0383169081179091556040519081527fd1a6a14209a385a964d036e404cb5cfb71f4000cdb03c9366292430787261be69060200160405180910390a150565b6106e2610c28565b8181106107315760405162461bcd60e51b815260206004820152601960248201527f6d6f72652077696e6e657273207468616e20656e7472696573000000000000006044820152606401610216565b6002546040805160c081018252600654815260045460208083019190915260075461ffff6401000000008204168385015263ffffffff808216606085015266010000000000009091041660808301528251908101909252600082526001600160a01b0390921691639b1c385e9160a08201906107ac90610c7d565b8152506040518263ffffffff1660e01b81526004016107cb919061126b565b6020604051808303816000875af11580156107ea573d6000803e3d6000fd5b505050506040513d601f19601f8201168201806040525081019061080e91906112d0565b60088190556009805460018181019092557f6e1540171b6c0c960b71a7020d9f60077f6af931a8bbf590da0223dacf75c7af01829055600091825260036020526040909120808201805460ff1916909217909155600281016108708682611337565b506003810161087f8582611337565b50600481018390556005810182905560085460075460408051928352660100000000000090910463ffffffff1660208301527fcc58b13ad3eab50626c6a6300b1d139cd6ebb1688a7cced9461c2f7e762665ee910160405180910390a15050505050565b60008181526003602052604081206001810154606092918291849182918491829184919060ff166109495760405162461bcd60e51b815260206004820152601060248201526f1c9859999b19481b9bdd08199bdd5b9960821b6044820152606401610216565b600181015460048201546005830154835460408051602080840282018101909252828152869560ff6101008204811696620100009092041694600288019460038901949293919260068a0192918a918301828280156109c757602002820191906000526020600020905b8154815260200190600101908083116109b3575b505050505097508480546109da90611231565b80601f0160208091040260200160405190810160405280929190818152602001828054610a0690611231565b8015610a535780601f10610a2857610100808354040283529160200191610a53565b820191906000526020600020905b815481529060010190602001808311610a3657829003601f168201915b50505050509450838054610a6690611231565b80601f0160208091040260200160405190810160405280929190818152602001828054610a9290611231565b8015610adf5780601f10610ab457610100808354040283529160200191610adf565b820191906000526020600020905b815481529060010190602001808311610ac257829003601f168201915b5050505050935080805480602002602001604051908101604052809291908181526020018280548015610b3157602002820191906000526020600020905b815481526020019060010190808311610b1d575b505050505090509850985098509850985098509850985050919395975091939597565b610b5c610c28565b610b6581610cee565b50565b60008381526003602052604090206001015460ff16610bbd5760405162461bcd60e51b81526020600482015260116024820152701c995c5d595cdd081b9bdd08199bdd5b99607a1b6044820152606401610216565b600083815260036020526040902060018101805461ff001916610100179055610be7908383610de2565b507ffe2e2d779dba245964d4e3ef9b994be63856fd568bf7d3ca9e224755cb1bd54d838383604051610c1b939291906113f7565b60405180910390a1505050565b6000546001600160a01b03163314610c7b5760405162461bcd60e51b815260206004820152601660248201527527b7363c9031b0b63630b1363290313c9037bbb732b960511b6044820152606401610216565b565b60607f92fd13387c7fe7befbc38d303d6468778fb9731bc4583f17d92989c6fcfdeaaa82604051602401610cb691511515815260200190565b60408051601f198184030181529190526020810180516001600160e01b03166001600160e01b03199093169290921790915292915050565b336001600160a01b03821603610d465760405162461bcd60e51b815260206004820152601760248201527f43616e6e6f74207472616e7366657220746f2073656c660000000000000000006044820152606401610216565b600180546001600160a01b0319166001600160a01b0383811691821790925560008054604051929316917fed8889f560326eb138920d842192f0eb3dd22b4f139c87a2c57538e05bae12789190a350565b828054828255906000526020600020908101928215610dd2579160200282015b82811115610dd2578251825591602001919060010190610db7565b50610dde929150610e1d565b5090565b828054828255906000526020600020908101928215610dd2579160200282015b82811115610dd2578235825591602001919060010190610e02565b5b80821115610dde5760008155600101610e1e565b600080600060408486031215610e4757600080fd5b83359250602084013567ffffffffffffffff80821115610e6657600080fd5b818601915086601f830112610e7a57600080fd5b813581811115610e8957600080fd5b8760208260051b8501011115610e9e57600080fd5b6020830194508093505050509250925092565b600060208284031215610ec357600080fd5b5035919050565b6000815180845260005b81811015610ef057602081850181015186830182015201610ed4565b506000602082860101526020601f19601f83011685010191505092915050565b87151581528615156020820152851515604082015260e060608201526000610f3b60e0830187610eca565b8281036080840152610f4d8187610eca565b60a0840195909552505060c0015295945050505050565b600060208284031215610f7657600080fd5b81356001600160a01b0381168114610f8d57600080fd5b9392505050565b634e487b7160e01b600052604160045260246000fd5b600082601f830112610fbb57600080fd5b813567ffffffffffffffff80821115610fd657610fd6610f94565b604051601f8301601f19908116603f01168101908282118183101715610ffe57610ffe610f94565b8160405283815286602085880101111561101757600080fd5b836020870160208301376000602085830101528094505050505092915050565b6000806000806080858703121561104d57600080fd5b843567ffffffffffffffff8082111561106557600080fd5b61107188838901610faa565b9550602087013591508082111561108757600080fd5b5061109487828801610faa565b949794965050505060408301359260600135919050565b600081518084526020808501945080840160005b838110156110db578151875295820195908201906001016110bf565b509495945050505050565b60006101008083526110fa8184018c6110ab565b905089151560208401528815156040840152828103606084015261111e8189610eca565b905082810360808401526111328188610eca565b90508560a08401528460c084015282810360e084015261115281856110ab565b9b9a5050505050505050505050565b6000604082016040835280855480835260608501915086600052602092508260002060005b828110156111a257815484529284019260019182019101611186565b50505092019290925292915050565b6000826111ce57634e487b7160e01b600052601260045260246000fd5b500690565b634e487b7160e01b600052601160045260246000fd5b808201808211156111fc576111fc6111d3565b92915050565b634e487b7160e01b600052603260045260246000fd5b60006001820161122a5761122a6111d3565b5060010190565b600181811c9082168061124557607f821691505b60208210810361126557634e487b7160e01b600052602260045260246000fd5b50919050565b60208152815160208201526020820151604082015261ffff60408301511660608201526000606083015163ffffffff80821660808501528060808601511660a0850152505060a083015160c0808401526112c860e0840182610eca565b949350505050565b6000602082840312156112e257600080fd5b5051919050565b601f82111561022a57600081815260208120601f850160051c810160208610156113105750805b601f850160051c820191505b8181101561132f5782815560010161131c565b505050505050565b815167ffffffffffffffff81111561135157611351610f94565b6113658161135f8454611231565b846112e9565b602080601f83116001811461139a57600084156113825750858301515b600019600386901b1c1916600185901b17855561132f565b600085815260208120601f198616915b828110156113c9578886015182559484019460019091019084016113aa565b50858210156113e75787850151600019600388901b60f8161c191681555b5050505050600190811b01905550565b838152604060208201819052810182905260006001600160fb1b0383111561141e57600080fd5b8260051b808560608501379190910160600194935050505056fea26469706673582212209c2ac885a802ab95757b422134ad7bec49a54d632782e05f28848ecb515d301764736f6c63430008120033",
  "immutableReferences": {},
  "source": "// SPDX-License-Identifier: MIT\npragma solidity ^0.8.7;\n\nimport \"@chainlink/contracts/src/v0.8/vrf/dev/VRFConsumerBaseV2Plus.sol\";\nimport \"@chainlink/contracts/src/v0.8/vrf/dev/libraries/VRFV2PlusClient.sol\";\n\n\ncontract MyriadRaffle is VRFConsumerBaseV2Plus {\n    event RequestSent(uint256 requestId, uint32 numWords);\n    event RequestFulfilled(uint256 requestId, uint256[] randomWords);\n\n    struct RaffleStatus {\n        uint256[] randomWords;\n        bool exists;\n        bool fulfilled;\n        bool winnersSelected;\n        string ipfsHash;\n        string contestName;\n        uint256 numEntries;\n        uint256 numWinners;\n        uint256[] winners;\n        mapping(uint256 => bool) winnersMap;\n    }\n    mapping(uint256 => RaffleStatus) public _raffles; /* requestId --> RaffleStatus */\n\n    uint256 _subscriptionId;\n    address _vrfCoordinator = 0x3C0Ca683b403E37668AE3DC4FB62F4B29B6f7a3e;\n    bytes32 _keyHash =\n        0x8472ba59cf7134dfe321f4d61a430c4857e8b19cdd5230b09952a92671c24409;\n    uint32 _callbackGasLimit = 100000;\n    uint16 _requestConfirmations = 3;\n    uint32 _numWords = 1;\n\n    uint256 public lastRequestId;\n    uint256[] public requestIds;\n\n    constructor(\n        uint256 subscriptionId\n    ) VRFConsumerBaseV2Plus(_vrfCoordinator) {\n        _subscriptionId = subscriptionId;\n    }\n\n    function startRaffle(\n        string memory ipfsHash,\n        string memory contestName,\n        uint256 numEntries,\n        uint256 numWinners\n    ) external onlyOwner {\n        require(numWinners < numEntries, \"more winners than entries\");\n\n        lastRequestId = s_vrfCoordinator.requestRandomWords(\n            VRFV2PlusClient.RandomWordsRequest({\n                keyHash: _keyHash,\n                subId: _subscriptionId,\n                requestConfirmations: _requestConfirmations,\n                callbackGasLimit: _callbackGasLimit,\n                numWords: _numWords,\n                extraArgs: VRFV2PlusClient._argsToBytes(\n                    VRFV2PlusClient.ExtraArgsV1({nativePayment: false})\n                )\n            })\n        );\n        requestIds.push(lastRequestId);\n\n        RaffleStatus storage r = _raffles[lastRequestId];\n        r.exists = true;\n        r.ipfsHash = ipfsHash;\n        r.contestName = contestName;\n        r.numEntries = numEntries;\n        r.numWinners = numWinners;\n\n        emit RequestSent(lastRequestId, _numWords);\n    }\n\n    function fulfillRandomWords(\n        uint256 requestId,\n        uint256[] calldata randomWords\n    ) internal override {\n        require(_raffles[requestId].exists, \"request not found\");\n\n        _raffles[requestId].fulfilled = true;\n        _raffles[requestId].randomWords = randomWords;\n\n        emit RequestFulfilled(requestId, randomWords);\n    }\n\n    function selectWinners(uint256 requestId) external onlyOwner {\n        uint256 numWinners = _raffles[requestId].numWinners;\n        uint256 numEntries = _raffles[requestId].numEntries;\n\n        uint256[] memory winners = new uint256[](numWinners);\n        mapping(uint256 => bool) storage winnersMap = _raffles[requestId].winnersMap;\n\n        uint256 i = 0;\n        uint256 iWinners = 0;\n        while (iWinners < numWinners) {\n            uint256 winner = (uint256(keccak256(abi.encode(_raffles[requestId].randomWords, i))) % numEntries) + 1;\n            if (!winnersMap[winner]) {\n                winners[iWinners] = winner;\n                winnersMap[winner] = true;\n                ++iWinners;\n            }\n            ++i;\n        }\n\n        _raffles[requestId].winners = winners;\n        _raffles[requestId].winnersSelected = true;\n    }\n\n    function getRaffle(\n        uint256 requestId\n    )\n        external\n        view\n        returns (\n            uint256[] memory randomWords,\n            bool fulfilled,\n            bool winnersSelected,\n            string memory ipfsHash,\n            string memory contestName,\n            uint256 numEntries,\n            uint256 numWinners,\n            uint256[] memory winners\n        )\n    {\n        RaffleStatus storage raffle = _raffles[requestId];\n\n        require(raffle.exists, \"raffle not found\");\n        return (\n            raffle.randomWords,\n            raffle.fulfilled,\n            raffle.winnersSelected,\n            raffle.ipfsHash,\n            raffle.contestName,\n            raffle.numEntries,\n            raffle.numWinners,\n            raffle.winners\n        );\n    }\n}\n",
  "sourcePath": "/Users/ricardomarques/dev/workspace/polkamarkets/bepro-js/contracts/MyriadRaffle.sol",
  "compiler": {
    "name": "solc",
    "version": "0.8.18+commit.87f61d96.Emscripten.clang"
  },
  "schemaVersion": "3.3.4",
  "updatedAt": "2025-01-11T17:52:39.718Z",
  "networkType": "ethereum",
  "devdoc": {
    "kind": "dev",
    "methods": {},
    "version": 1
  },
  "userdoc": {
    "kind": "user",
    "methods": {
      "acceptOwnership()": {
        "notice": "Allows an ownership transfer to be completed by the recipient."
      },
      "owner()": {
        "notice": "Get the current owner"
      },
      "setCoordinator(address)": {
        "notice": "Sets the VRF Coordinator addressThis method should only be callable by the coordinator or contract owner"
      },
      "transferOwnership(address)": {
        "notice": "Allows an owner to begin transferring ownership to a new address."
      }
    },
    "version": 1
  }
}