{
  "contractName": "PredictionMarketResolver",
  "abi": [
    {
      "anonymous": false,
      "inputs": [
        {
          "indexed": true,
          "internalType": "address",
          "name": "user",
          "type": "address"
        },
        {
          "indexed": true,
          "internalType": "uint256",
          "name": "marketId",
          "type": "uint256"
        },
        {
          "indexed": false,
          "internalType": "uint256",
          "name": "outcomeId",
          "type": "uint256"
        },
        {
          "indexed": false,
          "internalType": "uint256",
          "name": "shares",
          "type": "uint256"
        },
        {
          "indexed": false,
          "internalType": "uint256",
          "name": "timestamp",
          "type": "uint256"
        }
      ],
      "name": "MarketClaimed",
      "type": "event"
    },
    {
      "anonymous": false,
      "inputs": [
        {
          "indexed": true,
          "internalType": "address",
          "name": "user",
          "type": "address"
        },
        {
          "indexed": true,
          "internalType": "uint256",
          "name": "marketId",
          "type": "uint256"
        },
        {
          "indexed": false,
          "internalType": "uint256",
          "name": "outcomeId",
          "type": "uint256"
        },
        {
          "indexed": false,
          "internalType": "uint256",
          "name": "timestamp",
          "type": "uint256"
        }
      ],
      "name": "MarketResolved",
      "type": "event"
    },
    {
      "anonymous": false,
      "inputs": [
        {
          "indexed": true,
          "internalType": "address",
          "name": "previousOwner",
          "type": "address"
        },
        {
          "indexed": true,
          "internalType": "address",
          "name": "newOwner",
          "type": "address"
        }
      ],
      "name": "OwnershipTransferred",
      "type": "event"
    },
    {
      "inputs": [
        {
          "internalType": "uint256",
          "name": "",
          "type": "uint256"
        },
        {
          "internalType": "address",
          "name": "",
          "type": "address"
        }
      ],
      "name": "claims",
      "outputs": [
        {
          "internalType": "bool",
          "name": "",
          "type": "bool"
        }
      ],
      "stateMutability": "view",
      "type": "function"
    },
    {
      "inputs": [],
      "name": "owner",
      "outputs": [
        {
          "internalType": "address",
          "name": "",
          "type": "address"
        }
      ],
      "stateMutability": "view",
      "type": "function"
    },
    {
      "inputs": [],
      "name": "predictionMarket",
      "outputs": [
        {
          "internalType": "contract PredictionMarketV2",
          "name": "",
          "type": "address"
        }
      ],
      "stateMutability": "view",
      "type": "function"
    },
    {
      "inputs": [],
      "name": "renounceOwnership",
      "outputs": [],
      "stateMutability": "nonpayable",
      "type": "function"
    },
    {
      "inputs": [],
      "name": "token",
      "outputs": [
        {
          "internalType": "contract FantasyERC20",
          "name": "",
          "type": "address"
        }
      ],
      "stateMutability": "view",
      "type": "function"
    },
    {
      "inputs": [
        {
          "internalType": "address",
          "name": "newOwner",
          "type": "address"
        }
      ],
      "name": "transferOwnership",
      "outputs": [],
      "stateMutability": "nonpayable",
      "type": "function"
    },
    {
      "inputs": [
        {
          "internalType": "contract FantasyERC20",
          "name": "_token",
          "type": "address"
        }
      ],
      "name": "setToken",
      "outputs": [],
      "stateMutability": "nonpayable",
      "type": "function"
    },
    {
      "inputs": [
        {
          "internalType": "contract PredictionMarketV2",
          "name": "_predictionMarket",
          "type": "address"
        }
      ],
      "name": "setPredictionMarket",
      "outputs": [],
      "stateMutability": "nonpayable",
      "type": "function"
    },
    {
      "inputs": [
        {
          "internalType": "uint256",
          "name": "marketId",
          "type": "uint256"
        },
        {
          "internalType": "uint256",
          "name": "outcomeId",
          "type": "uint256"
        }
      ],
      "name": "resolveMarket",
      "outputs": [],
      "stateMutability": "nonpayable",
      "type": "function"
    },
    {
      "inputs": [
        {
          "internalType": "uint256",
          "name": "marketId",
          "type": "uint256"
        }
      ],
      "name": "getMarketResolution",
      "outputs": [
        {
          "components": [
            {
              "internalType": "bool",
              "name": "resolved",
              "type": "bool"
            },
            {
              "internalType": "uint256",
              "name": "outcomeId",
              "type": "uint256"
            }
          ],
          "internalType": "struct PredictionMarketResolver.MarketResolution",
          "name": "",
          "type": "tuple"
        }
      ],
      "stateMutability": "view",
      "type": "function"
    },
    {
      "inputs": [
        {
          "internalType": "uint256",
          "name": "marketId",
          "type": "uint256"
        },
        {
          "internalType": "address",
          "name": "user",
          "type": "address"
        }
      ],
      "name": "hasUserClaimedMarket",
      "outputs": [
        {
          "internalType": "bool",
          "name": "",
          "type": "bool"
        }
      ],
      "stateMutability": "view",
      "type": "function"
    },
    {
      "inputs": [
        {
          "internalType": "uint256",
          "name": "marketId",
          "type": "uint256"
        },
        {
          "internalType": "address",
          "name": "user",
          "type": "address"
        }
      ],
      "name": "getUserMarketShares",
      "outputs": [
        {
          "internalType": "uint256[]",
          "name": "",
          "type": "uint256[]"
        }
      ],
      "stateMutability": "view",
      "type": "function"
    },
    {
      "inputs": [
        {
          "internalType": "uint256",
          "name": "marketId",
          "type": "uint256"
        },
        {
          "internalType": "address",
          "name": "user",
          "type": "address"
        }
      ],
      "name": "claim",
      "outputs": [],
      "stateMutability": "nonpayable",
      "type": "function"
    },
    {
      "inputs": [
        {
          "internalType": "uint256",
          "name": "marketId",
          "type": "uint256"
        },
        {
          "internalType": "address[]",
          "name": "users",
          "type": "address[]"
        }
      ],
      "name": "claimMultiple",
      "outputs": [],
      "stateMutability": "nonpayable",
      "type": "function"
    }
  ],
  "bytecode": "0x608060405260006100176001600160e01b0361006616565b600080546001600160a01b0319166001600160a01b0383169081178255604051929350917f8be0079c531659141344cd1fd0a4f28419497f9722a3daafe3b4186f6b6457e0908290a35061006a565b3390565b610c95806100796000396000f3fe608060405234801561001057600080fd5b50600436106100ba5760003560e01c806303b88ba2146100bf578063144fa6d7146100d45780631da4c66b146100e7578063232e45d71461011057806360557333146101305780636b3989ab14610143578063715018a6146101565780638da5cb5b1461015e578063b0f7981114610173578063b31eb89514610186578063ddd5e1b2146101a6578063def114b6146101b9578063f2fde38b146101c1578063fc0c546a146101d4575b600080fd5b6100d26100cd366004610864565b6101dc565b005b6100d26100e2366004610864565b610246565b6100fa6100f536600461089f565b6102a7565b6040516101079190610a7b565b60405180910390f35b61012361011e366004610887565b6102c7565b6040516101079190610b8e565b6100d261013e3660046109e9565b6102fe565b6100fa61015136600461089f565b6103b3565b6100d26103de565b610166610455565b6040516101079190610a0a565b6100d26101813660046108ce565b610464565b61019961019436600461089f565b6104a2565b6040516101079190610a37565b6100d26101b436600461089f565b610533565b61016661077d565b6100d26101cf366004610864565b61078c565b61016661083a565b6101e4610849565b6001600160a01b03166101f5610455565b6001600160a01b0316146102245760405162461bcd60e51b815260040161021b90610b59565b60405180910390fd5b600480546001600160a01b0319166001600160a01b0392909216919091179055565b61024e610849565b6001600160a01b031661025f610455565b6001600160a01b0316146102855760405162461bcd60e51b815260040161021b90610b59565b600380546001600160a01b0319166001600160a01b0392909216919091179055565b600160209081526000928352604080842090915290825290205460ff1681565b6102cf61084d565b506000908152600260209081526040918290208251808401909352805460ff1615158352600101549082015290565b610306610849565b6001600160a01b0316610317610455565b6001600160a01b03161461033d5760405162461bcd60e51b815260040161021b90610b59565b6040805180820182526001808252602080830185815260008781526002909252908490209251835460ff19169015151783555191015551829033907f67a6457c8912ae1b7a9fbdfa311cbd016ba606b548bf06bc80bc751072d91bbc906103a79085904290610bbe565b60405180910390a35050565b60009182526001602090815260408084206001600160a01b0393909316845291905290205460ff1690565b6103e6610849565b6001600160a01b03166103f7610455565b6001600160a01b03161461041d5760405162461bcd60e51b815260040161021b90610b59565b600080546040516001600160a01b0390911690600080516020610c40833981519152908390a3600080546001600160a01b0319169055565b6000546001600160a01b031690565b60005b8181101561049c576104948484848481811061047f57fe5b90506020020160206101b49190810190610864565b600101610467565b50505050565b6004805460405163b31eb89560e01b815260609283926001600160a01b03169163b31eb895916104d6918891889101610ba7565b60006040518083038186803b1580156104ee57600080fd5b505afa158015610502573d6000803e3d6000fd5b505050506040513d6000823e601f3d908101601f1916820160405261052a9190810190610944565b95945050505050565b600082815260026020526040902054829060ff166105635760405162461bcd60e51b815260040161021b90610b00565b60008381526001602090815260408083206001600160a01b038616845290915290205460ff16156105a65760405162461bcd60e51b815260040161021b90610b30565b600083815260026020526040908190206001015460048054925163b31eb89560e01b815291926060926001600160a01b039091169163b31eb895916105ef918991899101610ba7565b60006040518083038186803b15801561060757600080fd5b505afa15801561061b573d6000803e3d6000fd5b505050506040513d6000823e601f3d908101601f191682016040526106439190810190610944565b905080915050600081838151811061065757fe5b60200260200101511161067c5760405162461bcd60e51b815260040161021b90610a86565b60008581526001602081815260408084206001600160a01b03808a1686529252909220805460ff1916909117905560035482519116906340c10f199086908490869081106106c657fe5b60200260200101516040518363ffffffff1660e01b81526004016106eb929190610a1e565b600060405180830381600087803b15801561070557600080fd5b505af1158015610719573d6000803e3d6000fd5b5050505084846001600160a01b03167fffa277262170a67372fdf9cb03cc2abff423555adbb9d0d7d6d40f7138b031888484868151811061075657fe5b60200260200101514260405161076e93929190610bcc565b60405180910390a35050505050565b6004546001600160a01b031681565b610794610849565b6001600160a01b03166107a5610455565b6001600160a01b0316146107cb5760405162461bcd60e51b815260040161021b90610b59565b6001600160a01b0381166107f15760405162461bcd60e51b815260040161021b90610aba565b600080546040516001600160a01b0380851693921691600080516020610c4083398151915291a3600080546001600160a01b0319166001600160a01b0392909216919091179055565b6003546001600160a01b031681565b3390565b604080518082019091526000808252602082015290565b600060208284031215610875578081fd5b813561088081610c27565b9392505050565b600060208284031215610898578081fd5b5035919050565b600080604083850312156108b1578081fd5b8235915060208301356108c381610c27565b809150509250929050565b6000806000604084860312156108e2578081fd5b8335925060208401356001600160401b03808211156108ff578283fd5b81860187601f820112610910578384fd5b8035925081831115610920578384fd5b8760208085028301011115610933578384fd5b949760209095019650909450505050565b60008060408385031215610956578182fd5b8251602080850151919350906001600160401b03811115610975578283fd5b80850186601f820112610986578384fd5b8051915061099b61099683610c08565b610be2565b82815283810190828501858502840186018a10156109b7578687fd5b8693505b848410156109d95780518352600193909301929185019185016109bb565b5080955050505050509250929050565b600080604083850312156109fb578182fd5b50508035926020909101359150565b6001600160a01b0391909116815260200190565b6001600160a01b03929092168252602082015260400190565b6020808252825182820181905260009190848201906040850190845b81811015610a6f57835183529284019291840191600101610a53565b50909695505050505050565b901515815260200190565b6020808252601a90820152795573657220686173206e6f2077696e6e696e672073686172657360301b604082015260600190565b60208082526026908201527f4f776e61626c653a206e6577206f776e657220697320746865207a65726f206160408201526564647265737360d01b606082015260800190565b60208082526016908201527513585c9ad95d081a5cc81b9bdd081c995cdbdb1d995960521b604082015260600190565b6020808252600f908201526e105b1c9958591e4818db185a5b5959608a1b604082015260600190565b6020808252818101527f4f776e61626c653a2063616c6c6572206973206e6f7420746865206f776e6572604082015260600190565b8151151581526020918201519181019190915260400190565b9182526001600160a01b0316602082015260400190565b918252602082015260400190565b9283526020830191909152604082015260600190565b6040518181016001600160401b0381118282101715610c0057600080fd5b604052919050565b60006001600160401b03821115610c1d578081fd5b5060209081020190565b6001600160a01b0381168114610c3c57600080fd5b5056fe8be0079c531659141344cd1fd0a4f28419497f9722a3daafe3b4186f6b6457e0a26469706673582212206b3d135f3116a52c15e7fdbcce5092fb15677e0e54337d919564baad29fa389964736f6c63430006020033",
  "source": "pragma solidity ^0.6.0;\npragma experimental ABIEncoderV2;\n\nimport \"./FantasyERC20.sol\";\nimport \"./PredictionMarketV2.sol\";\n\n// openzeppelin imports\nimport \"@openzeppelin/contracts/math/SafeMath.sol\";\nimport \"@openzeppelin/contracts/access/Ownable.sol\";\n\ncontract PredictionMarketResolver is Ownable {\n  using SafeMath for uint256;\n\n  event MarketResolved(\n    address indexed user,\n    uint256 indexed marketId,\n    uint256 outcomeId,\n    uint256 timestamp\n  );\n\n  event MarketClaimed(\n    address indexed user,\n    uint256 indexed marketId,\n    uint256 outcomeId,\n    uint256 shares,\n    uint256 timestamp\n  );\n\n  struct MarketResolution {\n    bool resolved;\n    uint256 outcomeId;\n  }\n\n  mapping(uint256 => mapping(address => bool)) public claims;\n  mapping(uint256 => MarketResolution) markets;\n  FantasyERC20 public token;\n  PredictionMarketV2 public predictionMarket;\n\n  // ------ Modifiers ------\n\n  modifier marketIsResolved(uint256 marketId) {\n    require(markets[marketId].resolved, \"Market is not resolved\");\n    _;\n  }\n\n  // ------ Modifiers End ------\n\n  // ------ Admin ------\n\n  function setToken(FantasyERC20 _token) external onlyOwner {\n    token = _token;\n  }\n\n  function setPredictionMarket(PredictionMarketV2 _predictionMarket)\n    external\n    onlyOwner\n  {\n    predictionMarket = _predictionMarket;\n  }\n\n  function resolveMarket(uint256 marketId, uint256 outcomeId) external onlyOwner {\n    markets[marketId] = MarketResolution(true, outcomeId);\n    emit MarketResolved(msg.sender, marketId, outcomeId, block.timestamp);\n  }\n\n  // ------ Admin End ------\n\n  function getMarketResolution(uint256 marketId)\n    external\n    view\n    returns (MarketResolution memory)\n  {\n    return markets[marketId];\n  }\n\n  function hasUserClaimedMarket(uint256 marketId, address user)\n    external\n    view\n    returns (bool)\n  {\n    return claims[marketId][user];\n  }\n\n  function getUserMarketShares(uint256 marketId, address user)\n    public\n    view\n    returns (uint256[] memory)\n  {\n    uint[] memory shares;\n\n    // fetching user shares from predictionMarket\n    (, shares) = predictionMarket.getUserMarketShares(marketId, user);\n\n    return shares;\n  }\n\n  function claim(uint256 marketId, address user) marketIsResolved(marketId) public {\n    require(!claims[marketId][user], \"Already claimed\");\n\n    uint256 outcomeId = markets[marketId].outcomeId;\n    uint[] memory shares;\n\n    // fetching user shares from predictionMarket\n    (, shares) = predictionMarket.getUserMarketShares(marketId, user);\n\n    // calculating user winnings\n    require(shares[outcomeId] > 0, \"User has no winning shares\");\n\n    claims[marketId][user] = true;\n    // minting tokens for user\n    token.mint(user, shares[outcomeId]);\n\n    emit MarketClaimed(user, marketId, outcomeId, shares[outcomeId], block.timestamp);\n  }\n\n  function claimMultiple(uint256 marketId, address[] calldata users) external {\n    for (uint256 i = 0; i < users.length; i++) {\n      claim(marketId, users[i]);\n    }\n  }\n}\n",
  "sourcePath": "/Users/ricardomarques/dev/workspace/polkamarkets/bepro-js/contracts/PredictionMarketResolver.sol",
  "compiler": {
    "name": "solc",
    "version": "0.6.2+commit.bacdbe57.Emscripten.clang"
  },
  "schemaVersion": "3.4.4",
  "updatedAt": "2022-11-21T14:31:35.564Z",
  "devdoc": {
    "methods": {
      "owner()": {
        "details": "Returns the address of the current owner."
      },
      "renounceOwnership()": {
        "details": "Leaves the contract without owner. It will not be possible to call `onlyOwner` functions anymore. Can only be called by the current owner.     * NOTE: Renouncing ownership will leave the contract without an owner, thereby removing any functionality that is only available to the owner."
      },
      "transferOwnership(address)": {
        "details": "Transfers ownership of the contract to a new account (`newOwner`). Can only be called by the current owner."
      }
    }
  },
  "userdoc": {
    "methods": {}
  }
}