{
  "contractName": "PredictionMarket",
  "abi": [
    {
      "inputs": [
        {
          "internalType": "uint256",
          "name": "_fee",
          "type": "uint256"
        },
        {
          "internalType": "contract IERC20",
          "name": "_token",
          "type": "address"
        },
        {
          "internalType": "uint256",
          "name": "_requiredBalance",
          "type": "uint256"
        },
        {
          "internalType": "address",
          "name": "_realitioAddress",
          "type": "address"
        },
        {
          "internalType": "uint256",
          "name": "_realitioTimeout",
          "type": "uint256"
        }
      ],
      "stateMutability": "nonpayable",
      "type": "constructor"
    },
    {
      "anonymous": false,
      "inputs": [
        {
          "indexed": true,
          "internalType": "address",
          "name": "user",
          "type": "address"
        },
        {
          "indexed": true,
          "internalType": "enum PredictionMarket.MarketAction",
          "name": "action",
          "type": "uint8"
        },
        {
          "indexed": true,
          "internalType": "uint256",
          "name": "marketId",
          "type": "uint256"
        },
        {
          "indexed": false,
          "internalType": "uint256",
          "name": "outcomeId",
          "type": "uint256"
        },
        {
          "indexed": false,
          "internalType": "uint256",
          "name": "shares",
          "type": "uint256"
        },
        {
          "indexed": false,
          "internalType": "uint256",
          "name": "value",
          "type": "uint256"
        },
        {
          "indexed": false,
          "internalType": "uint256",
          "name": "timestamp",
          "type": "uint256"
        }
      ],
      "name": "MarketActionTx",
      "type": "event"
    },
    {
      "anonymous": false,
      "inputs": [
        {
          "indexed": true,
          "internalType": "address",
          "name": "user",
          "type": "address"
        },
        {
          "indexed": true,
          "internalType": "uint256",
          "name": "marketId",
          "type": "uint256"
        },
        {
          "indexed": false,
          "internalType": "uint256",
          "name": "outcomes",
          "type": "uint256"
        },
        {
          "indexed": false,
          "internalType": "string",
          "name": "question",
          "type": "string"
        },
        {
          "indexed": false,
          "internalType": "string",
          "name": "image",
          "type": "string"
        }
      ],
      "name": "MarketCreated",
      "type": "event"
    },
    {
      "anonymous": false,
      "inputs": [
        {
          "indexed": true,
          "internalType": "uint256",
          "name": "marketId",
          "type": "uint256"
        },
        {
          "indexed": false,
          "internalType": "uint256",
          "name": "value",
          "type": "uint256"
        },
        {
          "indexed": false,
          "internalType": "uint256",
          "name": "price",
          "type": "uint256"
        },
        {
          "indexed": false,
          "internalType": "uint256",
          "name": "timestamp",
          "type": "uint256"
        }
      ],
      "name": "MarketLiquidity",
      "type": "event"
    },
    {
      "anonymous": false,
      "inputs": [
        {
          "indexed": true,
          "internalType": "uint256",
          "name": "marketId",
          "type": "uint256"
        },
        {
          "indexed": true,
          "internalType": "uint256",
          "name": "outcomeId",
          "type": "uint256"
        },
        {
          "indexed": false,
          "internalType": "uint256",
          "name": "value",
          "type": "uint256"
        },
        {
          "indexed": false,
          "internalType": "uint256",
          "name": "timestamp",
          "type": "uint256"
        }
      ],
      "name": "MarketOutcomePrice",
      "type": "event"
    },
    {
      "anonymous": false,
      "inputs": [
        {
          "indexed": true,
          "internalType": "address",
          "name": "user",
          "type": "address"
        },
        {
          "indexed": true,
          "internalType": "uint256",
          "name": "marketId",
          "type": "uint256"
        },
        {
          "indexed": false,
          "internalType": "uint256",
          "name": "outcomeId",
          "type": "uint256"
        },
        {
          "indexed": false,
          "internalType": "uint256",
          "name": "timestamp",
          "type": "uint256"
        }
      ],
      "name": "MarketResolved",
      "type": "event"
    },
    {
      "inputs": [],
      "name": "MAX_UINT_256",
      "outputs": [
        {
          "internalType": "uint256",
          "name": "",
          "type": "uint256"
        }
      ],
      "stateMutability": "view",
      "type": "function"
    },
    {
      "inputs": [],
      "name": "ONE",
      "outputs": [
        {
          "internalType": "uint256",
          "name": "",
          "type": "uint256"
        }
      ],
      "stateMutability": "view",
      "type": "function"
    },
    {
      "inputs": [],
      "name": "fee",
      "outputs": [
        {
          "internalType": "uint256",
          "name": "",
          "type": "uint256"
        }
      ],
      "stateMutability": "view",
      "type": "function"
    },
    {
      "inputs": [],
      "name": "marketIndex",
      "outputs": [
        {
          "internalType": "uint256",
          "name": "",
          "type": "uint256"
        }
      ],
      "stateMutability": "view",
      "type": "function"
    },
    {
      "inputs": [],
      "name": "realitioAddress",
      "outputs": [
        {
          "internalType": "address",
          "name": "",
          "type": "address"
        }
      ],
      "stateMutability": "view",
      "type": "function"
    },
    {
      "inputs": [],
      "name": "realitioTimeout",
      "outputs": [
        {
          "internalType": "uint256",
          "name": "",
          "type": "uint256"
        }
      ],
      "stateMutability": "view",
      "type": "function"
    },
    {
      "inputs": [],
      "name": "requiredBalance",
      "outputs": [
        {
          "internalType": "uint256",
          "name": "",
          "type": "uint256"
        }
      ],
      "stateMutability": "view",
      "type": "function"
    },
    {
      "inputs": [],
      "name": "token",
      "outputs": [
        {
          "internalType": "contract IERC20",
          "name": "",
          "type": "address"
        }
      ],
      "stateMutability": "view",
      "type": "function"
    },
    {
      "inputs": [
        {
          "internalType": "string",
          "name": "question",
          "type": "string"
        },
        {
          "internalType": "string",
          "name": "image",
          "type": "string"
        },
        {
          "internalType": "uint256",
          "name": "closesAt",
          "type": "uint256"
        },
        {
          "internalType": "address",
          "name": "arbitrator",
          "type": "address"
        },
        {
          "internalType": "uint256",
          "name": "outcomes",
          "type": "uint256"
        }
      ],
      "name": "createMarket",
      "outputs": [
        {
          "internalType": "uint256",
          "name": "",
          "type": "uint256"
        }
      ],
      "stateMutability": "payable",
      "type": "function"
    },
    {
      "inputs": [
        {
          "internalType": "uint256",
          "name": "amount",
          "type": "uint256"
        },
        {
          "internalType": "uint256",
          "name": "marketId",
          "type": "uint256"
        },
        {
          "internalType": "uint256",
          "name": "outcomeId",
          "type": "uint256"
        }
      ],
      "name": "calcBuyAmount",
      "outputs": [
        {
          "internalType": "uint256",
          "name": "",
          "type": "uint256"
        }
      ],
      "stateMutability": "view",
      "type": "function"
    },
    {
      "inputs": [
        {
          "internalType": "uint256",
          "name": "amount",
          "type": "uint256"
        },
        {
          "internalType": "uint256",
          "name": "marketId",
          "type": "uint256"
        },
        {
          "internalType": "uint256",
          "name": "outcomeId",
          "type": "uint256"
        }
      ],
      "name": "calcSellAmount",
      "outputs": [
        {
          "internalType": "uint256",
          "name": "outcomeTokenSellAmount",
          "type": "uint256"
        }
      ],
      "stateMutability": "view",
      "type": "function"
    },
    {
      "inputs": [
        {
          "internalType": "uint256",
          "name": "marketId",
          "type": "uint256"
        },
        {
          "internalType": "uint256",
          "name": "outcomeId",
          "type": "uint256"
        },
        {
          "internalType": "uint256",
          "name": "minOutcomeSharesToBuy",
          "type": "uint256"
        }
      ],
      "name": "buy",
      "outputs": [],
      "stateMutability": "payable",
      "type": "function"
    },
    {
      "inputs": [
        {
          "internalType": "uint256",
          "name": "marketId",
          "type": "uint256"
        },
        {
          "internalType": "uint256",
          "name": "outcomeId",
          "type": "uint256"
        },
        {
          "internalType": "uint256",
          "name": "value",
          "type": "uint256"
        },
        {
          "internalType": "uint256",
          "name": "maxOutcomeSharesToSell",
          "type": "uint256"
        }
      ],
      "name": "sell",
      "outputs": [],
      "stateMutability": "payable",
      "type": "function"
    },
    {
      "inputs": [
        {
          "internalType": "uint256",
          "name": "marketId",
          "type": "uint256"
        }
      ],
      "name": "addLiquidity",
      "outputs": [],
      "stateMutability": "payable",
      "type": "function"
    },
    {
      "inputs": [
        {
          "internalType": "uint256",
          "name": "marketId",
          "type": "uint256"
        },
        {
          "internalType": "uint256",
          "name": "shares",
          "type": "uint256"
        }
      ],
      "name": "removeLiquidity",
      "outputs": [],
      "stateMutability": "payable",
      "type": "function"
    },
    {
      "inputs": [
        {
          "internalType": "uint256",
          "name": "marketId",
          "type": "uint256"
        }
      ],
      "name": "resolveMarketOutcome",
      "outputs": [
        {
          "internalType": "uint256",
          "name": "",
          "type": "uint256"
        }
      ],
      "stateMutability": "nonpayable",
      "type": "function"
    },
    {
      "inputs": [
        {
          "internalType": "uint256",
          "name": "marketId",
          "type": "uint256"
        }
      ],
      "name": "claimWinnings",
      "outputs": [],
      "stateMutability": "nonpayable",
      "type": "function"
    },
    {
      "inputs": [
        {
          "internalType": "uint256",
          "name": "marketId",
          "type": "uint256"
        },
        {
          "internalType": "uint256",
          "name": "outcomeId",
          "type": "uint256"
        }
      ],
      "name": "claimVoidedOutcomeShares",
      "outputs": [],
      "stateMutability": "nonpayable",
      "type": "function"
    },
    {
      "inputs": [
        {
          "internalType": "uint256",
          "name": "marketId",
          "type": "uint256"
        }
      ],
      "name": "claimLiquidity",
      "outputs": [],
      "stateMutability": "nonpayable",
      "type": "function"
    },
    {
      "inputs": [
        {
          "internalType": "uint256",
          "name": "marketId",
          "type": "uint256"
        }
      ],
      "name": "claimFees",
      "outputs": [],
      "stateMutability": "payable",
      "type": "function"
    },
    {
      "inputs": [
        {
          "internalType": "uint256",
          "name": "marketId",
          "type": "uint256"
        },
        {
          "internalType": "address",
          "name": "user",
          "type": "address"
        }
      ],
      "name": "getUserMarketShares",
      "outputs": [
        {
          "internalType": "uint256",
          "name": "",
          "type": "uint256"
        },
        {
          "internalType": "uint256",
          "name": "",
          "type": "uint256"
        },
        {
          "internalType": "uint256",
          "name": "",
          "type": "uint256"
        }
      ],
      "stateMutability": "view",
      "type": "function"
    },
    {
      "inputs": [
        {
          "internalType": "uint256",
          "name": "marketId",
          "type": "uint256"
        },
        {
          "internalType": "address",
          "name": "user",
          "type": "address"
        }
      ],
      "name": "getUserClaimStatus",
      "outputs": [
        {
          "internalType": "bool",
          "name": "",
          "type": "bool"
        },
        {
          "internalType": "bool",
          "name": "",
          "type": "bool"
        },
        {
          "internalType": "bool",
          "name": "",
          "type": "bool"
        },
        {
          "internalType": "bool",
          "name": "",
          "type": "bool"
        },
        {
          "internalType": "uint256",
          "name": "",
          "type": "uint256"
        }
      ],
      "stateMutability": "view",
      "type": "function"
    },
    {
      "inputs": [
        {
          "internalType": "uint256",
          "name": "marketId",
          "type": "uint256"
        },
        {
          "internalType": "address",
          "name": "user",
          "type": "address"
        }
      ],
      "name": "getUserLiquidityPoolShare",
      "outputs": [
        {
          "internalType": "uint256",
          "name": "",
          "type": "uint256"
        }
      ],
      "stateMutability": "view",
      "type": "function"
    },
    {
      "inputs": [
        {
          "internalType": "uint256",
          "name": "marketId",
          "type": "uint256"
        },
        {
          "internalType": "address",
          "name": "user",
          "type": "address"
        }
      ],
      "name": "getUserClaimableFees",
      "outputs": [
        {
          "internalType": "uint256",
          "name": "",
          "type": "uint256"
        }
      ],
      "stateMutability": "view",
      "type": "function"
    },
    {
      "inputs": [],
      "name": "getMarkets",
      "outputs": [
        {
          "internalType": "uint256[]",
          "name": "",
          "type": "uint256[]"
        }
      ],
      "stateMutability": "view",
      "type": "function"
    },
    {
      "inputs": [
        {
          "internalType": "uint256",
          "name": "marketId",
          "type": "uint256"
        }
      ],
      "name": "getMarketData",
      "outputs": [
        {
          "internalType": "enum PredictionMarket.MarketState",
          "name": "",
          "type": "uint8"
        },
        {
          "internalType": "uint256",
          "name": "",
          "type": "uint256"
        },
        {
          "internalType": "uint256",
          "name": "",
          "type": "uint256"
        },
        {
          "internalType": "uint256",
          "name": "",
          "type": "uint256"
        },
        {
          "internalType": "uint256",
          "name": "",
          "type": "uint256"
        },
        {
          "internalType": "int256",
          "name": "",
          "type": "int256"
        }
      ],
      "stateMutability": "view",
      "type": "function"
    },
    {
      "inputs": [
        {
          "internalType": "uint256",
          "name": "marketId",
          "type": "uint256"
        }
      ],
      "name": "getMarketAltData",
      "outputs": [
        {
          "internalType": "uint256",
          "name": "",
          "type": "uint256"
        },
        {
          "internalType": "bytes32",
          "name": "",
          "type": "bytes32"
        },
        {
          "internalType": "uint256",
          "name": "",
          "type": "uint256"
        }
      ],
      "stateMutability": "view",
      "type": "function"
    },
    {
      "inputs": [
        {
          "internalType": "uint256",
          "name": "marketId",
          "type": "uint256"
        }
      ],
      "name": "getMarketQuestion",
      "outputs": [
        {
          "internalType": "bytes32",
          "name": "",
          "type": "bytes32"
        }
      ],
      "stateMutability": "view",
      "type": "function"
    },
    {
      "inputs": [
        {
          "internalType": "uint256",
          "name": "marketId",
          "type": "uint256"
        }
      ],
      "name": "getMarketPrices",
      "outputs": [
        {
          "internalType": "uint256",
          "name": "",
          "type": "uint256"
        },
        {
          "internalType": "uint256",
          "name": "",
          "type": "uint256"
        },
        {
          "internalType": "uint256",
          "name": "",
          "type": "uint256"
        }
      ],
      "stateMutability": "view",
      "type": "function"
    },
    {
      "inputs": [
        {
          "internalType": "uint256",
          "name": "marketId",
          "type": "uint256"
        }
      ],
      "name": "getMarketLiquidityPrice",
      "outputs": [
        {
          "internalType": "uint256",
          "name": "",
          "type": "uint256"
        }
      ],
      "stateMutability": "view",
      "type": "function"
    },
    {
      "inputs": [
        {
          "internalType": "uint256",
          "name": "marketId",
          "type": "uint256"
        }
      ],
      "name": "getMarketResolvedOutcome",
      "outputs": [
        {
          "internalType": "int256",
          "name": "",
          "type": "int256"
        }
      ],
      "stateMutability": "view",
      "type": "function"
    },
    {
      "inputs": [
        {
          "internalType": "uint256",
          "name": "marketId",
          "type": "uint256"
        }
      ],
      "name": "isMarketVoided",
      "outputs": [
        {
          "internalType": "bool",
          "name": "",
          "type": "bool"
        }
      ],
      "stateMutability": "view",
      "type": "function"
    },
    {
      "inputs": [
        {
          "internalType": "uint256",
          "name": "marketId",
          "type": "uint256"
        }
      ],
      "name": "getMarketOutcomeIds",
      "outputs": [
        {
          "internalType": "uint256[]",
          "name": "",
          "type": "uint256[]"
        }
      ],
      "stateMutability": "view",
      "type": "function"
    },
    {
      "inputs": [
        {
          "internalType": "uint256",
          "name": "marketId",
          "type": "uint256"
        },
        {
          "internalType": "uint256",
          "name": "outcomeId",
          "type": "uint256"
        }
      ],
      "name": "getMarketOutcomePrice",
      "outputs": [
        {
          "internalType": "uint256",
          "name": "",
          "type": "uint256"
        }
      ],
      "stateMutability": "view",
      "type": "function"
    },
    {
      "inputs": [
        {
          "internalType": "uint256",
          "name": "marketId",
          "type": "uint256"
        },
        {
          "internalType": "uint256",
          "name": "outcomeId",
          "type": "uint256"
        }
      ],
      "name": "getMarketOutcomeData",
      "outputs": [
        {
          "internalType": "uint256",
          "name": "",
          "type": "uint256"
        },
        {
          "internalType": "uint256",
          "name": "",
          "type": "uint256"
        },
        {
          "internalType": "uint256",
          "name": "",
          "type": "uint256"
        }
      ],
      "stateMutability": "view",
      "type": "function"
    }
  ],
  "bytecode": "0x60806040523480156200001157600080fd5b506040516200371c3803806200371c8339810160408190526200003491620000ca565b6001600160a01b038216620000665760405162461bcd60e51b81526004016200005d9062000125565b60405180910390fd5b60008111620000895760405162461bcd60e51b81526004016200005d906200015c565b600394909455600680546001600160a01b039485166001600160a01b03199182161790915560079290925560048054919093169116179055600555620001ac565b600080600080600060a08688031215620000e2578081fd5b855194506020860151620000f68162000193565b604087015160608801519195509350620001108162000193565b80925050608086015190509295509295909350565b6020808252601d908201527f5f7265616c6974696f4164647265737320697320616464726573732030000000604082015260600190565b60208082526018908201527f74696d656f7574206d75737420626520706f7369746976650000000000000000604082015260600190565b6001600160a01b0381168114620001a957600080fd5b50565b61356080620001bc6000396000f3fe6080604052600436106102045760003560e01c80638c7adc1511610118578063c346a9d0116100a0578063ec93f0f51161006f578063ec93f0f5146105a1578063efbc47dc146105c1578063efce4313146105d4578063fc0c546a146105f4578063fdff80851461060957610204565b8063c346a9d014610537578063c8f70d0114610557578063ddca3f4314610577578063ec2c90161461058c57610204565b8063ac68a748116100e7578063ac68a7481461049d578063b31eb895146104b0578063bf455721146104d0578063bfacba3d146104f0578063c2ee3a081461052257610204565b80638c7adc15146104355780638cd415521461044a5780639d7de6b31461046a578063aa22a02e1461047d57610204565b806340993b261161019b57806351c6590a1161016a57806351c6590a146103a05780635e648eff146103b3578063677bd9ff146103d35780637b34e6e0146103f357806385b91d8e1461041557610204565b806340993b2614610320578063429c9dff146103335780634397c4ce14610353578063441cf65e1461037357610204565b806331877a38116101d757806331877a38146102b45780633620875e146102e15780633d41a26b146102f65780633fe45e3b1461030b57610204565b806308560ace146102095780631d7920aa1461023457806328747a80146102635780632c2aa24e14610283575b600080fd5b34801561021557600080fd5b5061021e610629565b60405161022b9190612df7565b60405180910390f35b34801561024057600080fd5b5061025461024f366004612c82565b61062f565b60405161022b939291906134ad565b34801561026f57600080fd5b5061021e61027e366004612c82565b61064e565b34801561028f57600080fd5b506102a361029e366004612c9a565b6107e4565b60405161022b959493929190612dd0565b3480156102c057600080fd5b506102d46102cf366004612c82565b6108b4565b60405161022b9190612d81565b6102f46102ef366004612d12565b61091d565b005b34801561030257600080fd5b5061021e610b6b565b34801561031757600080fd5b5061021e610b71565b6102f461032e366004612ce7565b610b77565b34801561033f57600080fd5b5061021e61034e366004612ce7565b610d38565b34801561035f57600080fd5b5061021e61036e366004612c82565b610e98565b34801561037f57600080fd5b5061039361038e366004612c82565b610ead565b60405161022b9190612dc5565b6102f46103ae366004612c82565b610ef2565b3480156103bf57600080fd5b506102f46103ce366004612c82565b610f8d565b3480156103df57600080fd5b506102f46103ee366004612c82565b61115a565b3480156103ff57600080fd5b506104086112c5565b60405161022b9190612d6d565b34801561042157600080fd5b50610254610430366004612c82565b6112d4565b34801561044157600080fd5b5061021e611305565b34801561045657600080fd5b5061021e610465366004612cc6565b61130b565b6102f4610478366004612cc6565b6113cb565b34801561048957600080fd5b5061021e610498366004612c9a565b6117e2565b6102f46104ab366004612c82565b611835565b3480156104bc57600080fd5b506102546104cb366004612c9a565b6118fe565b3480156104dc57600080fd5b5061021e6104eb366004612c82565b611959565b3480156104fc57600080fd5b5061051061050b366004612c82565b611996565b60405161022b96959493929190612e00565b34801561052e57600080fd5b5061021e6119ef565b34801561054357600080fd5b5061021e610552366004612ce7565b6119fb565b34801561056357600080fd5b5061021e610572366004612c82565b611b2b565b34801561058357600080fd5b5061021e611bde565b34801561059857600080fd5b506102d4611be4565b3480156105ad57600080fd5b506102f46105bc366004612cc6565b611c3c565b61021e6105cf366004612bf1565b611e0f565b3480156105e057600080fd5b506102546105ef366004612cc6565b6120fb565b34801561060057600080fd5b5061040861213f565b34801561061557600080fd5b5061021e610624366004612c9a565b61214e565b60075481565b6000908152600160205260409020600a81015460099091015490918190565b60008181526001602052604081205482904211801561068a575060008181526001602052604081206006015460ff16600281111561068857fe5b145b1561069857610698816121f4565b8260018060008381526001602052604090206006015460ff1660028111156106bc57fe5b146106e25760405162461bcd60e51b81526004016106d990613348565b60405180910390fd5b600085815260016020526040808220600480546009830154935163684e62bf60e11b81528a9593946001600160a01b039092169392849263d09cc57e926107299201612df7565b60206040518083038186803b15801561074157600080fd5b505afa158015610755573d6000803e3d6000fd5b505050506040513d601f19601f820116820180604052506107799190810190612bd9565b60088401819055604051909150899033907f67a6457c8912ae1b7a9fbdfa311cbd016ba606b548bf06bc80bc751072d91bbc906107b990859042906134fc565b60405180910390a36107ca89612244565b50506008015494506107db816121f4565b50505050919050565b600082815260016020526040812081908190819081906002600682015460ff16600281111561080f57fe5b14610834576000806000806108248c8c61214e565b95509550955095509550506108aa565b60088101546000908152600e8201602090815260408083206001600160a01b038b16845260048082018452828520546005808401865284872054928801865284872054908801909552929094205490939115159260ff92831692901515911661089d8d8d61214e565b9650965096509650965050505b9295509295909350565b600081815260016020908152604091829020600d81018054845181850281018501909552808552606094929383018282801561090f57602002820191906000526020600020905b8154815260200190600101908083116108fb575b50505050509150505b919050565b600084815260016020526040902054849042118015610959575060008181526001602052604081206006015460ff16600281111561095757fe5b145b1561096757610967816121f4565b8460008060008381526001602052604090206006015460ff16600281111561098b57fe5b146109a85760405162461bcd60e51b81526004016106d990613348565b6000878152600160209081526040808320898452600e8101909252822090916109d2888b8b6119fb565b9050868111156109f45760405162461bcd60e51b81526004016106d990613433565b60008111610a145760405162461bcd60e51b81526004016106d990612f82565b336000908152600483016020526040902054811115610a455760405162461bcd60e51b81526004016106d990613307565b610a51338b8b846122f9565b6000610a70600354670de0b6b3a764000061239890919063ffffffff16565b600a850154610a86908b9063ffffffff6123c016565b81610a8d57fe5b600b8601549190049150610aa7908263ffffffff6123fa16565b600b8501556000610abe8a8363ffffffff6123fa16565b90508085600101541015610ae45760405162461bcd60e51b81526004016106d9906132c4565b610aee8c8261241f565b60405133908b156108fc02908c906000818181858888f19350505050158015610b1b573d6000803e3d6000fd5b508b6001336001600160a01b031660008051602061350b8339815191528e878f42604051610b4c9493929190612e37565b60405180910390a4610b5d8c612244565b505050505050505050505050565b60001981565b60055481565b600083815260016020526040902054839042118015610bb3575060008181526001602052604081206006015460ff166002811115610bb157fe5b145b15610bc157610bc1816121f4565b8360008060008381526001602052604090206006015460ff166002811115610be557fe5b14610c025760405162461bcd60e51b81526004016106d990613348565b6000868152600160205260408120903490610c1e828a8a610d38565b905086811015610c405760405162461bcd60e51b81526004016106d9906133fc565b60008111610c605760405162461bcd60e51b81526004016106d990612f82565b600a830154600090670de0b6b3a764000090610c8390859063ffffffff6123c016565b81610c8a57fe5b600b8601549190049150610ca4908263ffffffff6123fa16565b600b8501556000610cbb848363ffffffff61239816565b60008b8152600e870160205260409020909150610cd88c836124c2565b6003810154841115610cfc5760405162461bcd60e51b81526004016106d99061337f565b610d08338d8d8761255b565b8b6000336001600160a01b031660008051602061350b8339815191528e888a42604051610b4c9493929190612e37565b60008281526001602052604081206060610d51856125ea565b90506000610d91670de0b6b3a7640000610d7b85600a01600001548a6123c090919063ffffffff16565b81610d8257fe5b8991900463ffffffff61239816565b90506000828681518110610da157fe5b602002602001015190506000610dc8670de0b6b3a7640000836123c090919063ffffffff16565b905060005b8451811015610e3357878114610e2b576000858281518110610deb57fe5b60200260200101519050610e27610e0b86836123fa90919063ffffffff16565b610e1b858463ffffffff6123c016565b9063ffffffff61267d16565b9250505b600101610dcd565b5060008111610e545760405162461bcd60e51b81526004016106d990612ea4565b610e8b610e6f82670de0b6b3a764000063ffffffff61267d16565b610e7f848663ffffffff6123fa16565b9063ffffffff61239816565b9998505050505050505050565b60009081526001602052604090206009015490565b60008181526001602052604081206002600682015460ff166002811115610ed057fe5b14610edf576000915050610918565b600d810154600890910154101592915050565b600081815260016020526040902054819042118015610f2e575060008181526001602052604081206006015460ff166002811115610f2c57fe5b145b15610f3c57610f3c816121f4565b8160008060008381526001602052604090206006015460ff166002811115610f6057fe5b14610f7d5760405162461bcd60e51b81526004016106d990613348565b610f8784346126ad565b50505050565b8060028060008381526001602052604090206006015460ff166002811115610fb157fe5b14610fce5760405162461bcd60e51b81526004016106d990613348565b6000838152600160205260409020610fe584611835565b3360009081526004820160205260409020546110135760405162461bcd60e51b81526004016106d990613281565b33600090815260058201602052604090205460ff16156110455760405162461bcd60e51b81526004016106d99061323a565b600061105085611b2b565b33600090815260048401602052604081205491925090670de0b6b3a76400009061108190849063ffffffff6123c016565b8161108857fe5b04905080836001015410156110af5760405162461bcd60e51b81526004016106d99061309d565b60018301546110c4908263ffffffff61239816565b600184810191909155336000818152600580870160209081526040808420805460ff19169096179095556004880190528382205493518a9491939260008051602061350b8339815191529261111c9288904290612e37565b60405180910390a4604051339082156108fc029083906000818181858888f19350505050158015611151573d6000803e3d6000fd5b50505050505050565b8060028060008381526001602052604090206006015460ff16600281111561117e57fe5b1461119b5760405162461bcd60e51b81526004016106d990613348565b600083815260016020908152604080832060088101548452600e81018352818420338552600481019093529220546111e55760405162461bcd60e51b81526004016106d990612fae565b33600090815260058201602052604090205460ff16156112175760405162461bcd60e51b81526004016106d990613161565b336000908152600482016020526040902054600183015481111561124d5760405162461bcd60e51b81526004016106d99061309d565b6001830154611262908263ffffffff61239816565b6001808501919091553360009081526005840160205260409020805460ff19169091179055856004600885015433600081815260048701602052604090819020549051919260008051602061350b8339815191529261111c929088904290612e37565b6004546001600160a01b031681565b60008060006112e284611b2b565b6112ed85600061130b565b6112f886600161130b565b9250925092509193909250565b60025481565b6000828152600160209081526040808320848452600e810190925282206002600683015460ff16600281111561133d57fe5b148015611350575061134e85610ead565b155b1561137a5760088201548414611367576000611371565b670de0b6b3a76400005b925050506113c5565b600380830154908201546113c091906113b490670de0b6b3a7640000906113a890849063ffffffff61239816565b9063ffffffff6123c016565b9063ffffffff612a6a16565b925050505b92915050565b600082815260016020526040902054829042118015611407575060008181526001602052604081206006015460ff16600281111561140557fe5b145b1561141557611415816121f4565b8260008060008381526001602052604090206006015460ff16600281111561143957fe5b146114565760405162461bcd60e51b81526004016106d990613348565b600085815260016020908152604080832033845260048101909252909120548511156114945760405162461bcd60e51b81526004016106d990613307565b61149d86611835565b6114a986866003612a8b565b5060606114b5876125ea565b9050606081516040519080825280602002602001820160405280156114e4578160200160208202803883390190505b50905060001960005b835181101561152357600084828151811061150457fe5b602002602001015190508083111561151a578092505b506001016114ed565b506002840154600090611540906113b48b8563ffffffff6123c016565b905060005b84518110156115de5785600201546115798b87848151811061156357fe5b60200260200101516123c090919063ffffffff16565b8161158057fe5b0484828151811061158d57fe5b6020026020010181815250506115bf828583815181106115a957fe5b602002602001015161239890919063ffffffff16565b8482815181106115cb57fe5b6020908102919091010152600101611545565b506115e98a8261241f565b60028501546115fe908a63ffffffff61239816565b6002860155336000908152600486016020526040902054611625908a63ffffffff61239816565b3360009081526004870160205260408120919091555b845181101561172657600084828151811061165257fe5b6020026020010151111561171e576003808701546000838152600e89016020526040902090910154855161169f9033908f9086908a908290811061169257fe5b602002602001015161255b565b8c6000336001600160a01b031660008051602061350b833981519152868a88815181106116c857fe5b60200260200101516117028e600301546113b48e8c815181106116e757fe5b60200260200101516113a88b8d61239890919063ffffffff16565b426040516117139493929190612e37565b60405180910390a450505b60010161163b565b50604051339082156108fc029083906000818181858888f19350505050158015611754573d6000803e3d6000fd5b50896003336001600160a01b031660008051602061350b83398151915260008d86426040516117869493929190612e37565b60405180910390a4897f1eca98f266e5348ae38d5d057a4d8e451e76672f69ac6ba4b0e3b31ea9c7eb2b86600201546117be8d611b2b565b426040516117ce939291906134ad565b60405180910390a250505050505050505050565b600082815260016020908152604080832060028101546001600160a01b03861685526004820190935290832054909161182d916113b490670de0b6b3a764000063ffffffff6123c016565b949350505050565b60008181526001602052604081209061184e833361214e565b905080156118ba57336000908152600c83016020526040902054611878908263ffffffff6123fa16565b336000818152600c85016020526040808220939093559151909183156108fc02918491818181858888f193505050501580156118b8573d6000803e3d6000fd5b505b82600633600081815260048601602052604080822054905160008051602061350b833981519152926118f192909188904290612e37565b60405180910390a4505050565b60009182526001602081815260408085206001600160a01b03949094168086526004808601845282872054878052600e9096018085528388208389528201855283882054958852845282872091875201909152909220549092565b60008181526001602052604081206002600682015460ff16600281111561197c57fe5b1461198c57600019915050610918565b6008015492915050565b6000818152600160208190526040822060068101548154600283015493830154600384015486958695869586958695929460ff90921693909290916119da8d611959565b949d939c50919a509850965090945092505050565b670de0b6b3a764000081565b60008281526001602052604081206060611a14856125ea565b600a830154909150600090611a3890670de0b6b3a76400009063ffffffff61239816565b611a5088670de0b6b3a764000063ffffffff6123c016565b81611a5757fe5b0490506000828681518110611a6857fe5b602002602001015190506000611a8f670de0b6b3a7640000836123c090919063ffffffff16565b905060005b8451811015611ade57878114611ad6576000858281518110611ab257fe5b60200260200101519050611ad2610e0b868361239890919063ffffffff16565b9250505b600101611a94565b5060008111611aff5760405162461bcd60e51b81526004016106d990612ea4565b610e8b82610e7f611b1e84670de0b6b3a764000063ffffffff61267d16565b869063ffffffff6123fa16565b60008181526001602052604081206002600682015460ff166002811115611b4e57fe5b148015611b615750611b5f83610ead565b155b15611ba957600281015460088201546000908152600e83016020526040902060030154611ba191906113b490670de0b6b3a764000063ffffffff6123c016565b915050610918565b6003810154600d8201546002830154611bd792916113b49190670de0b6b3a76400000263ffffffff6123c016565b9392505050565b60035481565b60606000805480602002602001604051908101604052809291908181526020018280548015611c3257602002820191906000526020600020905b815481526020019060010190808311611c1e575b5050505050905090565b8160028060008381526001602052604090206006015460ff166002811115611c6057fe5b14611c7d5760405162461bcd60e51b81526004016106d990613348565b6000848152600160209081526040808320868452600e8101835281842033855260048101909352922054611cc35760405162461bcd60e51b81526004016106d990612f0a565b33600090815260068201602052604090205460ff1615611cf55760405162461bcd60e51b81526004016106d99061346a565b6000611d01878761130b565b33600090815260048401602052604081205491925090611d3690670de0b6b3a7640000906113b490859063ffffffff6123c016565b90508084600101541015611d5c5760405162461bcd60e51b81526004016106d99061309d565b6001840154611d71908263ffffffff61239816565b6001808601919091553360009081526006850160205260409020805460ff191690911790558760073360008181526004870160205260409081902054905160008051602061350b83398151915291611dcf918d919088904290612e37565b60405180910390a4604051339082156108fc029083906000818181858888f19350505050158015611e04573d6000803e3d6000fd5b505050505050505050565b6007546006546040516370a0823160e01b8152600092916001600160a01b0316906370a0823190611e44903390600401612d6d565b60206040518083038186803b158015611e5c57600080fd5b505afa158015611e70573d6000803e3d6000fd5b505050506040513d601f19601f82011682018060405250611e949190810190612bd9565b1015611eb25760405162461bcd60e51b81526004016106d990613117565b60025460008054600181810183557f290decd9548b62a8d60345a988386fc84ba6bc95484008f6362f93160ef3e5639091018390558282526020526040902034611f0e5760405162461bcd60e51b81526004016106d990612edb565b428611611f2d5760405162461bcd60e51b81526004016106d9906131f0565b6001600160a01b038516611f535760405162461bcd60e51b81526004016106d9906133c5565b83600214611f735760405162461bcd60e51b81526004016106d990612ff8565b85815560068101805460ff19169055600354600a820155600019600882015560005b84811015611fd757600d820180546001818101835560009283526020808420909201849055838352600e85019091526040909120848155810182905501611f95565b506000600460009054906101000a90046001600160a01b03169050806001600160a01b031663d4876b9f60028d8d8a6005548d6000806040518963ffffffff1660e01b8152600401612030989796959493929190612e52565b602060405180830381600087803b15801561204a57600080fd5b505af115801561205e573d6000803e3d6000fd5b505050506040513d601f19601f820116820180604052506120829190810190612bd9565b600983015561209183346126ad565b61209a83612244565b82336001600160a01b03167f928446b14f4c661d8499681f1d2eb118eb6e89066877a7d43e0672a27cc63a32878e8e8e8e6040516120dc9594939291906134c3565b60405180910390a3505060028054600101905598975050505050505050565b6000828152600160209081526040808320848452600e8101909252822082918291612126878761130b565b6003820154600290920154909891975095509350505050565b6006546001600160a01b031681565b600082815260016020908152604080832060028101546001600160a01b03861685526004820190935290832054600b82015491928492612198926113b4919063ffffffff6123c016565b6001600160a01b0385166000908152600c840160205260409020549091508110156121c8576000925050506113c5565b6001600160a01b0384166000908152600c830160205260409020546113c090829063ffffffff61239816565b6000818152600160205260409020600681015460ff16600281111561221557fe5b600101600281111561222357fe5b60068201805460ff1916600183600281111561223b57fe5b02179055505050565b6000818152600160205260408120905b600d8201548110156122ac5780837f8270f0a0534b13b7f92d1dbd58aa75c5207b40c55fefa7a17110c6136ad7270b61228d868561130b565b4260405161229c9291906134fc565b60405180910390a3600101612254565b50817f1eca98f266e5348ae38d5d057a4d8e451e76672f69ac6ba4b0e3b31ea9c7eb2b82600201546122dd85611b2b565b426040516122ed939291906134ad565b60405180910390a25050565b6000838152600160209081526040808320858452600e810183528184206001600160a01b03891685526004810190935292205461233c908463ffffffff61239816565b6001600160a01b0387166000908152600483016020526040902055600381015461236c908463ffffffff6123fa16565b600380830191909155820154612388908463ffffffff6123fa16565b8260030181905550505050505050565b6000828211156123ba5760405162461bcd60e51b81526004016106d990613066565b50900390565b6000826123cf575060006113c5565b828202828482816123dc57fe5b0414611bd75760405162461bcd60e51b81526004016106d9906131af565b600082820183811015611bd75760405162461bcd60e51b81526004016106d990612f4b565b6000828152600160205260408120905b600d8201548110156124a2576000818152600e8301602052604090206003810154612460908563ffffffff61239816565b6003820155600281015461247a908563ffffffff61239816565b60028201556003830154612494908563ffffffff61239816565b60038401555060010161242f565b5060018101546124b8908363ffffffff61239816565b6001909101555050565b6000828152600160205260408120905b600d820154811015612545576000818152600e8301602052604090206003810154612503908563ffffffff6123fa16565b6003820155600281015461251d908563ffffffff6123fa16565b60028201556003830154612537908563ffffffff6123fa16565b6003840155506001016124d2565b5060018101546124b8908363ffffffff6123fa16565b6000838152600160209081526040808320858452600e810183528184206001600160a01b03891685526004810190935292205461259e908463ffffffff6123fa16565b6001600160a01b038716600090815260048301602052604090205560038101546125ce908463ffffffff61239816565b600380830191909155820154612388908463ffffffff61239816565b600081815260016020908152604091829020600d8101548351818152818402810190930190935260609290918391801561262e578160200160208202803883390190505b50905060005b600d830154811015612675576000818152600e84016020526040902060030154825183908390811061266257fe5b6020908102919091010152600101612634565b509392505050565b6000821561269c5781600184038161269157fe5b0460010190506113c5565b8183816126a557fe5b049392505050565b6000828152600160205260409020548290421180156126e9575060008181526001602052604081206006015460ff1660028111156126e757fe5b145b156126f7576126f7816121f4565b8260008060008381526001602052604090206006015460ff16600281111561271b57fe5b146127385760405162461bcd60e51b81526004016106d990613348565b6000858152600160205260409020846127635760405162461bcd60e51b81526004016106d99061302f565b60006060612770886125ea565b90506060815160405190808252806020026020018201604052801561279f578160200160208202803883390190505b5060028501549091506000901561288e5760005b83518110156127e95760008482815181106127ca57fe5b60200260200101519050808310156127e0578092505b506001016127b3565b5060005b83518110156128595760008261281f86848151811061280857fe5b60200260200101518d6123c090919063ffffffff16565b8161282657fe5b0490506128398b8263ffffffff61239816565b84838151811061284557fe5b6020908102919091010152506001016127ed565b508061287286600201548b6123c090919063ffffffff16565b8161287957fe5b0493506128888a856002612a8b565b50612892565b8893505b60028501546128a7908563ffffffff6123fa16565b60028601553360009081526004860160205260409020546128ce908563ffffffff6123fa16565b3360009081526004870160205260409020556128ea8a8a6124c2565b60005b82518110156129b057600083828151811061290457fe5b602002602001015111156129a8576003808701546000838152600e8901602052604090209091015484516129449033908f90869089908290811061169257fe5b8c6000336001600160a01b031660008051602061350b8339815191528689888151811061296d57fe5b602002602001015161298c8e600301546113b48d8c815181106116e757fe5b4260405161299d9493929190612e37565b60405180910390a450505b6001016128ed565b5060006129bc8b611b2b565b90506000670de0b6b3a76400006129d9838863ffffffff6123c016565b816129e057fe5b0490508b6002336001600160a01b031660008051602061350b83398151915260008a8642604051612a149493929190612e37565b60405180910390a48b7f1eca98f266e5348ae38d5d057a4d8e451e76672f69ac6ba4b0e3b31ea9c7eb2b88600201548442604051612a54939291906134ad565b60405180910390a2505050505050505050505050565b600080821161269c5760405162461bcd60e51b81526004016106d9906130e0565b60008381526001602052604081206002810154600b8201548391612aba916113b490889063ffffffff6123c016565b90506002846007811115612aca57fe5b1415612b2357600b820154612ae5908263ffffffff6123fa16565b600b830155336000908152600c83016020526040902054612b0c908263ffffffff6123fa16565b336000908152600c84016020526040902055612b72565b600b820154612b38908263ffffffff61239816565b600b830155336000908152600c83016020526040902054612b5f908263ffffffff61239816565b336000908152600c840160205260409020555b50509392505050565b80356001600160a01b03811681146113c557600080fd5b60008083601f840112612ba3578182fd5b50813567ffffffffffffffff811115612bba578182fd5b602083019150836020828501011115612bd257600080fd5b9250929050565b600060208284031215612bea578081fd5b5051919050565b600080600080600080600060a0888a031215612c0b578283fd5b873567ffffffffffffffff80821115612c22578485fd5b612c2e8b838c01612b92565b909950975060208a0135915080821115612c46578485fd5b50612c538a828b01612b92565b90965094505060408801359250612c6d8960608a01612b7b565b91506080880135905092959891949750929550565b600060208284031215612c93578081fd5b5035919050565b60008060408385031215612cac578182fd5b82359150612cbd8460208501612b7b565b90509250929050565b60008060408385031215612cd8578182fd5b50508035926020909101359150565b600080600060608486031215612cfb578283fd5b505081359360208301359350604090920135919050565b60008060008060808587031215612d27578384fd5b5050823594602084013594506040840135936060013592509050565b60008284528282602086013780602084860101526020601f19601f85011685010190509392505050565b6001600160a01b0391909116815260200190565b6020808252825182820181905260009190848201906040850190845b81811015612db957835183529284019291840191600101612d9d565b50909695505050505050565b901515815260200190565b94151585529215156020850152901515604084015215156060830152608082015260a00190565b90815260200190565b60c0810160038810612e0e57fe5b968152602081019590955260408501939093526060840191909152608083015260a09091015290565b93845260208401929092526040830152606082015260800190565b600089825260e06020830152612e6c60e08301898b612d43565b6001600160a01b039790971660408301525063ffffffff948516606082015292909316608083015260a082015260c001529392505050565b6020808252601b908201527f6d7573742068617665206e6f6e2d7a65726f2062616c616e6365730000000000604082015260600190565b60208082526015908201527407374616b65206e6565647320746f206265203e203605c1b604082015260600190565b60208082526021908201527f7573657220646f6573206e6f7420686f6c64206f7574636f6d652073686172656040820152607360f81b606082015260800190565b6020808252601b908201527f536166654d6174683a206164646974696f6e206f766572666c6f770000000000604082015260600190565b602080825260129082015271073686172657320616d6f756e7420697320360741b604082015260600190565b6020808252602a908201527f7573657220646f6573206e6f7420686f6c64207265736f6c766564206f7574636040820152696f6d652073686172657360b01b606082015260800190565b6020808252601e908201527f6e756d626572206f66206f7574636f6d65732068617320746f20626520320000604082015260600190565b6020808252601f908201527f7374616b652068617320746f2062652067726561746572207468616e20302e00604082015260600190565b6020808252601e908201527f536166654d6174683a207375627472616374696f6e206f766572666c6f770000604082015260600190565b60208082526023908201527f4d61726b657420646f6573206e6f74206861766520656e6f7567682062616c616040820152626e636560e81b606082015260800190565b6020808252601a908201527f536166654d6174683a206469766973696f6e206279207a65726f000000000000604082015260600190565b6020808252602a908201527f6d73672e73656e646572206d75737420686f6c64206d696e696d756d2065726360408201526932302062616c616e636560b01b606082015260800190565b6020808252602e908201527f7573657220616c726561647920636c61696d6564207265736f6c766564206f7560408201526d74636f6d652077696e6e696e677360901b606082015260800190565b60208082526021908201527f536166654d6174683a206d756c7469706c69636174696f6e206f766572666c6f6040820152607760f81b606082015260800190565b6020808252602a908201527f6d61726b6574206d757374207265736f6c7665206166746572207468652063756040820152697272656e74206461746560b01b606082015260800190565b60208082526027908201527f7573657220616c726561647920636c61696d6564206c69717569646974792077604082015266696e6e696e677360c81b606082015260800190565b60208082526023908201527f7573657220646f6573206e6f7420686f6c64206c69717569646974792073686160408201526272657360e81b606082015260800190565b60208082526023908201527f6d61726b657420646f6573206e6f74206861766520656e6f7567682062616c616040820152626e636560e81b606082015260800190565b60208082526021908201527f7573657220646f6573206e6f74206861766520656e6f7567682062616c616e636040820152606560f81b606082015260800190565b60208082526019908201527f4d61726b657420696e20696e636f727265637420737461746500000000000000604082015260600190565b60208082526026908201527f6f7574636f6d652073686172657320706f6f6c2062616c616e636520697320746040820152656f6f206c6f7760d01b606082015260800190565b6020808252601a908201527f696e76616c69642061726269747261746f722061646472657373000000000000604082015260600190565b6020808252601e908201527f6d696e696d756d2062757920616d6f756e74206e6f7420726561636865640000604082015260600190565b6020808252601c908201527f6d6178696d756d2073656c6c20616d6f756e7420657863656564656400000000604082015260600190565b60208082526023908201527f7573657220616c726561647920636c61696d6564206f7574636f6d652073686160408201526272657360e81b606082015260800190565b9283526020830191909152604082015260600190565b6000868252606060208301526134dd606083018688612d43565b82810360408401526134f0818587612d43565b98975050505050505050565b91825260208201526040019056fe9dcabe311735ed0d65f0c22c5425d1f17331f94c9d0767f59e58473cf95ada61a2646970667358221220b89e6e619d3667e7c276432c71b641eebfbf7287208a480d66b694bc76a6b1e464736f6c63430006020033",
  "source": "pragma solidity ^0.6.0;\npragma experimental ABIEncoderV2;\n\nimport \"./RealitioERC20.sol\";\n\n// openzeppelin imports\nimport \"@openzeppelin/contracts/math/SafeMath.sol\";\n\nlibrary CeilDiv {\n  // calculates ceil(x/y)\n  function ceildiv(uint256 x, uint256 y) internal pure returns (uint256) {\n    if (x > 0) return ((x - 1) / y) + 1;\n    return x / y;\n  }\n}\n\n/// @title Market Contract Factory\ncontract PredictionMarket {\n  using SafeMath for uint256;\n  using CeilDiv for uint256;\n\n  // ------ Events ------\n\n  event MarketCreated(address indexed user, uint256 indexed marketId, uint256 outcomes, string question, string image);\n\n  event MarketActionTx(\n    address indexed user,\n    MarketAction indexed action,\n    uint256 indexed marketId,\n    uint256 outcomeId,\n    uint256 shares,\n    uint256 value,\n    uint256 timestamp\n  );\n\n  event MarketOutcomePrice(uint256 indexed marketId, uint256 indexed outcomeId, uint256 value, uint256 timestamp);\n\n  event MarketLiquidity(\n    uint256 indexed marketId,\n    uint256 value, // total liquidity\n    uint256 price, // value of one liquidity share; max: 1 (50-50 situation)\n    uint256 timestamp\n  );\n\n  event MarketResolved(address indexed user, uint256 indexed marketId, uint256 outcomeId, uint256 timestamp);\n\n  // ------ Events End ------\n\n  uint256 public constant MAX_UINT_256 = 115792089237316195423570985008687907853269984665640564039457584007913129639935;\n\n  uint256 public constant ONE = 10**18;\n\n  enum MarketState {\n    open,\n    closed,\n    resolved\n  }\n  enum MarketAction {\n    buy,\n    sell,\n    addLiquidity,\n    removeLiquidity,\n    claimWinnings,\n    claimLiquidity,\n    claimFees,\n    claimVoided\n  }\n\n  struct Market {\n    // market details\n    uint256 closesAtTimestamp;\n    uint256 balance; // total stake\n    uint256 liquidity; // stake held\n    uint256 sharesAvailable; // shares held (all outcomes)\n    mapping(address => uint256) liquidityShares;\n    mapping(address => bool) liquidityClaims; // wether user has claimed liquidity earnings\n    MarketState state; // resolution variables\n    MarketResolution resolution; // fees\n    MarketFees fees;\n    // market outcomes\n    uint256[] outcomeIds;\n    mapping(uint256 => MarketOutcome) outcomes;\n  }\n\n  struct MarketFees {\n    uint256 value; // fee % taken from every transaction\n    uint256 poolWeight; // internal var used to ensure pro-rate fee distribution\n    mapping(address => uint256) claimed;\n  }\n\n  struct MarketResolution {\n    bool resolved;\n    uint256 outcomeId;\n    bytes32 questionId; // realitio questionId\n  }\n\n  struct MarketOutcome {\n    uint256 marketId;\n    uint256 id;\n    Shares shares;\n  }\n\n  struct Shares {\n    uint256 total; // number of shares\n    uint256 available; // available shares\n    mapping(address => uint256) holders;\n    mapping(address => bool) claims; // wether user has claimed winnings\n    mapping(address => bool) voidedClaims; // wether user has claimed voided market shares\n  }\n\n  uint256[] marketIds;\n  mapping(uint256 => Market) markets;\n  uint256 public marketIndex;\n\n  // governance\n  uint256 public fee; // fee % taken from every transaction\n  // realitio configs\n  address public realitioAddress;\n  uint256 public realitioTimeout;\n  // market creation\n  IERC20 public token; // token used for rewards / market creation\n  uint256 public requiredBalance; // required balance for market creation\n\n  // ------ Modifiers ------\n\n  modifier isMarket(uint256 marketId) {\n    require(marketId < marketIndex, \"Market not found\");\n    _;\n  }\n\n  modifier timeTransitions(uint256 marketId) {\n    if (now > markets[marketId].closesAtTimestamp && markets[marketId].state == MarketState.open) {\n      nextState(marketId);\n    }\n    _;\n  }\n\n  modifier atState(uint256 marketId, MarketState state) {\n    require(markets[marketId].state == state, \"Market in incorrect state\");\n    _;\n  }\n\n  modifier notAtState(uint256 marketId, MarketState state) {\n    require(markets[marketId].state != state, \"Market in incorrect state\");\n    _;\n  }\n\n  modifier transitionNext(uint256 marketId) {\n    _;\n    nextState(marketId);\n  }\n\n  modifier mustHoldRequiredBalance() {\n    require(token.balanceOf(msg.sender) >= requiredBalance, \"msg.sender must hold minimum erc20 balance\");\n    _;\n  }\n\n  // ------ Modifiers End ------\n\n  /// @dev protocol is immutable and has no ownership\n  constructor(\n    uint256 _fee,\n    IERC20 _token,\n    uint256 _requiredBalance,\n    address _realitioAddress,\n    uint256 _realitioTimeout\n  ) public {\n    require(_realitioAddress != address(0), \"_realitioAddress is address 0\");\n    require(_realitioTimeout > 0, \"timeout must be positive\");\n\n    fee = _fee;\n    token = _token;\n    requiredBalance = _requiredBalance;\n    realitioAddress = _realitioAddress;\n    realitioTimeout = _realitioTimeout;\n  }\n\n  // ------ Core Functions ------\n\n  /// @dev Creates a market, initializes the outcome shares pool and submits a question in Realitio\n  function createMarket(\n    string calldata question,\n    string calldata image,\n    uint256 closesAt,\n    address arbitrator,\n    uint256 outcomes\n  ) external payable mustHoldRequiredBalance returns (uint256) {\n    uint256 marketId = marketIndex;\n    marketIds.push(marketId);\n\n    Market storage market = markets[marketId];\n\n    require(msg.value > 0, \"stake needs to be > 0\");\n    require(closesAt > now, \"market must resolve after the current date\");\n    require(arbitrator != address(0), \"invalid arbitrator address\");\n    // v1 - only binary markets\n    require(outcomes == 2, \"number of outcomes has to be 2\");\n\n    market.closesAtTimestamp = closesAt;\n    market.state = MarketState.open;\n    market.fees.value = fee;\n    // setting intial value to an integer that does not map to any outcomeId\n    market.resolution.outcomeId = MAX_UINT_256;\n\n    // creating market outcomes\n    for (uint256 i = 0; i < outcomes; i++) {\n      market.outcomeIds.push(i);\n      MarketOutcome storage outcome = market.outcomes[i];\n\n      outcome.marketId = marketId;\n      outcome.id = i;\n    }\n\n    // creating question in realitio\n    RealitioERC20 realitio = RealitioERC20(realitioAddress);\n\n    market.resolution.questionId = realitio.askQuestionERC20(\n      2,\n      question,\n      arbitrator,\n      uint32(realitioTimeout),\n      uint32(closesAt),\n      0,\n      0\n    );\n\n    addLiquidity(marketId, msg.value);\n\n    // emiting initial price events\n    emitMarketOutcomePriceEvents(marketId);\n    emit MarketCreated(msg.sender, marketId, outcomes, question, image);\n\n    // incrementing market array index\n    marketIndex = marketIndex + 1;\n\n    return marketId;\n  }\n\n  /// @dev Calculates the number of shares bought with \"amount\" balance\n  function calcBuyAmount(\n    uint256 amount,\n    uint256 marketId,\n    uint256 outcomeId\n  ) public view returns (uint256) {\n    Market storage market = markets[marketId];\n\n    uint256[] memory outcomesShares = getMarketOutcomesShares(marketId);\n    uint256 amountMinusFees = amount.sub(amount.mul(market.fees.value) / ONE);\n    uint256 buyTokenPoolBalance = outcomesShares[outcomeId];\n    uint256 endingOutcomeBalance = buyTokenPoolBalance.mul(ONE);\n    for (uint256 i = 0; i < outcomesShares.length; i++) {\n      if (i != outcomeId) {\n        uint256 outcomeShares = outcomesShares[i];\n        endingOutcomeBalance = endingOutcomeBalance.mul(outcomeShares).ceildiv(outcomeShares.add(amountMinusFees));\n      }\n    }\n    require(endingOutcomeBalance > 0, \"must have non-zero balances\");\n\n    return buyTokenPoolBalance.add(amountMinusFees).sub(endingOutcomeBalance.ceildiv(ONE));\n  }\n\n  /// @dev Calculates the number of shares needed to be sold in order to receive \"amount\" in balance\n  function calcSellAmount(\n    uint256 amount,\n    uint256 marketId,\n    uint256 outcomeId\n  ) public view returns (uint256 outcomeTokenSellAmount) {\n    Market storage market = markets[marketId];\n\n    uint256[] memory outcomesShares = getMarketOutcomesShares(marketId);\n    uint256 amountPlusFees = amount.mul(ONE) / ONE.sub(market.fees.value);\n    uint256 sellTokenPoolBalance = outcomesShares[outcomeId];\n    uint256 endingOutcomeBalance = sellTokenPoolBalance.mul(ONE);\n    for (uint256 i = 0; i < outcomesShares.length; i++) {\n      if (i != outcomeId) {\n        uint256 outcomeShares = outcomesShares[i];\n        endingOutcomeBalance = endingOutcomeBalance.mul(outcomeShares).ceildiv(outcomeShares.sub(amountPlusFees));\n      }\n    }\n    require(endingOutcomeBalance > 0, \"must have non-zero balances\");\n\n    return amountPlusFees.add(endingOutcomeBalance.ceildiv(ONE)).sub(sellTokenPoolBalance);\n  }\n\n  /// @dev Buy shares of a market outcome\n  function buy(\n    uint256 marketId,\n    uint256 outcomeId,\n    uint256 minOutcomeSharesToBuy\n  ) external payable timeTransitions(marketId) atState(marketId, MarketState.open) {\n    Market storage market = markets[marketId];\n\n    uint256 value = msg.value;\n    uint256 shares = calcBuyAmount(value, marketId, outcomeId);\n    require(shares >= minOutcomeSharesToBuy, \"minimum buy amount not reached\");\n    require(shares > 0, \"shares amount is 0\");\n\n    // subtracting fee from transaction value\n    uint256 feeAmount = value.mul(market.fees.value) / ONE;\n    market.fees.poolWeight = market.fees.poolWeight.add(feeAmount);\n    uint256 valueMinusFees = value.sub(feeAmount);\n\n    MarketOutcome storage outcome = market.outcomes[outcomeId];\n\n    // Funding market shares with received funds\n    addSharesToMarket(marketId, valueMinusFees);\n\n    require(outcome.shares.available >= shares, \"outcome shares pool balance is too low\");\n\n    transferOutcomeSharesfromPool(msg.sender, marketId, outcomeId, shares);\n\n    emit MarketActionTx(msg.sender, MarketAction.buy, marketId, outcomeId, shares, value, now);\n    emitMarketOutcomePriceEvents(marketId);\n  }\n\n  /// @dev Sell shares of a market outcome\n  function sell(\n    uint256 marketId,\n    uint256 outcomeId,\n    uint256 value,\n    uint256 maxOutcomeSharesToSell\n  ) external payable timeTransitions(marketId) atState(marketId, MarketState.open) {\n    Market storage market = markets[marketId];\n    MarketOutcome storage outcome = market.outcomes[outcomeId];\n\n    uint256 shares = calcSellAmount(value, marketId, outcomeId);\n\n    require(shares <= maxOutcomeSharesToSell, \"maximum sell amount exceeded\");\n    require(shares > 0, \"shares amount is 0\");\n    require(outcome.shares.holders[msg.sender] >= shares, \"user does not have enough balance\");\n\n    transferOutcomeSharesToPool(msg.sender, marketId, outcomeId, shares);\n\n    // adding fee to transaction value\n    uint256 feeAmount = value.mul(market.fees.value) / (ONE.sub(fee));\n    market.fees.poolWeight = market.fees.poolWeight.add(feeAmount);\n    uint256 valuePlusFees = value.add(feeAmount);\n\n    require(market.balance >= valuePlusFees, \"market does not have enough balance\");\n\n    // Rebalancing market shares\n    removeSharesFromMarket(marketId, valuePlusFees);\n\n    // Transferring funds to user\n    msg.sender.transfer(value);\n\n    emit MarketActionTx(msg.sender, MarketAction.sell, marketId, outcomeId, shares, value, now);\n    emitMarketOutcomePriceEvents(marketId);\n  }\n\n  /// @dev Adds liquidity to a market - external\n  function addLiquidity(uint256 marketId)\n    external\n    payable\n    timeTransitions(marketId)\n    atState(marketId, MarketState.open)\n  {\n    addLiquidity(marketId, msg.value);\n  }\n\n  /// @dev Private function, used by addLiquidity and CreateMarket\n  function addLiquidity(uint256 marketId, uint256 value)\n    private\n    timeTransitions(marketId)\n    atState(marketId, MarketState.open)\n  {\n    Market storage market = markets[marketId];\n\n    require(value > 0, \"stake has to be greater than 0.\");\n\n    uint256 liquidityAmount;\n\n    uint256[] memory outcomesShares = getMarketOutcomesShares(marketId);\n    uint256[] memory sendBackAmounts = new uint256[](outcomesShares.length);\n    uint256 poolWeight = 0;\n\n    if (market.liquidity > 0) {\n      // part of the liquidity is exchanged for outcome shares if market is not balanced\n      for (uint256 i = 0; i < outcomesShares.length; i++) {\n        uint256 outcomeShares = outcomesShares[i];\n        if (poolWeight < outcomeShares) poolWeight = outcomeShares;\n      }\n\n      for (uint256 i = 0; i < outcomesShares.length; i++) {\n        uint256 remaining = value.mul(outcomesShares[i]) / poolWeight;\n        sendBackAmounts[i] = value.sub(remaining);\n      }\n\n      liquidityAmount = value.mul(market.liquidity) / poolWeight;\n\n      // re-balancing fees pool\n      rebalanceFeesPool(marketId, liquidityAmount, MarketAction.addLiquidity);\n    } else {\n      // funding market with no liquidity\n      liquidityAmount = value;\n    }\n\n    // funding market\n    market.liquidity = market.liquidity.add(liquidityAmount);\n    market.liquidityShares[msg.sender] = market.liquidityShares[msg.sender].add(liquidityAmount);\n\n    addSharesToMarket(marketId, value);\n\n    // transform sendBackAmounts to array of amounts added\n    for (uint256 i = 0; i < sendBackAmounts.length; i++) {\n      if (sendBackAmounts[i] > 0) {\n        uint256 marketShares = market.sharesAvailable;\n        uint256 outcomeShares = market.outcomes[i].shares.available;\n        transferOutcomeSharesfromPool(msg.sender, marketId, i, sendBackAmounts[i]);\n        emit MarketActionTx(\n          msg.sender,\n          MarketAction.buy,\n          marketId,\n          i,\n          sendBackAmounts[i],\n          (marketShares.sub(outcomeShares)).mul(sendBackAmounts[i]).div(market.sharesAvailable), // price * shares\n          now\n        );\n      }\n    }\n\n    uint256 liquidityPrice = getMarketLiquidityPrice(marketId);\n    uint256 liquidityValue = liquidityPrice.mul(liquidityAmount) / ONE;\n    emit MarketActionTx(msg.sender, MarketAction.addLiquidity, marketId, 0, liquidityAmount, liquidityValue, now);\n    emit MarketLiquidity(marketId, market.liquidity, liquidityPrice, now);\n  }\n\n  /// @dev Removes liquidity to a market - external\n  function removeLiquidity(uint256 marketId, uint256 shares)\n    external\n    payable\n    timeTransitions(marketId)\n    atState(marketId, MarketState.open)\n  {\n    Market storage market = markets[marketId];\n\n    require(market.liquidityShares[msg.sender] >= shares, \"user does not have enough balance\");\n    // claiming any pending fees\n    claimFees(marketId);\n\n    // re-balancing fees pool\n    rebalanceFeesPool(marketId, shares, MarketAction.removeLiquidity);\n\n    uint256[] memory outcomesShares = getMarketOutcomesShares(marketId);\n    uint256[] memory sendAmounts = new uint256[](outcomesShares.length);\n    uint256 poolWeight = MAX_UINT_256;\n\n    // part of the liquidity is exchanged for outcome shares if market is not balanced\n    for (uint256 i = 0; i < outcomesShares.length; i++) {\n      uint256 outcomeShares = outcomesShares[i];\n      if (poolWeight > outcomeShares) poolWeight = outcomeShares;\n    }\n\n    uint256 liquidityAmount = shares.mul(poolWeight).div(market.liquidity);\n\n    for (uint256 i = 0; i < outcomesShares.length; i++) {\n      sendAmounts[i] = outcomesShares[i].mul(shares) / market.liquidity;\n      sendAmounts[i] = sendAmounts[i].sub(liquidityAmount);\n    }\n\n    // removing liquidity from market\n    removeSharesFromMarket(marketId, liquidityAmount);\n    market.liquidity = market.liquidity.sub(shares);\n    // removing liquidity tokens from market creator\n    market.liquidityShares[msg.sender] = market.liquidityShares[msg.sender].sub(shares);\n\n    for (uint256 i = 0; i < outcomesShares.length; i++) {\n      if (sendAmounts[i] > 0) {\n        uint256 marketShares = market.sharesAvailable;\n        uint256 outcomeShares = market.outcomes[i].shares.available;\n\n        transferOutcomeSharesfromPool(msg.sender, marketId, i, sendAmounts[i]);\n        emit MarketActionTx(\n          msg.sender,\n          MarketAction.buy,\n          marketId,\n          i,\n          sendAmounts[i],\n          (marketShares.sub(outcomeShares)).mul(sendAmounts[i]).div(market.sharesAvailable), // price * shares\n          now\n        );\n      }\n    }\n\n    // transferring user funds from liquidity removed\n    msg.sender.transfer(liquidityAmount);\n\n    emit MarketActionTx(msg.sender, MarketAction.removeLiquidity, marketId, 0, shares, liquidityAmount, now);\n    emit MarketLiquidity(marketId, market.liquidity, getMarketLiquidityPrice(marketId), now);\n  }\n\n  /// @dev Fetches winning outcome from Realitio and resolves the market\n  function resolveMarketOutcome(uint256 marketId)\n    external\n    timeTransitions(marketId)\n    atState(marketId, MarketState.closed)\n    transitionNext(marketId)\n    returns (uint256)\n  {\n    Market storage market = markets[marketId];\n\n    RealitioERC20 realitio = RealitioERC20(realitioAddress);\n    // will fail if question is not finalized\n    uint256 outcomeId = uint256(realitio.resultFor(market.resolution.questionId));\n\n    market.resolution.outcomeId = outcomeId;\n\n    emit MarketResolved(msg.sender, marketId, outcomeId, now);\n    emitMarketOutcomePriceEvents(marketId);\n\n    return market.resolution.outcomeId;\n  }\n\n  /// @dev Allows holders of resolved outcome shares to claim earnings.\n  function claimWinnings(uint256 marketId) external atState(marketId, MarketState.resolved) {\n    Market storage market = markets[marketId];\n    MarketOutcome storage resolvedOutcome = market.outcomes[market.resolution.outcomeId];\n\n    require(resolvedOutcome.shares.holders[msg.sender] > 0, \"user does not hold resolved outcome shares\");\n    require(resolvedOutcome.shares.claims[msg.sender] == false, \"user already claimed resolved outcome winnings\");\n\n    // 1 share => price = 1\n    uint256 value = resolvedOutcome.shares.holders[msg.sender];\n\n    // assuring market has enough funds\n    require(market.balance >= value, \"Market does not have enough balance\");\n\n    market.balance = market.balance.sub(value);\n    resolvedOutcome.shares.claims[msg.sender] = true;\n\n    emit MarketActionTx(\n      msg.sender,\n      MarketAction.claimWinnings,\n      marketId,\n      market.resolution.outcomeId,\n      resolvedOutcome.shares.holders[msg.sender],\n      value,\n      now\n    );\n\n    msg.sender.transfer(value);\n  }\n\n  /// @dev Allows holders of voided outcome shares to claim balance back.\n  function claimVoidedOutcomeShares(uint256 marketId, uint256 outcomeId)\n    external\n    atState(marketId, MarketState.resolved)\n  {\n    Market storage market = markets[marketId];\n    MarketOutcome storage outcome = market.outcomes[outcomeId];\n\n    require(outcome.shares.holders[msg.sender] > 0, \"user does not hold outcome shares\");\n    require(outcome.shares.voidedClaims[msg.sender] == false, \"user already claimed outcome shares\");\n\n    // voided market - shares are valued at last market price\n    uint256 price = getMarketOutcomePrice(marketId, outcomeId);\n    uint256 value = price.mul(outcome.shares.holders[msg.sender]).div(ONE);\n\n    // assuring market has enough funds\n    require(market.balance >= value, \"Market does not have enough balance\");\n\n    market.balance = market.balance.sub(value);\n    outcome.shares.voidedClaims[msg.sender] = true;\n\n    emit MarketActionTx(\n      msg.sender,\n      MarketAction.claimVoided,\n      marketId,\n      outcomeId,\n      outcome.shares.holders[msg.sender],\n      value,\n      now\n    );\n\n    msg.sender.transfer(value);\n  }\n\n  /// @dev Allows liquidity providers to claim earnings from liquidity providing.\n  function claimLiquidity(uint256 marketId) external atState(marketId, MarketState.resolved) {\n    Market storage market = markets[marketId];\n\n    // claiming any pending fees\n    claimFees(marketId);\n\n    require(market.liquidityShares[msg.sender] > 0, \"user does not hold liquidity shares\");\n    require(market.liquidityClaims[msg.sender] == false, \"user already claimed liquidity winnings\");\n\n    // value = total resolved outcome pool shares * pool share (%)\n    uint256 liquidityPrice = getMarketLiquidityPrice(marketId);\n    uint256 value = liquidityPrice.mul(market.liquidityShares[msg.sender]) / ONE;\n\n    // assuring market has enough funds\n    require(market.balance >= value, \"Market does not have enough balance\");\n\n    market.balance = market.balance.sub(value);\n    market.liquidityClaims[msg.sender] = true;\n\n    emit MarketActionTx(\n      msg.sender,\n      MarketAction.claimLiquidity,\n      marketId,\n      0,\n      market.liquidityShares[msg.sender],\n      value,\n      now\n    );\n\n    msg.sender.transfer(value);\n  }\n\n  /// @dev Allows liquidity providers to claim their fees share from fees pool\n  function claimFees(uint256 marketId) public payable {\n    Market storage market = markets[marketId];\n\n    uint256 claimableFees = getUserClaimableFees(marketId, msg.sender);\n\n    if (claimableFees > 0) {\n      market.fees.claimed[msg.sender] = market.fees.claimed[msg.sender].add(claimableFees);\n      msg.sender.transfer(claimableFees);\n    }\n\n    emit MarketActionTx(\n      msg.sender,\n      MarketAction.claimFees,\n      marketId,\n      0,\n      market.liquidityShares[msg.sender],\n      claimableFees,\n      now\n    );\n  }\n\n  /// @dev Rebalances the fees pool. Needed in every AddLiquidity / RemoveLiquidity call\n  function rebalanceFeesPool(\n    uint256 marketId,\n    uint256 liquidityShares,\n    MarketAction action\n  ) private returns (uint256) {\n    Market storage market = markets[marketId];\n\n    uint256 poolWeight = liquidityShares.mul(market.fees.poolWeight).div(market.liquidity);\n\n    if (action == MarketAction.addLiquidity) {\n      market.fees.poolWeight = market.fees.poolWeight.add(poolWeight);\n      market.fees.claimed[msg.sender] = market.fees.claimed[msg.sender].add(poolWeight);\n    } else {\n      market.fees.poolWeight = market.fees.poolWeight.sub(poolWeight);\n      market.fees.claimed[msg.sender] = market.fees.claimed[msg.sender].sub(poolWeight);\n    }\n  }\n\n  /// @dev Transitions market to next state\n  function nextState(uint256 marketId) private {\n    Market storage market = markets[marketId];\n    market.state = MarketState(uint256(market.state) + 1);\n  }\n\n  /// @dev Emits a outcome price event for every outcome\n  function emitMarketOutcomePriceEvents(uint256 marketId) private {\n    Market storage market = markets[marketId];\n\n    for (uint256 i = 0; i < market.outcomeIds.length; i++) {\n      emit MarketOutcomePrice(marketId, i, getMarketOutcomePrice(marketId, i), now);\n    }\n\n    // liquidity shares also change value\n    emit MarketLiquidity(marketId, market.liquidity, getMarketLiquidityPrice(marketId), now);\n  }\n\n  /// @dev Adds outcome shares to shares pool\n  function addSharesToMarket(uint256 marketId, uint256 shares) private {\n    Market storage market = markets[marketId];\n\n    for (uint256 i = 0; i < market.outcomeIds.length; i++) {\n      MarketOutcome storage outcome = market.outcomes[i];\n\n      outcome.shares.available = outcome.shares.available.add(shares);\n      outcome.shares.total = outcome.shares.total.add(shares);\n\n      // only adding to market total shares, the available remains\n      market.sharesAvailable = market.sharesAvailable.add(shares);\n    }\n\n    market.balance = market.balance.add(shares);\n  }\n\n  /// @dev Removes outcome shares from shares pool\n  function removeSharesFromMarket(uint256 marketId, uint256 shares) private {\n    Market storage market = markets[marketId];\n\n    for (uint256 i = 0; i < market.outcomeIds.length; i++) {\n      MarketOutcome storage outcome = market.outcomes[i];\n\n      outcome.shares.available = outcome.shares.available.sub(shares);\n      outcome.shares.total = outcome.shares.total.sub(shares);\n\n      // only subtracting from market total shares, the available remains\n      market.sharesAvailable = market.sharesAvailable.sub(shares);\n    }\n\n    market.balance = market.balance.sub(shares);\n  }\n\n  /// @dev Transfer outcome shares from pool to user balance\n  function transferOutcomeSharesfromPool(\n    address user,\n    uint256 marketId,\n    uint256 outcomeId,\n    uint256 shares\n  ) private {\n    Market storage market = markets[marketId];\n    MarketOutcome storage outcome = market.outcomes[outcomeId];\n\n    // transfering shares from shares pool to user\n    outcome.shares.holders[user] = outcome.shares.holders[user].add(shares);\n    outcome.shares.available = outcome.shares.available.sub(shares);\n    market.sharesAvailable = market.sharesAvailable.sub(shares);\n  }\n\n  /// @dev Transfer outcome shares from user balance back to pool\n  function transferOutcomeSharesToPool(\n    address user,\n    uint256 marketId,\n    uint256 outcomeId,\n    uint256 shares\n  ) private {\n    Market storage market = markets[marketId];\n    MarketOutcome storage outcome = market.outcomes[outcomeId];\n\n    // adding shares back to pool\n    outcome.shares.holders[user] = outcome.shares.holders[user].sub(shares);\n    outcome.shares.available = outcome.shares.available.add(shares);\n    market.sharesAvailable = market.sharesAvailable.add(shares);\n  }\n\n  // ------ Core Functions End ------\n\n  // ------ Getters ------\n\n  function getUserMarketShares(uint256 marketId, address user)\n    external\n    view\n    returns (\n      uint256,\n      uint256,\n      uint256\n    )\n  {\n    Market storage market = markets[marketId];\n\n    return (\n      market.liquidityShares[user],\n      market.outcomes[0].shares.holders[user],\n      market.outcomes[1].shares.holders[user]\n    );\n  }\n\n  function getUserClaimStatus(uint256 marketId, address user)\n    external\n    view\n    returns (\n      bool,\n      bool,\n      bool,\n      bool,\n      uint256\n    )\n  {\n    Market storage market = markets[marketId];\n\n    // market still not resolved\n    if (market.state != MarketState.resolved) {\n      return (false, false, false, false, getUserClaimableFees(marketId, user));\n    }\n\n    MarketOutcome storage outcome = market.outcomes[market.resolution.outcomeId];\n\n    return (\n      outcome.shares.holders[user] > 0,\n      outcome.shares.claims[user],\n      market.liquidityShares[user] > 0,\n      market.liquidityClaims[user],\n      getUserClaimableFees(marketId, user)\n    );\n  }\n\n  function getUserLiquidityPoolShare(uint256 marketId, address user) external view returns (uint256) {\n    Market storage market = markets[marketId];\n\n    return market.liquidityShares[user].mul(ONE).div(market.liquidity);\n  }\n\n  function getUserClaimableFees(uint256 marketId, address user) public view returns (uint256) {\n    Market storage market = markets[marketId];\n\n    uint256 rawAmount = market.fees.poolWeight.mul(market.liquidityShares[user]).div(market.liquidity);\n\n    // No fees left to claim\n    if (market.fees.claimed[user] > rawAmount) return 0;\n\n    return rawAmount.sub(market.fees.claimed[user]);\n  }\n\n  function getMarkets() external view returns (uint256[] memory) {\n    return marketIds;\n  }\n\n  function getMarketData(uint256 marketId)\n    external\n    view\n    returns (\n      MarketState,\n      uint256,\n      uint256,\n      uint256,\n      uint256,\n      int256\n    )\n  {\n    Market storage market = markets[marketId];\n\n    return (\n      market.state,\n      market.closesAtTimestamp,\n      market.liquidity,\n      market.balance,\n      market.sharesAvailable,\n      getMarketResolvedOutcome(marketId)\n    );\n  }\n\n  function getMarketAltData(uint256 marketId)\n    external\n    view\n    returns (\n      uint256,\n      bytes32,\n      uint256\n    )\n  {\n    Market storage market = markets[marketId];\n\n    return (market.fees.value, market.resolution.questionId, uint256(market.resolution.questionId));\n  }\n\n  function getMarketQuestion(uint256 marketId) external view returns (bytes32) {\n    Market storage market = markets[marketId];\n\n    return (market.resolution.questionId);\n  }\n\n  function getMarketPrices(uint256 marketId)\n    external\n    view\n    returns (\n      uint256,\n      uint256,\n      uint256\n    )\n  {\n    return (getMarketLiquidityPrice(marketId), getMarketOutcomePrice(marketId, 0), getMarketOutcomePrice(marketId, 1));\n  }\n\n  function getMarketLiquidityPrice(uint256 marketId) public view returns (uint256) {\n    Market storage market = markets[marketId];\n\n    if (market.state == MarketState.resolved && !isMarketVoided(marketId)) {\n      // resolved market, price is either 0 or 1\n      // final liquidity price = outcome shares / liquidity shares\n      return market.outcomes[market.resolution.outcomeId].shares.available.mul(ONE).div(market.liquidity);\n    }\n\n    // liquidity price = # liquidity shares / # outcome shares * # outcomes\n    return market.liquidity.mul(ONE * market.outcomeIds.length).div(market.sharesAvailable);\n  }\n\n  function getMarketResolvedOutcome(uint256 marketId) public view returns (int256) {\n    Market storage market = markets[marketId];\n\n    // returning -1 if market still not resolved\n    if (market.state != MarketState.resolved) {\n      return -1;\n    }\n\n    return int256(market.resolution.outcomeId);\n  }\n\n  function isMarketVoided(uint256 marketId) public view returns (bool) {\n    Market storage market = markets[marketId];\n\n    // market still not resolved, still in valid state\n    if (market.state != MarketState.resolved) {\n      return false;\n    }\n\n    // resolved market id does not match any of the market ids\n    return market.resolution.outcomeId >= market.outcomeIds.length;\n  }\n\n  // ------ Outcome Getters ------\n\n  function getMarketOutcomeIds(uint256 marketId) external view returns (uint256[] memory) {\n    Market storage market = markets[marketId];\n    return market.outcomeIds;\n  }\n\n  function getMarketOutcomePrice(uint256 marketId, uint256 outcomeId) public view returns (uint256) {\n    Market storage market = markets[marketId];\n    MarketOutcome storage outcome = market.outcomes[outcomeId];\n\n    if (market.state == MarketState.resolved && !isMarketVoided(marketId)) {\n      // resolved market, price is either 0 or 1\n      return outcomeId == market.resolution.outcomeId ? ONE : 0;\n    }\n\n    return (market.sharesAvailable.sub(outcome.shares.available)).mul(ONE).div(market.sharesAvailable);\n  }\n\n  function getMarketOutcomeData(uint256 marketId, uint256 outcomeId)\n    external\n    view\n    returns (\n      uint256,\n      uint256,\n      uint256\n    )\n  {\n    Market storage market = markets[marketId];\n    MarketOutcome storage outcome = market.outcomes[outcomeId];\n\n    return (getMarketOutcomePrice(marketId, outcomeId), outcome.shares.available, outcome.shares.total);\n  }\n\n  function getMarketOutcomesShares(uint256 marketId) private view returns (uint256[] memory) {\n    Market storage market = markets[marketId];\n\n    uint256[] memory shares = new uint256[](market.outcomeIds.length);\n    for (uint256 i = 0; i < market.outcomeIds.length; i++) {\n      shares[i] = market.outcomes[i].shares.available;\n    }\n\n    return shares;\n  }\n}\n",
  "sourcePath": "/Users/ricardomarques/dev/workspace/polkamarkets/bepro-js/contracts/PredictionMarket.sol",
  "compiler": {
    "name": "solc",
    "version": "0.6.2+commit.bacdbe57.Emscripten.clang"
  },
  "schemaVersion": "3.3.4",
  "updatedAt": "2023-05-15T13:27:56.214Z",
  "networkType": "ethereum",
  "devdoc": {
    "methods": {
      "addLiquidity(uint256)": {
        "details": "Adds liquidity to a market - external"
      },
      "buy(uint256,uint256,uint256)": {
        "details": "Buy shares of a market outcome"
      },
      "calcBuyAmount(uint256,uint256,uint256)": {
        "details": "Calculates the number of shares bought with \"amount\" balance"
      },
      "calcSellAmount(uint256,uint256,uint256)": {
        "details": "Calculates the number of shares needed to be sold in order to receive \"amount\" in balance"
      },
      "claimFees(uint256)": {
        "details": "Allows liquidity providers to claim their fees share from fees pool"
      },
      "claimLiquidity(uint256)": {
        "details": "Allows liquidity providers to claim earnings from liquidity providing."
      },
      "claimVoidedOutcomeShares(uint256,uint256)": {
        "details": "Allows holders of voided outcome shares to claim balance back."
      },
      "claimWinnings(uint256)": {
        "details": "Allows holders of resolved outcome shares to claim earnings."
      },
      "constructor": {
        "details": "protocol is immutable and has no ownership"
      },
      "createMarket(string,string,uint256,address,uint256)": {
        "details": "Creates a market, initializes the outcome shares pool and submits a question in Realitio"
      },
      "removeLiquidity(uint256,uint256)": {
        "details": "Removes liquidity to a market - external"
      },
      "resolveMarketOutcome(uint256)": {
        "details": "Fetches winning outcome from Realitio and resolves the market"
      },
      "sell(uint256,uint256,uint256,uint256)": {
        "details": "Sell shares of a market outcome"
      }
    },
    "title": "Market Contract Factory"
  },
  "userdoc": {
    "methods": {}
  }
}