{
  "contractName": "PredictionMarketV3Factory",
  "abi": [
    {
      "inputs": [
        {
          "internalType": "contract IERC20",
          "name": "_token",
          "type": "address"
        },
        {
          "internalType": "uint256",
          "name": "_lockAmount",
          "type": "uint256"
        },
        {
          "internalType": "address",
          "name": "_PMV3LibraryAddress",
          "type": "address"
        },
        {
          "internalType": "address",
          "name": "_realitioLibraryAddress",
          "type": "address"
        }
      ],
      "stateMutability": "nonpayable",
      "type": "constructor"
    },
    {
      "anonymous": false,
      "inputs": [
        {
          "indexed": true,
          "internalType": "address",
          "name": "user",
          "type": "address"
        },
        {
          "indexed": true,
          "internalType": "address",
          "name": "controller",
          "type": "address"
        },
        {
          "indexed": true,
          "internalType": "address",
          "name": "admin",
          "type": "address"
        }
      ],
      "name": "ControllerAdminAdded",
      "type": "event"
    },
    {
      "anonymous": false,
      "inputs": [
        {
          "indexed": true,
          "internalType": "address",
          "name": "user",
          "type": "address"
        },
        {
          "indexed": true,
          "internalType": "address",
          "name": "controller",
          "type": "address"
        },
        {
          "indexed": true,
          "internalType": "address",
          "name": "admin",
          "type": "address"
        }
      ],
      "name": "ControllerAdminRemoved",
      "type": "event"
    },
    {
      "anonymous": false,
      "inputs": [
        {
          "indexed": true,
          "internalType": "address",
          "name": "user",
          "type": "address"
        },
        {
          "indexed": true,
          "internalType": "address",
          "name": "controller",
          "type": "address"
        },
        {
          "indexed": false,
          "internalType": "uint256",
          "name": "amountLocked",
          "type": "uint256"
        }
      ],
      "name": "ControllerCreated",
      "type": "event"
    },
    {
      "anonymous": false,
      "inputs": [
        {
          "indexed": true,
          "internalType": "address",
          "name": "user",
          "type": "address"
        },
        {
          "indexed": true,
          "internalType": "address",
          "name": "controller",
          "type": "address"
        },
        {
          "indexed": false,
          "internalType": "uint256",
          "name": "amountUnlocked",
          "type": "uint256"
        }
      ],
      "name": "ControllerDisabled",
      "type": "event"
    },
    {
      "anonymous": false,
      "inputs": [
        {
          "indexed": true,
          "internalType": "address",
          "name": "user",
          "type": "address"
        },
        {
          "indexed": true,
          "internalType": "address",
          "name": "controller",
          "type": "address"
        },
        {
          "indexed": false,
          "internalType": "uint256",
          "name": "amountUnlocked",
          "type": "uint256"
        }
      ],
      "name": "ControllerEnabled",
      "type": "event"
    },
    {
      "anonymous": false,
      "inputs": [
        {
          "indexed": true,
          "internalType": "address",
          "name": "user",
          "type": "address"
        },
        {
          "indexed": true,
          "internalType": "address",
          "name": "controller",
          "type": "address"
        },
        {
          "indexed": false,
          "internalType": "uint256",
          "name": "amountUnlocked",
          "type": "uint256"
        }
      ],
      "name": "ControllerOffsetUnlocked",
      "type": "event"
    },
    {
      "anonymous": false,
      "inputs": [
        {
          "indexed": true,
          "internalType": "address",
          "name": "previousOwner",
          "type": "address"
        },
        {
          "indexed": true,
          "internalType": "address",
          "name": "newOwner",
          "type": "address"
        }
      ],
      "name": "OwnershipTransferred",
      "type": "event"
    },
    {
      "inputs": [],
      "name": "PMV3LibraryAddress",
      "outputs": [
        {
          "internalType": "address",
          "name": "",
          "type": "address"
        }
      ],
      "stateMutability": "view",
      "type": "function"
    },
    {
      "inputs": [
        {
          "internalType": "address",
          "name": "",
          "type": "address"
        }
      ],
      "name": "controllers",
      "outputs": [
        {
          "internalType": "bool",
          "name": "active",
          "type": "bool"
        },
        {
          "internalType": "uint256",
          "name": "lockAmount",
          "type": "uint256"
        },
        {
          "internalType": "address",
          "name": "lockUser",
          "type": "address"
        }
      ],
      "stateMutability": "view",
      "type": "function"
    },
    {
      "inputs": [
        {
          "internalType": "uint256",
          "name": "",
          "type": "uint256"
        }
      ],
      "name": "controllersAddresses",
      "outputs": [
        {
          "internalType": "address",
          "name": "",
          "type": "address"
        }
      ],
      "stateMutability": "view",
      "type": "function"
    },
    {
      "inputs": [],
      "name": "controllersLength",
      "outputs": [
        {
          "internalType": "uint256",
          "name": "",
          "type": "uint256"
        }
      ],
      "stateMutability": "view",
      "type": "function"
    },
    {
      "inputs": [],
      "name": "lockAmount",
      "outputs": [
        {
          "internalType": "uint256",
          "name": "",
          "type": "uint256"
        }
      ],
      "stateMutability": "view",
      "type": "function"
    },
    {
      "inputs": [],
      "name": "owner",
      "outputs": [
        {
          "internalType": "address",
          "name": "",
          "type": "address"
        }
      ],
      "stateMutability": "view",
      "type": "function"
    },
    {
      "inputs": [],
      "name": "realitioLibraryAddress",
      "outputs": [
        {
          "internalType": "address",
          "name": "",
          "type": "address"
        }
      ],
      "stateMutability": "view",
      "type": "function"
    },
    {
      "inputs": [],
      "name": "renounceOwnership",
      "outputs": [],
      "stateMutability": "nonpayable",
      "type": "function"
    },
    {
      "inputs": [],
      "name": "token",
      "outputs": [
        {
          "internalType": "contract IERC20",
          "name": "",
          "type": "address"
        }
      ],
      "stateMutability": "view",
      "type": "function"
    },
    {
      "inputs": [
        {
          "internalType": "address",
          "name": "newOwner",
          "type": "address"
        }
      ],
      "name": "transferOwnership",
      "outputs": [],
      "stateMutability": "nonpayable",
      "type": "function"
    },
    {
      "inputs": [
        {
          "internalType": "uint256",
          "name": "newLockAmount",
          "type": "uint256"
        }
      ],
      "name": "updateLockAmount",
      "outputs": [],
      "stateMutability": "nonpayable",
      "type": "function"
    },
    {
      "inputs": [
        {
          "internalType": "address",
          "name": "_PMV3LibraryAddress",
          "type": "address"
        }
      ],
      "name": "updatePMV3LibraryAddress",
      "outputs": [],
      "stateMutability": "nonpayable",
      "type": "function"
    },
    {
      "inputs": [
        {
          "internalType": "address",
          "name": "_realitioLibraryAddress",
          "type": "address"
        }
      ],
      "name": "updateRealitioLibraryAddress",
      "outputs": [],
      "stateMutability": "nonpayable",
      "type": "function"
    },
    {
      "inputs": [
        {
          "internalType": "address",
          "name": "_PMV3",
          "type": "address"
        }
      ],
      "name": "createPMController",
      "outputs": [
        {
          "internalType": "contract PredictionMarketV3Controller",
          "name": "",
          "type": "address"
        }
      ],
      "stateMutability": "nonpayable",
      "type": "function"
    },
    {
      "inputs": [
        {
          "internalType": "address",
          "name": "controllerAddress",
          "type": "address"
        }
      ],
      "name": "disablePMController",
      "outputs": [
        {
          "internalType": "uint256",
          "name": "",
          "type": "uint256"
        }
      ],
      "stateMutability": "nonpayable",
      "type": "function"
    },
    {
      "inputs": [
        {
          "internalType": "address",
          "name": "controllerAddress",
          "type": "address"
        }
      ],
      "name": "enablePMController",
      "outputs": [
        {
          "internalType": "uint256",
          "name": "",
          "type": "uint256"
        }
      ],
      "stateMutability": "nonpayable",
      "type": "function"
    },
    {
      "inputs": [
        {
          "internalType": "address",
          "name": "controllerAddress",
          "type": "address"
        }
      ],
      "name": "unlockOffsetFromPMController",
      "outputs": [
        {
          "internalType": "uint256",
          "name": "",
          "type": "uint256"
        }
      ],
      "stateMutability": "nonpayable",
      "type": "function"
    },
    {
      "inputs": [
        {
          "internalType": "address",
          "name": "controllerAddress",
          "type": "address"
        },
        {
          "internalType": "address",
          "name": "admin",
          "type": "address"
        }
      ],
      "name": "addAdminToPMController",
      "outputs": [],
      "stateMutability": "nonpayable",
      "type": "function"
    },
    {
      "inputs": [
        {
          "internalType": "address",
          "name": "controllerAddress",
          "type": "address"
        },
        {
          "internalType": "address",
          "name": "admin",
          "type": "address"
        }
      ],
      "name": "removeAdminFromPMController",
      "outputs": [],
      "stateMutability": "nonpayable",
      "type": "function"
    },
    {
      "inputs": [
        {
          "internalType": "address",
          "name": "controllerAddress",
          "type": "address"
        }
      ],
      "name": "isPMControllerActive",
      "outputs": [
        {
          "internalType": "bool",
          "name": "",
          "type": "bool"
        }
      ],
      "stateMutability": "view",
      "type": "function"
    },
    {
      "inputs": [
        {
          "internalType": "address",
          "name": "controllerAddress",
          "type": "address"
        },
        {
          "internalType": "address",
          "name": "user",
          "type": "address"
        }
      ],
      "name": "isPMControllerAdmin",
      "outputs": [
        {
          "internalType": "bool",
          "name": "",
          "type": "bool"
        }
      ],
      "stateMutability": "view",
      "type": "function"
    }
  ],
  "bytecode": "0x60a06040523480156200001157600080fd5b506040516200612f3803806200612f8339810160408190526200003491620000e9565b6200003f3362000080565b600180556001600160a01b03938416608052600292909255600380549184166001600160a01b03199283161790556004805492909316911617905562000145565b600080546001600160a01b038381166001600160a01b0319831681178455604051919092169283917f8be0079c531659141344cd1fd0a4f28419497f9722a3daafe3b4186f6b6457e09190a35050565b6001600160a01b0381168114620000e657600080fd5b50565b600080600080608085870312156200010057600080fd5b84516200010d81620000d0565b6020860151604087015191955093506200012781620000d0565b60608601519092506200013a81620000d0565b939692955090935050565b608051615fab620001846000396000818161039c0152818161068601528181610a9001528181610c6f01528181610d620152610f830152615fab6000f3fe60806040523480156200001157600080fd5b5060043610620001515760003560e01c80637fe54c3811620000c7578063b3460ca71162000086578063b3460ca714620002e1578063d8df5dc114620002f8578063da490a391462000302578063da8c229e1462000319578063f2fde38b146200037f578063fc0c546a146200039657600080fd5b80637fe54c3814620002765780638da5cb5b146200028d578063965b872a146200029f5780639931d10c14620002b6578063a1a46bb714620002ca57600080fd5b806351f4c400116200011457806351f4c40014620002105780635a9ca8f714620002275780636688e150146200023e578063715018a6146200025557806377342f3c146200025f57600080fd5b806302d0ce151462000156578063042855ad146200016f5780630617ed9d14620001a057806328d0efa914620001e05780633c37db6314620001f9575b600080fd5b6200016d6200016736600462001274565b620003be565b005b60045462000183906001600160a01b031681565b6040516001600160a01b0390911681526020015b60405180910390f35b620001cf620001b136600462001274565b6001600160a01b031660009081526005602052604090205460ff1690565b604051901515815260200162000197565b620001ea60075481565b60405190815260200162000197565b6200016d6200020a36600462001299565b62000461565b6200016d62000221366004620012b3565b620004c3565b620001ea6200023836600462001274565b620005b7565b620001836200024f36600462001299565b62000762565b6200016d6200078d565b6200016d62000270366004620012b3565b620007a5565b6200016d6200028736600462001274565b62000904565b6000546001600160a01b031662000183565b620001ea620002b036600462001274565b6200099f565b60035462000183906001600160a01b031681565b620001ea620002db36600462001274565b62000b7f565b62000183620002f236600462001274565b62000d3e565b620001ea60025481565b620001cf62000313366004620012b3565b62001053565b620003586200032a36600462001274565b60056020526000908152604090208054600282015460039092015460ff90911691906001600160a01b031683565b60408051931515845260208401929092526001600160a01b03169082015260600162000197565b6200016d6200039036600462001274565b62001087565b620001837f000000000000000000000000000000000000000000000000000000000000000081565b620003c862001106565b6001600160a01b0381166200043f5760405162461bcd60e51b815260206004820152603260248201527f5265616c6974696f4c6962726172794164647265737320616464726573732063604482015271616e6e6f742062652030206164647265737360701b60648201526084015b60405180910390fd5b600480546001600160a01b0319166001600160a01b0392909216919091179055565b6200046b62001106565b6002548103620004be5760405162461bcd60e51b815260206004820152601760248201527f4c6f636b20616d6f756e74206973207468652073616d65000000000000000000604482015260640162000436565b600255565b6001600160a01b0382166000908152600560205260409020805460ff166200052a5760405162461bcd60e51b815260206004820152601960248201527810dbdb9d1c9bdb1b195c88191bd95cc81b9bdd08195e1a5cdd603a1b604482015260640162000436565b33600090815260018201602052604090205460ff166200055e5760405162461bcd60e51b81526004016200043690620012eb565b6001600160a01b03808316600081815260018481016020526040808320805460ff191690921790915551919286169133917f526af94769d6afca81f645e4007650c2ea280fce7c719f0a52f53296ca95558d91a4505050565b6001600160a01b0381166000908152600560205260408120805460ff16620006225760405162461bcd60e51b815260206004820152601860248201527f436f6e74726f6c6c6572206973206e6f74206163746976650000000000000000604482015260640162000436565b33600090815260018201602052604090205460ff16620006565760405162461bcd60e51b81526004016200043690620012eb565b6002810154600382015460405163a9059cbb60e01b81526001600160a01b039182166004820152602481018390527f00000000000000000000000000000000000000000000000000000000000000009091169063a9059cbb906044016020604051808303816000875af1158015620006d2573d6000803e3d6000fd5b505050506040513d601f19601f82011682018060405250810190620006f8919062001322565b50815460ff19168255600060028301556003820180546001600160a01b03191690556040518181526001600160a01b0385169033907f8bda2a5f930709a3e3ae398833136121861b569a6845aa7e90c280432f82d09e906020015b60405180910390a39392505050565b600681815481106200077357600080fd5b6000918252602090912001546001600160a01b0316905081565b6200079762001106565b620007a3600062001162565b565b6001600160a01b0382166000908152600560205260409020805460ff166200080c5760405162461bcd60e51b815260206004820152601960248201527810dbdb9d1c9bdb1b195c88191bd95cc81b9bdd08195e1a5cdd603a1b604482015260640162000436565b33600090815260018201602052604090205460ff16620008405760405162461bcd60e51b81526004016200043690620012eb565b60038101546001600160a01b03808416911603620008b05760405162461bcd60e51b815260206004820152602660248201527f43616e206e6f742072656d6f76652066726f6d2061646d696e20746865206c6f60448201526531b5aab9b2b960d11b606482015260840162000436565b6001600160a01b038083166000818152600184016020526040808220805460ff1916905551919286169133917f5fbcc6180dc3a182a084a94b0fc3acd6f48c7621d1730d6803b419680e376d2491a4505050565b6200090e62001106565b6001600160a01b0381166200097d5760405162461bcd60e51b815260206004820152602e60248201527f504d56334c6962726172794164647265737320616464726573732063616e6e6f60448201526d742062652030206164647265737360901b606482015260840162000436565b600380546001600160a01b0319166001600160a01b0392909216919091179055565b6001600160a01b0381166000908152600560205260408120805460ff161562000a0b5760405162461bcd60e51b815260206004820152601c60248201527f436f6e74726f6c6c657220697320616c72656164792061637469766500000000604482015260640162000436565b33600090815260018201602052604090205460ff1662000a3f5760405162461bcd60e51b81526004016200043690620012eb565b600081600201546002541162000a5757600062000a6b565b816002015460025462000a6b91906200135c565b6040516323b872dd60e01b8152336004820152306024820152604481018290529091507f00000000000000000000000000000000000000000000000000000000000000006001600160a01b0316906323b872dd906064016020604051808303816000875af115801562000ae2573d6000803e3d6000fd5b505050506040513d601f19601f8201168201806040525081019062000b08919062001322565b50815460ff19166001178255600282015462000b2690829062001372565b60028301556003820180546001600160a01b031916339081179091556040518281526001600160a01b03861691907f3a820548dc931f746d41dfe844f282453629c455903acec3d8d515fb44d4b6b49060200162000753565b6001600160a01b0381166000908152600560205260408120805460ff1662000bea5760405162461bcd60e51b815260206004820152601960248201527f636f6e74726f6c6c657220646f6573206e6f7420657869737400000000000000604482015260640162000436565b33600090815260018201602052604090205460ff1662000c1e5760405162461bcd60e51b81526004016200043690620012eb565b600060025482600201541162000c3657600062000c4a565b600254826002015462000c4a91906200135c565b9050801562000d005760405163a9059cbb60e01b8152336004820152602481018290527f00000000000000000000000000000000000000000000000000000000000000006001600160a01b03169063a9059cbb906044016020604051808303816000875af115801562000cc1573d6000803e3d6000fd5b505050506040513d601f19601f8201168201806040525081019062000ce7919062001322565b5080826002015462000cfa91906200135c565b60028301555b6040518181526001600160a01b0385169033907f16bb4df61a34992405d0a6de9f0a2efef607a4ff29b462c310a70576d13d77989060200162000753565b6002546040516370a0823160e01b8152336004820152600091906001600160a01b037f000000000000000000000000000000000000000000000000000000000000000016906370a0823190602401602060405180830381865afa15801562000daa573d6000803e3d6000fd5b505050506040513d601f19601f8201168201806040525081019062000dd0919062001388565b101562000e205760405162461bcd60e51b815260206004820152601960248201527f4e6f7420656e6f75676820746f6b656e7320746f206c6f636b00000000000000604482015260640162000436565b6001600160a01b03821662000e495760035462000e46906001600160a01b0316620011b2565b91505b60045460405160009184916001600160a01b0390911690309062000e6d906200124e565b6001600160a01b03938416815291831660208301529091166040820152606001604051809103906000f08015801562000eaa573d6000803e3d6000fd5b506001600160a01b03811660008181526005602090815260408083208054600160ff19918216811783553380875281840190955292852080549091168317905560028054908201556003810180546001600160a01b0319908116909417905560068054928301815584527ff652222313e28459528d920b65115c16c04f3efc82aaedc97be59f3f377c0d3f90910180549092169093179055600780549394509192919062000f5883620013a2565b90915550506002546040516323b872dd60e01b815233600482015230602482015260448101919091527f00000000000000000000000000000000000000000000000000000000000000006001600160a01b0316906323b872dd906064016020604051808303816000875af115801562000fd5573d6000803e3d6000fd5b505050506040513d601f19601f8201168201806040525081019062000ffb919062001322565b50816001600160a01b0316336001600160a01b03167f0b68c323ee4ffbab3f5ad0e165e8420ccbe0615f4aeef846ca5d75e8b0ccbd956002546040516200104491815260200190565b60405180910390a35092915050565b6001600160a01b038083166000908152600560209081526040808320938516835260019093019052205460ff165b92915050565b6200109162001106565b6001600160a01b038116620010f85760405162461bcd60e51b815260206004820152602660248201527f4f776e61626c653a206e6577206f776e657220697320746865207a65726f206160448201526564647265737360d01b606482015260840162000436565b620011038162001162565b50565b6000546001600160a01b03163314620007a35760405162461bcd60e51b815260206004820181905260248201527f4f776e61626c653a2063616c6c6572206973206e6f7420746865206f776e6572604482015260640162000436565b600080546001600160a01b038381166001600160a01b0319831681178455604051919092169283917f8be0079c531659141344cd1fd0a4f28419497f9722a3daafe3b4186f6b6457e09190a35050565b6000763d602d80600a3d3981f3363d3d373d3d3d363d730000008260601b60e81c176000526e5af43d82803e903d91602b57fd5bf38260781b17602052603760096000f090506001600160a01b038116620012495760405162461bcd60e51b8152602060048201526016602482015275115490cc4c4d8dce8818dc99585d194819985a5b195960521b604482015260640162000436565b919050565b614bb780620013bf83390190565b80356001600160a01b03811681146200124957600080fd5b6000602082840312156200128757600080fd5b62001292826200125c565b9392505050565b600060208284031215620012ac57600080fd5b5035919050565b60008060408385031215620012c757600080fd5b620012d2836200125c565b9150620012e2602084016200125c565b90509250929050565b6020808252601b908201527f4e6f742061646d696e206f662074686520636f6e74726f6c6c65720000000000604082015260600190565b6000602082840312156200133557600080fd5b815180151581146200129257600080fd5b634e487b7160e01b600052601160045260246000fd5b8181038181111562001081576200108162001346565b8082018082111562001081576200108162001346565b6000602082840312156200139b57600080fd5b5051919050565b600060018201620013b757620013b762001346565b506001019056fe60a06040523480156200001157600080fd5b5060405162004bb738038062004bb78339810160408190526200003491620001ab565b6200003f3362000130565b600180556001600160a01b038116620000ae5760405162461bcd60e51b815260206004820152602760248201527f504d5633466163746f727920616464726573732063616e6e6f742062652030206044820152666164647265737360c81b606482015260840160405180910390fd5b600280546001600160a01b0319166001600160a01b0385161790556040518290620000d99062000180565b6001600160a01b039091168152602001604051809103906000f08015801562000106573d6000803e3d6000fd5b50600580546001600160a01b0319166001600160a01b039283161790551660805250620001f59050565b600080546001600160a01b038381166001600160a01b0319831681178455604051919092169283917f8be0079c531659141344cd1fd0a4f28419497f9722a3daafe3b4186f6b6457e09190a35050565b6109ef80620041c883390190565b80516001600160a01b0381168114620001a657600080fd5b919050565b600080600060608486031215620001c157600080fd5b620001cc846200018e565b9250620001dc602085016200018e565b9150620001ec604085016200018e565b90509250925092565b608051613f9462000234600039600081816101ba015281816105aa01528181610d1601528181610de40152818161108701526112950152613f946000f3fe60806040523480156200001157600080fd5b5060043610620001af5760003560e01c80636e3dd8ba11620000f05780638da5cb5b11620000a3578063d8df5dc1116200007a578063d8df5dc114620004a7578063e50fba2114620004b1578063f2fde38b14620004c8578063fc0c546a14620004df57600080fd5b80638da5cb5b1462000448578063d13acee1146200045a578063d1aeb5c2146200049057600080fd5b80636e3dd8ba14620003bf57806370e9207814620003d3578063715018a614620003ea578063791e051914620003f457806386b5c5b1146200040b5780638bc9711f146200042257600080fd5b806333b2276011620001665780634b3848bf116200013d5780634b3848bf14620003635780634fe62a5b146200037a5780635d341ae5146200039157806367d73c9114620003a857600080fd5b806333b2276014620002ac5780633c37db6314620003335780633ccd4145146200034c57600080fd5b80630c27c26c14620001b45780631311758b14620001f95780631cbe8a65146200021257806325c7205914620002265780632ed26fce146200024e57806330ccd17a1462000295575b600080fd5b620001dc7f000000000000000000000000000000000000000000000000000000000000000081565b6040516001600160a01b0390911681526020015b60405180910390f35b6200020360085481565b604051908152602001620001f0565b600254620001dc906001600160a01b031681565b6200023d6200023736600462001a30565b620004f3565b6040519015158152602001620001f0565b6200027d6200025f36600462001a6e565b600a6020526000908152604090205460ff8082169161010090041682565b604080519215158352901515602083015201620001f0565b620001dc620002a636600462001a95565b62000622565b620002fc620002bd36600462001a6e565b60066020526000908152604090208054600282015460038301546004909301546001600160a01b0380841694600160a01b90940460ff16938116911685565b604080516001600160a01b039687168152941515602086015284019290925283166060830152909116608082015260a001620001f0565b6200034a6200034436600462001a95565b6200064d565b005b6200034a6200035d36600462001a6e565b62000710565b6200034a6200037436600462001abe565b620008ae565b6200034a6200038b36600462001a30565b62000951565b6200034a620003a236600462001a6e565b62000ab0565b620001dc620003b936600462001b9c565b62000cf8565b600554620001dc906001600160a01b031681565b6200034a620003e436600462001a6e565b62000e13565b6200034a62001014565b6200023d6200040536600462001a30565b6200102c565b6200034a6200041c36600462001a30565b620010b7565b6200023d6200043336600462001a6e565b60096020526000908152604090205460ff1681565b6000546001600160a01b0316620001dc565b6200023d6200046b36600462001a6e565b6001600160a01b0316600090815260066020526040902054600160a01b900460ff1690565b6200023d620004a136600462001a30565b62001211565b6200020360045481565b620001dc620004c236600462001a30565b620012c5565b6200034a620004d936600462001a6e565b620012d3565b600354620001dc906001600160a01b031681565b6001600160a01b038216600090815260066020526040812054600160a01b900460ff1680156200061957506001600160a01b038084166000908152600660209081526040808320938616835260019093019052205460ff16806200057e57506001600160a01b038084166000908152600660209081526040808320549093168252600a9052205460ff165b8062000619575060405163da490a3960e01b81523060048201526001600160a01b0383811660248301527f0000000000000000000000000000000000000000000000000000000000000000169063da490a39906044015b602060405180830381865afa158015620005f3573d6000803e3d6000fd5b505050506040513d601f19601f8201168201806040525081019062000619919062001c25565b90505b92915050565b600781815481106200063357600080fd5b6000918252602090912001546001600160a01b0316905081565b6200065762001352565b60008111620006b85760405162461bcd60e51b815260206004820152602260248201527f4c6f636b20616d6f756e74206d7573742062652067726561746572207468616e604482015261020360f41b60648201526084015b60405180910390fd5b60045481036200070b5760405162461bcd60e51b815260206004820152601760248201527f4c6f636b20616d6f756e74206973207468652073616d650000000000000000006044820152606401620006af565b600455565b6001600160a01b03811660009081526006602052604090208054600160a01b900460ff16620007775760405162461bcd60e51b81526020600482015260126024820152714c616e64206973206e6f742061637469766560701b6044820152606401620006af565b6200078382336200102c565b620007a25760405162461bcd60e51b8152600401620006af9062001c45565b6000600454826002015411620007ba576000620007ce565b6004548260020154620007ce919062001c8a565b90508015620008685760035460405163a9059cbb60e01b8152336004820152602481018390526001600160a01b039091169063a9059cbb906044016020604051808303816000875af115801562000829573d6000803e3d6000fd5b505050506040513d601f19601f820116820180604052508101906200084f919062001c25565b5080826002015462000862919062001c8a565b60028301555b6040518181526001600160a01b0384169033907f762d0a2a8e474a7f467752b8c7d24a08142b5a877a95ceb46dfbbda482ec46d7906020015b60405180910390a3505050565b6001600160a01b03821660009081526006602052604090208054600160a01b900460ff16620008f15760405162461bcd60e51b8152600401620006af9062001ca0565b33600090815260018201602052604090205460ff16620009255760405162461bcd60e51b8152600401620006af9062001c45565b506001600160a01b03919091166000908152600a60205260409020805460ff1916911515919091179055565b6001600160a01b03821660009081526006602052604090208054600160a01b900460ff16620009945760405162461bcd60e51b8152600401620006af9062001ca0565b620009a083336200102c565b620009bf5760405162461bcd60e51b8152600401620006af9062001c45565b6001600160a01b03831660009081526009602052604090205460ff161562000a57578054604051632f2ff15d60e01b815260008051602062003f3f83398151915260048201526001600160a01b03848116602483015290911690632f2ff15d90604401600060405180830381600087803b15801562000a3d57600080fd5b505af115801562000a52573d6000803e3d6000fd5b505050505b6001600160a01b03808316600081815260018481016020526040808320805460ff191690921790915551919286169133917fb8429069f85942f3e5ebf215afa8d573e550665bb50ea78f80e07500c4890a6891a4505050565b6001600160a01b03811660009081526006602052604090208054600160a01b900460ff161562000b1c5760405162461bcd60e51b81526020600482015260166024820152754c616e6420697320616c72656164792061637469766560501b6044820152606401620006af565b62000b2882336200102c565b62000b475760405162461bcd60e51b8152600401620006af9062001c45565b600081600201546004541162000b5f57600062000b73565b816002015460045462000b73919062001c8a565b9050801562000bfc576003546040516323b872dd60e01b8152336004820152306024820152604481018390526001600160a01b03909116906323b872dd906064016020604051808303816000875af115801562000bd4573d6000803e3d6000fd5b505050506040513d601f19601f8201168201806040525081019062000bfa919062001c25565b505b815460ff60a01b1916600160a01b178255600282015462000c1f90829062001ccd565b60028301556003820180546001600160a01b031916331790556001600160a01b03831660009081526009602052604090205460ff161562000cba57815460408051631fa5d41d60e11b815290516001600160a01b0390921691633f4ba83a9160048082019260009290919082900301818387803b15801562000ca057600080fd5b505af115801562000cb5573d6000803e3d6000fd5b505050505b6040518181526001600160a01b0384169033907f9daf897774d766e38773bbeaf2f32d93fed4091373b77ebb7f5aee37417d1ab190602001620008a1565b60405163da490a3960e01b81523060048201523360248201526000907f00000000000000000000000000000000000000000000000000000000000000006001600160a01b03169063da490a3990604401602060405180830381865afa15801562000d66573d6000803e3d6000fd5b505050506040513d601f19601f8201168201806040525081019062000d8c919062001c25565b62000dda5760405162461bcd60e51b815260206004820152601a60248201527f4e6f7420616c6c6f77656420746f20637265617465206c616e640000000000006044820152606401620006af565b62000e0a858585857f000000000000000000000000000000000000000000000000000000000000000030620013ae565b95945050505050565b6001600160a01b03811660009081526006602052604090208054600160a01b900460ff1662000e7a5760405162461bcd60e51b81526020600482015260126024820152714c616e64206973206e6f742061637469766560701b6044820152606401620006af565b62000e8682336200102c565b62000ea55760405162461bcd60e51b8152600401620006af9062001c45565b6002810154801562000f3157600380549083015460405163a9059cbb60e01b81526001600160a01b0391821660048201526024810184905291169063a9059cbb906044016020604051808303816000875af115801562000f09573d6000803e3d6000fd5b505050506040513d601f19601f8201168201806040525081019062000f2f919062001c25565b505b815460ff60a01b191682556000600283018190556003830180546001600160a01b03191690556001600160a01b03841681526009602052604090205460ff161562000fd657815460408051638456cb5960e01b815290516001600160a01b0390921691638456cb599160048082019260009290919082900301818387803b15801562000fbc57600080fd5b505af115801562000fd1573d6000803e3d6000fd5b505050505b6040518181526001600160a01b0384169033907f76f76e951d717cb73ae423c4e4a029c5dde6ef38673c8f6a20cb9eb5025de59590602001620008a1565b6200101e62001352565b6200102a60006200152c565b565b6001600160a01b0380831660009081526006602090815260408083209385168352600190930190529081205460ff168062000619575060405163da490a3960e01b81523060048201526001600160a01b0383811660248301527f0000000000000000000000000000000000000000000000000000000000000000169063da490a3990604401620005d5565b6001600160a01b03821660009081526006602052604090208054600160a01b900460ff16620010fa5760405162461bcd60e51b8152600401620006af9062001ca0565b6200110683336200102c565b620011255760405162461bcd60e51b8152600401620006af9062001c45565b6001600160a01b03831660009081526009602052604090205460ff1615620011bd57805460405163d547741f60e01b815260008051602062003f3f83398151915260048201526001600160a01b0384811660248301529091169063d547741f90604401600060405180830381600087803b158015620011a357600080fd5b505af1158015620011b8573d6000803e3d6000fd5b505050505b6001600160a01b038083166000818152600184016020526040808220805460ff1916905551919286169133917f5cb946ecb390cbf9c44ad43a7ed4ba5a5803844da9153e195a7235092436756091a4505050565b6001600160a01b038216600090815260066020526040812054600160a01b900460ff1680156200061957506001600160a01b038084166000908152600660209081526040808320938616835260019093019052205460ff168062000619575060405163da490a3960e01b81523060048201526001600160a01b0383811660248301527f0000000000000000000000000000000000000000000000000000000000000000169063da490a3990604401620005d5565b60006200061983836200157c565b620012dd62001352565b6001600160a01b038116620013445760405162461bcd60e51b815260206004820152602660248201527f4f776e61626c653a206e6577206f776e657220697320746865207a65726f206160448201526564647265737360d01b6064820152608401620006af565b6200134f816200152c565b50565b6000546001600160a01b031633146200102a5760405162461bcd60e51b815260206004820181905260248201527f4f776e61626c653a2063616c6c6572206973206e6f7420746865206f776e65726044820152606401620006af565b600080878787600260009054906101000a90046001600160a01b03168787604051620013da9062001a0c565b620013eb9695949392919062001d2b565b604051809103906000f08015801562001408573d6000803e3d6000fd5b50600254604051632f2ff15d60e01b815260008051602062003f3f83398151915260048201526001600160a01b039182166024820152919250821690632f2ff15d90604401600060405180830381600087803b1580156200146857600080fd5b505af11580156200147d573d6000803e3d6000fd5b5050604051632f2ff15d60e01b815260008051602062003f3f83398151915260048201523360248201526001600160a01b0384169250632f2ff15d9150604401600060405180830381600087803b158015620014d857600080fd5b505af1158015620014ed573d6000803e3d6000fd5b5050506001600160a01b0382166000908152600960205260409020805460ff19166001179055506200152081866200157c565b98975050505050505050565b600080546001600160a01b038381166001600160a01b0319831681178455604051919092169283917f8be0079c531659141344cd1fd0a4f28419497f9722a3daafe3b4186f6b6457e09190a35050565b6001600160a01b038216600090815260066020526040812054600160a01b900460ff1615620015e45760405162461bcd60e51b81526020600482015260136024820152724c616e6420616c72656164792065786973747360681b6044820152606401620006af565b600454156200173857600480546003546040516370a0823160e01b8152339381019390935290916001600160a01b03909116906370a0823190602401602060405180830381865afa1580156200163e573d6000803e3d6000fd5b505050506040513d601f19601f8201168201806040525081019062001664919062001d85565b1015620016b45760405162461bcd60e51b815260206004820152601960248201527f4e6f7420656e6f75676820746f6b656e7320746f206c6f636b000000000000006044820152606401620006af565b600354600480546040516323b872dd60e01b8152339281019290925230602483015260448201526001600160a01b03909116906323b872dd906064016020604051808303816000875af115801562001710573d6000803e3d6000fd5b505050506040513d601f19601f8201168201806040525081019062001736919062001c25565b505b6001600160a01b0382166200179c5760405162461bcd60e51b815260206004820152602360248201527f546f6b656e20746f20616e737765722063616e6e6f742062652030206164647260448201526265737360e81b6064820152608401620006af565b6001600160a01b038316600081815260066020908152604080832080546001600160a81b0319168517600160a01b178155338085526001808301909452918420805460ff19168417905560045460028201556003810180546001600160a01b0319908116909317905560078054938401815584527fa66cc928b5edb82af9bd49922954155ab7b0942694bea4ce44661d9a8736c688909201805490911690931790925560088054916200184f8362001d9f565b909155505060055460405163316b373960e01b81526001600160a01b038581166004830152600092169063316b373990602401602060405180830381865afa158015620018a0573d6000803e3d6000fd5b505050506040513d601f19601f82011682018060405250810190620018c6919062001dbb565b6001600160a01b0316036200193757600554604051633b937bbb60e11b81526001600160a01b03858116600483015290911690637726f77690602401600060405180830381600087803b1580156200191d57600080fd5b505af115801562001932573d6000803e3d6000fd5b505050505b60055460405163316b373960e01b81526001600160a01b0385811660048301529091169063316b373990602401602060405180830381865afa15801562001982573d6000803e3d6000fd5b505050506040513d601f19601f82011682018060405250810190620019a8919062001dbb565b600482810180546001600160a01b0319166001600160a01b03938416179055546040519081528482169186169033907fba6e51248e93514eb089243e4d08f26db16ff133606694000e7124a41ee5deb49060200160405180910390a4509192915050565b6121638062001ddc83390190565b6001600160a01b03811681146200134f57600080fd5b6000806040838503121562001a4457600080fd5b823562001a518162001a1a565b9150602083013562001a638162001a1a565b809150509250929050565b60006020828403121562001a8157600080fd5b813562001a8e8162001a1a565b9392505050565b60006020828403121562001aa857600080fd5b5035919050565b80151581146200134f57600080fd5b6000806040838503121562001ad257600080fd5b823562001adf8162001a1a565b9150602083013562001a638162001aaf565b634e487b7160e01b600052604160045260246000fd5b600082601f83011262001b1957600080fd5b813567ffffffffffffffff8082111562001b375762001b3762001af1565b604051601f8301601f19908116603f0116810190828211818310171562001b625762001b6262001af1565b8160405283815286602085880101111562001b7c57600080fd5b836020870160208301376000602085830101528094505050505092915050565b6000806000806080858703121562001bb357600080fd5b843567ffffffffffffffff8082111562001bcc57600080fd5b62001bda8883890162001b07565b9550602087013591508082111562001bf157600080fd5b5062001c008782880162001b07565b93505060408501359150606085013562001c1a8162001a1a565b939692955090935050565b60006020828403121562001c3857600080fd5b815162001a8e8162001aaf565b602080825260159082015274139bdd0818591b5a5b881bd9881d1a19481b185b99605a1b604082015260600190565b634e487b7160e01b600052601160045260246000fd5b818103818111156200061c576200061c62001c74565b60208082526013908201527213185b9908191bd95cc81b9bdd08195e1a5cdd606a1b604082015260600190565b808201808211156200061c576200061c62001c74565b6000815180845260005b8181101562001d0b5760208185018101518683018201520162001ced565b506000602082860101526020601f19601f83011685010191505092915050565b60c08152600062001d4060c083018962001ce3565b828103602084015262001d54818962001ce3565b604084019790975250506001600160a01b039384166060820152918316608083015290911660a09091015292915050565b60006020828403121562001d9857600080fd5b5051919050565b60006001820162001db45762001db462001c74565b5060010190565b60006020828403121562001dce57600080fd5b815162001a8e8162001a1a56fe60806040523480156200001157600080fd5b50604051620021633803806200216383398101604081905262000034916200035c565b85858181600562000046838262000494565b50600662000055828262000494565b50506007805460ff19169055506200006f60003362000115565b6200009b7f9f2df0fed2c77648de5860a4cc508cd0818c85b8b8a1ab4ceeef8d981c8956a63362000115565b620000c77f65d7a28e3265b37a6474929f336521b332c1681b933f6cb9f3376673440d862a3362000115565b5050600a93909355600980546001600160a01b03199081166001600160a01b0394851617909155600b8054821692841692909217909155600c80549091169190921617905550620005609050565b62000121828262000125565b5050565b6200013c82826200016860201b62000b8b1760201c565b60008281526001602090815260409091206200016391839062000c0f62000208821b17901c565b505050565b6000828152602081815260408083206001600160a01b038516845290915290205460ff1662000121576000828152602081815260408083206001600160a01b03851684529091529020805460ff19166001179055620001c43390565b6001600160a01b0316816001600160a01b0316837f2f8788117e7eff1d82e926ec794901d17c78024a50270940304540a733656f0d60405160405180910390a45050565b60006200021f836001600160a01b03841662000228565b90505b92915050565b6000818152600183016020526040812054620002715750815460018181018455600084815260208082209093018490558454848252828601909352604090209190915562000222565b50600062000222565b634e487b7160e01b600052604160045260246000fd5b600082601f830112620002a257600080fd5b81516001600160401b0380821115620002bf57620002bf6200027a565b604051601f8301601f19908116603f01168101908282118183101715620002ea57620002ea6200027a565b816040528381526020925086838588010111156200030757600080fd5b600091505b838210156200032b57858201830151818301840152908201906200030c565b600093810190920192909252949350505050565b80516001600160a01b03811681146200035757600080fd5b919050565b60008060008060008060c087890312156200037657600080fd5b86516001600160401b03808211156200038e57600080fd5b6200039c8a838b0162000290565b97506020890151915080821115620003b357600080fd5b50620003c289828a0162000290565b95505060408701519350620003da606088016200033f565b9250620003ea608088016200033f565b9150620003fa60a088016200033f565b90509295509295509295565b600181811c908216806200041b57607f821691505b6020821081036200043c57634e487b7160e01b600052602260045260246000fd5b50919050565b601f8211156200016357600081815260208120601f850160051c810160208610156200046b5750805b601f850160051c820191505b818110156200048c5782815560010162000477565b505050505050565b81516001600160401b03811115620004b057620004b06200027a565b620004c881620004c1845462000406565b8462000442565b602080601f831160018114620005005760008415620004e75750858301515b600019600386901b1c1916600185901b1785556200048c565b600085815260208120601f198616915b82811015620005315788860151825594840194600190910190840162000510565b5085821015620005505787850151600019600388901b60f8161c191681555b5050505050600190811b01905550565b611bf380620005706000396000f3fe608060405234801561001057600080fd5b50600436106101fb5760003560e01c80635c975abb1161011a578063a217fddf116100ad578063ca15c8731161007c578063ca15c87314610428578063d53913931461043b578063d547741f14610462578063dd62ed3e14610475578063e63ab1e91461048857600080fd5b8063a217fddf146103f2578063a457c2d7146103fa578063a9059cbb1461040d578063adb1f0d81461042057600080fd5b806387bbfe0a116100e957806387bbfe0a146103985780639010d07c146103c457806391d14854146103d757806395d89b41146103ea57600080fd5b80635c975abb1461034c57806370a082311461035457806379cc67901461037d5780638456cb591461039057600080fd5b8063313ce567116101925780633f4ba83a116101615780633f4ba83a1461031657806340c10f191461031e57806342966c681461033157806348c54b9d1461034457600080fd5b8063313ce567146102d857806336568abe146102e757806337a65725146102fa578063395093511461030357600080fd5b806323b872dd116101ce57806323b872dd14610262578063248a9ca3146102755780632a709b14146102985780632f2ff15d146102c357600080fd5b806301ffc9a71461020057806306fdde0314610228578063095ea7b31461023d57806318160ddd14610250575b600080fd5b61021361020e366004611846565b6104af565b60405190151581526020015b60405180910390f35b6102306104da565b60405161021f9190611894565b61021361024b3660046118de565b61056c565b6004545b60405190815260200161021f565b610213610270366004611908565b610584565b610254610283366004611944565b60009081526020819052604090206001015490565b6009546102ab906001600160a01b031681565b6040516001600160a01b03909116815260200161021f565b6102d66102d136600461195d565b6105a8565b005b6040516012815260200161021f565b6102d66102f536600461195d565b6105d2565b610254600a5481565b6102136103113660046118de565b610655565b6102d6610677565b6102d661032c3660046118de565b61071d565b6102d661033f366004611944565b6107bc565b6102d66107c9565b610213610866565b610254610362366004611989565b6001600160a01b031660009081526002602052604090205490565b6102d661038b3660046118de565b61092d565b6102d6610942565b6102136103a6366004611989565b6001600160a01b031660009081526008602052604090205460ff1690565b6102ab6103d23660046119a4565b6109e6565b6102136103e536600461195d565b610a05565b610230610a2e565b610254600081565b6102136104083660046118de565b610a3d565b61021361041b3660046118de565b610ab8565b6102d6610ac6565b610254610436366004611944565b610b24565b6102547f9f2df0fed2c77648de5860a4cc508cd0818c85b8b8a1ab4ceeef8d981c8956a681565b6102d661047036600461195d565b610b3b565b6102546104833660046119c6565b610b60565b6102547f65d7a28e3265b37a6474929f336521b332c1681b933f6cb9f3376673440d862a81565b60006001600160e01b03198216635a05180f60e01b14806104d457506104d482610c24565b92915050565b6060600580546104e9906119f0565b80601f0160208091040260200160405190810160405280929190818152602001828054610515906119f0565b80156105625780601f1061053757610100808354040283529160200191610562565b820191906000526020600020905b81548152906001019060200180831161054557829003601f168201915b5050505050905090565b60003361057a818585610c59565b5060019392505050565b600033610592858285610d7d565b61059d858585610df7565b506001949350505050565b6000828152602081905260409020600101546105c381610e9d565b6105cd8383610ea7565b505050565b6001600160a01b03811633146106475760405162461bcd60e51b815260206004820152602f60248201527f416363657373436f6e74726f6c3a2063616e206f6e6c792072656e6f756e636560448201526e103937b632b9903337b91039b2b63360891b60648201526084015b60405180910390fd5b6106518282610ec9565b5050565b60003361057a8185856106688383610b60565b6106729190611a40565b610c59565b6106a17f65d7a28e3265b37a6474929f336521b332c1681b933f6cb9f3376673440d862a33610a05565b6107135760405162461bcd60e51b815260206004820152603960248201527f45524332305072657365744d696e7465725061757365723a206d75737420686160448201527f76652070617573657220726f6c6520746f20756e706175736500000000000000606482015260840161063e565b61071b610eeb565b565b6107477f9f2df0fed2c77648de5860a4cc508cd0818c85b8b8a1ab4ceeef8d981c8956a633610a05565b6107b25760405162461bcd60e51b815260206004820152603660248201527f45524332305072657365744d696e7465725061757365723a206d7573742068616044820152751d99481b5a5b9d195c881c9bdb19481d1bc81b5a5b9d60521b606482015260840161063e565b6106518282610f3d565b6107c6338261100a565b50565b3360009081526008602052604090205460ff16156107f95760405162461bcd60e51b815260040161063e90611a53565b61080533600a54610f3d565b3360008181526008602052604090819020805460ff19166001179055600a5490517f9923b4306c6c030f2bdfbf156517d5983b87e15b96176da122cd4f2effa4ba7b9161085c914290918252602082015260400190565b60405180910390a2565b60008061087560075460ff1690565b600b549091506001600160a01b03161580159061089c5750600c546001600160a01b031615155b1561092857600b546001600160a01b031681806109245750600c54604051630617ed9d60e01b81526001600160a01b03918216600482015290821690630617ed9d90602401602060405180830381865afa1580156108fe573d6000803e3d6000fd5b505050506040513d601f19601f820116820180604052508101906109229190611aa3565b155b9150505b919050565b610938823383610d7d565b610651828261100a565b61096c7f65d7a28e3265b37a6474929f336521b332c1681b933f6cb9f3376673440d862a33610a05565b6109de5760405162461bcd60e51b815260206004820152603760248201527f45524332305072657365744d696e7465725061757365723a206d75737420686160448201527f76652070617573657220726f6c6520746f207061757365000000000000000000606482015260840161063e565b61071b61114a565b60008281526001602052604081206109fe9083611187565b9392505050565b6000918252602082815260408084206001600160a01b0393909316845291905290205460ff1690565b6060600680546104e9906119f0565b60003381610a4b8286610b60565b905083811015610aab5760405162461bcd60e51b815260206004820152602560248201527f45524332303a2064656372656173656420616c6c6f77616e63652062656c6f77604482015264207a65726f60d81b606482015260840161063e565b61059d8286868403610c59565b60003361057a818585610df7565b3360009081526008602052604090205460ff1615610af65760405162461bcd60e51b815260040161063e90611a53565b610afe6107c9565b6009546107c6906001600160a01b03166fffffffffffffffffffffffffffffffff61056c565b60008181526001602052604081206104d490611193565b600082815260208190526040902060010154610b5681610e9d565b6105cd8383610ec9565b6001600160a01b03918216600090815260036020908152604080832093909416825291909152205490565b610b958282610a05565b610651576000828152602081815260408083206001600160a01b03851684529091529020805460ff19166001179055610bcb3390565b6001600160a01b0316816001600160a01b0316837f2f8788117e7eff1d82e926ec794901d17c78024a50270940304540a733656f0d60405160405180910390a45050565b60006109fe836001600160a01b03841661119d565b60006001600160e01b03198216637965db0b60e01b14806104d457506301ffc9a760e01b6001600160e01b03198316146104d4565b6001600160a01b038316610cbb5760405162461bcd60e51b8152602060048201526024808201527f45524332303a20617070726f76652066726f6d20746865207a65726f206164646044820152637265737360e01b606482015260840161063e565b6001600160a01b038216610d1c5760405162461bcd60e51b815260206004820152602260248201527f45524332303a20617070726f766520746f20746865207a65726f206164647265604482015261737360f01b606482015260840161063e565b6001600160a01b0383811660008181526003602090815260408083209487168084529482529182902085905590518481527f8c5be1e5ebec7d5bd14f71427d1e84f3dd0314c0f7b2291e5b200ac8c7c3b925910160405180910390a3505050565b6000610d898484610b60565b90506000198114610df15781811015610de45760405162461bcd60e51b815260206004820152601d60248201527f45524332303a20696e73756666696369656e7420616c6c6f77616e6365000000604482015260640161063e565b610df18484848403610c59565b50505050565b6009546001600160a01b0384811691161480610e2057506009546001600160a01b038381169116145b610e925760405162461bcd60e51b815260206004820152603e60248201527f46616e7461737945524332303a20746f6b656e207472616e73666572206e6f7460448201527f20616c6c6f776564206265747765656e20746865206164647265737365730000606482015260840161063e565b6105cd8383836111ec565b6107c681336113a2565b610eb18282610b8b565b60008281526001602052604090206105cd9082610c0f565b610ed382826113fb565b60008281526001602052604090206105cd9082611460565b610ef3611475565b6007805460ff191690557f5db9ee0a495bf2e6ff9c91a7834c1ba4fdd244a5e8aa4e537bd38aeae4b073aa335b6040516001600160a01b03909116815260200160405180910390a1565b6001600160a01b038216610f935760405162461bcd60e51b815260206004820152601f60248201527f45524332303a206d696e7420746f20746865207a65726f206164647265737300604482015260640161063e565b610f9f600083836114c0565b8060046000828254610fb19190611a40565b90915550506001600160a01b0382166000818152600260209081526040808320805486019055518481527fddf252ad1be2c89b69c2b068fc378daa952ba7f163c4a11628f55a4df523b3ef910160405180910390a35050565b6001600160a01b03821661106a5760405162461bcd60e51b815260206004820152602160248201527f45524332303a206275726e2066726f6d20746865207a65726f206164647265736044820152607360f81b606482015260840161063e565b611076826000836114c0565b6001600160a01b038216600090815260026020526040902054818110156110ea5760405162461bcd60e51b815260206004820152602260248201527f45524332303a206275726e20616d6f756e7420657863656564732062616c616e604482015261636560f01b606482015260840161063e565b6001600160a01b03831660008181526002602090815260408083208686039055600480548790039055518581529192917fddf252ad1be2c89b69c2b068fc378daa952ba7f163c4a11628f55a4df523b3ef910160405180910390a3505050565b6111526114cb565b6007805460ff191660011790557f62e78cea01bee320cd4e420270b5ea74000d11b0c9f74754ebdbfc544b05a258610f203390565b60006109fe8383611513565b60006104d4825490565b60008181526001830160205260408120546111e4575081546001818101845560008481526020808220909301849055845484825282860190935260409020919091556104d4565b5060006104d4565b6001600160a01b0383166112505760405162461bcd60e51b815260206004820152602560248201527f45524332303a207472616e736665722066726f6d20746865207a65726f206164604482015264647265737360d81b606482015260840161063e565b6001600160a01b0382166112b25760405162461bcd60e51b815260206004820152602360248201527f45524332303a207472616e7366657220746f20746865207a65726f206164647260448201526265737360e81b606482015260840161063e565b6112bd8383836114c0565b6001600160a01b038316600090815260026020526040902054818110156113355760405162461bcd60e51b815260206004820152602660248201527f45524332303a207472616e7366657220616d6f756e7420657863656564732062604482015265616c616e636560d01b606482015260840161063e565b6001600160a01b0380851660008181526002602052604080822086860390559286168082529083902080548601905591517fddf252ad1be2c89b69c2b068fc378daa952ba7f163c4a11628f55a4df523b3ef906113959086815260200190565b60405180910390a3610df1565b6113ac8282610a05565b610651576113b98161153d565b6113c483602061154f565b6040516020016113d5929190611ac5565b60408051601f198184030181529082905262461bcd60e51b825261063e91600401611894565b6114058282610a05565b15610651576000828152602081815260408083206001600160a01b0385168085529252808320805460ff1916905551339285917ff6391f5c32d9c69d2a47ea670b442974b53935d1edc7fd64eb21e047a839171b9190a45050565b60006109fe836001600160a01b0384166116eb565b61147d610866565b61071b5760405162461bcd60e51b815260206004820152601460248201527314185d5cd8589b194e881b9bdd081c185d5cd95960621b604482015260640161063e565b6105cd8383836117de565b6114d3610866565b1561071b5760405162461bcd60e51b815260206004820152601060248201526f14185d5cd8589b194e881c185d5cd95960821b604482015260640161063e565b600082600001828154811061152a5761152a611b3a565b9060005260206000200154905092915050565b60606104d46001600160a01b03831660145b6060600061155e836002611b50565b611569906002611a40565b67ffffffffffffffff81111561158157611581611b67565b6040519080825280601f01601f1916602001820160405280156115ab576020820181803683370190505b509050600360fc1b816000815181106115c6576115c6611b3a565b60200101906001600160f81b031916908160001a905350600f60fb1b816001815181106115f5576115f5611b3a565b60200101906001600160f81b031916908160001a9053506000611619846002611b50565b611624906001611a40565b90505b600181111561169c576f181899199a1a9b1b9c1cb0b131b232b360811b85600f166010811061165857611658611b3a565b1a60f81b82828151811061166e5761166e611b3a565b60200101906001600160f81b031916908160001a90535060049490941c9361169581611b7d565b9050611627565b5083156109fe5760405162461bcd60e51b815260206004820181905260248201527f537472696e67733a20686578206c656e67746820696e73756666696369656e74604482015260640161063e565b600081815260018301602052604081205480156117d457600061170f600183611b94565b855490915060009061172390600190611b94565b905081811461178857600086600001828154811061174357611743611b3a565b906000526020600020015490508087600001848154811061176657611766611b3a565b6000918252602080832090910192909255918252600188019052604090208390555b855486908061179957611799611ba7565b6001900381819060005260206000200160009055905585600101600086815260200190815260200160002060009055600193505050506104d4565b60009150506104d4565b6117e6610866565b156105cd5760405162461bcd60e51b815260206004820152602a60248201527f45524332305061757361626c653a20746f6b656e207472616e736665722077686044820152691a5b19481c185d5cd95960b21b606482015260840161063e565b60006020828403121561185857600080fd5b81356001600160e01b0319811681146109fe57600080fd5b60005b8381101561188b578181015183820152602001611873565b50506000910152565b60208152600082518060208401526118b3816040850160208701611870565b601f01601f19169190910160400192915050565b80356001600160a01b038116811461092857600080fd5b600080604083850312156118f157600080fd5b6118fa836118c7565b946020939093013593505050565b60008060006060848603121561191d57600080fd5b611926846118c7565b9250611934602085016118c7565b9150604084013590509250925092565b60006020828403121561195657600080fd5b5035919050565b6000806040838503121561197057600080fd5b82359150611980602084016118c7565b90509250929050565b60006020828403121561199b57600080fd5b6109fe826118c7565b600080604083850312156119b757600080fd5b50508035926020909101359150565b600080604083850312156119d957600080fd5b6119e2836118c7565b9150611980602084016118c7565b600181811c90821680611a0457607f821691505b602082108103611a2457634e487b7160e01b600052602260045260246000fd5b50919050565b634e487b7160e01b600052601160045260246000fd5b808201808211156104d4576104d4611a2a565b60208082526030908201527f46616e7461737945524332303a206164647265737320616c726561647920636c60408201526f61696d65642074686520746f6b656e7360801b606082015260800190565b600060208284031215611ab557600080fd5b815180151581146109fe57600080fd5b7f416363657373436f6e74726f6c3a206163636f756e7420000000000000000000815260008351611afd816017850160208801611870565b7001034b99036b4b9b9b4b733903937b6329607d1b6017918401918201528351611b2e816028840160208801611870565b01602801949350505050565b634e487b7160e01b600052603260045260246000fd5b80820281158282048414176104d4576104d4611a2a565b634e487b7160e01b600052604160045260246000fd5b600081611b8c57611b8c611a2a565b506000190190565b818103818111156104d4576104d4611a2a565b634e487b7160e01b600052603160045260246000fdfea26469706673582212200a180bd76517920e0b56e6307e6845d5fef08bd68ec6f905e8bc5ab9e192446564736f6c634300081200339f2df0fed2c77648de5860a4cc508cd0818c85b8b8a1ab4ceeef8d981c8956a6a264697066735822122067024b9eef302a4ee70e3f9c6a109e6b398ded519a1945805821b378b8828bbf64736f6c63430008120033608060405234801561001057600080fd5b506040516109ef3803806109ef83398101604081905261002f91610054565b600080546001600160a01b0319166001600160a01b0392909216919091179055610084565b60006020828403121561006657600080fd5b81516001600160a01b038116811461007d57600080fd5b9392505050565b61095c806100936000396000f3fe608060405234801561001057600080fd5b50600436106100415760003560e01c8063316b3739146100465780637726f7761461008b578063b816f513146100a0575b600080fd5b61006f61005436600461077c565b6001602052600090815260409020546001600160a01b031681565b6040516001600160a01b03909116815260200160405180910390f35b61009e61009936600461077c565b6100b3565b005b60005461006f906001600160a01b031681565b6001600160a01b0381811660009081526001602052604090205416156101455760405162461bcd60e51b815260206004820152603960248201527f54686572652073686f756c64206f6e6c79206265206f6e65206465706c6f796d60448201527f656e74207065722076657273696f6e2070657220746f6b656e00000000000000606482015260840160405180910390fd5b6000816001600160a01b031663313ce5676040518163ffffffff1660e01b8152600401602060405180830381865afa158015610185573d6000803e3d6000fd5b505050506040513d601f19601f820116820180604052508101906101a991906107ac565b90506000826001600160a01b03166395d89b416040518163ffffffff1660e01b8152600401600060405180830381865afa1580156101eb573d6000803e3d6000fd5b505050506040513d6000823e601f3d908101601f191682016040526102139190810190610809565b600080549192509061022d906001600160a01b031661072a565b60405163144fa6d760e01b81526001600160a01b0386811660048301529192509082169063144fa6d790602401600060405180830381600087803b15801561027457600080fd5b505af1158015610288573d6000803e3d6000fd5b50506040516383bf460960e01b815260206004820152603f60248201527f7b227469746c65223a20222573222c202274797065223a2022626f6f6c222c2060448201527f2263617465676f7279223a20222573222c20226c616e67223a20222573227d0060648201526001600160a01b03841692506383bf460991506084016020604051808303816000875af1158015610326573d6000803e3d6000fd5b505050506040513d601f19601f8201168201806040525081019061034a91906108b6565b506040516383bf460960e01b815260206004820152604f60248201527f7b227469746c65223a20222573222c202274797065223a202275696e74222c2060448201527f22646563696d616c73223a2031382c202263617465676f7279223a202225732260648201526e2c20226c616e67223a20222573227d60881b60848201526001600160a01b038216906383bf46099060a4016020604051808303816000875af11580156103fd573d6000803e3d6000fd5b505050506040513d601f19601f8201168201806040525081019061042191906108b6565b506040516383bf460960e01b815260206004820152605a60248201527f7b227469746c65223a20222573222c202274797065223a202273696e676c652d60448201527f73656c656374222c20226f7574636f6d6573223a205b25735d2c20226361746560648201527f676f7279223a20222573222c20226c616e67223a20222573227d00000000000060848201526001600160a01b038216906383bf46099060a4016020604051808303816000875af11580156104e2573d6000803e3d6000fd5b505050506040513d601f19601f8201168201806040525081019061050691906108b6565b506040516383bf460960e01b815260206004820152605c60248201527f7b227469746c65223a20222573222c202274797065223a20226d756c7469706c60448201527f652d73656c656374222c20226f7574636f6d6573223a205b25735d2c2022636160648201527f7465676f7279223a20222573222c20226c616e67223a20222573227d0000000060848201526001600160a01b038216906383bf46099060a4016020604051808303816000875af11580156105c7573d6000803e3d6000fd5b505050506040513d601f19601f820116820180604052508101906105eb91906108b6565b506040516383bf460960e01b815260206004820152604360248201527f7b227469746c65223a20222573222c202274797065223a20226461746574696d60448201527f65222c202263617465676f7279223a20222573222c20226c616e67223a20222560648201526273227d60e81b60848201526001600160a01b038216906383bf46099060a4016020604051808303816000875af1158015610692573d6000803e3d6000fd5b505050506040513d601f19601f820116820180604052508101906106b691906108b6565b506001600160a01b038481166000908152600160205260409081902080546001600160a01b03191692841692909217909155517fbe87db3b58b5f4d26d54d6f8a09bbab3eefdc8879ac48f5e21ccff2a1f50b0729061071c9083908790879087906108cf565b60405180910390a150505050565b6000808260601b9050604051733d602d80600a3d3981f3363d3d373d3d3d363d7360601b81528160148201526e5af43d82803e903d91602b57fd5bf360881b60288201526037816000f0949350505050565b60006020828403121561078e57600080fd5b81356001600160a01b03811681146107a557600080fd5b9392505050565b6000602082840312156107be57600080fd5b815160ff811681146107a557600080fd5b634e487b7160e01b600052604160045260246000fd5b60005b838110156108005781810151838201526020016107e8565b50506000910152565b60006020828403121561081b57600080fd5b815167ffffffffffffffff8082111561083357600080fd5b818401915084601f83011261084757600080fd5b815181811115610859576108596107cf565b604051601f8201601f19908116603f01168101908382118183101715610881576108816107cf565b8160405282815287602084870101111561089a57600080fd5b6108ab8360208301602088016107e5565b979650505050505050565b6000602082840312156108c857600080fd5b5051919050565b600060018060a01b03808716835280861660208401525060ff8416604083015260806060830152825180608084015261090f8160a08501602087016107e5565b601f01601f19169190910160a0019594505050505056fea26469706673582212200901921801295c1857ea1285857575b749b164c9a87fe108337110039b25924a64736f6c63430008120033a26469706673582212207affa0e55657bbc043bb52ea367d1978995cc1e84a9ad1a9c5be96cc7ec8053c64736f6c63430008120033",
  "immutableReferences": {
    "12429": [
      {
        "length": 32,
        "start": 924
      },
      {
        "length": 32,
        "start": 1670
      },
      {
        "length": 32,
        "start": 2704
      },
      {
        "length": 32,
        "start": 3183
      },
      {
        "length": 32,
        "start": 3426
      },
      {
        "length": 32,
        "start": 3971
      }
    ]
  },
  "source": "// SPDX-License-Identifier: MIT\npragma solidity ^0.8.18;\n\nimport \"./PredictionMarketV3Controller.sol\";\n\n// openzeppelin ownable contract import\nimport \"@openzeppelin/contracts/access/Ownable.sol\";\nimport \"@openzeppelin/contracts/security/ReentrancyGuard.sol\";\nimport \"@openzeppelin/contracts/proxy/Clones.sol\";\n\ncontract PredictionMarketV3Factory is Ownable, ReentrancyGuard {\n  IERC20 public immutable token; // Governance IERC20\n  uint256 public lockAmount; // amount necessary to lock to create a land\n  address public PMV3LibraryAddress; // PredictionMarketV3 library address\n  address public realitioLibraryAddress; // PredictionMarketV3 contract\n\n  event ControllerCreated(address indexed user, address indexed controller, uint256 amountLocked);\n\n  event ControllerDisabled(address indexed user, address indexed controller, uint256 amountUnlocked);\n\n  event ControllerEnabled(address indexed user, address indexed controller, uint256 amountUnlocked);\n\n  event ControllerOffsetUnlocked(address indexed user, address indexed controller, uint256 amountUnlocked);\n\n  event ControllerAdminAdded(address indexed user, address indexed controller, address indexed admin);\n\n  event ControllerAdminRemoved(address indexed user, address indexed controller, address indexed admin);\n\n  struct Controller {\n    bool active;\n    mapping(address => bool) admins;\n    uint256 lockAmount;\n    address lockUser;\n  }\n\n  mapping(address => Controller) public controllers;\n  address[] public controllersAddresses;\n  uint256 public controllersLength;\n\n  constructor(\n    IERC20 _token,\n    uint256 _lockAmount,\n    address _PMV3LibraryAddress,\n    address _realitioLibraryAddress\n  ) {\n    token = _token;\n    lockAmount = _lockAmount;\n    PMV3LibraryAddress = _PMV3LibraryAddress;\n    realitioLibraryAddress = _realitioLibraryAddress;\n  }\n\n  function updateLockAmount(uint256 newLockAmount) external onlyOwner {\n    require(newLockAmount != lockAmount, \"Lock amount is the same\");\n\n    lockAmount = newLockAmount;\n  }\n\n  function updatePMV3LibraryAddress(address _PMV3LibraryAddress) external onlyOwner {\n    require(_PMV3LibraryAddress != address(0), \"PMV3LibraryAddress address cannot be 0 address\");\n\n    PMV3LibraryAddress = _PMV3LibraryAddress;\n  }\n\n  function updateRealitioLibraryAddress(address _realitioLibraryAddress) external onlyOwner {\n    require(_realitioLibraryAddress != address(0), \"RealitioLibraryAddress address cannot be 0 address\");\n\n    realitioLibraryAddress = _realitioLibraryAddress;\n  }\n\n  // lockAmount is the amount of tokens that the user needs to lock to create a land\n  // by locking the amount the factory will create a PredictionMarketController contract and store it in the contract\n  // the user will be the admin of the PredictionMarketController contract\n  function createPMController(address _PMV3) external returns (PredictionMarketV3Controller) {\n    require(token.balanceOf(msg.sender) >= lockAmount, \"Not enough tokens to lock\");\n\n    // a PMV3 address can be provided, if not, the factory will deploy a new one\n    if (_PMV3 == address(0)) {\n      // deploy new PredictionMarketV3 contract\n      _PMV3 = Clones.clone(PMV3LibraryAddress);\n    }\n\n    // deploy prediction market controller contract\n    PredictionMarketV3Controller PMV3Controller = new PredictionMarketV3Controller(\n      _PMV3,\n      realitioLibraryAddress,\n      address(this)\n    );\n\n    // store the new controller in the contract\n    Controller storage controller = controllers[address(PMV3Controller)];\n    controller.active = true;\n    controller.admins[msg.sender] = true;\n    controller.lockAmount = lockAmount;\n    controller.lockUser = msg.sender;\n    controllersAddresses.push(address(PMV3Controller));\n    controllersLength++;\n\n    // transfer the lockAmount to the contract\n    token.transferFrom(msg.sender, address(this), lockAmount);\n\n    // ControllerCreated event\n    emit ControllerCreated(msg.sender, address(PMV3Controller), lockAmount);\n\n    return PMV3Controller;\n  }\n\n  function disablePMController(address controllerAddress) external returns (uint256) {\n    Controller storage controller = controllers[address(controllerAddress)];\n\n    require(controller.active, \"Controller is not active\");\n    require(controller.admins[msg.sender], \"Not admin of the controller\");\n\n    uint256 amountToUnlock = controller.lockAmount;\n\n    token.transfer(controller.lockUser, amountToUnlock);\n\n    // disable the land\n    controller.active = false;\n    controller.lockAmount = 0;\n    controller.lockUser = address(0);\n\n    // ControllerDisabled event\n    emit ControllerDisabled(msg.sender, address(controllerAddress), amountToUnlock);\n\n    return amountToUnlock;\n  }\n\n  function enablePMController(address controllerAddress) external returns (uint256) {\n    Controller storage controller = controllers[address(controllerAddress)];\n\n    require(!controller.active, \"Controller is already active\");\n    require(controller.admins[msg.sender], \"Not admin of the controller\");\n\n    uint256 amountToLock = lockAmount > controller.lockAmount ? lockAmount - controller.lockAmount : 0;\n\n    // transfer the lockAmount to the contract\n    token.transferFrom(msg.sender, address(this), amountToLock);\n\n    // enable the land\n    controller.active = true;\n    controller.lockAmount = controller.lockAmount + amountToLock;\n    controller.lockUser = msg.sender;\n\n    // ControllerEnabled event\n    emit ControllerEnabled(msg.sender, address(controllerAddress), amountToLock);\n\n    return amountToLock;\n  }\n\n  function unlockOffsetFromPMController(address controllerAddress) external returns (uint256) {\n    Controller storage controller = controllers[address(controllerAddress)];\n\n    require(controller.active, \"controller does not exist\");\n    require(controller.admins[msg.sender], \"Not admin of the controller\");\n\n    uint256 amountToUnlock = controller.lockAmount > lockAmount ? controller.lockAmount - lockAmount : 0;\n\n    if (amountToUnlock > 0) {\n      token.transfer(msg.sender, amountToUnlock);\n      controller.lockAmount = controller.lockAmount - amountToUnlock;\n    }\n\n    // ControllerOffsetUnlocked event\n    emit ControllerOffsetUnlocked(msg.sender, address(controllerAddress), amountToUnlock);\n\n    return amountToUnlock;\n  }\n\n  function addAdminToPMController(address controllerAddress, address admin) external {\n    Controller storage controller = controllers[address(controllerAddress)];\n\n    require(controller.active, \"Controller does not exist\");\n    require(controller.admins[msg.sender], \"Not admin of the controller\");\n\n    controller.admins[admin] = true;\n\n    // ControllerAdminAdded event\n    emit ControllerAdminAdded(msg.sender, address(controllerAddress), admin);\n  }\n\n  function removeAdminFromPMController(address controllerAddress, address admin) external {\n    Controller storage controller = controllers[address(controllerAddress)];\n\n    require(controller.active, \"Controller does not exist\");\n    require(controller.admins[msg.sender], \"Not admin of the controller\");\n    require(controller.lockUser != admin, \"Can not remove from admin the lockUser\");\n\n    controller.admins[admin] = false;\n\n    // ControllerAdminRemoved event\n    emit ControllerAdminRemoved(msg.sender, address(controllerAddress), admin);\n  }\n\n  function isPMControllerActive(address controllerAddress) external view returns (bool) {\n    Controller storage controller = controllers[address(controllerAddress)];\n\n    return controller.active;\n  }\n\n  function isPMControllerAdmin(address controllerAddress, address user) external view returns (bool) {\n    Controller storage controller = controllers[address(controllerAddress)];\n\n    return controller.admins[user];\n  }\n}\n",
  "sourcePath": "/home/arok/dev/polkamarkets-js/contracts/PredictionMarketV3Factory.sol",
  "compiler": {
    "name": "solc",
    "version": "0.8.18+commit.87f61d96.Emscripten.clang"
  },
  "schemaVersion": "3.4.16",
  "updatedAt": "2025-05-26T09:05:12.201Z",
  "devdoc": {
    "kind": "dev",
    "methods": {
      "owner()": {
        "details": "Returns the address of the current owner."
      },
      "renounceOwnership()": {
        "details": "Leaves the contract without owner. It will not be possible to call `onlyOwner` functions anymore. Can only be called by the current owner. NOTE: Renouncing ownership will leave the contract without an owner, thereby removing any functionality that is only available to the owner."
      },
      "transferOwnership(address)": {
        "details": "Transfers ownership of the contract to a new account (`newOwner`). Can only be called by the current owner."
      }
    },
    "version": 1
  },
  "userdoc": {
    "kind": "user",
    "methods": {},
    "version": 1
  }
}