{
  "contractName": "PredictionMarketV3Controller",
  "abi": [
    {
      "inputs": [
        {
          "internalType": "address",
          "name": "_PMV3",
          "type": "address"
        },
        {
          "internalType": "address",
          "name": "_realitioLibraryAddress",
          "type": "address"
        },
        {
          "internalType": "address",
          "name": "_PMV3Factory",
          "type": "address"
        }
      ],
      "stateMutability": "nonpayable",
      "type": "constructor"
    },
    {
      "anonymous": false,
      "inputs": [
        {
          "indexed": true,
          "internalType": "address",
          "name": "user",
          "type": "address"
        },
        {
          "indexed": true,
          "internalType": "address",
          "name": "token",
          "type": "address"
        },
        {
          "indexed": true,
          "internalType": "address",
          "name": "admin",
          "type": "address"
        }
      ],
      "name": "LandAdminAdded",
      "type": "event"
    },
    {
      "anonymous": false,
      "inputs": [
        {
          "indexed": true,
          "internalType": "address",
          "name": "user",
          "type": "address"
        },
        {
          "indexed": true,
          "internalType": "address",
          "name": "token",
          "type": "address"
        },
        {
          "indexed": true,
          "internalType": "address",
          "name": "admin",
          "type": "address"
        }
      ],
      "name": "LandAdminRemoved",
      "type": "event"
    },
    {
      "anonymous": false,
      "inputs": [
        {
          "indexed": true,
          "internalType": "address",
          "name": "user",
          "type": "address"
        },
        {
          "indexed": true,
          "internalType": "address",
          "name": "token",
          "type": "address"
        },
        {
          "indexed": true,
          "internalType": "address",
          "name": "tokenToAnswer",
          "type": "address"
        }
      ],
      "name": "LandCreated",
      "type": "event"
    },
    {
      "anonymous": false,
      "inputs": [
        {
          "indexed": true,
          "internalType": "address",
          "name": "user",
          "type": "address"
        },
        {
          "indexed": true,
          "internalType": "address",
          "name": "token",
          "type": "address"
        }
      ],
      "name": "LandDisabled",
      "type": "event"
    },
    {
      "anonymous": false,
      "inputs": [
        {
          "indexed": true,
          "internalType": "address",
          "name": "user",
          "type": "address"
        },
        {
          "indexed": true,
          "internalType": "address",
          "name": "token",
          "type": "address"
        }
      ],
      "name": "LandEnabled",
      "type": "event"
    },
    {
      "anonymous": false,
      "inputs": [
        {
          "indexed": true,
          "internalType": "address",
          "name": "user",
          "type": "address"
        },
        {
          "indexed": true,
          "internalType": "address",
          "name": "token",
          "type": "address"
        }
      ],
      "name": "LandOffsetUnlocked",
      "type": "event"
    },
    {
      "anonymous": false,
      "inputs": [
        {
          "indexed": true,
          "internalType": "address",
          "name": "previousOwner",
          "type": "address"
        },
        {
          "indexed": true,
          "internalType": "address",
          "name": "newOwner",
          "type": "address"
        }
      ],
      "name": "OwnershipTransferred",
      "type": "event"
    },
    {
      "inputs": [],
      "name": "PMV3",
      "outputs": [
        {
          "internalType": "address",
          "name": "",
          "type": "address"
        }
      ],
      "stateMutability": "view",
      "type": "function"
    },
    {
      "inputs": [],
      "name": "PMV3Factory",
      "outputs": [
        {
          "internalType": "address",
          "name": "",
          "type": "address"
        }
      ],
      "stateMutability": "view",
      "type": "function"
    },
    {
      "inputs": [
        {
          "internalType": "uint256",
          "name": "",
          "type": "uint256"
        }
      ],
      "name": "landTokens",
      "outputs": [
        {
          "internalType": "address",
          "name": "",
          "type": "address"
        }
      ],
      "stateMutability": "view",
      "type": "function"
    },
    {
      "inputs": [],
      "name": "landTokensLength",
      "outputs": [
        {
          "internalType": "uint256",
          "name": "",
          "type": "uint256"
        }
      ],
      "stateMutability": "view",
      "type": "function"
    },
    {
      "inputs": [
        {
          "internalType": "address",
          "name": "",
          "type": "address"
        }
      ],
      "name": "lands",
      "outputs": [
        {
          "internalType": "contract FantasyERC20",
          "name": "token",
          "type": "address"
        },
        {
          "internalType": "bool",
          "name": "active",
          "type": "bool"
        },
        {
          "internalType": "bool",
          "name": "everyoneCanCreateMarkets",
          "type": "bool"
        },
        {
          "internalType": "contract IRealityETH_IERC20",
          "name": "realitio",
          "type": "address"
        }
      ],
      "stateMutability": "view",
      "type": "function"
    },
    {
      "inputs": [],
      "name": "owner",
      "outputs": [
        {
          "internalType": "address",
          "name": "",
          "type": "address"
        }
      ],
      "stateMutability": "view",
      "type": "function"
    },
    {
      "inputs": [],
      "name": "realitioFactory",
      "outputs": [
        {
          "internalType": "contract RealityETH_ERC20_Factory",
          "name": "",
          "type": "address"
        }
      ],
      "stateMutability": "view",
      "type": "function"
    },
    {
      "inputs": [],
      "name": "renounceOwnership",
      "outputs": [],
      "stateMutability": "nonpayable",
      "type": "function"
    },
    {
      "inputs": [
        {
          "internalType": "address",
          "name": "newOwner",
          "type": "address"
        }
      ],
      "name": "transferOwnership",
      "outputs": [],
      "stateMutability": "nonpayable",
      "type": "function"
    },
    {
      "inputs": [
        {
          "internalType": "string",
          "name": "name",
          "type": "string"
        },
        {
          "internalType": "string",
          "name": "symbol",
          "type": "string"
        },
        {
          "internalType": "uint256",
          "name": "tokenAmountToClaim",
          "type": "uint256"
        },
        {
          "internalType": "contract IERC20",
          "name": "tokenToAnswer",
          "type": "address"
        },
        {
          "internalType": "bool",
          "name": "everyoneCanCreateMarkets",
          "type": "bool"
        }
      ],
      "name": "createLand",
      "outputs": [
        {
          "internalType": "contract FantasyERC20",
          "name": "",
          "type": "address"
        }
      ],
      "stateMutability": "nonpayable",
      "type": "function"
    },
    {
      "inputs": [
        {
          "internalType": "contract IERC20",
          "name": "landToken",
          "type": "address"
        }
      ],
      "name": "disableLand",
      "outputs": [],
      "stateMutability": "nonpayable",
      "type": "function"
    },
    {
      "inputs": [
        {
          "internalType": "contract IERC20",
          "name": "landToken",
          "type": "address"
        }
      ],
      "name": "enableLand",
      "outputs": [],
      "stateMutability": "nonpayable",
      "type": "function"
    },
    {
      "inputs": [
        {
          "internalType": "contract IERC20",
          "name": "landToken",
          "type": "address"
        },
        {
          "internalType": "address",
          "name": "admin",
          "type": "address"
        }
      ],
      "name": "addAdminToLand",
      "outputs": [],
      "stateMutability": "nonpayable",
      "type": "function"
    },
    {
      "inputs": [
        {
          "internalType": "contract IERC20",
          "name": "landToken",
          "type": "address"
        },
        {
          "internalType": "address",
          "name": "admin",
          "type": "address"
        }
      ],
      "name": "removeAdminFromLand",
      "outputs": [],
      "stateMutability": "nonpayable",
      "type": "function"
    },
    {
      "inputs": [
        {
          "internalType": "contract IERC20",
          "name": "marketToken",
          "type": "address"
        },
        {
          "internalType": "address",
          "name": "user",
          "type": "address"
        }
      ],
      "name": "isAllowedToCreateMarket",
      "outputs": [
        {
          "internalType": "bool",
          "name": "",
          "type": "bool"
        }
      ],
      "stateMutability": "view",
      "type": "function"
    },
    {
      "inputs": [
        {
          "internalType": "contract IERC20",
          "name": "marketToken",
          "type": "address"
        },
        {
          "internalType": "address",
          "name": "user",
          "type": "address"
        }
      ],
      "name": "isAllowedToResolveMarket",
      "outputs": [
        {
          "internalType": "bool",
          "name": "",
          "type": "bool"
        }
      ],
      "stateMutability": "view",
      "type": "function"
    },
    {
      "inputs": [
        {
          "internalType": "contract IERC20",
          "name": "marketToken",
          "type": "address"
        }
      ],
      "name": "isIERC20TokenSocial",
      "outputs": [
        {
          "internalType": "bool",
          "name": "",
          "type": "bool"
        }
      ],
      "stateMutability": "view",
      "type": "function"
    },
    {
      "inputs": [
        {
          "internalType": "contract IERC20",
          "name": "marketToken",
          "type": "address"
        },
        {
          "internalType": "address",
          "name": "user",
          "type": "address"
        }
      ],
      "name": "isLandAdmin",
      "outputs": [
        {
          "internalType": "bool",
          "name": "",
          "type": "bool"
        }
      ],
      "stateMutability": "view",
      "type": "function"
    }
  ],
  "bytecode": "0x60e06040523480156200001157600080fd5b50604051620040433803806200404383398101604081905262000034916200018f565b6200003f3362000114565b600180556001600160a01b038116620000ae5760405162461bcd60e51b815260206004820152602760248201527f504d5633466163746f727920616464726573732063616e6e6f742062652030206044820152666164647265737360c81b606482015260840160405180910390fd5b6001600160a01b0383166080526040518290620000cb9062000164565b6001600160a01b039091168152602001604051809103906000f080158015620000f8573d6000803e3d6000fd5b506001600160a01b0390811660c0521660a05250620001d99050565b600080546001600160a01b038381166001600160a01b0319831681178455604051919092169283917f8be0079c531659141344cd1fd0a4f28419497f9722a3daafe3b4186f6b6457e09190a35050565b6109ef806200365483390190565b80516001600160a01b03811681146200018a57600080fd5b919050565b600080600060608486031215620001a557600080fd5b620001b08462000172565b9250620001c06020850162000172565b9150620001d06040850162000172565b90509250925092565b60805160a05160c05161342162000233600039600081816102c60152818161071a015281816107b80152610836015260008181610138015261045e0152600081816101ad015281816104e7015261056d01526134216000f3fe60806040523480156200001157600080fd5b50600436106200012d5760003560e01c80636e3dd8ba11620000af57806386b5c5b1116200007a57806386b5c5b1146200034c5780638da5cb5b1462000363578063d13acee11462000375578063d1aeb5c214620003ab578063f2fde38b14620003c257600080fd5b80636e3dd8ba14620002c057806370e9207814620002e8578063715018a614620002ff578063791e0519146200030957600080fd5b806325c7205911620000fc57806325c7205914620001cf57806330ccd17a14620001f757806333b22760146200020e5780634fe62a5b14620002905780635d341ae514620002a957600080fd5b80630c27c26c14620001325780631311758b14620001775780631b4d534e14620001905780631cbe8a6514620001a7575b600080fd5b6200015a7f000000000000000000000000000000000000000000000000000000000000000081565b6040516001600160a01b0390911681526020015b60405180910390f35b6200018160045481565b6040519081526020016200016e565b6200015a620001a136600462001156565b620003d9565b6200015a7f000000000000000000000000000000000000000000000000000000000000000081565b620001e6620001e0366004620011f6565b62000905565b60405190151581526020016200016e565b6200015a6200020836600462001234565b62000967565b6200025c6200021f3660046200124e565b600260208190526000918252604090912080549101546001600160a01b038083169260ff600160a01b909104811692908116916101009091041684565b604080516001600160a01b03958616815293151560208501529115159183019190915290911660608201526080016200016e565b620002a7620002a1366004620011f6565b62000992565b005b620002a7620002ba3660046200124e565b62000afc565b6200015a7f000000000000000000000000000000000000000000000000000000000000000081565b620002a7620002f93660046200124e565b62000c42565b620002a762000d7d565b620001e66200031a366004620011f6565b6001600160a01b0391821660009081526002602090815260408083209390941682526001909201909152205460ff1690565b620002a76200035d366004620011f6565b62000d95565b6000546001600160a01b03166200015a565b620001e6620003863660046200124e565b6001600160a01b0316600090815260026020526040902054600160a01b900460ff1690565b620001e6620003bc366004620011f6565b62000efa565b620002a7620003d33660046200124e565b62000f4d565b60006001600160a01b038316620004435760405162461bcd60e51b815260206004820152602360248201527f546f6b656e20746f20616e737765722063616e6e6f742062652030206164647260448201526265737360e81b60648201526084015b60405180910390fd5b60405163da490a3960e01b81523060048201523360248201527f0000000000000000000000000000000000000000000000000000000000000000906001600160a01b0382169063da490a3990604401602060405180830381865afa158015620004b0573d6000803e3d6000fd5b505050506040513d601f19601f82011682018060405250810190620004d6919062001275565b620004e057600080fd5b60008787877f0000000000000000000000000000000000000000000000000000000000000000604051620005149062001078565b620005239493929190620012dd565b604051809103906000f08015801562000540573d6000803e3d6000fd5b50604051632f2ff15d60e01b8152600080516020620033cc83398151915260048201526001600160a01b037f00000000000000000000000000000000000000000000000000000000000000008116602483015291925090821690632f2ff15d90604401600060405180830381600087803b158015620005be57600080fd5b505af1158015620005d3573d6000803e3d6000fd5b5050604051632f2ff15d60e01b8152600080516020620033cc83398151915260048201523360248201526001600160a01b0384169250632f2ff15d9150604401600060405180830381600087803b1580156200062e57600080fd5b505af115801562000643573d6000803e3d6000fd5b505050506001600160a01b03811660008181526002602081815260408084208054600160a01b6001600160a81b031990911687171781553385526001808201909352908420805460ff19908116841790915592810180549093168915151790925560038054918201815583527fc2575a0e9e593c00f959f8c92f12db2869c3395a3b0502d05e2516446f71f85b0180546001600160a01b0319169093179092556004805491620006f38362001328565b909155505060405163316b373960e01b81526001600160a01b0387811660048301526000917f00000000000000000000000000000000000000000000000000000000000000009091169063316b373990602401602060405180830381865afa15801562000764573d6000803e3d6000fd5b505050506040513d601f19601f820116820180604052508101906200078a919062001350565b6001600160a01b0316036200081757604051633b937bbb60e11b81526001600160a01b0387811660048301527f00000000000000000000000000000000000000000000000000000000000000001690637726f77690602401600060405180830381600087803b158015620007fd57600080fd5b505af115801562000812573d6000803e3d6000fd5b505050505b60405163316b373960e01b81526001600160a01b0387811660048301527f0000000000000000000000000000000000000000000000000000000000000000169063316b373990602401602060405180830381865afa1580156200087e573d6000803e3d6000fd5b505050506040513d601f19601f82011682018060405250810190620008a4919062001350565b600282018054610100600160a81b0319166101006001600160a01b03938416021790556040518782169184169033907f928ae96c7a1d6a73f58dbf368490cb214debe41ff700f156ca8eaa1b1a307e0390600090a450979650505050505050565b6001600160a01b03821660009081526002602052604081208054600160a01b900460ff1680156200095f5750600281015460ff16806200095f57506001600160a01b038316600090815260018201602052604090205460ff165b949350505050565b600381815481106200097857600080fd5b6000918252602090912001546001600160a01b0316905081565b6001600160a01b03821660009081526002602052604090208054600160a01b900460ff16620009fa5760405162461bcd60e51b815260206004820152601360248201527213185b9908191bd95cc81b9bdd08195e1a5cdd606a1b60448201526064016200043a565b33600090815260018201602052604090205460ff1662000a2e5760405162461bcd60e51b81526004016200043a9062001370565b8054604051632f2ff15d60e01b8152600080516020620033cc83398151915260048201526001600160a01b03848116602483015290911690632f2ff15d90604401600060405180830381600087803b15801562000a8a57600080fd5b505af115801562000a9f573d6000803e3d6000fd5b505050506001600160a01b03828116600081815260018481016020526040808320805460ff191690921790915551919286169133917fb8429069f85942f3e5ebf215afa8d573e550665bb50ea78f80e07500c4890a6891a4505050565b6001600160a01b03811660009081526002602052604090208054600160a01b900460ff161562000b685760405162461bcd60e51b81526020600482015260166024820152754c616e6420697320616c72656164792061637469766560501b60448201526064016200043a565b33600090815260018201602052604090205460ff1662000b9c5760405162461bcd60e51b81526004016200043a9062001370565b805460ff60a01b1916600160a01b17815560408051631fa5d41d60e11b815290516001600160a01b03841691633f4ba83a91600480830192600092919082900301818387803b15801562000bef57600080fd5b505af115801562000c04573d6000803e3d6000fd5b50506040516001600160a01b03851692503391507fdb2921f4928b1643f888d38d16ccb474a5e7588484d29c41af2f2b3f1172f65090600090a35050565b6001600160a01b03811660009081526002602052604090208054600160a01b900460ff1662000ca95760405162461bcd60e51b81526020600482015260126024820152714c616e64206973206e6f742061637469766560701b60448201526064016200043a565b33600090815260018201602052604090205460ff1662000cdd5760405162461bcd60e51b81526004016200043a9062001370565b805460ff60a01b1916815560408051638456cb5960e01b815290516001600160a01b03841691638456cb5991600480830192600092919082900301818387803b15801562000d2a57600080fd5b505af115801562000d3f573d6000803e3d6000fd5b50506040516001600160a01b03851692503391507f8b1af787b59d993bb7ca4128144173ff8fdc3a5ed54c5d17627d299e867c9fc490600090a35050565b62000d8762000fcc565b62000d93600062001028565b565b6001600160a01b03821660009081526002602052604090208054600160a01b900460ff1662000dfd5760405162461bcd60e51b815260206004820152601360248201527213185b9908191bd95cc81b9bdd08195e1a5cdd606a1b60448201526064016200043a565b33600090815260018201602052604090205460ff1662000e315760405162461bcd60e51b81526004016200043a9062001370565b805460405163d547741f60e01b8152600080516020620033cc83398151915260048201526001600160a01b0384811660248301529091169063d547741f90604401600060405180830381600087803b15801562000e8d57600080fd5b505af115801562000ea2573d6000803e3d6000fd5b505050506001600160a01b038281166000818152600184016020526040808220805460ff1916905551919286169133917f5cb946ecb390cbf9c44ad43a7ed4ba5a5803844da9153e195a7235092436756091a4505050565b6001600160a01b03821660009081526002602052604081208054600160a01b900460ff1680156200095f57506001600160a01b038316600090815260018201602052604090205460ff1691505092915050565b62000f5762000fcc565b6001600160a01b03811662000fbe5760405162461bcd60e51b815260206004820152602660248201527f4f776e61626c653a206e6577206f776e657220697320746865207a65726f206160448201526564647265737360d01b60648201526084016200043a565b62000fc98162001028565b50565b6000546001600160a01b0316331462000d935760405162461bcd60e51b815260206004820181905260248201527f4f776e61626c653a2063616c6c6572206973206e6f7420746865206f776e657260448201526064016200043a565b600080546001600160a01b038381166001600160a01b0319831681178455604051919092169283917f8be0079c531659141344cd1fd0a4f28419497f9722a3daafe3b4186f6b6457e09190a35050565b61202c80620013a083390190565b634e487b7160e01b600052604160045260246000fd5b600082601f830112620010ae57600080fd5b813567ffffffffffffffff80821115620010cc57620010cc62001086565b604051601f8301601f19908116603f01168101908282118183101715620010f757620010f762001086565b816040528381528660208588010111156200111157600080fd5b836020870160208301376000602085830101528094505050505092915050565b6001600160a01b038116811462000fc957600080fd5b801515811462000fc957600080fd5b600080600080600060a086880312156200116f57600080fd5b853567ffffffffffffffff808211156200118857600080fd5b6200119689838a016200109c565b96506020880135915080821115620011ad57600080fd5b50620011bc888289016200109c565b945050604086013592506060860135620011d68162001131565b91506080860135620011e88162001147565b809150509295509295909350565b600080604083850312156200120a57600080fd5b8235620012178162001131565b91506020830135620012298162001131565b809150509250929050565b6000602082840312156200124757600080fd5b5035919050565b6000602082840312156200126157600080fd5b81356200126e8162001131565b9392505050565b6000602082840312156200128857600080fd5b81516200126e8162001147565b6000815180845260005b81811015620012bd576020818501810151868301820152016200129f565b506000602082860101526020601f19601f83011685010191505092915050565b608081526000620012f2608083018762001295565b828103602084015262001306818762001295565b604084019590955250506001600160a01b039190911660609091015292915050565b6000600182016200134957634e487b7160e01b600052601160045260246000fd5b5060010190565b6000602082840312156200136357600080fd5b81516200126e8162001131565b602080825260159082015274139bdd0818591b5a5b881bd9881d1a19481b185b99605a1b60408201526060019056fe60806040523480156200001157600080fd5b506040516200202c3803806200202c833981016040819052620000349162000321565b83838181600562000046838262000444565b50600662000055828262000444565b50506007805460ff19169055506200006f600033620000f7565b6200009b7f9f2df0fed2c77648de5860a4cc508cd0818c85b8b8a1ab4ceeef8d981c8956a633620000f7565b620000c77f65d7a28e3265b37a6474929f336521b332c1681b933f6cb9f3376673440d862a33620000f7565b5050600a91909155600980546001600160a01b0319166001600160a01b0390921691909117905550620005109050565b62000103828262000107565b5050565b6200011e82826200014a60201b62000ac71760201c565b60008281526001602090815260409091206200014591839062000b4b620001ea821b17901c565b505050565b6000828152602081815260408083206001600160a01b038516845290915290205460ff1662000103576000828152602081815260408083206001600160a01b03851684529091529020805460ff19166001179055620001a63390565b6001600160a01b0316816001600160a01b0316837f2f8788117e7eff1d82e926ec794901d17c78024a50270940304540a733656f0d60405160405180910390a45050565b600062000201836001600160a01b0384166200020a565b90505b92915050565b6000818152600183016020526040812054620002535750815460018181018455600084815260208082209093018490558454848252828601909352604090209190915562000204565b50600062000204565b634e487b7160e01b600052604160045260246000fd5b600082601f8301126200028457600080fd5b81516001600160401b0380821115620002a157620002a16200025c565b604051601f8301601f19908116603f01168101908282118183101715620002cc57620002cc6200025c565b81604052838152602092508683858801011115620002e957600080fd5b600091505b838210156200030d5785820183015181830184015290820190620002ee565b600093810190920192909252949350505050565b600080600080608085870312156200033857600080fd5b84516001600160401b03808211156200035057600080fd5b6200035e8883890162000272565b955060208701519150808211156200037557600080fd5b50620003848782880162000272565b60408701516060880151919550935090506001600160a01b0381168114620003ab57600080fd5b939692955090935050565b600181811c90821680620003cb57607f821691505b602082108103620003ec57634e487b7160e01b600052602260045260246000fd5b50919050565b601f8211156200014557600081815260208120601f850160051c810160208610156200041b5750805b601f850160051c820191505b818110156200043c5782815560010162000427565b505050505050565b81516001600160401b038111156200046057620004606200025c565b6200047881620004718454620003b6565b84620003f2565b602080601f831160018114620004b05760008415620004975750858301515b600019600386901b1c1916600185901b1785556200043c565b600085815260208120601f198616915b82811015620004e157888601518255948401946001909101908401620004c0565b5085821015620005005787850151600019600388901b60f8161c191681555b5050505050600190811b01905550565b611b0c80620005206000396000f3fe608060405234801561001057600080fd5b50600436106101fb5760003560e01c80635c975abb1161011a578063a217fddf116100ad578063ca15c8731161007c578063ca15c8731461042b578063d53913931461043e578063d547741f14610465578063dd62ed3e14610478578063e63ab1e91461048b57600080fd5b8063a217fddf146103f5578063a457c2d7146103fd578063a9059cbb14610410578063adb1f0d81461042357600080fd5b806387bbfe0a116100e957806387bbfe0a1461039b5780639010d07c146103c757806391d14854146103da57806395d89b41146103ed57600080fd5b80635c975abb1461034c57806370a082311461035757806379cc6790146103805780638456cb591461039357600080fd5b8063313ce567116101925780633f4ba83a116101615780633f4ba83a1461031657806340c10f191461031e57806342966c681461033157806348c54b9d1461034457600080fd5b8063313ce567146102d857806336568abe146102e757806337a65725146102fa578063395093511461030357600080fd5b806323b872dd116101ce57806323b872dd14610262578063248a9ca3146102755780632a709b14146102985780632f2ff15d146102c357600080fd5b806301ffc9a71461020057806306fdde0314610228578063095ea7b31461023d57806318160ddd14610250575b600080fd5b61021361020e36600461177c565b6104b2565b60405190151581526020015b60405180910390f35b6102306104dd565b60405161021f91906117ca565b61021361024b366004611819565b61056f565b6004545b60405190815260200161021f565b610213610270366004611843565b610587565b61025461028336600461187f565b60009081526020819052604090206001015490565b6009546102ab906001600160a01b031681565b6040516001600160a01b03909116815260200161021f565b6102d66102d1366004611898565b6105ab565b005b6040516012815260200161021f565b6102d66102f5366004611898565b6105d5565b610254600a5481565b610213610311366004611819565b610658565b6102d661067a565b6102d661032c366004611819565b610720565b6102d661033f36600461187f565b6107bf565b6102d66107cc565b60075460ff16610213565b6102546103653660046118c4565b6001600160a01b031660009081526002602052604090205490565b6102d661038e366004611819565b610869565b6102d661087e565b6102136103a93660046118c4565b6001600160a01b031660009081526008602052604090205460ff1690565b6102ab6103d53660046118df565b610922565b6102136103e8366004611898565b610941565b61023061096a565b610254600081565b61021361040b366004611819565b610979565b61021361041e366004611819565b6109f4565b6102d6610a02565b61025461043936600461187f565b610a60565b6102547f9f2df0fed2c77648de5860a4cc508cd0818c85b8b8a1ab4ceeef8d981c8956a681565b6102d6610473366004611898565b610a77565b610254610486366004611901565b610a9c565b6102547f65d7a28e3265b37a6474929f336521b332c1681b933f6cb9f3376673440d862a81565b60006001600160e01b03198216635a05180f60e01b14806104d757506104d782610b60565b92915050565b6060600580546104ec9061192b565b80601f01602080910402602001604051908101604052809291908181526020018280546105189061192b565b80156105655780601f1061053a57610100808354040283529160200191610565565b820191906000526020600020905b81548152906001019060200180831161054857829003601f168201915b5050505050905090565b60003361057d818585610b95565b5060019392505050565b600033610595858285610cb9565b6105a0858585610d33565b506001949350505050565b6000828152602081905260409020600101546105c681610dd9565b6105d08383610de3565b505050565b6001600160a01b038116331461064a5760405162461bcd60e51b815260206004820152602f60248201527f416363657373436f6e74726f6c3a2063616e206f6e6c792072656e6f756e636560448201526e103937b632b9903337b91039b2b63360891b60648201526084015b60405180910390fd5b6106548282610e05565b5050565b60003361057d81858561066b8383610a9c565b610675919061197b565b610b95565b6106a47f65d7a28e3265b37a6474929f336521b332c1681b933f6cb9f3376673440d862a33610941565b6107165760405162461bcd60e51b815260206004820152603960248201527f45524332305072657365744d696e7465725061757365723a206d75737420686160448201527f76652070617573657220726f6c6520746f20756e7061757365000000000000006064820152608401610641565b61071e610e27565b565b61074a7f9f2df0fed2c77648de5860a4cc508cd0818c85b8b8a1ab4ceeef8d981c8956a633610941565b6107b55760405162461bcd60e51b815260206004820152603660248201527f45524332305072657365744d696e7465725061757365723a206d7573742068616044820152751d99481b5a5b9d195c881c9bdb19481d1bc81b5a5b9d60521b6064820152608401610641565b6106548282610e79565b6107c93382610f46565b50565b3360009081526008602052604090205460ff16156107fc5760405162461bcd60e51b81526004016106419061198e565b61080833600a54610e79565b3360008181526008602052604090819020805460ff19166001179055600a5490517f9923b4306c6c030f2bdfbf156517d5983b87e15b96176da122cd4f2effa4ba7b9161085f914290918252602082015260400190565b60405180910390a2565b610874823383610cb9565b6106548282610f46565b6108a87f65d7a28e3265b37a6474929f336521b332c1681b933f6cb9f3376673440d862a33610941565b61091a5760405162461bcd60e51b815260206004820152603760248201527f45524332305072657365744d696e7465725061757365723a206d75737420686160448201527f76652070617573657220726f6c6520746f2070617573650000000000000000006064820152608401610641565b61071e611086565b600082815260016020526040812061093a90836110c3565b9392505050565b6000918252602082815260408084206001600160a01b0393909316845291905290205460ff1690565b6060600680546104ec9061192b565b600033816109878286610a9c565b9050838110156109e75760405162461bcd60e51b815260206004820152602560248201527f45524332303a2064656372656173656420616c6c6f77616e63652062656c6f77604482015264207a65726f60d81b6064820152608401610641565b6105a08286868403610b95565b60003361057d818585610d33565b3360009081526008602052604090205460ff1615610a325760405162461bcd60e51b81526004016106419061198e565b610a3a6107cc565b6009546107c9906001600160a01b03166fffffffffffffffffffffffffffffffff61056f565b60008181526001602052604081206104d7906110cf565b600082815260208190526040902060010154610a9281610dd9565b6105d08383610e05565b6001600160a01b03918216600090815260036020908152604080832093909416825291909152205490565b610ad18282610941565b610654576000828152602081815260408083206001600160a01b03851684529091529020805460ff19166001179055610b073390565b6001600160a01b0316816001600160a01b0316837f2f8788117e7eff1d82e926ec794901d17c78024a50270940304540a733656f0d60405160405180910390a45050565b600061093a836001600160a01b0384166110d9565b60006001600160e01b03198216637965db0b60e01b14806104d757506301ffc9a760e01b6001600160e01b03198316146104d7565b6001600160a01b038316610bf75760405162461bcd60e51b8152602060048201526024808201527f45524332303a20617070726f76652066726f6d20746865207a65726f206164646044820152637265737360e01b6064820152608401610641565b6001600160a01b038216610c585760405162461bcd60e51b815260206004820152602260248201527f45524332303a20617070726f766520746f20746865207a65726f206164647265604482015261737360f01b6064820152608401610641565b6001600160a01b0383811660008181526003602090815260408083209487168084529482529182902085905590518481527f8c5be1e5ebec7d5bd14f71427d1e84f3dd0314c0f7b2291e5b200ac8c7c3b925910160405180910390a3505050565b6000610cc58484610a9c565b90506000198114610d2d5781811015610d205760405162461bcd60e51b815260206004820152601d60248201527f45524332303a20696e73756666696369656e7420616c6c6f77616e63650000006044820152606401610641565b610d2d8484848403610b95565b50505050565b6009546001600160a01b0384811691161480610d5c57506009546001600160a01b038381169116145b610dce5760405162461bcd60e51b815260206004820152603e60248201527f46616e7461737945524332303a20746f6b656e207472616e73666572206e6f7460448201527f20616c6c6f776564206265747765656e207468652061646472657373657300006064820152608401610641565b6105d0838383611128565b6107c981336112de565b610ded8282610ac7565b60008281526001602052604090206105d09082610b4b565b610e0f8282611337565b60008281526001602052604090206105d0908261139c565b610e2f6113b1565b6007805460ff191690557f5db9ee0a495bf2e6ff9c91a7834c1ba4fdd244a5e8aa4e537bd38aeae4b073aa335b6040516001600160a01b03909116815260200160405180910390a1565b6001600160a01b038216610ecf5760405162461bcd60e51b815260206004820152601f60248201527f45524332303a206d696e7420746f20746865207a65726f2061646472657373006044820152606401610641565b610edb600083836113fa565b8060046000828254610eed919061197b565b90915550506001600160a01b0382166000818152600260209081526040808320805486019055518481527fddf252ad1be2c89b69c2b068fc378daa952ba7f163c4a11628f55a4df523b3ef910160405180910390a35050565b6001600160a01b038216610fa65760405162461bcd60e51b815260206004820152602160248201527f45524332303a206275726e2066726f6d20746865207a65726f206164647265736044820152607360f81b6064820152608401610641565b610fb2826000836113fa565b6001600160a01b038216600090815260026020526040902054818110156110265760405162461bcd60e51b815260206004820152602260248201527f45524332303a206275726e20616d6f756e7420657863656564732062616c616e604482015261636560f01b6064820152608401610641565b6001600160a01b03831660008181526002602090815260408083208686039055600480548790039055518581529192917fddf252ad1be2c89b69c2b068fc378daa952ba7f163c4a11628f55a4df523b3ef910160405180910390a3505050565b61108e611405565b6007805460ff191660011790557f62e78cea01bee320cd4e420270b5ea74000d11b0c9f74754ebdbfc544b05a258610e5c3390565b600061093a838361144b565b60006104d7825490565b6000818152600183016020526040812054611120575081546001818101845560008481526020808220909301849055845484825282860190935260409020919091556104d7565b5060006104d7565b6001600160a01b03831661118c5760405162461bcd60e51b815260206004820152602560248201527f45524332303a207472616e736665722066726f6d20746865207a65726f206164604482015264647265737360d81b6064820152608401610641565b6001600160a01b0382166111ee5760405162461bcd60e51b815260206004820152602360248201527f45524332303a207472616e7366657220746f20746865207a65726f206164647260448201526265737360e81b6064820152608401610641565b6111f98383836113fa565b6001600160a01b038316600090815260026020526040902054818110156112715760405162461bcd60e51b815260206004820152602660248201527f45524332303a207472616e7366657220616d6f756e7420657863656564732062604482015265616c616e636560d01b6064820152608401610641565b6001600160a01b0380851660008181526002602052604080822086860390559286168082529083902080548601905591517fddf252ad1be2c89b69c2b068fc378daa952ba7f163c4a11628f55a4df523b3ef906112d19086815260200190565b60405180910390a3610d2d565b6112e88282610941565b610654576112f581611475565b611300836020611487565b6040516020016113119291906119de565b60408051601f198184030181529082905262461bcd60e51b8252610641916004016117ca565b6113418282610941565b15610654576000828152602081815260408083206001600160a01b0385168085529252808320805460ff1916905551339285917ff6391f5c32d9c69d2a47ea670b442974b53935d1edc7fd64eb21e047a839171b9190a45050565b600061093a836001600160a01b038416611623565b60075460ff1661071e5760405162461bcd60e51b815260206004820152601460248201527314185d5cd8589b194e881b9bdd081c185d5cd95960621b6044820152606401610641565b6105d0838383611716565b60075460ff161561071e5760405162461bcd60e51b815260206004820152601060248201526f14185d5cd8589b194e881c185d5cd95960821b6044820152606401610641565b600082600001828154811061146257611462611a53565b9060005260206000200154905092915050565b60606104d76001600160a01b03831660145b60606000611496836002611a69565b6114a190600261197b565b67ffffffffffffffff8111156114b9576114b9611a80565b6040519080825280601f01601f1916602001820160405280156114e3576020820181803683370190505b509050600360fc1b816000815181106114fe576114fe611a53565b60200101906001600160f81b031916908160001a905350600f60fb1b8160018151811061152d5761152d611a53565b60200101906001600160f81b031916908160001a9053506000611551846002611a69565b61155c90600161197b565b90505b60018111156115d4576f181899199a1a9b1b9c1cb0b131b232b360811b85600f166010811061159057611590611a53565b1a60f81b8282815181106115a6576115a6611a53565b60200101906001600160f81b031916908160001a90535060049490941c936115cd81611a96565b905061155f565b50831561093a5760405162461bcd60e51b815260206004820181905260248201527f537472696e67733a20686578206c656e67746820696e73756666696369656e746044820152606401610641565b6000818152600183016020526040812054801561170c576000611647600183611aad565b855490915060009061165b90600190611aad565b90508181146116c057600086600001828154811061167b5761167b611a53565b906000526020600020015490508087600001848154811061169e5761169e611a53565b6000918252602080832090910192909255918252600188019052604090208390555b85548690806116d1576116d1611ac0565b6001900381819060005260206000200160009055905585600101600086815260200190815260200160002060009055600193505050506104d7565b60009150506104d7565b60075460ff16156105d05760405162461bcd60e51b815260206004820152602a60248201527f45524332305061757361626c653a20746f6b656e207472616e736665722077686044820152691a5b19481c185d5cd95960b21b6064820152608401610641565b60006020828403121561178e57600080fd5b81356001600160e01b03198116811461093a57600080fd5b60005b838110156117c15781810151838201526020016117a9565b50506000910152565b60208152600082518060208401526117e98160408501602087016117a6565b601f01601f19169190910160400192915050565b80356001600160a01b038116811461181457600080fd5b919050565b6000806040838503121561182c57600080fd5b611835836117fd565b946020939093013593505050565b60008060006060848603121561185857600080fd5b611861846117fd565b925061186f602085016117fd565b9150604084013590509250925092565b60006020828403121561189157600080fd5b5035919050565b600080604083850312156118ab57600080fd5b823591506118bb602084016117fd565b90509250929050565b6000602082840312156118d657600080fd5b61093a826117fd565b600080604083850312156118f257600080fd5b50508035926020909101359150565b6000806040838503121561191457600080fd5b61191d836117fd565b91506118bb602084016117fd565b600181811c9082168061193f57607f821691505b60208210810361195f57634e487b7160e01b600052602260045260246000fd5b50919050565b634e487b7160e01b600052601160045260246000fd5b808201808211156104d7576104d7611965565b60208082526030908201527f46616e7461737945524332303a206164647265737320616c726561647920636c60408201526f61696d65642074686520746f6b656e7360801b606082015260800190565b7f416363657373436f6e74726f6c3a206163636f756e7420000000000000000000815260008351611a168160178501602088016117a6565b7001034b99036b4b9b9b4b733903937b6329607d1b6017918401918201528351611a478160288401602088016117a6565b01602801949350505050565b634e487b7160e01b600052603260045260246000fd5b80820281158282048414176104d7576104d7611965565b634e487b7160e01b600052604160045260246000fd5b600081611aa557611aa5611965565b506000190190565b818103818111156104d7576104d7611965565b634e487b7160e01b600052603160045260246000fdfea2646970667358221220e167717c6f5d7d3fa2b17f9645cf6e8f6ed55a0fe6c77f7e675e3c1e7dc9af7564736f6c634300081200339f2df0fed2c77648de5860a4cc508cd0818c85b8b8a1ab4ceeef8d981c8956a6a264697066735822122002ff3121b2e94b322fd06ec8587d6672c665b87c180c2979dcb8d419554cdcbc64736f6c63430008120033608060405234801561001057600080fd5b506040516109ef3803806109ef83398101604081905261002f91610054565b600080546001600160a01b0319166001600160a01b0392909216919091179055610084565b60006020828403121561006657600080fd5b81516001600160a01b038116811461007d57600080fd5b9392505050565b61095c806100936000396000f3fe608060405234801561001057600080fd5b50600436106100415760003560e01c8063316b3739146100465780637726f7761461008b578063b816f513146100a0575b600080fd5b61006f61005436600461077c565b6001602052600090815260409020546001600160a01b031681565b6040516001600160a01b03909116815260200160405180910390f35b61009e61009936600461077c565b6100b3565b005b60005461006f906001600160a01b031681565b6001600160a01b0381811660009081526001602052604090205416156101455760405162461bcd60e51b815260206004820152603960248201527f54686572652073686f756c64206f6e6c79206265206f6e65206465706c6f796d60448201527f656e74207065722076657273696f6e2070657220746f6b656e00000000000000606482015260840160405180910390fd5b6000816001600160a01b031663313ce5676040518163ffffffff1660e01b8152600401602060405180830381865afa158015610185573d6000803e3d6000fd5b505050506040513d601f19601f820116820180604052508101906101a991906107ac565b90506000826001600160a01b03166395d89b416040518163ffffffff1660e01b8152600401600060405180830381865afa1580156101eb573d6000803e3d6000fd5b505050506040513d6000823e601f3d908101601f191682016040526102139190810190610809565b600080549192509061022d906001600160a01b031661072a565b60405163144fa6d760e01b81526001600160a01b0386811660048301529192509082169063144fa6d790602401600060405180830381600087803b15801561027457600080fd5b505af1158015610288573d6000803e3d6000fd5b50506040516383bf460960e01b815260206004820152603f60248201527f7b227469746c65223a20222573222c202274797065223a2022626f6f6c222c2060448201527f2263617465676f7279223a20222573222c20226c616e67223a20222573227d0060648201526001600160a01b03841692506383bf460991506084016020604051808303816000875af1158015610326573d6000803e3d6000fd5b505050506040513d601f19601f8201168201806040525081019061034a91906108b6565b506040516383bf460960e01b815260206004820152604f60248201527f7b227469746c65223a20222573222c202274797065223a202275696e74222c2060448201527f22646563696d616c73223a2031382c202263617465676f7279223a202225732260648201526e2c20226c616e67223a20222573227d60881b60848201526001600160a01b038216906383bf46099060a4016020604051808303816000875af11580156103fd573d6000803e3d6000fd5b505050506040513d601f19601f8201168201806040525081019061042191906108b6565b506040516383bf460960e01b815260206004820152605a60248201527f7b227469746c65223a20222573222c202274797065223a202273696e676c652d60448201527f73656c656374222c20226f7574636f6d6573223a205b25735d2c20226361746560648201527f676f7279223a20222573222c20226c616e67223a20222573227d00000000000060848201526001600160a01b038216906383bf46099060a4016020604051808303816000875af11580156104e2573d6000803e3d6000fd5b505050506040513d601f19601f8201168201806040525081019061050691906108b6565b506040516383bf460960e01b815260206004820152605c60248201527f7b227469746c65223a20222573222c202274797065223a20226d756c7469706c60448201527f652d73656c656374222c20226f7574636f6d6573223a205b25735d2c2022636160648201527f7465676f7279223a20222573222c20226c616e67223a20222573227d0000000060848201526001600160a01b038216906383bf46099060a4016020604051808303816000875af11580156105c7573d6000803e3d6000fd5b505050506040513d601f19601f820116820180604052508101906105eb91906108b6565b506040516383bf460960e01b815260206004820152604360248201527f7b227469746c65223a20222573222c202274797065223a20226461746574696d60448201527f65222c202263617465676f7279223a20222573222c20226c616e67223a20222560648201526273227d60e81b60848201526001600160a01b038216906383bf46099060a4016020604051808303816000875af1158015610692573d6000803e3d6000fd5b505050506040513d601f19601f820116820180604052508101906106b691906108b6565b506001600160a01b038481166000908152600160205260409081902080546001600160a01b03191692841692909217909155517fbe87db3b58b5f4d26d54d6f8a09bbab3eefdc8879ac48f5e21ccff2a1f50b0729061071c9083908790879087906108cf565b60405180910390a150505050565b6000808260601b9050604051733d602d80600a3d3981f3363d3d373d3d3d363d7360601b81528160148201526e5af43d82803e903d91602b57fd5bf360881b60288201526037816000f0949350505050565b60006020828403121561078e57600080fd5b81356001600160a01b03811681146107a557600080fd5b9392505050565b6000602082840312156107be57600080fd5b815160ff811681146107a557600080fd5b634e487b7160e01b600052604160045260246000fd5b60005b838110156108005781810151838201526020016107e8565b50506000910152565b60006020828403121561081b57600080fd5b815167ffffffffffffffff8082111561083357600080fd5b818401915084601f83011261084757600080fd5b815181811115610859576108596107cf565b604051601f8201601f19908116603f01168101908382118183101715610881576108816107cf565b8160405282815287602084870101111561089a57600080fd5b6108ab8360208301602088016107e5565b979650505050505050565b6000602082840312156108c857600080fd5b5051919050565b600060018060a01b03808716835280861660208401525060ff8416604083015260806060830152825180608084015261090f8160a08501602087016107e5565b601f01601f19169190910160a0019594505050505056fea26469706673582212200901921801295c1857ea1285857575b749b164c9a87fe108337110039b25924a64736f6c63430008120033",
  "immutableReferences": {
    "9651": [
      {
        "length": 32,
        "start": 429
      },
      {
        "length": 32,
        "start": 1255
      },
      {
        "length": 32,
        "start": 1389
      }
    ],
    "9653": [
      {
        "length": 32,
        "start": 312
      },
      {
        "length": 32,
        "start": 1118
      }
    ],
    "9656": [
      {
        "length": 32,
        "start": 710
      },
      {
        "length": 32,
        "start": 1818
      },
      {
        "length": 32,
        "start": 1976
      },
      {
        "length": 32,
        "start": 2102
      }
    ]
  },
  "source": "// SPDX-License-Identifier: MIT\npragma solidity ^0.8.18;\n\nimport \"./FantasyERC20.sol\";\nimport \"./RealityETH_ERC20_Factory.sol\";\nimport \"./IPredictionMarketV3Factory.sol\";\n\n// openzeppelin ownable contract import\nimport \"@openzeppelin/contracts/access/Ownable.sol\";\nimport \"@openzeppelin/contracts/security/ReentrancyGuard.sol\";\n\ncontract PredictionMarketV3Controller is Ownable, ReentrancyGuard {\n  address public immutable PMV3; // PredictionMarketV3 contract\n  address public immutable PMV3Factory; // PredictionMarketFactory contract\n\n  RealityETH_ERC20_Factory public immutable realitioFactory;\n\n  event LandCreated(address indexed user, address indexed token, address indexed tokenToAnswer);\n\n  event LandDisabled(address indexed user, address indexed token);\n\n  event LandEnabled(address indexed user, address indexed token);\n\n  event LandOffsetUnlocked(address indexed user, address indexed token);\n\n  event LandAdminAdded(address indexed user, address indexed token, address indexed admin);\n\n  event LandAdminRemoved(address indexed user, address indexed token, address indexed admin);\n\n  struct Land {\n    FantasyERC20 token;\n    bool active;\n    mapping(address => bool) admins;\n    bool everyoneCanCreateMarkets;\n    IRealityETH_IERC20 realitio;\n  }\n\n  mapping(address => Land) public lands;\n  address[] public landTokens;\n  uint256 public landTokensLength;\n\n  constructor(\n    address _PMV3,\n    address _realitioLibraryAddress,\n    address _PMV3Factory\n  ) {\n    require(_PMV3Factory != address(0), \"PMV3Factory address cannot be 0 address\");\n\n    PMV3 = _PMV3;\n    realitioFactory = new RealityETH_ERC20_Factory(_realitioLibraryAddress);\n    PMV3Factory = _PMV3Factory;\n  }\n\n  // lockAmount is the amount of tokens that the user needs to lock to create a land\n  // by locking the amount the factory will create a fantasyERC20 token and store it in the contract\n  // the user will be the admin of the land\n  function createLand(\n    string memory name,\n    string memory symbol,\n    uint256 tokenAmountToClaim,\n    IERC20 tokenToAnswer,\n    bool everyoneCanCreateMarkets\n  ) external returns (FantasyERC20) {\n\n    require(address(tokenToAnswer) != address(0), \"Token to answer cannot be 0 address\");\n\n    IPredictionMarketV3Factory predictionMarketFactory = IPredictionMarketV3Factory(PMV3Factory); // FIXME change to interface\n    require(predictionMarketFactory.isPMControllerAdmin(address(this), msg.sender));\n\n    // create a new fantasyERC20 token\n    FantasyERC20 landToken = new FantasyERC20(name, symbol, tokenAmountToClaim, address(PMV3));\n\n    // adding minting privileges to the PMV3 contract\n    landToken.grantRole(keccak256(\"MINTER_ROLE\"), address(PMV3));\n    // adding minting privileges to the msg.sender\n    landToken.grantRole(keccak256(\"MINTER_ROLE\"), msg.sender);\n\n    // store the new token in the contract\n    Land storage land = lands[address(landToken)];\n    land.token = landToken;\n    land.active = true;\n    land.admins[msg.sender] = true;\n    land.everyoneCanCreateMarkets = everyoneCanCreateMarkets;\n    landTokens.push(address(landToken));\n    landTokensLength++;\n\n    // creating the realityETH_ERC20 contract\n    if (realitioFactory.deployments(address(tokenToAnswer)) == address(0)) {\n      realitioFactory.createInstance(address(tokenToAnswer));\n    }\n    land.realitio = IRealityETH_IERC20(realitioFactory.deployments(address(tokenToAnswer)));\n\n    emit LandCreated(msg.sender, address(landToken), address(tokenToAnswer));\n\n    return landToken;\n  }\n\n  function disableLand(IERC20 landToken) external {\n    Land storage land = lands[address(landToken)];\n\n    require(land.active, \"Land is not active\");\n    require(land.admins[msg.sender], \"Not admin of the land\");\n\n    // disable the land\n    land.active = false;\n\n    // pausing token\n    FantasyERC20(address(landToken)).pause();\n\n    emit LandDisabled(msg.sender, address(landToken));\n  }\n\n  function enableLand(IERC20 landToken) external {\n    Land storage land = lands[address(landToken)];\n\n    require(!land.active, \"Land is already active\");\n    require(land.admins[msg.sender], \"Not admin of the land\");\n\n    // enable the land\n    land.active = true;\n\n    // unpausing token\n    FantasyERC20(address(landToken)).unpause();\n\n    emit LandEnabled(msg.sender, address(landToken));\n  }\n\n  function addAdminToLand(IERC20 landToken, address admin) external {\n    Land storage land = lands[address(landToken)];\n\n    require(land.active, \"Land does not exist\");\n    require(land.admins[msg.sender], \"Not admin of the land\");\n\n    // adding minting privileges to the admin\n    land.token.grantRole(keccak256(\"MINTER_ROLE\"), admin);\n\n    land.admins[admin] = true;\n\n    emit LandAdminAdded(msg.sender, address(landToken), admin);\n  }\n\n  function removeAdminFromLand(IERC20 landToken, address admin) external {\n    Land storage land = lands[address(landToken)];\n\n    require(land.active, \"Land does not exist\");\n    require(land.admins[msg.sender], \"Not admin of the land\");\n\n    // removing minting privileges from the admin\n    land.token.revokeRole(keccak256(\"MINTER_ROLE\"), admin);\n\n    land.admins[admin] = false;\n\n    emit LandAdminRemoved(msg.sender, address(landToken), admin);\n  }\n\n  function isAllowedToCreateMarket(IERC20 marketToken, address user) public view returns (bool) {\n    Land storage land = lands[address(marketToken)];\n\n    return land.active && (land.everyoneCanCreateMarkets || land.admins[user]);\n  }\n\n  function isAllowedToResolveMarket(IERC20 marketToken, address user) external view returns (bool) {\n    Land storage land = lands[address(marketToken)];\n\n    return land.active && land.admins[user];\n  }\n\n  function isIERC20TokenSocial(IERC20 marketToken) external view returns (bool) {\n    Land storage land = lands[address(marketToken)];\n\n    return land.active;\n  }\n\n  function isLandAdmin(IERC20 marketToken, address user) external view returns (bool) {\n    Land storage land = lands[address(marketToken)];\n\n    return land.admins[user];\n  }\n}\n",
  "sourcePath": "/Users/andregoncalves/sideprojects/polkamarkets/polkamarkets-js/contracts/PredictionMarketV3Controller.sol",
  "compiler": {
    "name": "solc",
    "version": "0.8.18+commit.87f61d96.Emscripten.clang"
  },
  "schemaVersion": "3.4.14",
  "updatedAt": "2024-05-31T09:23:13.353Z",
  "devdoc": {
    "kind": "dev",
    "methods": {
      "owner()": {
        "details": "Returns the address of the current owner."
      },
      "renounceOwnership()": {
        "details": "Leaves the contract without owner. It will not be possible to call `onlyOwner` functions anymore. Can only be called by the current owner. NOTE: Renouncing ownership will leave the contract without an owner, thereby removing any functionality that is only available to the owner."
      },
      "transferOwnership(address)": {
        "details": "Transfers ownership of the contract to a new account (`newOwner`). Can only be called by the current owner."
      }
    },
    "version": 1
  },
  "userdoc": {
    "kind": "user",
    "methods": {},
    "version": 1
  }
}