{
  "contractName": "PredictionMarketV3Querier",
  "abi": [
    {
      "inputs": [
        {
          "internalType": "contract IPredictionMarketV3",
          "name": "_PredictionMarketV3",
          "type": "address"
        }
      ],
      "stateMutability": "nonpayable",
      "type": "constructor"
    },
    {
      "inputs": [],
      "name": "PredictionMarketV3",
      "outputs": [
        {
          "internalType": "contract IPredictionMarketV3",
          "name": "",
          "type": "address"
        }
      ],
      "stateMutability": "view",
      "type": "function"
    },
    {
      "inputs": [
        {
          "internalType": "uint256",
          "name": "marketId",
          "type": "uint256"
        },
        {
          "internalType": "address",
          "name": "user",
          "type": "address"
        }
      ],
      "name": "getUserMarketData",
      "outputs": [
        {
          "components": [
            {
              "internalType": "uint256",
              "name": "liquidityShares",
              "type": "uint256"
            },
            {
              "internalType": "uint256[]",
              "name": "outcomeShares",
              "type": "uint256[]"
            },
            {
              "internalType": "bool",
              "name": "winningsToClaim",
              "type": "bool"
            },
            {
              "internalType": "bool",
              "name": "winningsClaimed",
              "type": "bool"
            },
            {
              "internalType": "bool",
              "name": "liquidityToClaim",
              "type": "bool"
            },
            {
              "internalType": "bool",
              "name": "liquidityClaimed",
              "type": "bool"
            },
            {
              "internalType": "bool",
              "name": "voidedSharesToClaim",
              "type": "bool"
            }
          ],
          "internalType": "struct PredictionMarketV3Querier.UserMarketData",
          "name": "",
          "type": "tuple"
        }
      ],
      "stateMutability": "view",
      "type": "function"
    },
    {
      "inputs": [
        {
          "internalType": "uint256",
          "name": "marketId",
          "type": "uint256"
        }
      ],
      "name": "getMarketPrices",
      "outputs": [
        {
          "components": [
            {
              "internalType": "uint256",
              "name": "liquidityPrice",
              "type": "uint256"
            },
            {
              "internalType": "uint256[]",
              "name": "outcomePrices",
              "type": "uint256[]"
            }
          ],
          "internalType": "struct PredictionMarketV3Querier.MarketPrices",
          "name": "",
          "type": "tuple"
        }
      ],
      "stateMutability": "view",
      "type": "function"
    },
    {
      "inputs": [
        {
          "internalType": "uint256",
          "name": "marketId",
          "type": "uint256"
        }
      ],
      "name": "getMarketERC20Decimals",
      "outputs": [
        {
          "internalType": "uint8",
          "name": "",
          "type": "uint8"
        }
      ],
      "stateMutability": "view",
      "type": "function"
    },
    {
      "inputs": [
        {
          "internalType": "uint256[]",
          "name": "marketIds",
          "type": "uint256[]"
        },
        {
          "internalType": "address",
          "name": "user",
          "type": "address"
        }
      ],
      "name": "getUserMarketsData",
      "outputs": [
        {
          "components": [
            {
              "internalType": "uint256",
              "name": "liquidityShares",
              "type": "uint256"
            },
            {
              "internalType": "uint256[]",
              "name": "outcomeShares",
              "type": "uint256[]"
            },
            {
              "internalType": "bool",
              "name": "winningsToClaim",
              "type": "bool"
            },
            {
              "internalType": "bool",
              "name": "winningsClaimed",
              "type": "bool"
            },
            {
              "internalType": "bool",
              "name": "liquidityToClaim",
              "type": "bool"
            },
            {
              "internalType": "bool",
              "name": "liquidityClaimed",
              "type": "bool"
            },
            {
              "internalType": "bool",
              "name": "voidedSharesToClaim",
              "type": "bool"
            }
          ],
          "internalType": "struct PredictionMarketV3Querier.UserMarketData[]",
          "name": "",
          "type": "tuple[]"
        }
      ],
      "stateMutability": "view",
      "type": "function"
    },
    {
      "inputs": [
        {
          "internalType": "address",
          "name": "user",
          "type": "address"
        }
      ],
      "name": "getUserAllMarketsData",
      "outputs": [
        {
          "components": [
            {
              "internalType": "uint256",
              "name": "liquidityShares",
              "type": "uint256"
            },
            {
              "internalType": "uint256[]",
              "name": "outcomeShares",
              "type": "uint256[]"
            },
            {
              "internalType": "bool",
              "name": "winningsToClaim",
              "type": "bool"
            },
            {
              "internalType": "bool",
              "name": "winningsClaimed",
              "type": "bool"
            },
            {
              "internalType": "bool",
              "name": "liquidityToClaim",
              "type": "bool"
            },
            {
              "internalType": "bool",
              "name": "liquidityClaimed",
              "type": "bool"
            },
            {
              "internalType": "bool",
              "name": "voidedSharesToClaim",
              "type": "bool"
            }
          ],
          "internalType": "struct PredictionMarketV3Querier.UserMarketData[]",
          "name": "",
          "type": "tuple[]"
        }
      ],
      "stateMutability": "view",
      "type": "function"
    },
    {
      "inputs": [
        {
          "internalType": "uint256[]",
          "name": "marketIds",
          "type": "uint256[]"
        }
      ],
      "name": "getMarketsPrices",
      "outputs": [
        {
          "components": [
            {
              "internalType": "uint256",
              "name": "liquidityPrice",
              "type": "uint256"
            },
            {
              "internalType": "uint256[]",
              "name": "outcomePrices",
              "type": "uint256[]"
            }
          ],
          "internalType": "struct PredictionMarketV3Querier.MarketPrices[]",
          "name": "",
          "type": "tuple[]"
        }
      ],
      "stateMutability": "view",
      "type": "function"
    },
    {
      "inputs": [
        {
          "internalType": "uint256[]",
          "name": "marketIds",
          "type": "uint256[]"
        }
      ],
      "name": "getMarketsERC20Decimals",
      "outputs": [
        {
          "internalType": "uint8[]",
          "name": "",
          "type": "uint8[]"
        }
      ],
      "stateMutability": "view",
      "type": "function"
    }
  ],
  "bytecode": "0x60a060405234801561001057600080fd5b5060405161108838038061108883398101604081905261002f91610040565b6001600160a01b0316608052610070565b60006020828403121561005257600080fd5b81516001600160a01b038116811461006957600080fd5b9392505050565b608051610fd46100b46000396000818160e0015281816101b30152818161031b015281816104f401528181610649015281816106ec01526107670152610fd46000f3fe608060405234801561001057600080fd5b50600436106100885760003560e01c806385b91d8e1161005b57806385b91d8e1461013a578063b846b99b1461015a578063c9210bf41461017a578063eb417d5a1461019a57600080fd5b80633be1bf731461008d57806357c5ba82146100b65780637e0145e6146100db578063851abc351461011a575b600080fd5b6100a061009b3660046109b9565b6101ad565b6040516100ad9190610a78565b60405180910390f35b6100c96100c4366004610ada565b6102f8565b60405160ff90911681526020016100ad565b6101027f000000000000000000000000000000000000000000000000000000000000000081565b6040516001600160a01b0390911681526020016100ad565b61012d610128366004610b3f565b6103fa565b6040516100ad9190610ba8565b61014d610148366004610ada565b6104bc565b6040516100ad9190610bfd565b61016d610168366004610b3f565b61057d565b6040516100ad9190610c10565b61018d610188366004610c57565b610628565b6040516100ad9190610c87565b6100a06101a8366004610c9a565b6108a5565b606060007f00000000000000000000000000000000000000000000000000000000000000006001600160a01b031663ec2c90166040518163ffffffff1660e01b8152600401600060405180830381865afa15801561020f573d6000803e3d6000fd5b505050506040513d6000823e601f3d908101601f191682016040526102379190810190610da2565b90506000815167ffffffffffffffff81111561025557610255610cf1565b60405190808252806020026020018201604052801561028e57816020015b61027b610964565b8152602001906001900390816102735790505b50905060005b82518110156102f0576102c08382815181106102b2576102b2610dd7565b602002602001015186610628565b8282815181106102d2576102d2610dd7565b602002602001018190525080806102e890610ded565b915050610294565b509392505050565b604051630ebc905560e11b81526004810182905260009081906001600160a01b037f00000000000000000000000000000000000000000000000000000000000000001690631d7920aa9060240161012060405180830381865afa158015610363573d6000803e3d6000fd5b505050506040513d601f19601f820116820180604052508101906103879190610e14565b50505050509350505050806001600160a01b031663313ce5676040518163ffffffff1660e01b8152600401602060405180830381865afa1580156103cf573d6000803e3d6000fd5b505050506040513d601f19601f820116820180604052508101906103f39190610ea6565b9392505050565b606060008267ffffffffffffffff81111561041757610417610cf1565b60405190808252806020026020018201604052801561045d57816020015b6040805180820190915260008152606060208201528152602001906001900390816104355790505b50905060005b838110156102f05761048c85858381811061048057610480610dd7565b905060200201356104bc565b82828151811061049e5761049e610dd7565b602002602001018190525080806104b490610ded565b915050610463565b6040805180820190915260008152606060208201526040516342dc8ec760e11b81526004810183905260009081906001600160a01b037f000000000000000000000000000000000000000000000000000000000000000016906385b91d8e90602401600060405180830381865afa15801561053b573d6000803e3d6000fd5b505050506040513d6000823e601f3d908101601f191682016040526105639190810190610ec9565b604080518082019091529182526020820152949350505050565b606060008267ffffffffffffffff81111561059a5761059a610cf1565b6040519080825280602002602001820160405280156105c3578160200160208202803683370190505b50905060005b838110156102f0576105f28585838181106105e6576105e6610dd7565b905060200201356102f8565b82828151811061060457610604610dd7565b60ff909216602092830291909101909101528061062081610ded565b9150506105c9565b610630610964565b60405163220e7b2f60e11b8152600481018490526000907f00000000000000000000000000000000000000000000000000000000000000006001600160a01b03169063441cf65e90602401602060405180830381865afa158015610698573d6000803e3d6000fd5b505050506040513d601f19601f820116820180604052508101906106bc9190610f25565b60405163b31eb89560e01b8152600481018690526001600160a01b038581166024830152919250600091829182917f0000000000000000000000000000000000000000000000000000000000000000169063b31eb89590604401600060405180830381865afa158015610733573d6000803e3d6000fd5b505050506040513d6000823e601f3d908101601f1916820160405261075b9190810190610ec9565b915091506000806000807f00000000000000000000000000000000000000000000000000000000000000006001600160a01b0316632c2aa24e8c8c6040518363ffffffff1660e01b81526004016107c59291909182526001600160a01b0316602082015260400190565b60a060405180830381865afa1580156107e2573d6000803e3d6000fd5b505050506040513d601f19601f820116820180604052508101906108069190610f40565b50935093509350935087156108605760005b855181101561085e57600086828151811061083557610835610dd7565b6020026020010151111561084c576001975061085e565b8061085681610ded565b915050610818565b505b6040805160e081018252968752602087019590955292151593850193909352151560608401529015156080830152151560a082015290151560c0820152949350505050565b606060008367ffffffffffffffff8111156108c2576108c2610cf1565b6040519080825280602002602001820160405280156108fb57816020015b6108e8610964565b8152602001906001900390816108e05790505b50905060005b8481101561095b5761092b86868381811061091e5761091e610dd7565b9050602002013585610628565b82828151811061093d5761093d610dd7565b6020026020010181905250808061095390610ded565b915050610901565b50949350505050565b6040805160e08101825260008082526060602083018190529282018190529181018290526080810182905260a0810182905260c081019190915290565b6001600160a01b03811681146109b657600080fd5b50565b6000602082840312156109cb57600080fd5b81356103f3816109a1565b600081518084526020808501945080840160005b83811015610a06578151875295820195908201906001016109ea565b509495945050505050565b805182526000602082015160e06020850152610a3060e08501826109d6565b905060408301511515604085015260608301511515606085015260808301511515608085015260a0830151151560a085015260c0830151151560c08501528091505092915050565b6000602080830181845280855180835260408601915060408160051b870101925083870160005b82811015610acd57603f19888603018452610abb858351610a11565b94509285019290850190600101610a9f565b5092979650505050505050565b600060208284031215610aec57600080fd5b5035919050565b60008083601f840112610b0557600080fd5b50813567ffffffffffffffff811115610b1d57600080fd5b6020830191508360208260051b8501011115610b3857600080fd5b9250929050565b60008060208385031215610b5257600080fd5b823567ffffffffffffffff811115610b6957600080fd5b610b7585828601610af3565b90969095509350505050565b805182526000602082015160406020850152610ba060408501826109d6565b949350505050565b6000602080830181845280855180835260408601915060408160051b870101925083870160005b82811015610acd57603f19888603018452610beb858351610b81565b94509285019290850190600101610bcf565b6020815260006103f36020830184610b81565b6020808252825182820181905260009190848201906040850190845b81811015610c4b57835160ff1683529284019291840191600101610c2c565b50909695505050505050565b60008060408385031215610c6a57600080fd5b823591506020830135610c7c816109a1565b809150509250929050565b6020815260006103f36020830184610a11565b600080600060408486031215610caf57600080fd5b833567ffffffffffffffff811115610cc657600080fd5b610cd286828701610af3565b9094509250506020840135610ce6816109a1565b809150509250925092565b634e487b7160e01b600052604160045260246000fd5b600082601f830112610d1857600080fd5b8151602067ffffffffffffffff80831115610d3557610d35610cf1565b8260051b604051601f19603f83011681018181108482111715610d5a57610d5a610cf1565b604052938452858101830193838101925087851115610d7857600080fd5b83870191505b84821015610d9757815183529183019190830190610d7e565b979650505050505050565b600060208284031215610db457600080fd5b815167ffffffffffffffff811115610dcb57600080fd5b610ba084828501610d07565b634e487b7160e01b600052603260045260246000fd5b600060018201610e0d57634e487b7160e01b600052601160045260246000fd5b5060010190565b60008060008060008060008060006101208a8c031215610e3357600080fd5b8951985060208a0151975060408a0151965060608a0151610e53816109a1565b60808b015160a08c01519197509550610e6b816109a1565b60c08b0151909450610e7c816109a1565b60e08b01516101008c01519194509250610e95816109a1565b809150509295985092959850929598565b600060208284031215610eb857600080fd5b815160ff811681146103f357600080fd5b60008060408385031215610edc57600080fd5b82519150602083015167ffffffffffffffff811115610efa57600080fd5b610f0685828601610d07565b9150509250929050565b80518015158114610f2057600080fd5b919050565b600060208284031215610f3757600080fd5b6103f382610f10565b600080600080600060a08688031215610f5857600080fd5b610f6186610f10565b9450610f6f60208701610f10565b9350610f7d60408701610f10565b9250610f8b60608701610f10565b915060808601519050929550929590935056fea2646970667358221220cfdb27ce6fc99351b7b395404a0362cb35e03bad7e8d37dd02a753c51212cc5b64736f6c63430008120033",
  "immutableReferences": {
    "13211": [
      {
        "length": 32,
        "start": 224
      },
      {
        "length": 32,
        "start": 435
      },
      {
        "length": 32,
        "start": 795
      },
      {
        "length": 32,
        "start": 1268
      },
      {
        "length": 32,
        "start": 1609
      },
      {
        "length": 32,
        "start": 1772
      },
      {
        "length": 32,
        "start": 1895
      }
    ]
  },
  "source": "// SPDX-License-Identifier: MIT\npragma solidity ^0.8.18;\n\n// openzeppelin imports\nimport \"@openzeppelin/contracts/token/ERC20/extensions/IERC20Metadata.sol\";\n// local imports\nimport \"./IPredictionMarketV3.sol\";\n\n/// @title Market Contract Factory\ncontract PredictionMarketV3Querier {\n  IPredictionMarketV3 public immutable PredictionMarketV3;\n\n  struct UserMarketData {\n    uint256 liquidityShares;\n    uint256[] outcomeShares;\n    bool winningsToClaim;\n    bool winningsClaimed;\n    bool liquidityToClaim;\n    bool liquidityClaimed;\n    bool voidedSharesToClaim;\n  }\n\n  struct MarketPrices {\n    uint256 liquidityPrice;\n    uint256[] outcomePrices;\n  }\n\n  /// @dev protocol is immutable and has no ownership\n  constructor(IPredictionMarketV3 _PredictionMarketV3) {\n    PredictionMarketV3 = _PredictionMarketV3;\n  }\n\n  function getUserMarketData(uint256 marketId, address user) public view returns (UserMarketData memory) {\n    bool isMarketVoided = PredictionMarketV3.isMarketVoided(marketId);\n    bool voidedSharesToClaim = false;\n\n    (uint256 liquidityShares, uint256[] memory outcomeShares) = PredictionMarketV3.getUserMarketShares(marketId, user);\n    (bool winningsToClaim, bool winningsClaimed, bool liquidityToClaim, bool liquidityClaimed, ) = PredictionMarketV3\n      .getUserClaimStatus(marketId, user);\n\n    if (isMarketVoided) {\n      for (uint256 i = 0; i < outcomeShares.length; i++) {\n        if (outcomeShares[i] > 0) {\n          voidedSharesToClaim = true;\n          break;\n        }\n      }\n    }\n\n    return\n      UserMarketData({\n        liquidityShares: liquidityShares,\n        outcomeShares: outcomeShares,\n        winningsToClaim: winningsToClaim,\n        winningsClaimed: winningsClaimed,\n        liquidityToClaim: liquidityToClaim,\n        liquidityClaimed: liquidityClaimed,\n        voidedSharesToClaim: voidedSharesToClaim\n      });\n  }\n\n  function getMarketPrices(uint256 marketId) public view returns (MarketPrices memory) {\n    (uint256 liquidityPrice, uint256[] memory outcomePrices) = PredictionMarketV3.getMarketPrices(marketId);\n\n    return MarketPrices({liquidityPrice: liquidityPrice, outcomePrices: outcomePrices});\n  }\n\n  function getMarketERC20Decimals(uint256 marketId) public view returns (uint8) {\n    (, , , address token, , , , , ) = PredictionMarketV3.getMarketAltData(marketId);\n\n    return IERC20Metadata(token).decimals();\n  }\n\n  function getUserMarketsData(uint256[] calldata marketIds, address user)\n    external\n    view\n    returns (UserMarketData[] memory)\n  {\n    UserMarketData[] memory userMarketsData = new UserMarketData[](marketIds.length);\n\n    for (uint256 i = 0; i < marketIds.length; i++) {\n      userMarketsData[i] = getUserMarketData(marketIds[i], user);\n    }\n\n    return userMarketsData;\n  }\n\n  function getUserAllMarketsData(address user) external view returns (UserMarketData[] memory) {\n    uint256[] memory marketIds = PredictionMarketV3.getMarkets();\n    UserMarketData[] memory userMarketsData = new UserMarketData[](marketIds.length);\n\n    for (uint256 i = 0; i < marketIds.length; i++) {\n      userMarketsData[i] = getUserMarketData(marketIds[i], user);\n    }\n\n    return userMarketsData;\n  }\n\n  function getMarketsPrices(uint256[] calldata marketIds) external view returns (MarketPrices[] memory) {\n    MarketPrices[] memory marketPrices = new MarketPrices[](marketIds.length);\n\n    for (uint256 i = 0; i < marketIds.length; i++) {\n      marketPrices[i] = getMarketPrices(marketIds[i]);\n    }\n\n    return marketPrices;\n  }\n\n  function getMarketsERC20Decimals(uint256[] calldata marketIds) external view returns (uint8[] memory) {\n    uint8[] memory decimals = new uint8[](marketIds.length);\n\n    for (uint256 i = 0; i < marketIds.length; i++) {\n      decimals[i] = getMarketERC20Decimals(marketIds[i]);\n    }\n\n    return decimals;\n  }\n}\n",
  "sourcePath": "/home/arok/dev/polkamarkets-js/contracts/PredictionMarketV3Querier.sol",
  "compiler": {
    "name": "solc",
    "version": "0.8.18+commit.87f61d96.Emscripten.clang"
  },
  "schemaVersion": "3.4.16",
  "updatedAt": "2025-05-26T09:05:12.207Z",
  "devdoc": {
    "kind": "dev",
    "methods": {
      "constructor": {
        "details": "protocol is immutable and has no ownership"
      }
    },
    "title": "Market Contract Factory",
    "version": 1
  },
  "userdoc": {
    "kind": "user",
    "methods": {},
    "version": 1
  }
}