{
  "contractName": "ReferralReward",
  "abi": [
    {
      "inputs": [
        {
          "internalType": "address",
          "name": "_token",
          "type": "address"
        }
      ],
      "stateMutability": "nonpayable",
      "type": "constructor"
    },
    {
      "anonymous": false,
      "inputs": [
        {
          "indexed": true,
          "internalType": "uint256",
          "name": "epoch",
          "type": "uint256"
        },
        {
          "indexed": true,
          "internalType": "bytes32",
          "name": "merkleRoot",
          "type": "bytes32"
        }
      ],
      "name": "MerkleRootUpdated",
      "type": "event"
    },
    {
      "anonymous": false,
      "inputs": [
        {
          "indexed": true,
          "internalType": "address",
          "name": "previousOwner",
          "type": "address"
        },
        {
          "indexed": true,
          "internalType": "address",
          "name": "newOwner",
          "type": "address"
        }
      ],
      "name": "OwnershipTransferred",
      "type": "event"
    },
    {
      "anonymous": false,
      "inputs": [
        {
          "indexed": true,
          "internalType": "uint256",
          "name": "epoch",
          "type": "uint256"
        },
        {
          "indexed": true,
          "internalType": "uint256",
          "name": "index",
          "type": "uint256"
        },
        {
          "indexed": true,
          "internalType": "address",
          "name": "account",
          "type": "address"
        },
        {
          "indexed": false,
          "internalType": "uint256",
          "name": "amount",
          "type": "uint256"
        }
      ],
      "name": "RewardClaimed",
      "type": "event"
    },
    {
      "inputs": [
        {
          "internalType": "uint256",
          "name": "",
          "type": "uint256"
        },
        {
          "internalType": "uint256",
          "name": "",
          "type": "uint256"
        }
      ],
      "name": "claimedBitMap",
      "outputs": [
        {
          "internalType": "uint256",
          "name": "",
          "type": "uint256"
        }
      ],
      "stateMutability": "view",
      "type": "function"
    },
    {
      "inputs": [
        {
          "internalType": "uint256",
          "name": "",
          "type": "uint256"
        }
      ],
      "name": "merkleRoots",
      "outputs": [
        {
          "internalType": "bytes32",
          "name": "",
          "type": "bytes32"
        }
      ],
      "stateMutability": "view",
      "type": "function"
    },
    {
      "inputs": [],
      "name": "owner",
      "outputs": [
        {
          "internalType": "address",
          "name": "",
          "type": "address"
        }
      ],
      "stateMutability": "view",
      "type": "function"
    },
    {
      "inputs": [],
      "name": "renounceOwnership",
      "outputs": [],
      "stateMutability": "nonpayable",
      "type": "function"
    },
    {
      "inputs": [],
      "name": "token",
      "outputs": [
        {
          "internalType": "contract IERC20",
          "name": "",
          "type": "address"
        }
      ],
      "stateMutability": "view",
      "type": "function"
    },
    {
      "inputs": [
        {
          "internalType": "address",
          "name": "newOwner",
          "type": "address"
        }
      ],
      "name": "transferOwnership",
      "outputs": [],
      "stateMutability": "nonpayable",
      "type": "function"
    },
    {
      "inputs": [
        {
          "internalType": "uint256",
          "name": "epoch",
          "type": "uint256"
        },
        {
          "internalType": "uint256",
          "name": "index",
          "type": "uint256"
        },
        {
          "internalType": "address",
          "name": "account",
          "type": "address"
        },
        {
          "internalType": "uint256",
          "name": "amount",
          "type": "uint256"
        },
        {
          "internalType": "bytes32[]",
          "name": "merkleProof",
          "type": "bytes32[]"
        }
      ],
      "name": "claim",
      "outputs": [],
      "stateMutability": "nonpayable",
      "type": "function"
    },
    {
      "inputs": [
        {
          "internalType": "uint256",
          "name": "epoch",
          "type": "uint256"
        },
        {
          "internalType": "bytes32",
          "name": "merkleRoot",
          "type": "bytes32"
        }
      ],
      "name": "updateMerkleRoot",
      "outputs": [],
      "stateMutability": "nonpayable",
      "type": "function"
    },
    {
      "inputs": [
        {
          "internalType": "uint256",
          "name": "epoch",
          "type": "uint256"
        },
        {
          "internalType": "uint256",
          "name": "index",
          "type": "uint256"
        }
      ],
      "name": "isClaimed",
      "outputs": [
        {
          "internalType": "bool",
          "name": "claimed",
          "type": "bool"
        }
      ],
      "stateMutability": "view",
      "type": "function"
    }
  ],
  "bytecode": "0x60a060405234801561001057600080fd5b50604051610a3d380380610a3d83398101604081905261002f916100f7565b610038336100a7565b600180556001600160a01b0381166100965760405162461bcd60e51b815260206004820152601560248201527f496e76616c696420746f6b656e20616464726573730000000000000000000000604482015260640160405180910390fd5b6001600160a01b0316608052610127565b600080546001600160a01b038381166001600160a01b0319831681178455604051919092169283917f8be0079c531659141344cd1fd0a4f28419497f9722a3daafe3b4186f6b6457e09190a35050565b60006020828403121561010957600080fd5b81516001600160a01b038116811461012057600080fd5b9392505050565b6080516108fb610142600039600061018601526108fb6000f3fe608060405234801561001057600080fd5b50600436106100935760003560e01c8063e1f8d22311610066578063e1f8d2231461010d578063f1e3311514610138578063f2fde38b1461014b578063f364c90c1461015e578063fc0c546a1461018157600080fd5b80635d4df3bf14610098578063715018a6146100ad57806371c5ecb1146100b55780638da5cb5b146100e8575b600080fd5b6100ab6100a6366004610752565b6101a8565b005b6100ab6103da565b6100d56100c33660046107f4565b60026020526000908152604090205481565b6040519081526020015b60405180910390f35b6000546001600160a01b03165b6040516001600160a01b0390911681526020016100df565b6100d561011b36600461080d565b600360209081526000928352604080842090915290825290205481565b6100ab61014636600461080d565b6103ee565b6100ab61015936600461082f565b610491565b61017161016c36600461080d565b61050a565b60405190151581526020016100df565b6100f57f000000000000000000000000000000000000000000000000000000000000000081565b6101b0610555565b336001600160a01b0385161461020d5760405162461bcd60e51b815260206004820152601760248201527f4e6f7420617574686f72697a656420746f20636c61696d00000000000000000060448201526064015b60405180910390fd5b610217868661050a565b156102565760405162461bcd60e51b815260206004820152600f60248201526e105b1c9958591e4818db185a5b5959608a1b6044820152606401610204565b6000868152600260205260409020546102a75760405162461bcd60e51b815260206004820152601360248201527213595c9adb19481c9bdbdd081b9bdd081cd95d606a1b6044820152606401610204565b60408051602081018790526bffffffffffffffffffffffff19606087901b16918101919091526054810184905260009060740160405160208183030381529060405280519060200120905061033d83838080602002602001604051908101604052809392919081815260200183836020028082843760009201829052508c81526002602052604090205492508591506105ae9050565b6103795760405162461bcd60e51b815260206004820152600d60248201526c24b73b30b634b210383937b7b360991b6044820152606401610204565b61038387876105c4565b846001600160a01b031686887fa8325f46ec9623d7ced8f695ff820511a4acef4f5d5c4933bd5d992141a2b905876040516103c091815260200190565b60405180910390a4506103d260018055565b505050505050565b6103e261060d565b6103ec6000610667565b565b6103f661060d565b600082815260026020526040902054156104525760405162461bcd60e51b815260206004820152601760248201527f4d65726b6c6520726f6f7420616c7265616479207365740000000000000000006044820152606401610204565b60008281526002602052604080822083905551829184917f9ff79792a92b66fee090acb66e07837a2edb31ee6b9780fa551fd04b79dffcd29190a35050565b61049961060d565b6001600160a01b0381166104fe5760405162461bcd60e51b815260206004820152602660248201527f4f776e61626c653a206e6577206f776e657220697320746865207a65726f206160448201526564647265737360d01b6064820152608401610204565b61050781610667565b50565b60008061051961010084610860565b9050600061052961010085610874565b60009586526003602090815260408088209488529390529190942054600190911b908116149392505050565b6002600154036105a75760405162461bcd60e51b815260206004820152601f60248201527f5265656e7472616e637947756172643a207265656e7472616e742063616c6c006044820152606401610204565b6002600155565b6000826105bb85846106b7565b14949350505050565b60006105d261010083610860565b905060006105e261010084610874565b6000948552600360209081526040808720948752939052919093208054600190921b90911790555050565b6000546001600160a01b031633146103ec5760405162461bcd60e51b815260206004820181905260248201527f4f776e61626c653a2063616c6c6572206973206e6f7420746865206f776e65726044820152606401610204565b600080546001600160a01b038381166001600160a01b0319831681178455604051919092169283917f8be0079c531659141344cd1fd0a4f28419497f9722a3daafe3b4186f6b6457e09190a35050565b600081815b84518110156106fc576106e8828683815181106106db576106db610888565b6020026020010151610704565b9150806106f48161089e565b9150506106bc565b509392505050565b600081831061072057600082815260208490526040902061072f565b60008381526020839052604090205b9392505050565b80356001600160a01b038116811461074d57600080fd5b919050565b60008060008060008060a0878903121561076b57600080fd5b863595506020870135945061078260408801610736565b935060608701359250608087013567ffffffffffffffff808211156107a657600080fd5b818901915089601f8301126107ba57600080fd5b8135818111156107c957600080fd5b8a60208260051b85010111156107de57600080fd5b6020830194508093505050509295509295509295565b60006020828403121561080657600080fd5b5035919050565b6000806040838503121561082057600080fd5b50508035926020909101359150565b60006020828403121561084157600080fd5b61072f82610736565b634e487b7160e01b600052601260045260246000fd5b60008261086f5761086f61084a565b500490565b6000826108835761088361084a565b500690565b634e487b7160e01b600052603260045260246000fd5b6000600182016108be57634e487b7160e01b600052601160045260246000fd5b506001019056fea26469706673582212201923e9dc0eab8ed23799eec23d23b4bbf12395556fc3529543ba74fb5c0f026c64736f6c63430008120033",
  "immutableReferences": {
    "1433": [
      {
        "length": 32,
        "start": 390
      }
    ]
  },
  "source": "// SPDX-License-Identifier: MIT\npragma solidity ^0.8.18;\n\nimport \"@openzeppelin/contracts/token/ERC20/IERC20.sol\";\nimport \"@openzeppelin/contracts/token/ERC20/utils/SafeERC20.sol\";\nimport \"@openzeppelin/contracts/access/Ownable.sol\";\nimport \"@openzeppelin/contracts/security/ReentrancyGuard.sol\";\nimport \"@openzeppelin/contracts/utils/cryptography/MerkleProof.sol\";\n\ncontract ReferralReward is Ownable, ReentrancyGuard {\n    using SafeERC20 for IERC20;\n\n    IERC20 public immutable token;\n    \n    mapping(uint256 => bytes32) public merkleRoots;\n\n    /* \n    * @notice: Instead of storing mapping(uint256 => mapping(uint256 => address)), \n    * we only store a bit (0/1) per claim.\n    * Each uint256 stores 256 claims  massive storage savings.\n    * Cheap to read (SLOAD) and write (SSTORE).\n    */\n\n    mapping(uint256 => mapping(uint256 => uint256)) public claimedBitMap;\n\n    event MerkleRootUpdated(uint256 indexed epoch, bytes32 indexed merkleRoot);\n    event RewardClaimed(uint256 indexed epoch, uint256 indexed index, address indexed account, uint256 amount);\n\n    constructor(address _token) {\n        require(_token != address(0), \"Invalid token address\");\n        token = IERC20(_token);\n    }\n\n    function claim(uint256 epoch, uint256 index, address account, uint256 amount, bytes32[] calldata merkleProof) external nonReentrant {\n        require(msg.sender == account, \"Not authorized to claim\");\n        require(isClaimed(epoch, index) == false, \"Already claimed\");\n        require(merkleRoots[epoch] != bytes32(0), \"Merkle root not set\");\n\n        bytes32 node = keccak256(abi.encodePacked(index, account, amount));\n\n        require(MerkleProof.verify(merkleProof, merkleRoots[epoch], node), \"Invalid proof\");\n\n        _setClaimed(epoch, index);\n\n        emit RewardClaimed(epoch, index, account, amount);\n    }\n\n    function updateMerkleRoot(uint256 epoch, bytes32 merkleRoot) external onlyOwner {\n        require(merkleRoots[epoch] == bytes32(0), \"Merkle root already set\");\n        merkleRoots[epoch] = merkleRoot;\n        emit MerkleRootUpdated(epoch, merkleRoot);\n    }\n\n    /**\n     * @notice Check if a claim at a given index in a given epoch has already been made.\n     * @param epoch Epoch ID.\n     * @param index Index in Merkle tree.\n     * @return claimed True if claimed.\n     */\n    function isClaimed(uint256 epoch, uint256 index) public view returns (bool claimed) {\n        uint256 wordIndex = index / 256;\n        uint256 bitIndex = index % 256;\n        uint256 word = claimedBitMap[epoch][wordIndex];\n        uint256 mask = 1 << bitIndex;\n        claimed = (word & mask) == mask;\n    }\n\n    function _setClaimed(uint256 epoch, uint256 index) internal {\n        uint256 wordIndex = index / 256;\n        uint256 bitIndex = index % 256;\n        claimedBitMap[epoch][wordIndex] = claimedBitMap[epoch][wordIndex] | (1 << bitIndex);\n    }\n\n}\n\n\n",
  "sourcePath": "/home/arok/dev/polkamarkets-js/contracts/ReferralReward.sol",
  "compiler": {
    "name": "solc",
    "version": "0.8.18+commit.87f61d96.Emscripten.clang"
  },
  "schemaVersion": "3.4.16",
  "updatedAt": "2025-05-26T09:21:52.515Z",
  "devdoc": {
    "kind": "dev",
    "methods": {
      "isClaimed(uint256,uint256)": {
        "params": {
          "epoch": "Epoch ID.",
          "index": "Index in Merkle tree."
        },
        "returns": {
          "claimed": "True if claimed."
        }
      },
      "owner()": {
        "details": "Returns the address of the current owner."
      },
      "renounceOwnership()": {
        "details": "Leaves the contract without owner. It will not be possible to call `onlyOwner` functions anymore. Can only be called by the current owner. NOTE: Renouncing ownership will leave the contract without an owner, thereby removing any functionality that is only available to the owner."
      },
      "transferOwnership(address)": {
        "details": "Transfers ownership of the contract to a new account (`newOwner`). Can only be called by the current owner."
      }
    },
    "version": 1
  },
  "userdoc": {
    "kind": "user",
    "methods": {
      "isClaimed(uint256,uint256)": {
        "notice": "Check if a claim at a given index in a given epoch has already been made."
      }
    },
    "version": 1
  }
}