{
  "contractName": "ReferralReward",
  "abi": [
    {
      "inputs": [],
      "stateMutability": "nonpayable",
      "type": "constructor"
    },
    {
      "anonymous": false,
      "inputs": [
        {
          "indexed": true,
          "internalType": "uint256",
          "name": "epoch",
          "type": "uint256"
        },
        {
          "indexed": true,
          "internalType": "bytes32",
          "name": "merkleRoot",
          "type": "bytes32"
        }
      ],
      "name": "MerkleRootUpdated",
      "type": "event"
    },
    {
      "anonymous": false,
      "inputs": [
        {
          "indexed": true,
          "internalType": "address",
          "name": "previousOwner",
          "type": "address"
        },
        {
          "indexed": true,
          "internalType": "address",
          "name": "newOwner",
          "type": "address"
        }
      ],
      "name": "OwnershipTransferred",
      "type": "event"
    },
    {
      "anonymous": false,
      "inputs": [
        {
          "indexed": true,
          "internalType": "uint256",
          "name": "epoch",
          "type": "uint256"
        },
        {
          "indexed": true,
          "internalType": "uint256",
          "name": "index",
          "type": "uint256"
        },
        {
          "indexed": true,
          "internalType": "address",
          "name": "account",
          "type": "address"
        },
        {
          "indexed": false,
          "internalType": "uint256",
          "name": "amount",
          "type": "uint256"
        }
      ],
      "name": "RewardClaimed",
      "type": "event"
    },
    {
      "inputs": [
        {
          "internalType": "uint256",
          "name": "",
          "type": "uint256"
        },
        {
          "internalType": "uint256",
          "name": "",
          "type": "uint256"
        }
      ],
      "name": "claimedBitMap",
      "outputs": [
        {
          "internalType": "uint256",
          "name": "",
          "type": "uint256"
        }
      ],
      "stateMutability": "view",
      "type": "function"
    },
    {
      "inputs": [
        {
          "internalType": "uint256",
          "name": "",
          "type": "uint256"
        }
      ],
      "name": "merkleRoots",
      "outputs": [
        {
          "internalType": "bytes32",
          "name": "",
          "type": "bytes32"
        }
      ],
      "stateMutability": "view",
      "type": "function"
    },
    {
      "inputs": [],
      "name": "owner",
      "outputs": [
        {
          "internalType": "address",
          "name": "",
          "type": "address"
        }
      ],
      "stateMutability": "view",
      "type": "function"
    },
    {
      "inputs": [],
      "name": "renounceOwnership",
      "outputs": [],
      "stateMutability": "nonpayable",
      "type": "function"
    },
    {
      "inputs": [],
      "name": "token",
      "outputs": [
        {
          "internalType": "contract IERC20",
          "name": "",
          "type": "address"
        }
      ],
      "stateMutability": "view",
      "type": "function"
    },
    {
      "inputs": [
        {
          "internalType": "address",
          "name": "newOwner",
          "type": "address"
        }
      ],
      "name": "transferOwnership",
      "outputs": [],
      "stateMutability": "nonpayable",
      "type": "function"
    },
    {
      "inputs": [
        {
          "internalType": "uint256",
          "name": "epoch",
          "type": "uint256"
        },
        {
          "internalType": "uint256",
          "name": "index",
          "type": "uint256"
        },
        {
          "internalType": "address",
          "name": "account",
          "type": "address"
        },
        {
          "internalType": "uint256",
          "name": "amount",
          "type": "uint256"
        },
        {
          "internalType": "bytes32[]",
          "name": "merkleProof",
          "type": "bytes32[]"
        }
      ],
      "name": "claim",
      "outputs": [],
      "stateMutability": "nonpayable",
      "type": "function"
    },
    {
      "inputs": [
        {
          "internalType": "uint256",
          "name": "epoch",
          "type": "uint256"
        },
        {
          "internalType": "bytes32",
          "name": "merkleRoot",
          "type": "bytes32"
        }
      ],
      "name": "updateMerkleRoot",
      "outputs": [],
      "stateMutability": "nonpayable",
      "type": "function"
    },
    {
      "inputs": [
        {
          "internalType": "uint256",
          "name": "epoch",
          "type": "uint256"
        },
        {
          "internalType": "uint256",
          "name": "index",
          "type": "uint256"
        }
      ],
      "name": "isClaimed",
      "outputs": [
        {
          "internalType": "bool",
          "name": "claimed",
          "type": "bool"
        }
      ],
      "stateMutability": "view",
      "type": "function"
    },
    {
      "inputs": [
        {
          "internalType": "address",
          "name": "_token",
          "type": "address"
        }
      ],
      "name": "setRewardToken",
      "outputs": [],
      "stateMutability": "nonpayable",
      "type": "function"
    },
    {
      "inputs": [
        {
          "internalType": "address",
          "name": "_token",
          "type": "address"
        },
        {
          "internalType": "address",
          "name": "_to",
          "type": "address"
        },
        {
          "internalType": "uint256",
          "name": "_amount",
          "type": "uint256"
        }
      ],
      "name": "withdrawERC20",
      "outputs": [],
      "stateMutability": "nonpayable",
      "type": "function"
    },
    {
      "inputs": [
        {
          "internalType": "address payable",
          "name": "_to",
          "type": "address"
        }
      ],
      "name": "withdrawETH",
      "outputs": [],
      "stateMutability": "nonpayable",
      "type": "function"
    }
  ],
  "bytecode": "0x608060405234801561001057600080fd5b5061001a33610023565b60018055610073565b600080546001600160a01b038381166001600160a01b0319831681178455604051919092169283917f8be0079c531659141344cd1fd0a4f28419497f9722a3daafe3b4186f6b6457e09190a35050565b610ead806100826000396000f3fe608060405234801561001057600080fd5b50600436106100b45760003560e01c80638da5cb5b116100715780638da5cb5b14610142578063e1f8d22314610167578063f1e3311514610192578063f2fde38b146101a5578063f364c90c146101b8578063fc0c546a146101db57600080fd5b806344004cc1146100b95780635d4df3bf146100ce578063690d8320146100e1578063715018a6146100f457806371c5ecb1146100fc5780638aee81271461012f575b600080fd5b6100cc6100c7366004610c2a565b6101ee565b005b6100cc6100dc366004610c6b565b61025e565b6100cc6100ef366004610d0f565b6104a2565b6100cc61058d565b61011c61010a366004610d2c565b60036020526000908152604090205481565b6040519081526020015b60405180910390f35b6100cc61013d366004610d0f565b6105a1565b6000546001600160a01b03165b6040516001600160a01b039091168152602001610126565b61011c610175366004610d45565b600460209081526000928352604080842090915290825290205481565b6100cc6101a0366004610d45565b610619565b6100cc6101b3366004610d0f565b6106bc565b6101cb6101c6366004610d45565b610735565b6040519015158152602001610126565b60025461014f906001600160a01b031681565b6101f6610780565b6001600160a01b0382166102455760405162461bcd60e51b8152602060048201526011602482015270125b9d985b1a59081c9958da5c1a595b9d607a1b60448201526064015b60405180910390fd5b6102596001600160a01b03841683836107da565b505050565b61026661082c565b336001600160a01b038516146102be5760405162461bcd60e51b815260206004820152601760248201527f4e6f7420617574686f72697a656420746f20636c61696d000000000000000000604482015260640161023c565b6102c88686610735565b156103075760405162461bcd60e51b815260206004820152600f60248201526e105b1c9958591e4818db185a5b5959608a1b604482015260640161023c565b6000868152600360205260409020546103585760405162461bcd60e51b815260206004820152601360248201527213595c9adb19481c9bdbdd081b9bdd081cd95d606a1b604482015260640161023c565b60408051602081018790526bffffffffffffffffffffffff19606087901b1691810191909152605481018490526000906074016040516020818303038152906040528051906020012090506103ee83838080602002602001604051908101604052809392919081815260200183836020028082843760009201829052508c81526003602052604090205492508591506108859050565b61042a5760405162461bcd60e51b815260206004820152600d60248201526c24b73b30b634b210383937b7b360991b604482015260640161023c565b610434878761089b565b60025461044b906001600160a01b031686866107da565b846001600160a01b031686887fa8325f46ec9623d7ced8f695ff820511a4acef4f5d5c4933bd5d992141a2b9058760405161048891815260200190565b60405180910390a45061049a60018055565b505050505050565b6104aa610780565b6001600160a01b0381166104f45760405162461bcd60e51b8152602060048201526011602482015270125b9d985b1a59081c9958da5c1a595b9d607a1b604482015260640161023c565b6000816001600160a01b03164760405160006040518083038185875af1925050503d8060008114610541576040519150601f19603f3d011682016040523d82523d6000602084013e610546565b606091505b50509050806105895760405162461bcd60e51b815260206004820152600f60248201526e15da5d1a191c985dc819985a5b1959608a1b604482015260640161023c565b5050565b610595610780565b61059f60006108e4565b565b6105a9610780565b6001600160a01b0381166105f75760405162461bcd60e51b8152602060048201526015602482015274496e76616c696420746f6b656e206164647265737360581b604482015260640161023c565b600280546001600160a01b0319166001600160a01b0392909216919091179055565b610621610780565b6000828152600360205260409020541561067d5760405162461bcd60e51b815260206004820152601760248201527f4d65726b6c6520726f6f7420616c726561647920736574000000000000000000604482015260640161023c565b60008281526003602052604080822083905551829184917f9ff79792a92b66fee090acb66e07837a2edb31ee6b9780fa551fd04b79dffcd29190a35050565b6106c4610780565b6001600160a01b0381166107295760405162461bcd60e51b815260206004820152602660248201527f4f776e61626c653a206e6577206f776e657220697320746865207a65726f206160448201526564647265737360d01b606482015260840161023c565b610732816108e4565b50565b60008061074461010084610d7d565b9050600061075461010085610d91565b60009586526004602090815260408088209488529390529190942054600190911b908116149392505050565b6000546001600160a01b0316331461059f5760405162461bcd60e51b815260206004820181905260248201527f4f776e61626c653a2063616c6c6572206973206e6f7420746865206f776e6572604482015260640161023c565b604080516001600160a01b038416602482015260448082018490528251808303909101815260649091019091526020810180516001600160e01b031663a9059cbb60e01b179052610259908490610934565b60026001540361087e5760405162461bcd60e51b815260206004820152601f60248201527f5265656e7472616e637947756172643a207265656e7472616e742063616c6c00604482015260640161023c565b6002600155565b6000826108928584610a06565b14949350505050565b60006108a961010083610d7d565b905060006108b961010084610d91565b6000948552600460209081526040808720948752939052919093208054600190921b90911790555050565b600080546001600160a01b038381166001600160a01b0319831681178455604051919092169283917f8be0079c531659141344cd1fd0a4f28419497f9722a3daafe3b4186f6b6457e09190a35050565b6000610989826040518060400160405280602081526020017f5361666545524332303a206c6f772d6c6576656c2063616c6c206661696c6564815250856001600160a01b0316610a539092919063ffffffff16565b80519091501561025957808060200190518101906109a79190610da5565b6102595760405162461bcd60e51b815260206004820152602a60248201527f5361666545524332303a204552433230206f7065726174696f6e20646964206e6044820152691bdd081cdd58d8d9595960b21b606482015260840161023c565b600081815b8451811015610a4b57610a3782868381518110610a2a57610a2a610dc7565b6020026020010151610a6a565b915080610a4381610ddd565b915050610a0b565b509392505050565b6060610a628484600085610a9c565b949350505050565b6000818310610a86576000828152602084905260409020610a95565b60008381526020839052604090205b9392505050565b606082471015610afd5760405162461bcd60e51b815260206004820152602660248201527f416464726573733a20696e73756666696369656e742062616c616e636520666f6044820152651c8818d85b1b60d21b606482015260840161023c565b600080866001600160a01b03168587604051610b199190610e28565b60006040518083038185875af1925050503d8060008114610b56576040519150601f19603f3d011682016040523d82523d6000602084013e610b5b565b606091505b5091509150610b6c87838387610b77565b979650505050505050565b60608315610be6578251600003610bdf576001600160a01b0385163b610bdf5760405162461bcd60e51b815260206004820152601d60248201527f416464726573733a2063616c6c20746f206e6f6e2d636f6e7472616374000000604482015260640161023c565b5081610a62565b610a628383815115610bfb5781518083602001fd5b8060405162461bcd60e51b815260040161023c9190610e44565b6001600160a01b038116811461073257600080fd5b600080600060608486031215610c3f57600080fd5b8335610c4a81610c15565b92506020840135610c5a81610c15565b929592945050506040919091013590565b60008060008060008060a08789031215610c8457600080fd5b86359550602087013594506040870135610c9d81610c15565b935060608701359250608087013567ffffffffffffffff80821115610cc157600080fd5b818901915089601f830112610cd557600080fd5b813581811115610ce457600080fd5b8a60208260051b8501011115610cf957600080fd5b6020830194508093505050509295509295509295565b600060208284031215610d2157600080fd5b8135610a9581610c15565b600060208284031215610d3e57600080fd5b5035919050565b60008060408385031215610d5857600080fd5b50508035926020909101359150565b634e487b7160e01b600052601260045260246000fd5b600082610d8c57610d8c610d67565b500490565b600082610da057610da0610d67565b500690565b600060208284031215610db757600080fd5b81518015158114610a9557600080fd5b634e487b7160e01b600052603260045260246000fd5b600060018201610dfd57634e487b7160e01b600052601160045260246000fd5b5060010190565b60005b83811015610e1f578181015183820152602001610e07565b50506000910152565b60008251610e3a818460208701610e04565b9190910192915050565b6020815260008251806020840152610e63816040850160208701610e04565b601f01601f1916919091016040019291505056fea2646970667358221220c70802032a82ef89b797afa19378de60b1ac8f9fe069634e7244386ee1ff145a64736f6c63430008120033",
  "immutableReferences": {},
  "source": "// SPDX-License-Identifier: MIT\npragma solidity ^0.8.18;\n\nimport \"@openzeppelin/contracts/token/ERC20/IERC20.sol\";\nimport \"@openzeppelin/contracts/token/ERC20/utils/SafeERC20.sol\";\nimport \"@openzeppelin/contracts/access/Ownable.sol\";\nimport \"@openzeppelin/contracts/security/ReentrancyGuard.sol\";\nimport \"@openzeppelin/contracts/utils/cryptography/MerkleProof.sol\";\n\ncontract ReferralReward is Ownable, ReentrancyGuard {\n    using SafeERC20 for IERC20;\n\n    IERC20 public token;\n    \n    mapping(uint256 => bytes32) public merkleRoots;\n\n    /* \n    * @notice: Instead of storing mapping(uint256 => mapping(uint256 => address)), \n    * we only store a bit (0/1) per claim.\n    * Each uint256 stores 256 claims  massive storage savings.\n    * Cheap to read (SLOAD) and write (SSTORE).\n    */\n\n    mapping(uint256 => mapping(uint256 => uint256)) public claimedBitMap;\n\n    event MerkleRootUpdated(uint256 indexed epoch, bytes32 indexed merkleRoot);\n    event RewardClaimed(uint256 indexed epoch, uint256 indexed index, address indexed account, uint256 amount);\n\n    constructor() {}\n\n    function claim(uint256 epoch, uint256 index, address account, uint256 amount, bytes32[] calldata merkleProof) external nonReentrant {\n        require(msg.sender == account, \"Not authorized to claim\");\n        require(isClaimed(epoch, index) == false, \"Already claimed\");\n        require(merkleRoots[epoch] != bytes32(0), \"Merkle root not set\");\n\n        bytes32 node = keccak256(abi.encodePacked(index, account, amount));\n\n        require(MerkleProof.verify(merkleProof, merkleRoots[epoch], node), \"Invalid proof\");\n\n        _setClaimed(epoch, index);\n\n        token.safeTransfer(account, amount);\n\n        emit RewardClaimed(epoch, index, account, amount);\n    }\n\n    function updateMerkleRoot(uint256 epoch, bytes32 merkleRoot) external onlyOwner {\n        require(merkleRoots[epoch] == bytes32(0), \"Merkle root already set\");\n        merkleRoots[epoch] = merkleRoot;\n        emit MerkleRootUpdated(epoch, merkleRoot);\n    }\n\n    /**\n     * @notice Check if a claim at a given index in a given epoch has already been made.\n     * @param epoch Epoch ID.\n     * @param index Index in Merkle tree.\n     * @return claimed True if claimed.\n     */\n    function isClaimed(uint256 epoch, uint256 index) public view returns (bool claimed) {\n        uint256 wordIndex = index / 256;\n        uint256 bitIndex = index % 256;\n        uint256 word = claimedBitMap[epoch][wordIndex];\n        uint256 mask = 1 << bitIndex;\n        claimed = (word & mask) == mask;\n    }\n\n    function _setClaimed(uint256 epoch, uint256 index) internal {\n        uint256 wordIndex = index / 256;\n        uint256 bitIndex = index % 256;\n        claimedBitMap[epoch][wordIndex] = claimedBitMap[epoch][wordIndex] | (1 << bitIndex);\n    }\n\n    function setRewardToken(address _token) external onlyOwner {\n        require(_token != address(0), \"Invalid token address\");\n        token = IERC20(_token);\n    }\n\n    /* @notice: Withdraw tokens from contract\n     * just in case if there is some token stuck in contract\n     */\n\n    function withdrawERC20(address _token, address _to, uint256 _amount) external onlyOwner {\n        require(_to != address(0), \"Invalid recipient\");\n        IERC20(_token).safeTransfer(_to, _amount);\n    }\n\n    function withdrawETH(address payable _to) external onlyOwner {\n        require(_to != address(0), \"Invalid recipient\");\n        (bool success, ) = _to.call{value: address(this).balance}(\"\");\n        require(success, \"Withdraw failed\");\n    }\n}\n\n\n",
  "sourcePath": "/home/arok/dev/polkamarkets-js/contracts/ReferralReward.sol",
  "compiler": {
    "name": "solc",
    "version": "0.8.18+commit.87f61d96.Emscripten.clang"
  },
  "schemaVersion": "3.4.16",
  "updatedAt": "2025-05-27T08:31:55.323Z",
  "devdoc": {
    "kind": "dev",
    "methods": {
      "isClaimed(uint256,uint256)": {
        "params": {
          "epoch": "Epoch ID.",
          "index": "Index in Merkle tree."
        },
        "returns": {
          "claimed": "True if claimed."
        }
      },
      "owner()": {
        "details": "Returns the address of the current owner."
      },
      "renounceOwnership()": {
        "details": "Leaves the contract without owner. It will not be possible to call `onlyOwner` functions anymore. Can only be called by the current owner. NOTE: Renouncing ownership will leave the contract without an owner, thereby removing any functionality that is only available to the owner."
      },
      "transferOwnership(address)": {
        "details": "Transfers ownership of the contract to a new account (`newOwner`). Can only be called by the current owner."
      }
    },
    "version": 1
  },
  "userdoc": {
    "kind": "user",
    "methods": {
      "isClaimed(uint256,uint256)": {
        "notice": "Check if a claim at a given index in a given epoch has already been made."
      }
    },
    "version": 1
  }
}