{
  "contractName": "Reward",
  "abi": [
    {
      "inputs": [
        {
          "internalType": "contract IERC20",
          "name": "_token",
          "type": "address"
        },
        {
          "internalType": "uint256[]",
          "name": "_minAmounts",
          "type": "uint256[]"
        },
        {
          "internalType": "uint256[]",
          "name": "_multipliers",
          "type": "uint256[]"
        }
      ],
      "stateMutability": "nonpayable",
      "type": "constructor"
    },
    {
      "anonymous": false,
      "inputs": [
        {
          "indexed": true,
          "internalType": "address",
          "name": "user",
          "type": "address"
        },
        {
          "indexed": true,
          "internalType": "enum Reward.LockAction",
          "name": "action",
          "type": "uint8"
        },
        {
          "indexed": true,
          "internalType": "uint256",
          "name": "itemId",
          "type": "uint256"
        },
        {
          "indexed": false,
          "internalType": "uint256",
          "name": "lockAmount",
          "type": "uint256"
        },
        {
          "indexed": false,
          "internalType": "uint256",
          "name": "timestamp",
          "type": "uint256"
        }
      ],
      "name": "ItemAction",
      "type": "event"
    },
    {
      "anonymous": false,
      "inputs": [
        {
          "indexed": true,
          "internalType": "uint256",
          "name": "itemId",
          "type": "uint256"
        },
        {
          "indexed": false,
          "internalType": "uint256",
          "name": "lockAmount",
          "type": "uint256"
        },
        {
          "indexed": false,
          "internalType": "uint256",
          "name": "timestamp",
          "type": "uint256"
        }
      ],
      "name": "ItemUpdated",
      "type": "event"
    },
    {
      "inputs": [
        {
          "internalType": "uint256",
          "name": "",
          "type": "uint256"
        }
      ],
      "name": "tiers",
      "outputs": [
        {
          "internalType": "uint256",
          "name": "minAmount",
          "type": "uint256"
        },
        {
          "internalType": "uint256",
          "name": "multiplier",
          "type": "uint256"
        }
      ],
      "stateMutability": "view",
      "type": "function"
    },
    {
      "inputs": [],
      "name": "token",
      "outputs": [
        {
          "internalType": "contract IERC20",
          "name": "",
          "type": "address"
        }
      ],
      "stateMutability": "view",
      "type": "function"
    },
    {
      "inputs": [
        {
          "internalType": "uint256",
          "name": "itemId",
          "type": "uint256"
        },
        {
          "internalType": "uint256",
          "name": "amount",
          "type": "uint256"
        }
      ],
      "name": "lockItem",
      "outputs": [],
      "stateMutability": "nonpayable",
      "type": "function"
    },
    {
      "inputs": [
        {
          "internalType": "uint256",
          "name": "itemId",
          "type": "uint256"
        },
        {
          "internalType": "uint256",
          "name": "amount",
          "type": "uint256"
        }
      ],
      "name": "unlockItem",
      "outputs": [],
      "stateMutability": "nonpayable",
      "type": "function"
    },
    {
      "inputs": [
        {
          "internalType": "uint256[]",
          "name": "itemIds",
          "type": "uint256[]"
        },
        {
          "internalType": "uint256[]",
          "name": "amounts",
          "type": "uint256[]"
        }
      ],
      "name": "unlockMultipleItems",
      "outputs": [],
      "stateMutability": "nonpayable",
      "type": "function"
    },
    {
      "inputs": [
        {
          "internalType": "uint256",
          "name": "itemId",
          "type": "uint256"
        }
      ],
      "name": "getItemLockedAmount",
      "outputs": [
        {
          "internalType": "uint256",
          "name": "",
          "type": "uint256"
        }
      ],
      "stateMutability": "view",
      "type": "function"
    },
    {
      "inputs": [
        {
          "internalType": "address",
          "name": "user",
          "type": "address"
        },
        {
          "internalType": "uint256",
          "name": "itemId",
          "type": "uint256"
        }
      ],
      "name": "amountUserLockedItem",
      "outputs": [
        {
          "internalType": "uint256",
          "name": "",
          "type": "uint256"
        }
      ],
      "stateMutability": "view",
      "type": "function"
    },
    {
      "inputs": [],
      "name": "getTokenAddress",
      "outputs": [
        {
          "internalType": "address",
          "name": "",
          "type": "address"
        }
      ],
      "stateMutability": "view",
      "type": "function"
    },
    {
      "inputs": [],
      "name": "getNumberOfTiers",
      "outputs": [
        {
          "internalType": "uint256",
          "name": "",
          "type": "uint256"
        }
      ],
      "stateMutability": "view",
      "type": "function"
    }
  ],
  "bytecode": "0x60806040523480156200001157600080fd5b5060405162000b5a38038062000b5a8339810160408190526200003491620001ab565b600180546001600160a01b0319166001600160a01b03851617905560005b8251811015620000e757600260405180604001604052808584815181106200007e576200007e62000235565b60200260200101518152602001848481518110620000a057620000a062000235565b602090810291909101810151909152825460018181018555600094855293829020835160029092020190815591015191015580620000de816200024b565b91505062000052565b5050505062000273565b634e487b7160e01b600052604160045260246000fd5b600082601f8301126200011957600080fd5b815160206001600160401b0380831115620001385762000138620000f1565b8260051b604051601f19603f83011681018181108482111715620001605762000160620000f1565b6040529384528581018301938381019250878511156200017f57600080fd5b83870191505b84821015620001a05781518352918301919083019062000185565b979650505050505050565b600080600060608486031215620001c157600080fd5b83516001600160a01b0381168114620001d957600080fd5b60208501519093506001600160401b0380821115620001f757600080fd5b620002058783880162000107565b935060408601519150808211156200021c57600080fd5b506200022b8682870162000107565b9150509250925092565b634e487b7160e01b600052603260045260246000fd5b6000600182016200026c57634e487b7160e01b600052601160045260246000fd5b5060010190565b6108d780620002836000396000f3fe608060405234801561001057600080fd5b50600436106100935760003560e01c8063700cc06211610066578063700cc06214610123578063aed3546b14610136578063de8b68921461014b578063f958538f1461015e578063fc0c546a1461017157600080fd5b8063039af9eb1461009857806310fe9ae8146100c557806337fbdb12146100ea5780633a4fd45c1461011b575b600080fd5b6100ab6100a63660046106d0565b610184565b604080519283526020830191909152015b60405180910390f35b6001546001600160a01b03165b6040516001600160a01b0390911681526020016100bc565b61010d6100f83660046106d0565b60009081526020819052604090206001015490565b6040519081526020016100bc565b60025461010d565b61010d6101313660046106e9565b6101b2565b610149610144366004610721565b6101da565b005b61014961015936600461078f565b610415565b61014961016c366004610721565b61054b565b6001546100d2906001600160a01b031681565b6002818154811061019457600080fd5b60009182526020909120600290910201805460019091015490915082565b6000818152602081815260408083206001600160a01b03861684529091529020545b92915050565b60008111801561025457506001546040516370a0823160e01b815233600482015282916001600160a01b0316906370a0823190602401602060405180830381865afa15801561022d573d6000803e3d6000fd5b505050506040513d601f19601f8201168201806040525081019061025191906107fb565b10155b6102a55760405162461bcd60e51b815260206004820152601d60248201527f6e6f7420656e6f7567682065726332302062616c616e63652068656c6400000060448201526064015b60405180910390fd5b6001546040516323b872dd60e01b8152336004820152306024820152604481018390526001600160a01b03909116906323b872dd906064016020604051808303816000875af11580156102fc573d6000803e3d6000fd5b505050506040513d601f19601f820116820180604052508101906103209190610814565b5060008281526020818152604080832033845290915290205461034390826105cd565b60008381526020818152604080832033845280835290832093909355848252526001015461037190826105cd565b60008381526020819052604081206001019190915582905b6040805184815242602082015233917fceb8bf0447f950cba238d8625d9b9ffa4511d62a0bda70ddcbbfd92ebe84e216910160405180910390a460008281526020818152604091829020600101548251908152429181019190915283917fe2c5373cce601c06f5dba3359950780f4af385925b22bf61f04c1eb60850e797910160405180910390a25050565b60005b8381101561054457600080600087878581811061043757610437610836565b60209081029290920135835250818101929092526040908101600090812033825290925290205490508015801590610487575083838381811061047c5761047c610836565b905060200201358110155b80156104ab575060008484848181106104a2576104a2610836565b90506020020135115b6104f75760405162461bcd60e51b815260206004820152601c60248201527f696e76616c69642065726332302062616c616e6365206c6f636b656400000000604482015260640161029c565b61053186868481811061050c5761050c610836565b9050602002013585858581811061052557610525610836565b905060200201356105e0565b508061053c81610862565b915050610418565b5050505050565b60008281526020818152604080832033845290915290205480158015906105725750818110155b6105be5760405162461bcd60e51b815260206004820152601c60248201527f696e76616c69642065726332302062616c616e6365206c6f636b656400000000604482015260640161029c565b6105c883836105e0565b505050565b60006105d9828461087b565b9392505050565b60015460405163a9059cbb60e01b8152336004820152602481018390526001600160a01b039091169063a9059cbb906044016020604051808303816000875af1158015610631573d6000803e3d6000fd5b505050506040513d601f19601f820116820180604052508101906106559190610814565b5060008281526020818152604080832033845290915290205461067890826106c4565b6000838152602081815260408083203384528083529083209390935584825252600101546106a690826106c4565b60008381526020819052604090206001908101919091558290610389565b60006105d9828461088e565b6000602082840312156106e257600080fd5b5035919050565b600080604083850312156106fc57600080fd5b82356001600160a01b038116811461071357600080fd5b946020939093013593505050565b6000806040838503121561073457600080fd5b50508035926020909101359150565b60008083601f84011261075557600080fd5b50813567ffffffffffffffff81111561076d57600080fd5b6020830191508360208260051b850101111561078857600080fd5b9250929050565b600080600080604085870312156107a557600080fd5b843567ffffffffffffffff808211156107bd57600080fd5b6107c988838901610743565b909650945060208701359150808211156107e257600080fd5b506107ef87828801610743565b95989497509550505050565b60006020828403121561080d57600080fd5b5051919050565b60006020828403121561082657600080fd5b815180151581146105d957600080fd5b634e487b7160e01b600052603260045260246000fd5b634e487b7160e01b600052601160045260246000fd5b6000600182016108745761087461084c565b5060010190565b808201808211156101d4576101d461084c565b818103818111156101d4576101d461084c56fea2646970667358221220c41c6b9f4c67bc1c54238a6663934e0b9cd88f11247a62f4efda4ef3355cdae464736f6c63430008120033",
  "immutableReferences": {},
  "source": "pragma solidity ^0.8.18;\npragma experimental ABIEncoderV2;\n\n// openzeppelin imports\nimport \"@openzeppelin/contracts/utils/math/SafeMath.sol\";\nimport \"@openzeppelin/contracts/token/ERC20/ERC20.sol\";\n\n/// @title Upvoting / Downvoting Contract\ncontract Reward {\n  using SafeMath for uint256;\n\n  event ItemUpdated(uint256 indexed itemId, uint256 lockAmount, uint256 timestamp);\n\n  event ItemAction(address indexed user, LockAction indexed action, uint256 indexed itemId, uint256 lockAmount, uint256 timestamp);\n\n  enum LockAction {\n    lock,\n    unlock\n  }\n\n  struct Tier {\n    uint256 minAmount;\n    uint256 multiplier;\n  }\n\n  struct ItemLocks {\n    mapping(address => uint256) userLocks;\n    uint256 totalLocked;\n  }\n\n  mapping(uint256 => ItemLocks) items;\n\n\n  IERC20 public token;\n  Tier[] public tiers;\n\n\n  /// @dev protocol is immutable and has no ownership\n  constructor(IERC20 _token, uint256[] memory _minAmounts, uint256[] memory _multipliers) {\n    token = _token;\n\n    for (uint256 i=0; i < _minAmounts.length; i++){\n      tiers.push(Tier(_minAmounts[i], _multipliers[i]));\n    }\n  }\n\n  /// @dev allows user to lock tokens in an item\n  function lockItem(uint256 itemId, uint256 amount) external {\n    require(\n      amount > 0 && token.balanceOf(msg.sender) >= amount,\n      \"not enough erc20 balance held\"\n    );\n\n\n    token.transferFrom(msg.sender, address(this), amount);\n\n    items[itemId].userLocks[msg.sender] = items[itemId].userLocks[msg.sender].add(amount);\n    items[itemId].totalLocked = items[itemId].totalLocked.add(amount);\n\n    emit ItemAction(msg.sender, LockAction.lock, itemId, amount, block.timestamp);\n    emit ItemUpdated(itemId, items[itemId].totalLocked, block.timestamp);\n  }\n\n  /// @dev allows user to unlock tokens from an item\n  function unlockItem(uint256 itemId, uint256 amount) external {\n    uint256 amountLocked = items[itemId].userLocks[msg.sender];\n\n    require(\n      amountLocked > 0 && amountLocked >= amount,\n      \"invalid erc20 balance locked\"\n    );\n\n    _unlockItem(itemId, amount);\n  }\n\n  /// @dev allows user to unlock multiple items\n  function unlockMultipleItems(uint256[] calldata itemIds, uint256[] calldata amounts) external {\n    for (uint256 i = 0; i < itemIds.length; i++) {\n      uint256 amountLocked = items[itemIds[i]].userLocks[msg.sender];\n\n      require(\n        amountLocked > 0 && amountLocked >= amounts[i] && amounts[i] > 0,\n        \"invalid erc20 balance locked\"\n      );\n\n      _unlockItem(itemIds[i], amounts[i]);\n    }\n  }\n\n  function _unlockItem(uint256 itemId, uint256 amount) internal {\n    token.transfer(msg.sender, amount);\n\n    items[itemId].userLocks[msg.sender] = items[itemId].userLocks[msg.sender].sub(amount);\n    items[itemId].totalLocked = items[itemId].totalLocked.sub(amount);\n\n    emit ItemAction(msg.sender, LockAction.unlock, itemId, amount, block.timestamp);\n    emit ItemUpdated(itemId, items[itemId].totalLocked, block.timestamp);\n  }\n\n  /// @dev Returns the total amont locked for an item\n  function getItemLockedAmount(uint256 itemId) external view returns (uint256) {\n    ItemLocks storage item = items[itemId];\n\n    return item.totalLocked;\n  }\n\n  /// @dev Returns the amount the user has locked for an item\n  function amountUserLockedItem(address user, uint256 itemId) external view returns (uint256) {\n    ItemLocks storage item = items[itemId];\n\n    return item.userLocks[user];\n  }\n\n  /// @dev Returns the ERC20 token address\n  function getTokenAddress() external view returns (address) {\n    return address(token);\n  }\n\n  /// @dev Returns the number of tiers\n  function getNumberOfTiers() external view returns (uint256) {\n    return tiers.length;\n  }\n}\n",
  "sourcePath": "/Users/andregoncalves/sideprojects/polkamarkets/polkamarkets-js/contracts/Reward.sol",
  "compiler": {
    "name": "solc",
    "version": "0.8.18+commit.87f61d96.Emscripten.clang"
  },
  "schemaVersion": "3.4.10",
  "updatedAt": "2023-09-05T16:47:35.463Z",
  "devdoc": {
    "kind": "dev",
    "methods": {
      "amountUserLockedItem(address,uint256)": {
        "details": "Returns the amount the user has locked for an item"
      },
      "constructor": {
        "details": "protocol is immutable and has no ownership"
      },
      "getItemLockedAmount(uint256)": {
        "details": "Returns the total amont locked for an item"
      },
      "getNumberOfTiers()": {
        "details": "Returns the number of tiers"
      },
      "getTokenAddress()": {
        "details": "Returns the ERC20 token address"
      },
      "lockItem(uint256,uint256)": {
        "details": "allows user to lock tokens in an item"
      },
      "unlockItem(uint256,uint256)": {
        "details": "allows user to unlock tokens from an item"
      },
      "unlockMultipleItems(uint256[],uint256[])": {
        "details": "allows user to unlock multiple items"
      }
    },
    "title": "Upvoting / Downvoting Contract",
    "version": 1
  },
  "userdoc": {
    "kind": "user",
    "methods": {},
    "version": 1
  }
}