{
  "contractName": "Reward",
  "abi": [
    {
      "inputs": [
        {
          "internalType": "contract IERC20",
          "name": "_token",
          "type": "address"
        },
        {
          "internalType": "uint256[]",
          "name": "_minAmounts",
          "type": "uint256[]"
        },
        {
          "internalType": "uint256[]",
          "name": "_multipliers",
          "type": "uint256[]"
        }
      ],
      "stateMutability": "nonpayable",
      "type": "constructor"
    },
    {
      "anonymous": false,
      "inputs": [
        {
          "indexed": true,
          "internalType": "address",
          "name": "user",
          "type": "address"
        },
        {
          "indexed": true,
          "internalType": "enum Reward.LockAction",
          "name": "action",
          "type": "uint8"
        },
        {
          "indexed": true,
          "internalType": "uint256",
          "name": "itemId",
          "type": "uint256"
        },
        {
          "indexed": false,
          "internalType": "uint256",
          "name": "lockAmount",
          "type": "uint256"
        },
        {
          "indexed": false,
          "internalType": "uint256",
          "name": "timestamp",
          "type": "uint256"
        }
      ],
      "name": "ItemAction",
      "type": "event"
    },
    {
      "anonymous": false,
      "inputs": [
        {
          "indexed": true,
          "internalType": "uint256",
          "name": "itemId",
          "type": "uint256"
        },
        {
          "indexed": false,
          "internalType": "uint256",
          "name": "lockAmount",
          "type": "uint256"
        },
        {
          "indexed": false,
          "internalType": "uint256",
          "name": "timestamp",
          "type": "uint256"
        }
      ],
      "name": "ItemUpdated",
      "type": "event"
    },
    {
      "inputs": [
        {
          "internalType": "uint256",
          "name": "",
          "type": "uint256"
        }
      ],
      "name": "tiers",
      "outputs": [
        {
          "internalType": "uint256",
          "name": "minAmount",
          "type": "uint256"
        },
        {
          "internalType": "uint256",
          "name": "multiplier",
          "type": "uint256"
        }
      ],
      "stateMutability": "view",
      "type": "function",
      "constant": true
    },
    {
      "inputs": [],
      "name": "token",
      "outputs": [
        {
          "internalType": "contract IERC20",
          "name": "",
          "type": "address"
        }
      ],
      "stateMutability": "view",
      "type": "function",
      "constant": true
    },
    {
      "inputs": [
        {
          "internalType": "uint256",
          "name": "itemId",
          "type": "uint256"
        },
        {
          "internalType": "uint256",
          "name": "amount",
          "type": "uint256"
        }
      ],
      "name": "lockItem",
      "outputs": [],
      "stateMutability": "nonpayable",
      "type": "function"
    },
    {
      "inputs": [
        {
          "internalType": "uint256",
          "name": "itemId",
          "type": "uint256"
        },
        {
          "internalType": "uint256",
          "name": "amount",
          "type": "uint256"
        }
      ],
      "name": "unlockItem",
      "outputs": [],
      "stateMutability": "nonpayable",
      "type": "function"
    },
    {
      "inputs": [
        {
          "internalType": "uint256[]",
          "name": "itemIds",
          "type": "uint256[]"
        }
      ],
      "name": "unlockMultipleItems",
      "outputs": [],
      "stateMutability": "nonpayable",
      "type": "function"
    },
    {
      "inputs": [
        {
          "internalType": "uint256",
          "name": "itemId",
          "type": "uint256"
        }
      ],
      "name": "getItemLockedAmount",
      "outputs": [
        {
          "internalType": "uint256",
          "name": "",
          "type": "uint256"
        }
      ],
      "stateMutability": "view",
      "type": "function",
      "constant": true
    },
    {
      "inputs": [
        {
          "internalType": "address",
          "name": "user",
          "type": "address"
        },
        {
          "internalType": "uint256",
          "name": "itemId",
          "type": "uint256"
        }
      ],
      "name": "amountUserLockedItem",
      "outputs": [
        {
          "internalType": "uint256",
          "name": "",
          "type": "uint256"
        }
      ],
      "stateMutability": "view",
      "type": "function",
      "constant": true
    },
    {
      "inputs": [],
      "name": "getTokenAddress",
      "outputs": [
        {
          "internalType": "address",
          "name": "",
          "type": "address"
        }
      ],
      "stateMutability": "view",
      "type": "function",
      "constant": true
    }
  ],
  "bytecode": "0x60806040523480156200001157600080fd5b5060405162000a8f38038062000a8f8339810160408190526200003491620001ab565b600180546001600160a01b0319166001600160a01b03851617905560005b8251811015620000e757600260405180604001604052808584815181106200007e576200007e62000235565b60200260200101518152602001848481518110620000a057620000a062000235565b602090810291909101810151909152825460018181018555600094855293829020835160029092020190815591015191015580620000de816200024b565b91505062000052565b5050505062000273565b634e487b7160e01b600052604160045260246000fd5b600082601f8301126200011957600080fd5b815160206001600160401b0380831115620001385762000138620000f1565b8260051b604051601f19603f83011681018181108482111715620001605762000160620000f1565b6040529384528581018301938381019250878511156200017f57600080fd5b83870191505b84821015620001a05781518352918301919083019062000185565b979650505050505050565b600080600060608486031215620001c157600080fd5b83516001600160a01b0381168114620001d957600080fd5b60208501519093506001600160401b0380821115620001f757600080fd5b620002058783880162000107565b935060408601519150808211156200021c57600080fd5b506200022b8682870162000107565b9150509250925092565b634e487b7160e01b600052603260045260246000fd5b6000600182016200026c57634e487b7160e01b600052601160045260246000fd5b5060010190565b61080c80620002836000396000f3fe608060405234801561001057600080fd5b50600436106100885760003560e01c8063aed3546b1161005b578063aed3546b14610123578063afdb49fc14610138578063f958538f1461014b578063fc0c546a1461015e57600080fd5b8063039af9eb1461008d57806310fe9ae8146100ba57806337fbdb12146100df578063700cc06214610110575b600080fd5b6100a061009b366004610648565b610171565b604080519283526020830191909152015b60405180910390f35b6001546001600160a01b03165b6040516001600160a01b0390911681526020016100b1565b6101026100ed366004610648565b60009081526020819052604090206001015490565b6040519081526020016100b1565b61010261011e366004610661565b61019f565b610136610131366004610699565b6101c7565b005b6101366101463660046106bb565b610402565b610136610159366004610699565b6104ce565b6001546100c7906001600160a01b031681565b6002818154811061018157600080fd5b60009182526020909120600290910201805460019091015490915082565b6000818152602081815260408083206001600160a01b03861684529091529020545b92915050565b60008111801561024157506001546040516370a0823160e01b815233600482015282916001600160a01b0316906370a0823190602401602060405180830381865afa15801561021a573d6000803e3d6000fd5b505050506040513d601f19601f8201168201806040525081019061023e9190610730565b10155b6102925760405162461bcd60e51b815260206004820152601d60248201527f6e6f7420656e6f7567682065726332302062616c616e63652068656c6400000060448201526064015b60405180910390fd5b6001546040516323b872dd60e01b8152336004820152306024820152604481018390526001600160a01b03909116906323b872dd906064016020604051808303816000875af11580156102e9573d6000803e3d6000fd5b505050506040513d601f19601f8201168201806040525081019061030d9190610749565b506000828152602081815260408083203384529091529020546103309082610545565b60008381526020818152604080832033845280835290832093909355848252526001015461035e9082610545565b60008381526020819052604081206001019190915582905b6040805184815242602082015233917fceb8bf0447f950cba238d8625d9b9ffa4511d62a0bda70ddcbbfd92ebe84e216910160405180910390a460008281526020818152604091829020600101548251908152429181019190915283917fe2c5373cce601c06f5dba3359950780f4af385925b22bf61f04c1eb60850e797910160405180910390a25050565b60005b818110156104c95760008060008585858181106104245761042461076b565b6020908102929092013583525081810192909252604090810160009081203382529092529020549050806104945760405162461bcd60e51b81526020600482015260176024820152761b9bc8195c98cc8c0818985b185b98d9481b1bd8dad959604a1b6044820152606401610289565b6104b68484848181106104a9576104a961076b565b9050602002013582610558565b50806104c181610797565b915050610405565b505050565b60008281526020818152604080832033845290915290205480158015906104f55750818110155b61053b5760405162461bcd60e51b81526020600482015260176024820152761b9bc8195c98cc8c0818985b185b98d9481b1bd8dad959604a1b6044820152606401610289565b6104c98383610558565b600061055182846107b0565b9392505050565b60015460405163a9059cbb60e01b8152336004820152602481018390526001600160a01b039091169063a9059cbb906044016020604051808303816000875af11580156105a9573d6000803e3d6000fd5b505050506040513d601f19601f820116820180604052508101906105cd9190610749565b506000828152602081815260408083203384529091529020546105f0908261063c565b60008381526020818152604080832033845280835290832093909355848252526001015461061e908261063c565b60008381526020819052604090206001908101919091558290610376565b600061055182846107c3565b60006020828403121561065a57600080fd5b5035919050565b6000806040838503121561067457600080fd5b82356001600160a01b038116811461068b57600080fd5b946020939093013593505050565b600080604083850312156106ac57600080fd5b50508035926020909101359150565b600080602083850312156106ce57600080fd5b823567ffffffffffffffff808211156106e657600080fd5b818501915085601f8301126106fa57600080fd5b81358181111561070957600080fd5b8660208260051b850101111561071e57600080fd5b60209290920196919550909350505050565b60006020828403121561074257600080fd5b5051919050565b60006020828403121561075b57600080fd5b8151801515811461055157600080fd5b634e487b7160e01b600052603260045260246000fd5b634e487b7160e01b600052601160045260246000fd5b6000600182016107a9576107a9610781565b5060010190565b808201808211156101c1576101c1610781565b818103818111156101c1576101c161078156fea26469706673582212203d48bab9b2fd3e0283f6559479a721ef783f248ebf097e3f5bab7499ef3a258664736f6c63430008120033",
  "immutableReferences": {},
  "source": "pragma solidity ^0.8.18;\npragma experimental ABIEncoderV2;\n\n// openzeppelin imports\nimport \"@openzeppelin/contracts/utils/math/SafeMath.sol\";\nimport \"@openzeppelin/contracts/token/ERC20/ERC20.sol\";\n\n/// @title Upvoting / Downvoting Contract\ncontract Reward {\n  using SafeMath for uint256;\n\n  event ItemUpdated(uint256 indexed itemId, uint256 lockAmount, uint256 timestamp);\n\n  event ItemAction(address indexed user, LockAction indexed action, uint256 indexed itemId, uint256 lockAmount, uint256 timestamp);\n\n  enum LockAction {\n    lock,\n    unlock\n  }\n\n  struct Tier {\n    uint256 minAmount;\n    uint256 multiplier;\n  }\n\n  struct ItemLocks {\n    mapping(address => uint256) userLocks;\n    uint256 totalLocked;\n  }\n\n  mapping(uint256 => ItemLocks) items;\n\n\n  IERC20 public token;\n  Tier[] public tiers;\n\n\n  /// @dev protocol is immutable and has no ownership\n  constructor(IERC20 _token, uint256[] memory _minAmounts, uint256[] memory _multipliers) {\n    token = _token;\n\n    for (uint256 i=0; i < _minAmounts.length; i++){\n      tiers.push(Tier(_minAmounts[i], _multipliers[i]));\n    }\n  }\n\n  /// @dev allows user to lock tokens in an item\n  function lockItem(uint256 itemId, uint256 amount) external {\n    require(\n      amount > 0 && token.balanceOf(msg.sender) >= amount,\n      \"not enough erc20 balance held\"\n    );\n\n\n    token.transferFrom(msg.sender, address(this), amount);\n\n    items[itemId].userLocks[msg.sender] = items[itemId].userLocks[msg.sender].add(amount);\n    items[itemId].totalLocked = items[itemId].totalLocked.add(amount);\n\n    emit ItemAction(msg.sender, LockAction.lock, itemId, amount, block.timestamp);\n    emit ItemUpdated(itemId, items[itemId].totalLocked, block.timestamp);\n  }\n\n  /// @dev allows user to unlock tokens from an item\n  function unlockItem(uint256 itemId, uint256 amount) external {\n    uint256 amountLocked = items[itemId].userLocks[msg.sender];\n\n    require(\n      amountLocked > 0 && amountLocked >= amount,\n      \"no erc20 balance locked\"\n    );\n\n    _unlockItem(itemId, amount);\n  }\n\n  /// @dev allows user to unlock multiple items\n  function unlockMultipleItems(uint256[] calldata itemIds) external {\n    for (uint256 i = 0; i < itemIds.length; i++) {\n      uint256 amountLocked = items[itemIds[i]].userLocks[msg.sender];\n\n      require(\n        amountLocked > 0,\n        \"no erc20 balance locked\"\n      );\n\n      _unlockItem(itemIds[i], amountLocked);\n    }\n  }\n\n  function _unlockItem(uint256 itemId, uint256 amount) internal {\n    token.transfer(msg.sender, amount);\n\n    items[itemId].userLocks[msg.sender] = items[itemId].userLocks[msg.sender].sub(amount);\n    items[itemId].totalLocked = items[itemId].totalLocked.sub(amount);\n\n    emit ItemAction(msg.sender, LockAction.unlock, itemId, amount, block.timestamp);\n    emit ItemUpdated(itemId, items[itemId].totalLocked, block.timestamp);\n  }\n\n  /// @dev Returns the total amont locked for an item\n  function getItemLockedAmount(uint256 itemId) external view returns (uint256) {\n    ItemLocks storage item = items[itemId];\n\n    return item.totalLocked;\n  }\n\n  /// @dev Returns the amount the user has locked for an item\n  function amountUserLockedItem(address user, uint256 itemId) external view returns (uint256) {\n    ItemLocks storage item = items[itemId];\n\n    return item.userLocks[user];\n  }\n\n  /// @dev Returns the ERC20 token address\n  function getTokenAddress() external view returns (address) {\n    return address(token);\n  }\n}\n",
  "sourcePath": "/Users/andregoncalves/sideprojects/polkamarkets/polkamarkets-js/contracts/Reward.sol",
  "compiler": {
    "name": "solc",
    "version": "0.8.18+commit.87f61d96.Emscripten.clang"
  },
  "schemaVersion": "3.4.14",
  "updatedAt": "2023-06-30T14:53:37.723Z",
  "networkType": "ethereum",
  "devdoc": {
    "kind": "dev",
    "methods": {
      "amountUserLockedItem(address,uint256)": {
        "details": "Returns the amount the user has locked for an item"
      },
      "constructor": {
        "details": "protocol is immutable and has no ownership"
      },
      "getItemLockedAmount(uint256)": {
        "details": "Returns the total amont locked for an item"
      },
      "getTokenAddress()": {
        "details": "Returns the ERC20 token address"
      },
      "lockItem(uint256,uint256)": {
        "details": "allows user to lock tokens in an item"
      },
      "unlockItem(uint256,uint256)": {
        "details": "allows user to unlock tokens from an item"
      },
      "unlockMultipleItems(uint256[])": {
        "details": "allows user to unlock multiple items"
      }
    },
    "title": "Upvoting / Downvoting Contract",
    "version": 1
  },
  "userdoc": {
    "kind": "user",
    "methods": {},
    "version": 1
  }
}