{
  "contractName": "Voting",
  "abi": [
    {
      "inputs": [
        {
          "internalType": "contract IERC20",
          "name": "_token",
          "type": "address"
        },
        {
          "internalType": "uint256",
          "name": "_requiredBalance",
          "type": "uint256"
        }
      ],
      "stateMutability": "nonpayable",
      "type": "constructor"
    },
    {
      "anonymous": false,
      "inputs": [
        {
          "indexed": true,
          "internalType": "address",
          "name": "user",
          "type": "address"
        },
        {
          "indexed": true,
          "internalType": "enum Voting.VoteAction",
          "name": "action",
          "type": "uint8"
        },
        {
          "indexed": true,
          "internalType": "uint256",
          "name": "itemId",
          "type": "uint256"
        },
        {
          "indexed": false,
          "internalType": "uint256",
          "name": "timestamp",
          "type": "uint256"
        }
      ],
      "name": "ItemVoteAction",
      "type": "event"
    },
    {
      "anonymous": false,
      "inputs": [
        {
          "indexed": true,
          "internalType": "uint256",
          "name": "itemId",
          "type": "uint256"
        },
        {
          "indexed": false,
          "internalType": "uint256",
          "name": "upvotes",
          "type": "uint256"
        },
        {
          "indexed": false,
          "internalType": "uint256",
          "name": "downvotes",
          "type": "uint256"
        },
        {
          "indexed": false,
          "internalType": "uint256",
          "name": "timestamp",
          "type": "uint256"
        }
      ],
      "name": "ItemVotesUpdated",
      "type": "event"
    },
    {
      "inputs": [],
      "name": "requiredBalance",
      "outputs": [
        {
          "internalType": "uint256",
          "name": "",
          "type": "uint256"
        }
      ],
      "stateMutability": "view",
      "type": "function"
    },
    {
      "inputs": [],
      "name": "token",
      "outputs": [
        {
          "internalType": "contract IERC20",
          "name": "",
          "type": "address"
        }
      ],
      "stateMutability": "view",
      "type": "function"
    },
    {
      "inputs": [
        {
          "internalType": "uint256",
          "name": "itemId",
          "type": "uint256"
        }
      ],
      "name": "upvoteItem",
      "outputs": [],
      "stateMutability": "nonpayable",
      "type": "function"
    },
    {
      "inputs": [
        {
          "internalType": "uint256",
          "name": "itemId",
          "type": "uint256"
        }
      ],
      "name": "downvoteItem",
      "outputs": [],
      "stateMutability": "nonpayable",
      "type": "function"
    },
    {
      "inputs": [
        {
          "internalType": "uint256",
          "name": "itemId",
          "type": "uint256"
        }
      ],
      "name": "removeUpvoteItem",
      "outputs": [],
      "stateMutability": "nonpayable",
      "type": "function"
    },
    {
      "inputs": [
        {
          "internalType": "uint256",
          "name": "itemId",
          "type": "uint256"
        }
      ],
      "name": "removeDownvoteItem",
      "outputs": [],
      "stateMutability": "nonpayable",
      "type": "function"
    },
    {
      "inputs": [
        {
          "internalType": "uint256",
          "name": "itemId",
          "type": "uint256"
        }
      ],
      "name": "getItemVotes",
      "outputs": [
        {
          "internalType": "uint256",
          "name": "",
          "type": "uint256"
        },
        {
          "internalType": "uint256",
          "name": "",
          "type": "uint256"
        }
      ],
      "stateMutability": "view",
      "type": "function"
    },
    {
      "inputs": [
        {
          "internalType": "address",
          "name": "user",
          "type": "address"
        },
        {
          "internalType": "uint256",
          "name": "itemId",
          "type": "uint256"
        }
      ],
      "name": "hasUserVotedItem",
      "outputs": [
        {
          "internalType": "bool",
          "name": "",
          "type": "bool"
        },
        {
          "internalType": "bool",
          "name": "",
          "type": "bool"
        }
      ],
      "stateMutability": "view",
      "type": "function"
    }
  ],
  "bytecode": "0x608060405234801561001057600080fd5b50604051610b58380380610b5883398101604081905261002f91610058565b600180546001600160a01b0319166001600160a01b039390931692909217909155600255610092565b6000806040838503121561006b57600080fd5b82516001600160a01b038116811461008257600080fd5b6020939093015192949293505050565b610ab7806100a16000396000f3fe608060405234801561001057600080fd5b50600436106100885760003560e01c80638ff84d181161005b5780638ff84d18146100e4578063a1d78c0214610143578063dd4e396714610156578063fc0c546a1461019657600080fd5b806308560ace1461008d578063229a4d38146100a95780635c674b33146100be57806361641b9c146100d1575b600080fd5b61009660025481565b6040519081526020015b60405180910390f35b6100bc6100b736600461097b565b6101c1565b005b6100bc6100cc36600461097b565b610265565b6100bc6100df36600461097b565b6102fd565b61012c6100f2366004610994565b6000908152602081815260408083206001600160a01b0394909416835283825280832054600190940190915290205460ff91821692911690565b6040805192151583529015156020830152016100a0565b6100bc61015136600461097b565b610395565b61018161016436600461097b565b600090815260208190526040902060028101546003909101549091565b604080519283526020830191909152016100a0565b6001546101a9906001600160a01b031681565b6040516001600160a01b0390911681526020016100a0565b6002546001546040516370a0823160e01b81523360048201526001600160a01b03909116906370a0823190602401602060405180830381865afa15801561020c573d6000803e3d6000fd5b505050506040513d601f19601f8201168201806040525081019061023091906109cc565b10156102575760405162461bcd60e51b815260040161024e906109e5565b60405180910390fd5b61026281600061042d565b50565b6002546001546040516370a0823160e01b81523360048201526001600160a01b03909116906370a0823190602401602060405180830381865afa1580156102b0573d6000803e3d6000fd5b505050506040513d601f19601f820116820180604052508101906102d491906109cc565b10156102f25760405162461bcd60e51b815260040161024e906109e5565b61026281600361070d565b6002546001546040516370a0823160e01b81523360048201526001600160a01b03909116906370a0823190602401602060405180830381865afa158015610348573d6000803e3d6000fd5b505050506040513d601f19601f8201168201806040525081019061036c91906109cc565b101561038a5760405162461bcd60e51b815260040161024e906109e5565b61026281600261042d565b6002546001546040516370a0823160e01b81523360048201526001600160a01b03909116906370a0823190602401602060405180830381865afa1580156103e0573d6000803e3d6000fd5b505050506040513d601f19601f8201168201806040525081019061040491906109cc565b10156104225760405162461bcd60e51b815260040161024e906109e5565b61026281600161070d565b600081600381111561044157610441610a2f565b148061045e5750600281600381111561045c5761045c610a2f565b145b6104c45760405162461bcd60e51b815260206004820152603160248201527f46756e6374696f6e20706172616d657465722068617320746f206265207570766044820152701bdd1959081bdc88191bdddb9d9bdd1959607a1b606482015260840161024e565b600082815260208190526040812090808360038111156104e6576104e6610a2f565b146104f457816001016104f6565b815b905060008084600381111561050d5761050d610a2f565b14610518578261051d565b826001015b3360009081526020849052604090205490915060ff16801561058d5760405162461bcd60e51b8152602060048201526024808201527f557365722068617320616c7265616479206120766f7465206f6e2074686973206044820152636974656d60e01b606482015260840161024e565b3360009081526020839052604090205460ff1680156105f55760008660038111156105ba576105ba610a2f565b146105db5760028501546105cf90600161095a565b856002018190556105f3565b60038501546105eb90600161095a565b856003018190555b505b600086600381111561060957610609610a2f565b1461062a57600385015461061e90600161096f565b85600301819055610642565b600285015461063a90600161096f565b856002018190555b5033600090815260208581526040808320805460ff1990811660011790915591869052909120805490911690558686600381111561068257610682610a2f565b60405142815233907fa2729191d3d43dadea9138477a0b8a336c96a26108361f706a00de867034c1db9060200160405180910390a460028501546003860154604080519283526020830191909152429082015287907ffeac3f5efe9271717007c9fe19e216ac66326c20488b228dba241f9c8f84f0609060600160405180910390a250505050505050565b600181600381111561072157610721610a2f565b148061073e5750600381600381111561073c5761073c610a2f565b145b6107b05760405162461bcd60e51b815260206004820152603d60248201527f46756e6374696f6e20706172616d657465722068617320746f2062652072656d60448201527f6f76655570766f746564206f722072656d6f7665446f776e766f746564000000606482015260840161024e565b60008281526020819052604081209060018360038111156107d3576107d3610a2f565b146107e157816001016107e3565b815b3360009081526020829052604090205490915060ff168015156001146108595760405162461bcd60e51b815260206004820152602560248201527f5573657220646f65736e27742068617665206120766f7465206f6e2074686973604482015264206974656d60d81b606482015260840161024e565b600184600381111561086d5761086d610a2f565b1461088e57600383015461088290600161095a565b836003018190556108a6565b600283015461089e90600161095a565b836002018190555b50336000908152602083905260409020805460ff19169055848460038111156108d1576108d1610a2f565b60405142815233907fa2729191d3d43dadea9138477a0b8a336c96a26108361f706a00de867034c1db9060200160405180910390a460028301546003840154604080519283526020830191909152429082015285907ffeac3f5efe9271717007c9fe19e216ac66326c20488b228dba241f9c8f84f0609060600160405180910390a25050505050565b60006109668284610a5b565b90505b92915050565b60006109668284610a6e565b60006020828403121561098d57600080fd5b5035919050565b600080604083850312156109a757600080fd5b82356001600160a01b03811681146109be57600080fd5b946020939093013593505050565b6000602082840312156109de57600080fd5b5051919050565b6020808252602a908201527f6d73672e73656e646572206d75737420686f6c64206d696e696d756d2065726360408201526932302062616c616e636560b01b606082015260800190565b634e487b7160e01b600052602160045260246000fd5b634e487b7160e01b600052601160045260246000fd5b8181038181111561096957610969610a45565b8082018082111561096957610969610a4556fea264697066735822122024a8e01702ebcdc961ebac3dc1a29c389065b214498362ef7b6f2a3f18948f4664736f6c63430008120033",
  "immutableReferences": {},
  "source": "// SPDX-License-Identifier: MIT\npragma solidity ^0.8.18;\npragma experimental ABIEncoderV2;\n\n// openzeppelin imports\nimport \"@openzeppelin/contracts/utils/math/SafeMath.sol\";\nimport \"@openzeppelin/contracts/token/ERC20/ERC20.sol\";\n\n/// @title Upvoting / Downvoting Contract\ncontract Voting {\n  using SafeMath for uint256;\n\n  event ItemVotesUpdated(uint256 indexed itemId, uint256 upvotes, uint256 downvotes, uint256 timestamp);\n\n  event ItemVoteAction(address indexed user, VoteAction indexed action, uint256 indexed itemId, uint256 timestamp);\n\n  enum VoteAction {\n    upvote,\n    removeUpvote,\n    downvote,\n    removeDownvote\n  }\n\n  struct ItemVotes {\n    mapping(address => bool) usersUpvoted;\n    mapping(address => bool) usersDownvoted;\n    uint256 upvotes;\n    uint256 downvotes;\n  }\n\n  mapping(uint256 => ItemVotes) items;\n\n  IERC20 public token;\n  uint256 public requiredBalance; // required balance for voting\n\n  // ------ Modifiers ------\n\n  modifier mustHoldRequiredBalance() {\n    require(token.balanceOf(msg.sender) >= requiredBalance, \"msg.sender must hold minimum erc20 balance\");\n    _;\n  }\n\n  // ------ Modifiers End ------\n\n  /// @dev protocol is immutable and has no ownership\n  constructor(IERC20 _token, uint256 _requiredBalance) {\n    token = _token;\n    requiredBalance = _requiredBalance;\n  }\n\n  /// @dev allows user to upvote an item\n  function upvoteItem(uint256 itemId) external mustHoldRequiredBalance {\n    voteItem(itemId, VoteAction.upvote);\n  }\n\n  /// @dev allows user to downvote an item\n  function downvoteItem(uint256 itemId) external mustHoldRequiredBalance {\n    voteItem(itemId, VoteAction.downvote);\n  }\n\n  /// @dev logic of upvoting/downvoting an item\n  function voteItem(uint256 itemId, VoteAction action) private {\n    require(\n      action == VoteAction.upvote || action == VoteAction.downvote,\n      \"Function parameter has to be upvoted or downvoted\"\n    );\n\n    ItemVotes storage item = items[itemId];\n\n    mapping(address => bool) storage listToAddVote = action == VoteAction.upvote\n      ? item.usersUpvoted\n      : item.usersDownvoted;\n    mapping(address => bool) storage listToRemoveVote = action == VoteAction.upvote\n      ? item.usersDownvoted\n      : item.usersUpvoted;\n\n    // check if user has not already voted on the selected direction\n    bool hasUserVotedSelectedDirection = listToAddVote[msg.sender];\n\n    require(hasUserVotedSelectedDirection == false, \"User has already a vote on this item\");\n\n    // check if user has already downvoted\n    bool hasUserVotedOtherDirection = listToRemoveVote[msg.sender];\n\n    // remove from total downvoted if needed\n    if (hasUserVotedOtherDirection) {\n      action == VoteAction.upvote ? item.downvotes = item.downvotes.sub(1) : item.upvotes = item.upvotes.sub(1);\n    }\n\n    // add the vote\n    action == VoteAction.upvote ? item.upvotes = item.upvotes.add(1) : item.downvotes = item.downvotes.add(1);\n    listToAddVote[msg.sender] = true;\n    listToRemoveVote[msg.sender] = false;\n\n    // emit events\n    emit ItemVoteAction(msg.sender, action, itemId, block.timestamp);\n\n    emit ItemVotesUpdated(itemId, item.upvotes, item.downvotes, block.timestamp);\n  }\n\n  /// @dev allows user to remove an upvote from an item\n  function removeUpvoteItem(uint256 itemId) external mustHoldRequiredBalance {\n    removeVoteItem(itemId, VoteAction.removeUpvote);\n  }\n\n  /// @dev allows user to remove a downvote from an item\n  function removeDownvoteItem(uint256 itemId) external mustHoldRequiredBalance {\n    removeVoteItem(itemId, VoteAction.removeDownvote);\n  }\n\n  /// @dev logic of removing an upvote/downvote from an item\n  function removeVoteItem(uint256 itemId, VoteAction action) private {\n    require(\n      action == VoteAction.removeUpvote || action == VoteAction.removeDownvote,\n      \"Function parameter has to be removeUpvoted or removeDownvoted\"\n    );\n\n    // get item votes\n    ItemVotes storage item = items[itemId];\n\n    mapping(address => bool) storage listToRemoveVote = action == VoteAction.removeUpvote\n      ? item.usersUpvoted\n      : item.usersDownvoted;\n\n    // check if user has voted item\n    bool hasUserVoted = listToRemoveVote[msg.sender];\n\n    require(hasUserVoted == true, \"User doesn't have a vote on this item\");\n\n    // remove the vote\n    action == VoteAction.removeUpvote ? item.upvotes = item.upvotes.sub(1) : item.downvotes = item.downvotes.sub(1);\n    listToRemoveVote[msg.sender] = false;\n\n    // emit events\n    emit ItemVoteAction(msg.sender, action, itemId, block.timestamp);\n\n    emit ItemVotesUpdated(itemId, item.upvotes, item.downvotes, block.timestamp);\n  }\n\n  /// @dev Returns the number of upvotes/downvotes of an item\n  function getItemVotes(uint256 itemId) external view returns (uint256, uint256) {\n    ItemVotes storage item = items[itemId];\n\n    return (item.upvotes, item.downvotes);\n  }\n\n  /// @dev Returns info if the user has a upvote or a downvote in an item\n  function hasUserVotedItem(address user, uint256 itemId) external view returns (bool, bool) {\n    ItemVotes storage item = items[itemId];\n\n    return (item.usersUpvoted[user], item.usersDownvoted[user]);\n  }\n}\n",
  "sourcePath": "/home/arok/dev/polkamarkets-js/contracts/Voting.sol",
  "compiler": {
    "name": "solc",
    "version": "0.8.18+commit.87f61d96.Emscripten.clang"
  },
  "schemaVersion": "3.4.16",
  "updatedAt": "2025-05-27T08:31:55.326Z",
  "devdoc": {
    "kind": "dev",
    "methods": {
      "constructor": {
        "details": "protocol is immutable and has no ownership"
      },
      "downvoteItem(uint256)": {
        "details": "allows user to downvote an item"
      },
      "getItemVotes(uint256)": {
        "details": "Returns the number of upvotes/downvotes of an item"
      },
      "hasUserVotedItem(address,uint256)": {
        "details": "Returns info if the user has a upvote or a downvote in an item"
      },
      "removeDownvoteItem(uint256)": {
        "details": "allows user to remove a downvote from an item"
      },
      "removeUpvoteItem(uint256)": {
        "details": "allows user to remove an upvote from an item"
      },
      "upvoteItem(uint256)": {
        "details": "allows user to upvote an item"
      }
    },
    "title": "Upvoting / Downvoting Contract",
    "version": 1
  },
  "userdoc": {
    "kind": "user",
    "methods": {},
    "version": 1
  }
}