{
  "contractName": "Voting",
  "abi": [
    {
      "inputs": [
        {
          "internalType": "contract IERC20",
          "name": "_token",
          "type": "address"
        },
        {
          "internalType": "uint256",
          "name": "_requiredBalance",
          "type": "uint256"
        }
      ],
      "stateMutability": "nonpayable",
      "type": "constructor"
    },
    {
      "anonymous": false,
      "inputs": [
        {
          "indexed": true,
          "internalType": "address",
          "name": "user",
          "type": "address"
        },
        {
          "indexed": true,
          "internalType": "enum Voting.VoteAction",
          "name": "action",
          "type": "uint8"
        },
        {
          "indexed": true,
          "internalType": "uint256",
          "name": "itemId",
          "type": "uint256"
        },
        {
          "indexed": false,
          "internalType": "uint256",
          "name": "timestamp",
          "type": "uint256"
        }
      ],
      "name": "ItemVoteAction",
      "type": "event"
    },
    {
      "anonymous": false,
      "inputs": [
        {
          "indexed": true,
          "internalType": "uint256",
          "name": "itemId",
          "type": "uint256"
        },
        {
          "indexed": false,
          "internalType": "uint256",
          "name": "upvotes",
          "type": "uint256"
        },
        {
          "indexed": false,
          "internalType": "uint256",
          "name": "downvotes",
          "type": "uint256"
        },
        {
          "indexed": false,
          "internalType": "uint256",
          "name": "timestamp",
          "type": "uint256"
        }
      ],
      "name": "ItemVotesUpdated",
      "type": "event"
    },
    {
      "inputs": [],
      "name": "requiredBalance",
      "outputs": [
        {
          "internalType": "uint256",
          "name": "",
          "type": "uint256"
        }
      ],
      "stateMutability": "view",
      "type": "function"
    },
    {
      "inputs": [],
      "name": "token",
      "outputs": [
        {
          "internalType": "contract IERC20",
          "name": "",
          "type": "address"
        }
      ],
      "stateMutability": "view",
      "type": "function"
    },
    {
      "inputs": [
        {
          "internalType": "uint256",
          "name": "itemId",
          "type": "uint256"
        }
      ],
      "name": "upvoteItem",
      "outputs": [],
      "stateMutability": "nonpayable",
      "type": "function"
    },
    {
      "inputs": [
        {
          "internalType": "uint256",
          "name": "itemId",
          "type": "uint256"
        }
      ],
      "name": "downvoteItem",
      "outputs": [],
      "stateMutability": "nonpayable",
      "type": "function"
    },
    {
      "inputs": [
        {
          "internalType": "uint256",
          "name": "itemId",
          "type": "uint256"
        }
      ],
      "name": "removeUpvoteItem",
      "outputs": [],
      "stateMutability": "nonpayable",
      "type": "function"
    },
    {
      "inputs": [
        {
          "internalType": "uint256",
          "name": "itemId",
          "type": "uint256"
        }
      ],
      "name": "removeDownvoteItem",
      "outputs": [],
      "stateMutability": "nonpayable",
      "type": "function"
    },
    {
      "inputs": [
        {
          "internalType": "uint256",
          "name": "itemId",
          "type": "uint256"
        }
      ],
      "name": "getItemVotes",
      "outputs": [
        {
          "internalType": "uint256",
          "name": "",
          "type": "uint256"
        },
        {
          "internalType": "uint256",
          "name": "",
          "type": "uint256"
        }
      ],
      "stateMutability": "view",
      "type": "function"
    },
    {
      "inputs": [
        {
          "internalType": "address",
          "name": "user",
          "type": "address"
        },
        {
          "internalType": "uint256",
          "name": "itemId",
          "type": "uint256"
        }
      ],
      "name": "hasUserVotedItem",
      "outputs": [
        {
          "internalType": "bool",
          "name": "",
          "type": "bool"
        },
        {
          "internalType": "bool",
          "name": "",
          "type": "bool"
        }
      ],
      "stateMutability": "view",
      "type": "function"
    }
  ],
  "bytecode": "0x608060405234801561001057600080fd5b50604051610c24380380610c2483398101604081905261002f91610058565b600180546001600160a01b0319166001600160a01b039390931692909217909155600255610090565b6000806040838503121561006a578182fd5b82516001600160a01b0381168114610080578283fd5b6020939093015192949293505050565b610b858061009f6000396000f3fe608060405234801561001057600080fd5b50600436106100785760003560e01c806308560ace1461007d578063229a4d381461009b5780635c674b33146100b057806361641b9c146100c35780638ff84d18146100d6578063a1d78c02146100f7578063dd4e39671461010a578063fc0c546a1461012b575b600080fd5b610085610140565b6040516100929190610ae2565b60405180910390f35b6100ae6100a936600461089f565b610146565b005b6100ae6100be36600461089f565b6101fe565b6100ae6100d136600461089f565b6102aa565b6100e96100e4366004610869565b610356565b6040516100929291906108e3565b6100ae61010536600461089f565b610390565b61011d61011836600461089f565b61043c565b604051610092929190610aeb565b610133610459565b60405161009291906108cf565b60025481565b6002546001546040516370a0823160e01b81526001600160a01b03909116906370a08231906101799033906004016108cf565b60206040518083038186803b15801561019157600080fd5b505afa1580156101a5573d6000803e3d6000fd5b505050506040513d601f19601f820116820180604052506101c991908101906108b7565b10156101f05760405162461bcd60e51b81526004016101e790610961565b60405180910390fd5b6101fb816000610468565b50565b6002546001546040516370a0823160e01b81526001600160a01b03909116906370a08231906102319033906004016108cf565b60206040518083038186803b15801561024957600080fd5b505afa15801561025d573d6000803e3d6000fd5b505050506040513d601f19601f8201168201806040525061028191908101906108b7565b101561029f5760405162461bcd60e51b81526004016101e790610961565b6101fb81600361068f565b6002546001546040516370a0823160e01b81526001600160a01b03909116906370a08231906102dd9033906004016108cf565b60206040518083038186803b1580156102f557600080fd5b505afa158015610309573d6000803e3d6000fd5b505050506040513d601f19601f8201168201806040525061032d91908101906108b7565b101561034b5760405162461bcd60e51b81526004016101e790610961565b6101fb816002610468565b6000908152602081815260408083206001600160a01b0394909416835283825280832054600190940190915290205460ff91821692911690565b6002546001546040516370a0823160e01b81526001600160a01b03909116906370a08231906103c39033906004016108cf565b60206040518083038186803b1580156103db57600080fd5b505afa1580156103ef573d6000803e3d6000fd5b505050506040513d601f19601f8201168201806040525061041391908101906108b7565b10156104315760405162461bcd60e51b81526004016101e790610961565b6101fb81600161068f565b600090815260208190526040902060028101546003909101549091565b6001546001600160a01b031681565b600081600381111561047657fe5b148061048d5750600281600381111561048b57fe5b145b6104a95760405162461bcd60e51b81526004016101e7906109ab565b600082815260208190526040812090808360038111156104c557fe5b146104d357816001016104d5565b815b90506000808460038111156104e657fe5b146104f157826104f6565b826001015b3360009081526020849052604090205490915060ff16801561052a5760405162461bcd60e51b81526004016101e7906109fc565b3360009081526020839052604090205460ff16801561059857600086600381111561055157fe5b1461057857600285015461056c90600163ffffffff61081516565b85600201819055610596565b600385015461058e90600163ffffffff61081516565b856003018190555b505b60008660038111156105a657fe5b146105cd5760038501546105c190600163ffffffff61083d16565b856003018190556105eb565b60028501546105e390600163ffffffff61083d16565b856002018190555b5033600090815260208581526040808320805460ff1990811660011790915591869052909120805490911690558686600381111561062557fe5b336001600160a01b0316600080516020610b108339815191524260405161064c9190610ae2565b60405180910390a486600080516020610b30833981519152866002015487600301544260405161067e93929190610af9565b60405180910390a250505050505050565b600181600381111561069d57fe5b14806106b4575060038160038111156106b257fe5b145b6106d05760405162461bcd60e51b81526004016101e790610a40565b60008281526020819052604081209060018360038111156106ed57fe5b146106fb57816001016106fd565b815b3360009081526020829052604090205490915060ff168015156001146107355760405162461bcd60e51b81526004016101e790610a9d565b600184600381111561074357fe5b1461076a57600383015461075e90600163ffffffff61081516565b83600301819055610788565b600283015461078090600163ffffffff61081516565b836002018190555b50336000908152602083905260409020805460ff19169055848460038111156107ad57fe5b336001600160a01b0316600080516020610b10833981519152426040516107d49190610ae2565b60405180910390a484600080516020610b30833981519152846002015485600301544260405161080693929190610af9565b60405180910390a25050505050565b6000828211156108375760405162461bcd60e51b81526004016101e79061092a565b50900390565b6000828201838110156108625760405162461bcd60e51b81526004016101e7906108f5565b9392505050565b6000806040838503121561087b578182fd5b82356001600160a01b0381168114610891578283fd5b946020939093013593505050565b6000602082840312156108b0578081fd5b5035919050565b6000602082840312156108c8578081fd5b5051919050565b6001600160a01b0391909116815260200190565b91151582521515602082015260400190565b6020808252601b908201527a536166654d6174683a206164646974696f6e206f766572666c6f7760281b604082015260600190565b6020808252601e908201527f536166654d6174683a207375627472616374696f6e206f766572666c6f770000604082015260600190565b6020808252602a908201527f6d73672e73656e646572206d75737420686f6c64206d696e696d756d2065726360408201526932302062616c616e636560b01b606082015260800190565b60208082526031908201527f46756e6374696f6e20706172616d657465722068617320746f206265207570766040820152701bdd1959081bdc88191bdddb9d9bdd1959607a1b606082015260800190565b60208082526024908201527f557365722068617320616c7265616479206120766f7465206f6e2074686973206040820152636974656d60e01b606082015260800190565b6020808252603d908201527f46756e6374696f6e20706172616d657465722068617320746f2062652072656d60408201527f6f76655570766f746564206f722072656d6f7665446f776e766f746564000000606082015260800190565b60208082526025908201527f5573657220646f65736e27742068617665206120766f7465206f6e2074686973604082015264206974656d60d81b606082015260800190565b90815260200190565b918252602082015260400190565b928352602083019190915260408201526060019056fea2729191d3d43dadea9138477a0b8a336c96a26108361f706a00de867034c1dbfeac3f5efe9271717007c9fe19e216ac66326c20488b228dba241f9c8f84f060a2646970667358221220c722d09a6c95fb8cd922a5b23a51bd9f3e473adb1896aea3fba571b2c13ea7de64736f6c63430006020033",
  "source": "pragma solidity ^0.6.0;\npragma experimental ABIEncoderV2;\n\n\n// openzeppelin imports\nimport \"@openzeppelin/contracts/math/SafeMath.sol\";\nimport \"@openzeppelin/contracts/token/ERC20/ERC20.sol\";\n\n\n/// @title Upvoting / Downvoting Contract\ncontract Voting {\n  using SafeMath for uint256;\n\n  event ItemVotesUpdated(\n    uint256 indexed itemId,\n    uint256 upvotes,\n    uint256 downvotes,\n    uint256 timestamp\n  );\n\n  event ItemVoteAction(\n    address indexed user,\n    VoteAction indexed action,\n    uint256 indexed itemId,\n    uint256 timestamp\n  );\n\n  enum VoteAction {\n    upvote,\n    removeUpvote,\n    downvote,\n    removeDownvote\n  }\n\n  struct ItemVotes {\n    mapping(address => bool) usersUpvoted;\n    mapping(address => bool) usersDownvoted;\n    uint256 upvotes;\n    uint256 downvotes;\n  }\n\n  mapping(uint256 => ItemVotes) items;\n\n  IERC20 public token;\n  uint256 public requiredBalance; // required balance for voting\n\n  // ------ Modifiers ------\n\n  modifier mustHoldRequiredBalance() {\n    require(token.balanceOf(msg.sender) >= requiredBalance, \"msg.sender must hold minimum erc20 balance\");\n    _;\n  }\n\n  // ------ Modifiers End ------\n\n  /// @dev protocol is immutable and has no ownership\n  constructor(\n    IERC20 _token,\n    uint256 _requiredBalance\n  ) public {\n    token = _token;\n    requiredBalance = _requiredBalance;\n  }\n\n  /// @dev allows user to upvote an item\n  function upvoteItem(uint256 itemId) mustHoldRequiredBalance external {\n    voteItem(itemId, VoteAction.upvote);\n  }\n\n  /// @dev allows user to downvote an item\n  function downvoteItem(uint256 itemId) mustHoldRequiredBalance external {\n    voteItem(itemId, VoteAction.downvote);\n  }\n\n  /// @dev logic of upvoting/downvoting an item\n  function voteItem(uint256 itemId, VoteAction action) private {\n    require(action == VoteAction.upvote || action == VoteAction.downvote, \"Function parameter has to be upvoted or downvoted\");\n\n    ItemVotes storage item = items[itemId];\n\n    mapping(address => bool) storage listToAddVote = action == VoteAction.upvote ? item.usersUpvoted : item.usersDownvoted;\n    mapping(address => bool) storage listToRemoveVote = action == VoteAction.upvote ? item.usersDownvoted : item.usersUpvoted;\n\n    // check if user has not already voted on the selected direction\n    bool hasUserVotedSelectedDirection = listToAddVote[msg.sender];\n\n    require(hasUserVotedSelectedDirection == false, \"User has already a vote on this item\");\n\n    // check if user has already downvoted\n    bool hasUserVotedOtherDirection = listToRemoveVote[msg.sender];\n\n    // remove from total downvoted if needed\n    if (hasUserVotedOtherDirection) {\n      action == VoteAction.upvote ? item.downvotes = item.downvotes.sub(1) : item.upvotes = item.upvotes.sub(1);\n    }\n\n    // add the vote\n    action == VoteAction.upvote ? item.upvotes = item.upvotes.add(1) : item.downvotes = item.downvotes.add(1);\n    listToAddVote[msg.sender] = true;\n    listToRemoveVote[msg.sender] = false;\n\n    // emit events\n    emit ItemVoteAction(msg.sender, action, itemId, now);\n\n    emit ItemVotesUpdated(itemId, item.upvotes, item.downvotes, now);\n\n  }\n\n  /// @dev allows user to remove an upvote from an item\n  function removeUpvoteItem(uint256 itemId) mustHoldRequiredBalance external {\n    removeVoteItem(itemId, VoteAction.removeUpvote);\n  }\n\n  /// @dev allows user to remove a downvote from an item\n  function removeDownvoteItem(uint256 itemId) mustHoldRequiredBalance external {\n    removeVoteItem(itemId, VoteAction.removeDownvote);\n  }\n\n  /// @dev logic of removing an upvote/downvote from an item\n  function removeVoteItem(uint256 itemId, VoteAction action) private {\n    require(action == VoteAction.removeUpvote || action == VoteAction.removeDownvote, \"Function parameter has to be removeUpvoted or removeDownvoted\");\n\n    // get item votes\n    ItemVotes storage item = items[itemId];\n\n    mapping(address => bool) storage listToRemoveVote = action == VoteAction.removeUpvote ? item.usersUpvoted : item.usersDownvoted;\n\n    // check if user has voted item\n    bool hasUserVoted = listToRemoveVote[msg.sender];\n\n    require(hasUserVoted == true, \"User doesn't have a vote on this item\");\n\n    // remove the vote\n    action == VoteAction.removeUpvote ? item.upvotes = item.upvotes.sub(1) : item.downvotes = item.downvotes.sub(1);\n    listToRemoveVote[msg.sender] = false;\n\n    // emit events\n    emit ItemVoteAction(msg.sender, action, itemId, now);\n\n    emit ItemVotesUpdated(itemId, item.upvotes, item.downvotes, now);\n  }\n\n  /// @dev Returns the number of upvotes/downvotes of an item\n  function getItemVotes(uint256 itemId) external view returns (uint256, uint256) {\n    ItemVotes storage item = items[itemId];\n\n    return (item.upvotes, item.downvotes);\n  }\n\n  /// @dev Returns info if the user has a upvote or a downvote in an item\n  function hasUserVotedItem(address user, uint256 itemId) external view returns (bool, bool) {\n    ItemVotes storage item = items[itemId];\n\n    return (item.usersUpvoted[user], item.usersDownvoted[user]);\n  }\n\n}\n",
  "sourcePath": "/Users/andregoncalves/sideprojects/polkamarkets/polkamarkets-js/contracts/Voting.sol",
  "compiler": {
    "name": "solc",
    "version": "0.6.2+commit.bacdbe57.Emscripten.clang"
  },
  "schemaVersion": "3.4.10",
  "updatedAt": "2022-10-10T16:37:58.873Z",
  "devdoc": {
    "methods": {
      "constructor": {
        "details": "protocol is immutable and has no ownership"
      },
      "downvoteItem(uint256)": {
        "details": "allows user to downvote an item"
      },
      "getItemVotes(uint256)": {
        "details": "Returns the number of upvotes/downvotes of an item"
      },
      "hasUserVotedItem(address,uint256)": {
        "details": "Returns info if the user has a upvote or a downvote in an item"
      },
      "removeDownvoteItem(uint256)": {
        "details": "allows user to remove a downvote from an item"
      },
      "removeUpvoteItem(uint256)": {
        "details": "allows user to remove an upvote from an item"
      },
      "upvoteItem(uint256)": {
        "details": "allows user to upvote an item"
      }
    },
    "title": "Upvoting / Downvoting Contract"
  },
  "userdoc": {
    "methods": {}
  }
}